{
  "_format": "hh-sol-artifact-1",
  "contractName": "Manager",
  "sourceName": "contracts/SotaMarketV2.sol",
  "abi": [
    {
      "inputs": [
        {
          "internalType": "address",
          "name": "_oldMarket",
          "type": "address"
        }
      ],
      "stateMutability": "nonpayable",
      "type": "constructor"
    },
    {
      "anonymous": false,
      "inputs": [
        {
          "indexed": true,
          "internalType": "address",
          "name": "previousOwner",
          "type": "address"
        },
        {
          "indexed": true,
          "internalType": "address",
          "name": "newOwner",
          "type": "address"
        }
      ],
      "name": "OwnershipTransferred",
      "type": "event"
    },
    {
      "anonymous": false,
      "inputs": [
        {
          "indexed": false,
          "internalType": "address",
          "name": "account",
          "type": "address"
        }
      ],
      "name": "Paused",
      "type": "event"
    },
    {
      "anonymous": false,
      "inputs": [
        {
          "indexed": false,
          "internalType": "address",
          "name": "account",
          "type": "address"
        }
      ],
      "name": "Unpaused",
      "type": "event"
    },
    {
      "inputs": [],
      "name": "WBNB",
      "outputs": [
        {
          "internalType": "address",
          "name": "",
          "type": "address"
        }
      ],
      "stateMutability": "view",
      "type": "function"
    },
    {
      "inputs": [
        {
          "internalType": "address",
          "name": "_sotaNFT",
          "type": "address"
        },
        {
          "internalType": "bool",
          "name": "_isSOTANFT",
          "type": "bool"
        },
        {
          "internalType": "bool",
          "name": "_isFarming",
          "type": "bool"
        }
      ],
      "name": "addSOTANFTs",
      "outputs": [
        {
          "internalType": "bool",
          "name": "",
          "type": "bool"
        }
      ],
      "stateMutability": "nonpayable",
      "type": "function"
    },
    {
      "inputs": [],
      "name": "discountForBuyer",
      "outputs": [
        {
          "internalType": "uint256",
          "name": "",
          "type": "uint256"
        }
      ],
      "stateMutability": "view",
      "type": "function"
    },
    {
      "inputs": [],
      "name": "discountForSota",
      "outputs": [
        {
          "internalType": "uint256",
          "name": "",
          "type": "uint256"
        }
      ],
      "stateMutability": "view",
      "type": "function"
    },
    {
      "inputs": [
        {
          "internalType": "address",
          "name": "",
          "type": "address"
        }
      ],
      "name": "isFarmingNFTs",
      "outputs": [
        {
          "internalType": "bool",
          "name": "",
          "type": "bool"
        }
      ],
      "stateMutability": "view",
      "type": "function"
    },
    {
      "inputs": [
        {
          "internalType": "address",
          "name": "",
          "type": "address"
        }
      ],
      "name": "isOperator",
      "outputs": [
        {
          "internalType": "bool",
          "name": "",
          "type": "bool"
        }
      ],
      "stateMutability": "view",
      "type": "function"
    },
    {
      "inputs": [
        {
          "internalType": "address",
          "name": "",
          "type": "address"
        }
      ],
      "name": "isRetailer",
      "outputs": [
        {
          "internalType": "bool",
          "name": "",
          "type": "bool"
        }
      ],
      "stateMutability": "view",
      "type": "function"
    },
    {
      "inputs": [
        {
          "internalType": "address",
          "name": "",
          "type": "address"
        }
      ],
      "name": "isSOTANFTs",
      "outputs": [
        {
          "internalType": "bool",
          "name": "",
          "type": "bool"
        }
      ],
      "stateMutability": "view",
      "type": "function"
    },
    {
      "inputs": [],
      "name": "oldMarket",
      "outputs": [
        {
          "internalType": "address",
          "name": "",
          "type": "address"
        }
      ],
      "stateMutability": "view",
      "type": "function"
    },
    {
      "inputs": [],
      "name": "owner",
      "outputs": [
        {
          "internalType": "address",
          "name": "",
          "type": "address"
        }
      ],
      "stateMutability": "view",
      "type": "function"
    },
    {
      "inputs": [],
      "name": "pause",
      "outputs": [],
      "stateMutability": "nonpayable",
      "type": "function"
    },
    {
      "inputs": [],
      "name": "paused",
      "outputs": [
        {
          "internalType": "bool",
          "name": "",
          "type": "bool"
        }
      ],
      "stateMutability": "view",
      "type": "function"
    },
    {
      "inputs": [
        {
          "internalType": "address",
          "name": "",
          "type": "address"
        }
      ],
      "name": "paymentMethod",
      "outputs": [
        {
          "internalType": "bool",
          "name": "",
          "type": "bool"
        }
      ],
      "stateMutability": "view",
      "type": "function"
    },
    {
      "inputs": [],
      "name": "profitEstimatorContract",
      "outputs": [
        {
          "internalType": "address",
          "name": "",
          "type": "address"
        }
      ],
      "stateMutability": "view",
      "type": "function"
    },
    {
      "inputs": [],
      "name": "referralContract",
      "outputs": [
        {
          "internalType": "address",
          "name": "",
          "type": "address"
        }
      ],
      "stateMutability": "view",
      "type": "function"
    },
    {
      "inputs": [],
      "name": "renounceOwnership",
      "outputs": [],
      "stateMutability": "nonpayable",
      "type": "function"
    },
    {
      "inputs": [
        {
          "internalType": "address",
          "name": "_token",
          "type": "address"
        },
        {
          "internalType": "bool",
          "name": "_status",
          "type": "bool"
        }
      ],
      "name": "setPaymentMethod",
      "outputs": [
        {
          "internalType": "bool",
          "name": "",
          "type": "bool"
        }
      ],
      "stateMutability": "nonpayable",
      "type": "function"
    },
    {
      "inputs": [
        {
          "internalType": "address",
          "name": "_profitEstimatorContract",
          "type": "address"
        }
      ],
      "name": "setProfitSenderContract",
      "outputs": [
        {
          "internalType": "bool",
          "name": "",
          "type": "bool"
        }
      ],
      "stateMutability": "nonpayable",
      "type": "function"
    },
    {
      "inputs": [
        {
          "internalType": "address",
          "name": "_referralContract",
          "type": "address"
        }
      ],
      "name": "setReferralContract",
      "outputs": [
        {
          "internalType": "bool",
          "name": "",
          "type": "bool"
        }
      ],
      "stateMutability": "nonpayable",
      "type": "function"
    },
    {
      "inputs": [
        {
          "internalType": "address",
          "name": "_sota",
          "type": "address"
        }
      ],
      "name": "setSotaContract",
      "outputs": [
        {
          "internalType": "bool",
          "name": "",
          "type": "bool"
        }
      ],
      "stateMutability": "nonpayable",
      "type": "function"
    },
    {
      "inputs": [
        {
          "internalType": "address",
          "name": "_sotaExchangeContract",
          "type": "address"
        }
      ],
      "name": "setSotaExchangeContract",
      "outputs": [
        {
          "internalType": "bool",
          "name": "",
          "type": "bool"
        }
      ],
      "stateMutability": "nonpayable",
      "type": "function"
    },
    {
      "inputs": [
        {
          "internalType": "uint256",
          "name": "_xUser",
          "type": "uint256"
        },
        {
          "internalType": "uint256",
          "name": "_xCreator",
          "type": "uint256"
        },
        {
          "internalType": "uint256",
          "name": "_yRefRate",
          "type": "uint256"
        },
        {
          "internalType": "uint256",
          "name": "_zProfitToCreator",
          "type": "uint256"
        },
        {
          "internalType": "uint256",
          "name": "_discountForBuyer",
          "type": "uint256"
        },
        {
          "internalType": "uint256",
          "name": "_discountForSota",
          "type": "uint256"
        }
      ],
      "name": "setSystemFee",
      "outputs": [],
      "stateMutability": "nonpayable",
      "type": "function"
    },
    {
      "inputs": [],
      "name": "sota",
      "outputs": [
        {
          "internalType": "address",
          "name": "",
          "type": "address"
        }
      ],
      "stateMutability": "view",
      "type": "function"
    },
    {
      "inputs": [],
      "name": "sotaExchangeContract",
      "outputs": [
        {
          "internalType": "address",
          "name": "",
          "type": "address"
        }
      ],
      "stateMutability": "view",
      "type": "function"
    },
    {
      "inputs": [
        {
          "internalType": "address",
          "name": "newOwner",
          "type": "address"
        }
      ],
      "name": "transferOwnership",
      "outputs": [],
      "stateMutability": "nonpayable",
      "type": "function"
    },
    {
      "inputs": [],
      "name": "unPause",
      "outputs": [],
      "stateMutability": "nonpayable",
      "type": "function"
    },
    {
      "inputs": [
        {
          "internalType": "address",
          "name": "_operator",
          "type": "address"
        },
        {
          "internalType": "bool",
          "name": "_whitelist",
          "type": "bool"
        }
      ],
      "name": "whiteListOperator",
      "outputs": [],
      "stateMutability": "nonpayable",
      "type": "function"
    },
    {
      "inputs": [
        {
          "internalType": "address",
          "name": "_retailer",
          "type": "address"
        },
        {
          "internalType": "bool",
          "name": "_whitelist",
          "type": "bool"
        }
      ],
      "name": "whiteListRetailer",
      "outputs": [],
      "stateMutability": "nonpayable",
      "type": "function"
    },
    {
      "inputs": [
        {
          "internalType": "address payable",
          "name": "_beneficiary",
          "type": "address"
        },
        {
          "internalType": "address",
          "name": "_tokenAddress",
          "type": "address"
        }
      ],
      "name": "withdrawFunds",
      "outputs": [],
      "stateMutability": "nonpayable",
      "type": "function"
    },
    {
      "inputs": [],
      "name": "xCreator",
      "outputs": [
        {
          "internalType": "uint256",
          "name": "",
          "type": "uint256"
        }
      ],
      "stateMutability": "view",
      "type": "function"
    },
    {
      "inputs": [],
      "name": "xUser",
      "outputs": [
        {
          "internalType": "uint256",
          "name": "",
          "type": "uint256"
        }
      ],
      "stateMutability": "view",
      "type": "function"
    },
    {
      "inputs": [],
      "name": "yRefRate",
      "outputs": [
        {
          "internalType": "uint256",
          "name": "",
          "type": "uint256"
        }
      ],
      "stateMutability": "view",
      "type": "function"
    },
    {
      "inputs": [],
      "name": "zProfitToCreator",
      "outputs": [
        {
          "internalType": "uint256",
          "name": "",
          "type": "uint256"
        }
      ],
      "stateMutability": "view",
      "type": "function"
    }
  ],
  "bytecode": "0x60a060405273ae13d989dac2f0debff460ac112a837c89baa7cd600260006101000a81548173ffffffffffffffffffffffffffffffffffffffff021916908373ffffffffffffffffffffffffffffffffffffffff16021790555060fa6006556105dc6007556113886008556113886009556032600a556064600b553480156200008757600080fd5b506040516200224d3803806200224d8339818101604052810190620000ad919062000260565b620000cd620000c16200017d60201b60201c565b6200018560201b60201c565b60008060146101000a81548160ff0219169083151502179055506001600f60003373ffffffffffffffffffffffffffffffffffffffff1673ffffffffffffffffffffffffffffffffffffffff16815260200190815260200160002060006101000a81548160ff0219169083151502179055508073ffffffffffffffffffffffffffffffffffffffff1660808173ffffffffffffffffffffffffffffffffffffffff1660601b8152505050620002da565b600033905090565b60008060009054906101000a900473ffffffffffffffffffffffffffffffffffffffff169050816000806101000a81548173ffffffffffffffffffffffffffffffffffffffff021916908373ffffffffffffffffffffffffffffffffffffffff1602179055508173ffffffffffffffffffffffffffffffffffffffff168173ffffffffffffffffffffffffffffffffffffffff167f8be0079c531659141344cd1fd0a4f28419497f9722a3daafe3b4186f6b6457e060405160405180910390a35050565b6000815190506200025a81620002c0565b92915050565b6000602082840312156200027357600080fd5b6000620002838482850162000249565b91505092915050565b60006200029982620002a0565b9050919050565b600073ffffffffffffffffffffffffffffffffffffffff82169050919050565b620002cb816200028c565b8114620002d757600080fd5b50565b60805160601c611f54620002f960003960006111e60152611f546000f3fe608060405234801561001057600080fd5b50600436106101fa5760003560e01c80638456cb591161011a578063c159ba64116100ad578063d5991b8f1161007c578063d5991b8f146105cb578063d60ebf4e146105e9578063e0683dcb14610607578063f2fde38b14610637578063f7b188a514610653576101fa565b8063c159ba6414610541578063cd38463f14610571578063ceddd2b91461058f578063d0a106ba146105ad576101fa565b806396c89cab116100e957806396c89cab146104b95780639efc1b1c146104d5578063a0f5cb3f146104f3578063adc4baa614610523576101fa565b80638456cb59146104575780638da5cb5b146104615780638dd950021461047f5780638fe8fb051461049d576101fa565b806359b46087116101925780635e110da9116101615780635e110da9146103e35780636d70f7ae146103ff578063715018a61461042f5780637dad19db14610439576101fa565b806359b46087146103355780635a917500146103655780635c975abb146103955780635da09b88146103b3576101fa565b806328b76e37116101ce57806328b76e37146102ab57806347ef7f64146102db5780634c013cee146102f957806350c7e00314610317576101fa565b80620fa9fb146101ff57806306ad5a471461021b5780630ac9e5771461024b5780630edef38a1461027b575b600080fd5b6102196004803603810190610214919061193d565b61065d565b005b61023560048036038101906102309190611914565b6108c4565b6040516102429190611c46565b60405180910390f35b61026560048036038101906102609190611914565b61098c565b6040516102729190611c46565b60405180910390f35b61029560048036038101906102909190611914565b610a54565b6040516102a29190611c46565b60405180910390f35b6102c560048036038101906102c09190611914565b610a74565b6040516102d29190611c46565b60405180910390f35b6102e3610a94565b6040516102f09190611d01565b60405180910390f35b610301610a9a565b60405161030e9190611d01565b60405180910390f35b61031f610aa0565b60405161032c9190611bd9565b60405180910390f35b61034f600480360381019061034a9190611914565b610ac6565b60405161035c9190611c46565b60405180910390f35b61037f600480360381019061037a91906119b5565b610b8e565b60405161038c9190611c46565b60405180910390f35b61039d610cdd565b6040516103aa9190611c46565b60405180910390f35b6103cd60048036038101906103c89190611914565b610cf3565b6040516103da9190611c46565b60405180910390f35b6103fd60048036038101906103f89190611979565b610d13565b005b61041960048036038101906104149190611914565b610dea565b6040516104269190611c46565b60405180910390f35b610437610e0a565b005b610441610e92565b60405161044e9190611bd9565b60405180910390f35b61045f610eb8565b005b610469610f3e565b6040516104769190611bd9565b60405180910390f35b610487610f67565b6040516104949190611bd9565b60405180910390f35b6104b760048036038101906104b29190611979565b610f8d565b005b6104d360048036038101906104ce9190611a56565b611064565b005b6104dd6110f6565b6040516104ea9190611bd9565b60405180910390f35b61050d60048036038101906105089190611914565b61111c565b60405161051a9190611c46565b60405180910390f35b61052b6111e4565b6040516105389190611bd9565b60405180910390f35b61055b60048036038101906105569190611914565b611208565b6040516105689190611c46565b60405180910390f35b610579611228565b6040516105869190611d01565b60405180910390f35b61059761122e565b6040516105a49190611bd9565b60405180910390f35b6105b5611254565b6040516105c29190611d01565b60405180910390f35b6105d361125a565b6040516105e09190611d01565b60405180910390f35b6105f1611260565b6040516105fe9190611d01565b60405180910390f35b610621600480360381019061061c9190611979565b611266565b60405161062e9190611c46565b60405180910390f35b610651600480360381019061064c9190611914565b6114d6565b005b61065b6115ce565b005b610665611654565b73ffffffffffffffffffffffffffffffffffffffff16610683610f3e565b73ffffffffffffffffffffffffffffffffffffffff16146106d9576040517f08c379a00000000000000000000000000000000000000000000000000000000081526004016106d090611cc1565b60405180910390fd5b6106e1610cdd565b610720576040517f08c379a000000000000000000000000000000000000000000000000000000000815260040161071790611c61565b60405180910390fd5b60008073ffffffffffffffffffffffffffffffffffffffff168273ffffffffffffffffffffffffffffffffffffffff1614156107a5578273ffffffffffffffffffffffffffffffffffffffff166108fc479081150290604051600060405180830381858888f1935050505015801561079c573d6000803e3d6000fd5b504790506108bf565b8173ffffffffffffffffffffffffffffffffffffffff166370a08231306040518263ffffffff1660e01b81526004016107de9190611bd9565b60206040518083038186803b1580156107f657600080fd5b505afa15801561080a573d6000803e3d6000fd5b505050506040513d601f19601f8201168201806040525081019061082e9190611a2d565b90508173ffffffffffffffffffffffffffffffffffffffff1663a9059cbb84836040518363ffffffff1660e01b815260040161086b929190611bf4565b602060405180830381600087803b15801561088557600080fd5b505af1158015610899573d6000803e3d6000fd5b505050506040513d601f19601f820116820180604052508101906108bd9190611a04565b505b505050565b60006108ce611654565b73ffffffffffffffffffffffffffffffffffffffff166108ec610f3e565b73ffffffffffffffffffffffffffffffffffffffff1614610942576040517f08c379a000000000000000000000000000000000000000000000000000000000815260040161093990611cc1565b60405180910390fd5b81600360006101000a81548173ffffffffffffffffffffffffffffffffffffffff021916908373ffffffffffffffffffffffffffffffffffffffff16021790555060019050919050565b6000610996611654565b73ffffffffffffffffffffffffffffffffffffffff166109b4610f3e565b73ffffffffffffffffffffffffffffffffffffffff1614610a0a576040517f08c379a0000000000000000000000000000000000000000000000000000000008152600401610a0190611cc1565b60405180910390fd5b81600160006101000a81548173ffffffffffffffffffffffffffffffffffffffff021916908373ffffffffffffffffffffffffffffffffffffffff16021790555060019050919050565b600c6020528060005260406000206000915054906101000a900460ff1681565b600d6020528060005260406000206000915054906101000a900460ff1681565b600a5481565b60075481565b600460009054906101000a900473ffffffffffffffffffffffffffffffffffffffff1681565b6000610ad0611654565b73ffffffffffffffffffffffffffffffffffffffff16610aee610f3e565b73ffffffffffffffffffffffffffffffffffffffff1614610b44576040517f08c379a0000000000000000000000000000000000000000000000000000000008152600401610b3b90611cc1565b60405180910390fd5b81600560006101000a81548173ffffffffffffffffffffffffffffffffffffffff021916908373ffffffffffffffffffffffffffffffffffffffff16021790555060019050919050565b6000600f60003373ffffffffffffffffffffffffffffffffffffffff1673ffffffffffffffffffffffffffffffffffffffff16815260200190815260200160002060009054906101000a900460ff16610c1c576040517f08c379a0000000000000000000000000000000000000000000000000000000008152600401610c1390611ce1565b60405180910390fd5b82600d60008673ffffffffffffffffffffffffffffffffffffffff1673ffffffffffffffffffffffffffffffffffffffff16815260200190815260200160002060006101000a81548160ff0219169083151502179055508115610cd2576001600e60008673ffffffffffffffffffffffffffffffffffffffff1673ffffffffffffffffffffffffffffffffffffffff16815260200190815260200160002060006101000a81548160ff0219169083151502179055505b600190509392505050565b60008060149054906101000a900460ff16905090565b60106020528060005260406000206000915054906101000a900460ff1681565b610d1b611654565b73ffffffffffffffffffffffffffffffffffffffff16610d39610f3e565b73ffffffffffffffffffffffffffffffffffffffff1614610d8f576040517f08c379a0000000000000000000000000000000000000000000000000000000008152600401610d8690611cc1565b60405180910390fd5b80600f60008473ffffffffffffffffffffffffffffffffffffffff1673ffffffffffffffffffffffffffffffffffffffff16815260200190815260200160002060006101000a81548160ff0219169083151502179055505050565b600f6020528060005260406000206000915054906101000a900460ff1681565b610e12611654565b73ffffffffffffffffffffffffffffffffffffffff16610e30610f3e565b73ffffffffffffffffffffffffffffffffffffffff1614610e86576040517f08c379a0000000000000000000000000000000000000000000000000000000008152600401610e7d90611cc1565b60405180910390fd5b610e90600061165c565b565b600360009054906101000a900473ffffffffffffffffffffffffffffffffffffffff1681565b610ec0611654565b73ffffffffffffffffffffffffffffffffffffffff16610ede610f3e565b73ffffffffffffffffffffffffffffffffffffffff1614610f34576040517f08c379a0000000000000000000000000000000000000000000000000000000008152600401610f2b90611cc1565b60405180910390fd5b610f3c611720565b565b60008060009054906101000a900473ffffffffffffffffffffffffffffffffffffffff16905090565b600260009054906101000a900473ffffffffffffffffffffffffffffffffffffffff1681565b610f95611654565b73ffffffffffffffffffffffffffffffffffffffff16610fb3610f3e565b73ffffffffffffffffffffffffffffffffffffffff1614611009576040517f08c379a000000000000000000000000000000000000000000000000000000000815260040161100090611cc1565b60405180910390fd5b80601060008473ffffffffffffffffffffffffffffffffffffffff1673ffffffffffffffffffffffffffffffffffffffff16815260200190815260200160002060006101000a81548160ff0219169083151502179055505050565b61106c611654565b73ffffffffffffffffffffffffffffffffffffffff1661108a610f3e565b73ffffffffffffffffffffffffffffffffffffffff16146110e0576040517f08c379a00000000000000000000000000000000000000000000000000000000081526004016110d790611cc1565b60405180910390fd5b6110ee8686868686866117c3565b505050505050565b600160009054906101000a900473ffffffffffffffffffffffffffffffffffffffff1681565b6000611126611654565b73ffffffffffffffffffffffffffffffffffffffff16611144610f3e565b73ffffffffffffffffffffffffffffffffffffffff161461119a576040517f08c379a000000000000000000000000000000000000000000000000000000000815260040161119190611cc1565b60405180910390fd5b81600460006101000a81548173ffffffffffffffffffffffffffffffffffffffff021916908373ffffffffffffffffffffffffffffffffffffffff16021790555060019050919050565b7f000000000000000000000000000000000000000000000000000000000000000081565b600e6020528060005260406000206000915054906101000a900460ff1681565b60085481565b600560009054906101000a900473ffffffffffffffffffffffffffffffffffffffff1681565b60095481565b600b5481565b60065481565b6000611270611654565b73ffffffffffffffffffffffffffffffffffffffff1661128e610f3e565b73ffffffffffffffffffffffffffffffffffffffff16146112e4576040517f08c379a00000000000000000000000000000000000000000000000000000000081526004016112db90611cc1565b60405180910390fd5b81600c60008573ffffffffffffffffffffffffffffffffffffffff1673ffffffffffffffffffffffffffffffffffffffff16815260200190815260200160002060006101000a81548160ff021916908315150217905550600073ffffffffffffffffffffffffffffffffffffffff168373ffffffffffffffffffffffffffffffffffffffff16146114cc578273ffffffffffffffffffffffffffffffffffffffff1663095ea7b3337fffffffffffffffffffffffffffffffffffffffffffffffffffffffffffffffff6040518363ffffffff1660e01b81526004016113ca929190611c1d565b602060405180830381600087803b1580156113e457600080fd5b505af11580156113f8573d6000803e3d6000fd5b505050506040513d601f19601f8201168201806040525081019061141c9190611a04565b508273ffffffffffffffffffffffffffffffffffffffff1663095ea7b3307fffffffffffffffffffffffffffffffffffffffffffffffffffffffffffffffff6040518363ffffffff1660e01b8152600401611478929190611c1d565b602060405180830381600087803b15801561149257600080fd5b505af11580156114a6573d6000803e3d6000fd5b505050506040513d601f19601f820116820180604052508101906114ca9190611a04565b505b6001905092915050565b6114de611654565b73ffffffffffffffffffffffffffffffffffffffff166114fc610f3e565b73ffffffffffffffffffffffffffffffffffffffff1614611552576040517f08c379a000000000000000000000000000000000000000000000000000000000815260040161154990611cc1565b60405180910390fd5b600073ffffffffffffffffffffffffffffffffffffffff168173ffffffffffffffffffffffffffffffffffffffff1614156115c2576040517f08c379a00000000000000000000000000000000000000000000000000000000081526004016115b990611c81565b60405180910390fd5b6115cb8161165c565b50565b6115d6611654565b73ffffffffffffffffffffffffffffffffffffffff166115f4610f3e565b73ffffffffffffffffffffffffffffffffffffffff161461164a576040517f08c379a000000000000000000000000000000000000000000000000000000000815260040161164190611cc1565b60405180910390fd5b6116526117f5565b565b600033905090565b60008060009054906101000a900473ffffffffffffffffffffffffffffffffffffffff169050816000806101000a81548173ffffffffffffffffffffffffffffffffffffffff021916908373ffffffffffffffffffffffffffffffffffffffff1602179055508173ffffffffffffffffffffffffffffffffffffffff168173ffffffffffffffffffffffffffffffffffffffff167f8be0079c531659141344cd1fd0a4f28419497f9722a3daafe3b4186f6b6457e060405160405180910390a35050565b611728610cdd565b15611768576040517f08c379a000000000000000000000000000000000000000000000000000000000815260040161175f90611ca1565b60405180910390fd5b6001600060146101000a81548160ff0219169083151502179055507f62e78cea01bee320cd4e420270b5ea74000d11b0c9f74754ebdbfc544b05a2586117ac611654565b6040516117b99190611bd9565b60405180910390a1565b8560068190555084600781905550836008819055508260098190555081600a8190555080600b81905550505050505050565b6117fd610cdd565b61183c576040517f08c379a000000000000000000000000000000000000000000000000000000000815260040161183390611c61565b60405180910390fd5b60008060146101000a81548160ff0219169083151502179055507f5db9ee0a495bf2e6ff9c91a7834c1ba4fdd244a5e8aa4e537bd38aeae4b073aa61187f611654565b60405161188c9190611bd9565b60405180910390a1565b6000813590506118a581611ec2565b92915050565b6000813590506118ba81611ed9565b92915050565b6000813590506118cf81611ef0565b92915050565b6000815190506118e481611ef0565b92915050565b6000813590506118f981611f07565b92915050565b60008151905061190e81611f07565b92915050565b60006020828403121561192657600080fd5b600061193484828501611896565b91505092915050565b6000806040838503121561195057600080fd5b600061195e858286016118ab565b925050602061196f85828601611896565b9150509250929050565b6000806040838503121561198c57600080fd5b600061199a85828601611896565b92505060206119ab858286016118c0565b9150509250929050565b6000806000606084860312156119ca57600080fd5b60006119d886828701611896565b93505060206119e9868287016118c0565b92505060406119fa868287016118c0565b9150509250925092565b600060208284031215611a1657600080fd5b6000611a24848285016118d5565b91505092915050565b600060208284031215611a3f57600080fd5b6000611a4d848285016118ff565b91505092915050565b60008060008060008060c08789031215611a6f57600080fd5b6000611a7d89828a016118ea565b9650506020611a8e89828a016118ea565b9550506040611a9f89828a016118ea565b9450506060611ab089828a016118ea565b9350506080611ac189828a016118ea565b92505060a0611ad289828a016118ea565b9150509295509295509295565b611ae881611d87565b82525050565b611af781611d2d565b82525050565b611b0681611d51565b82525050565b611b1581611d99565b82525050565b6000611b28601483611d1c565b9150611b3382611dcf565b602082019050919050565b6000611b4b602683611d1c565b9150611b5682611df8565b604082019050919050565b6000611b6e601083611d1c565b9150611b7982611e47565b602082019050919050565b6000611b91602083611d1c565b9150611b9c82611e70565b602082019050919050565b6000611bb4600d83611d1c565b9150611bbf82611e99565b602082019050919050565b611bd381611d7d565b82525050565b6000602082019050611bee6000830184611aee565b92915050565b6000604082019050611c096000830185611adf565b611c166020830184611bca565b9392505050565b6000604082019050611c326000830185611aee565b611c3f6020830184611b0c565b9392505050565b6000602082019050611c5b6000830184611afd565b92915050565b60006020820190508181036000830152611c7a81611b1b565b9050919050565b60006020820190508181036000830152611c9a81611b3e565b9050919050565b60006020820190508181036000830152611cba81611b61565b9050919050565b60006020820190508181036000830152611cda81611b84565b9050919050565b60006020820190508181036000830152611cfa81611ba7565b9050919050565b6000602082019050611d166000830184611bca565b92915050565b600082825260208201905092915050565b6000611d3882611d5d565b9050919050565b6000611d4a82611d5d565b9050919050565b60008115159050919050565b600073ffffffffffffffffffffffffffffffffffffffff82169050919050565b6000819050919050565b6000611d9282611dab565b9050919050565b6000611da482611d7d565b9050919050565b6000611db682611dbd565b9050919050565b6000611dc882611d5d565b9050919050565b7f5061757361626c653a206e6f7420706175736564000000000000000000000000600082015250565b7f4f776e61626c653a206e6577206f776e657220697320746865207a65726f206160008201527f6464726573730000000000000000000000000000000000000000000000000000602082015250565b7f5061757361626c653a2070617573656400000000000000000000000000000000600082015250565b7f4f776e61626c653a2063616c6c6572206973206e6f7420746865206f776e6572600082015250565b7f4f6e6c792d6f70657261746f7200000000000000000000000000000000000000600082015250565b611ecb81611d2d565b8114611ed657600080fd5b50565b611ee281611d3f565b8114611eed57600080fd5b50565b611ef981611d51565b8114611f0457600080fd5b50565b611f1081611d7d565b8114611f1b57600080fd5b5056fea264697066735822122095ebd82a94cfc2267ca898b77f01913c882590e17fa33b62b4a9a4afad759dcc64736f6c63430008040033",
  "linkReferences": {},
  "deployedLinkReferences": {}
}