{
  "_format": "hh-sol-artifact-1",
  "contractName": "SotaMarketV2",
  "sourceName": "contracts/SotaMarketV2.sol",
  "abi": [
    {
      "inputs": [
        {
          "internalType": "address",
          "name": "_oldMarket",
          "type": "address"
        }
      ],
      "stateMutability": "nonpayable",
      "type": "constructor"
    },
    {
      "anonymous": false,
      "inputs": [
        {
          "indexed": true,
          "internalType": "uint256",
          "name": "_bidId",
          "type": "uint256"
        }
      ],
      "name": "AcceptBid",
      "type": "event"
    },
    {
      "anonymous": false,
      "inputs": [
        {
          "indexed": true,
          "internalType": "uint256",
          "name": "_bidId",
          "type": "uint256"
        }
      ],
      "name": "BidCancelled",
      "type": "event"
    },
    {
      "anonymous": false,
      "inputs": [
        {
          "indexed": true,
          "internalType": "uint256",
          "name": "_bidId",
          "type": "uint256"
        },
        {
          "indexed": false,
          "internalType": "address",
          "name": "_tokenAddress",
          "type": "address"
        },
        {
          "indexed": true,
          "internalType": "uint256",
          "name": "_tokenId",
          "type": "uint256"
        },
        {
          "indexed": true,
          "internalType": "uint256",
          "name": "_quantity",
          "type": "uint256"
        },
        {
          "indexed": false,
          "internalType": "uint256",
          "name": "_price",
          "type": "uint256"
        },
        {
          "indexed": false,
          "internalType": "address",
          "name": "_paymentToken",
          "type": "address"
        }
      ],
      "name": "BidCreated",
      "type": "event"
    },
    {
      "anonymous": false,
      "inputs": [
        {
          "indexed": true,
          "internalType": "uint256",
          "name": "_bidId",
          "type": "uint256"
        }
      ],
      "name": "BidUpdated",
      "type": "event"
    },
    {
      "anonymous": false,
      "inputs": [
        {
          "indexed": false,
          "internalType": "uint256",
          "name": "_itemId",
          "type": "uint256"
        },
        {
          "indexed": false,
          "internalType": "uint256",
          "name": "_quantity",
          "type": "uint256"
        },
        {
          "indexed": false,
          "internalType": "address",
          "name": "_paymentToken",
          "type": "address"
        },
        {
          "indexed": false,
          "internalType": "uint256",
          "name": "_paymentAmount",
          "type": "uint256"
        }
      ],
      "name": "Buy",
      "type": "event"
    },
    {
      "anonymous": false,
      "inputs": [
        {
          "indexed": true,
          "internalType": "uint256",
          "name": "_orderId",
          "type": "uint256"
        }
      ],
      "name": "OrderCancelled",
      "type": "event"
    },
    {
      "anonymous": false,
      "inputs": [
        {
          "indexed": true,
          "internalType": "uint256",
          "name": "_orderId",
          "type": "uint256"
        },
        {
          "indexed": false,
          "internalType": "address",
          "name": "_tokenAddress",
          "type": "address"
        },
        {
          "indexed": true,
          "internalType": "uint256",
          "name": "_tokenId",
          "type": "uint256"
        },
        {
          "indexed": true,
          "internalType": "uint256",
          "name": "_quantity",
          "type": "uint256"
        },
        {
          "indexed": false,
          "internalType": "uint256",
          "name": "_price",
          "type": "uint256"
        },
        {
          "indexed": false,
          "internalType": "address",
          "name": "_paymentToken",
          "type": "address"
        }
      ],
      "name": "OrderCreated",
      "type": "event"
    },
    {
      "anonymous": false,
      "inputs": [
        {
          "indexed": true,
          "internalType": "uint256",
          "name": "_orderId",
          "type": "uint256"
        }
      ],
      "name": "OrderUpdated",
      "type": "event"
    },
    {
      "anonymous": false,
      "inputs": [
        {
          "indexed": true,
          "internalType": "address",
          "name": "previousOwner",
          "type": "address"
        },
        {
          "indexed": true,
          "internalType": "address",
          "name": "newOwner",
          "type": "address"
        }
      ],
      "name": "OwnershipTransferred",
      "type": "event"
    },
    {
      "anonymous": false,
      "inputs": [
        {
          "indexed": false,
          "internalType": "address",
          "name": "account",
          "type": "address"
        }
      ],
      "name": "Paused",
      "type": "event"
    },
    {
      "anonymous": false,
      "inputs": [
        {
          "indexed": false,
          "internalType": "address",
          "name": "account",
          "type": "address"
        }
      ],
      "name": "Unpaused",
      "type": "event"
    },
    {
      "inputs": [],
      "name": "WBNB",
      "outputs": [
        {
          "internalType": "address",
          "name": "",
          "type": "address"
        }
      ],
      "stateMutability": "view",
      "type": "function"
    },
    {
      "inputs": [],
      "name": "ZOOM_FEE",
      "outputs": [
        {
          "internalType": "uint256",
          "name": "",
          "type": "uint256"
        }
      ],
      "stateMutability": "view",
      "type": "function"
    },
    {
      "inputs": [],
      "name": "ZOOM_SOTA",
      "outputs": [
        {
          "internalType": "uint256",
          "name": "",
          "type": "uint256"
        }
      ],
      "stateMutability": "view",
      "type": "function"
    },
    {
      "inputs": [],
      "name": "ZOOM_USDT",
      "outputs": [
        {
          "internalType": "uint256",
          "name": "",
          "type": "uint256"
        }
      ],
      "stateMutability": "view",
      "type": "function"
    },
    {
      "inputs": [
        {
          "internalType": "uint256",
          "name": "_bidId",
          "type": "uint256"
        },
        {
          "internalType": "uint256",
          "name": "_quantity",
          "type": "uint256"
        }
      ],
      "name": "acceptBid",
      "outputs": [
        {
          "internalType": "bool",
          "name": "",
          "type": "bool"
        }
      ],
      "stateMutability": "nonpayable",
      "type": "function"
    },
    {
      "inputs": [
        {
          "internalType": "address",
          "name": "_sotaNFT",
          "type": "address"
        },
        {
          "internalType": "bool",
          "name": "_isSOTANFT",
          "type": "bool"
        },
        {
          "internalType": "bool",
          "name": "_isFarming",
          "type": "bool"
        }
      ],
      "name": "addSOTANFTs",
      "outputs": [
        {
          "internalType": "bool",
          "name": "",
          "type": "bool"
        }
      ],
      "stateMutability": "nonpayable",
      "type": "function"
    },
    {
      "inputs": [
        {
          "internalType": "uint256",
          "name": "_fromOrderId",
          "type": "uint256"
        },
        {
          "internalType": "uint256",
          "name": "_toOrderId",
          "type": "uint256"
        }
      ],
      "name": "adminMigrateData",
      "outputs": [],
      "stateMutability": "nonpayable",
      "type": "function"
    },
    {
      "inputs": [
        {
          "internalType": "address",
          "name": "",
          "type": "address"
        },
        {
          "internalType": "uint256",
          "name": "",
          "type": "uint256"
        }
      ],
      "name": "amountFirstSale",
      "outputs": [
        {
          "internalType": "uint256",
          "name": "",
          "type": "uint256"
        }
      ],
      "stateMutability": "view",
      "type": "function"
    },
    {
      "inputs": [
        {
          "internalType": "uint256",
          "name": "",
          "type": "uint256"
        }
      ],
      "name": "bids",
      "outputs": [
        {
          "internalType": "address",
          "name": "bidder",
          "type": "address"
        },
        {
          "internalType": "address",
          "name": "paymentToken",
          "type": "address"
        },
        {
          "internalType": "address",
          "name": "tokenAddress",
          "type": "address"
        },
        {
          "internalType": "uint256",
          "name": "tokenId",
          "type": "uint256"
        },
        {
          "internalType": "uint256",
          "name": "bidPrice",
          "type": "uint256"
        },
        {
          "internalType": "uint256",
          "name": "quantity",
          "type": "uint256"
        },
        {
          "internalType": "uint256",
          "name": "expTime",
          "type": "uint256"
        },
        {
          "internalType": "bool",
          "name": "status",
          "type": "bool"
        }
      ],
      "stateMutability": "view",
      "type": "function"
    },
    {
      "inputs": [
        {
          "internalType": "uint256",
          "name": "_orderId",
          "type": "uint256"
        },
        {
          "internalType": "uint256",
          "name": "_quantity",
          "type": "uint256"
        },
        {
          "internalType": "address",
          "name": "_paymentToken",
          "type": "address"
        }
      ],
      "name": "buy",
      "outputs": [
        {
          "internalType": "bool",
          "name": "",
          "type": "bool"
        }
      ],
      "stateMutability": "payable",
      "type": "function"
    },
    {
      "inputs": [
        {
          "internalType": "uint256",
          "name": "_bidId",
          "type": "uint256"
        }
      ],
      "name": "cancelBid",
      "outputs": [],
      "stateMutability": "nonpayable",
      "type": "function"
    },
    {
      "inputs": [
        {
          "internalType": "uint256",
          "name": "_orderId",
          "type": "uint256"
        }
      ],
      "name": "cancelOrder",
      "outputs": [],
      "stateMutability": "nonpayable",
      "type": "function"
    },
    {
      "inputs": [
        {
          "internalType": "address",
          "name": "_tokenAddress",
          "type": "address"
        },
        {
          "internalType": "address",
          "name": "_paymentToken",
          "type": "address"
        },
        {
          "internalType": "uint256",
          "name": "_tokenId",
          "type": "uint256"
        },
        {
          "internalType": "uint256",
          "name": "_quantity",
          "type": "uint256"
        },
        {
          "internalType": "uint256",
          "name": "_price",
          "type": "uint256"
        },
        {
          "internalType": "uint256",
          "name": "_expTime",
          "type": "uint256"
        }
      ],
      "name": "createBid",
      "outputs": [
        {
          "internalType": "uint256",
          "name": "_bidId",
          "type": "uint256"
        }
      ],
      "stateMutability": "payable",
      "type": "function"
    },
    {
      "inputs": [
        {
          "internalType": "address",
          "name": "_tokenAddress",
          "type": "address"
        },
        {
          "internalType": "address",
          "name": "_retailer",
          "type": "address"
        },
        {
          "internalType": "address",
          "name": "_paymentToken",
          "type": "address"
        },
        {
          "internalType": "uint256",
          "name": "_tokenId",
          "type": "uint256"
        },
        {
          "internalType": "uint256",
          "name": "_quantity",
          "type": "uint256"
        },
        {
          "internalType": "uint256",
          "name": "_price",
          "type": "uint256"
        },
        {
          "internalType": "uint256",
          "name": "_retailFee",
          "type": "uint256"
        }
      ],
      "name": "createOrder",
      "outputs": [
        {
          "internalType": "uint256",
          "name": "_orderId",
          "type": "uint256"
        }
      ],
      "stateMutability": "nonpayable",
      "type": "function"
    },
    {
      "inputs": [],
      "name": "discountForBuyer",
      "outputs": [
        {
          "internalType": "uint256",
          "name": "",
          "type": "uint256"
        }
      ],
      "stateMutability": "view",
      "type": "function"
    },
    {
      "inputs": [],
      "name": "discountForSota",
      "outputs": [
        {
          "internalType": "uint256",
          "name": "",
          "type": "uint256"
        }
      ],
      "stateMutability": "view",
      "type": "function"
    },
    {
      "inputs": [
        {
          "internalType": "address",
          "name": "",
          "type": "address"
        },
        {
          "internalType": "bytes32",
          "name": "",
          "type": "bytes32"
        }
      ],
      "name": "farmingAmount",
      "outputs": [
        {
          "internalType": "uint256",
          "name": "",
          "type": "uint256"
        }
      ],
      "stateMutability": "view",
      "type": "function"
    },
    {
      "inputs": [
        {
          "internalType": "address",
          "name": "",
          "type": "address"
        }
      ],
      "name": "isFarmingNFTs",
      "outputs": [
        {
          "internalType": "bool",
          "name": "",
          "type": "bool"
        }
      ],
      "stateMutability": "view",
      "type": "function"
    },
    {
      "inputs": [
        {
          "internalType": "address",
          "name": "",
          "type": "address"
        }
      ],
      "name": "isOperator",
      "outputs": [
        {
          "internalType": "bool",
          "name": "",
          "type": "bool"
        }
      ],
      "stateMutability": "view",
      "type": "function"
    },
    {
      "inputs": [
        {
          "internalType": "address",
          "name": "",
          "type": "address"
        }
      ],
      "name": "isRetailer",
      "outputs": [
        {
          "internalType": "bool",
          "name": "",
          "type": "bool"
        }
      ],
      "stateMutability": "view",
      "type": "function"
    },
    {
      "inputs": [
        {
          "internalType": "address",
          "name": "",
          "type": "address"
        }
      ],
      "name": "isSOTANFTs",
      "outputs": [
        {
          "internalType": "bool",
          "name": "",
          "type": "bool"
        }
      ],
      "stateMutability": "view",
      "type": "function"
    },
    {
      "inputs": [],
      "name": "oldMarket",
      "outputs": [
        {
          "internalType": "address",
          "name": "",
          "type": "address"
        }
      ],
      "stateMutability": "view",
      "type": "function"
    },
    {
      "inputs": [
        {
          "internalType": "address",
          "name": "",
          "type": "address"
        },
        {
          "internalType": "address",
          "name": "",
          "type": "address"
        },
        {
          "internalType": "uint256[]",
          "name": "",
          "type": "uint256[]"
        },
        {
          "internalType": "uint256[]",
          "name": "",
          "type": "uint256[]"
        },
        {
          "internalType": "bytes",
          "name": "",
          "type": "bytes"
        }
      ],
      "name": "onERC1155BatchReceived",
      "outputs": [
        {
          "internalType": "bytes4",
          "name": "",
          "type": "bytes4"
        }
      ],
      "stateMutability": "nonpayable",
      "type": "function"
    },
    {
      "inputs": [
        {
          "internalType": "address",
          "name": "",
          "type": "address"
        },
        {
          "internalType": "address",
          "name": "",
          "type": "address"
        },
        {
          "internalType": "uint256",
          "name": "",
          "type": "uint256"
        },
        {
          "internalType": "uint256",
          "name": "",
          "type": "uint256"
        },
        {
          "internalType": "bytes",
          "name": "",
          "type": "bytes"
        }
      ],
      "name": "onERC1155Received",
      "outputs": [
        {
          "internalType": "bytes4",
          "name": "",
          "type": "bytes4"
        }
      ],
      "stateMutability": "nonpayable",
      "type": "function"
    },
    {
      "inputs": [
        {
          "internalType": "address",
          "name": "",
          "type": "address"
        },
        {
          "internalType": "address",
          "name": "",
          "type": "address"
        },
        {
          "internalType": "uint256",
          "name": "",
          "type": "uint256"
        },
        {
          "internalType": "bytes",
          "name": "",
          "type": "bytes"
        }
      ],
      "name": "onERC721Received",
      "outputs": [
        {
          "internalType": "bytes4",
          "name": "",
          "type": "bytes4"
        }
      ],
      "stateMutability": "nonpayable",
      "type": "function"
    },
    {
      "inputs": [
        {
          "internalType": "uint256",
          "name": "",
          "type": "uint256"
        }
      ],
      "name": "orders",
      "outputs": [
        {
          "internalType": "address",
          "name": "owner",
          "type": "address"
        },
        {
          "internalType": "address",
          "name": "tokenAddress",
          "type": "address"
        },
        {
          "internalType": "address",
          "name": "paymentToken",
          "type": "address"
        },
        {
          "internalType": "address",
          "name": "retailer",
          "type": "address"
        },
        {
          "internalType": "uint256",
          "name": "tokenId",
          "type": "uint256"
        },
        {
          "internalType": "uint256",
          "name": "quantity",
          "type": "uint256"
        },
        {
          "internalType": "uint256",
          "name": "price",
          "type": "uint256"
        },
        {
          "internalType": "uint256",
          "name": "retailFee",
          "type": "uint256"
        },
        {
          "internalType": "bool",
          "name": "isOnsale",
          "type": "bool"
        },
        {
          "internalType": "bool",
          "name": "isERC721",
          "type": "bool"
        }
      ],
      "stateMutability": "view",
      "type": "function"
    },
    {
      "inputs": [],
      "name": "owner",
      "outputs": [
        {
          "internalType": "address",
          "name": "",
          "type": "address"
        }
      ],
      "stateMutability": "view",
      "type": "function"
    },
    {
      "inputs": [],
      "name": "pause",
      "outputs": [],
      "stateMutability": "nonpayable",
      "type": "function"
    },
    {
      "inputs": [],
      "name": "paused",
      "outputs": [
        {
          "internalType": "bool",
          "name": "",
          "type": "bool"
        }
      ],
      "stateMutability": "view",
      "type": "function"
    },
    {
      "inputs": [
        {
          "internalType": "address",
          "name": "",
          "type": "address"
        }
      ],
      "name": "paymentMethod",
      "outputs": [
        {
          "internalType": "bool",
          "name": "",
          "type": "bool"
        }
      ],
      "stateMutability": "view",
      "type": "function"
    },
    {
      "inputs": [],
      "name": "profitEstimatorContract",
      "outputs": [
        {
          "internalType": "address",
          "name": "",
          "type": "address"
        }
      ],
      "stateMutability": "view",
      "type": "function"
    },
    {
      "inputs": [],
      "name": "referralContract",
      "outputs": [
        {
          "internalType": "address",
          "name": "",
          "type": "address"
        }
      ],
      "stateMutability": "view",
      "type": "function"
    },
    {
      "inputs": [],
      "name": "renounceOwnership",
      "outputs": [],
      "stateMutability": "nonpayable",
      "type": "function"
    },
    {
      "inputs": [
        {
          "internalType": "address",
          "name": "_token",
          "type": "address"
        },
        {
          "internalType": "address",
          "name": "_spender",
          "type": "address"
        }
      ],
      "name": "setApproveForAll",
      "outputs": [],
      "stateMutability": "nonpayable",
      "type": "function"
    },
    {
      "inputs": [
        {
          "internalType": "address",
          "name": "_token",
          "type": "address"
        },
        {
          "internalType": "address",
          "name": "_spender",
          "type": "address"
        }
      ],
      "name": "setApproveForAllERC721",
      "outputs": [],
      "stateMutability": "nonpayable",
      "type": "function"
    },
    {
      "inputs": [
        {
          "internalType": "address",
          "name": "_token",
          "type": "address"
        },
        {
          "internalType": "bool",
          "name": "_status",
          "type": "bool"
        }
      ],
      "name": "setPaymentMethod",
      "outputs": [
        {
          "internalType": "bool",
          "name": "",
          "type": "bool"
        }
      ],
      "stateMutability": "nonpayable",
      "type": "function"
    },
    {
      "inputs": [
        {
          "internalType": "address",
          "name": "_profitEstimatorContract",
          "type": "address"
        }
      ],
      "name": "setProfitSenderContract",
      "outputs": [
        {
          "internalType": "bool",
          "name": "",
          "type": "bool"
        }
      ],
      "stateMutability": "nonpayable",
      "type": "function"
    },
    {
      "inputs": [
        {
          "internalType": "address",
          "name": "_referralContract",
          "type": "address"
        }
      ],
      "name": "setReferralContract",
      "outputs": [
        {
          "internalType": "bool",
          "name": "",
          "type": "bool"
        }
      ],
      "stateMutability": "nonpayable",
      "type": "function"
    },
    {
      "inputs": [
        {
          "internalType": "address",
          "name": "_sota",
          "type": "address"
        }
      ],
      "name": "setSotaContract",
      "outputs": [
        {
          "internalType": "bool",
          "name": "",
          "type": "bool"
        }
      ],
      "stateMutability": "nonpayable",
      "type": "function"
    },
    {
      "inputs": [
        {
          "internalType": "address",
          "name": "_sotaExchangeContract",
          "type": "address"
        }
      ],
      "name": "setSotaExchangeContract",
      "outputs": [
        {
          "internalType": "bool",
          "name": "",
          "type": "bool"
        }
      ],
      "stateMutability": "nonpayable",
      "type": "function"
    },
    {
      "inputs": [
        {
          "internalType": "uint256",
          "name": "_xUser",
          "type": "uint256"
        },
        {
          "internalType": "uint256",
          "name": "_xCreator",
          "type": "uint256"
        },
        {
          "internalType": "uint256",
          "name": "_yRefRate",
          "type": "uint256"
        },
        {
          "internalType": "uint256",
          "name": "_zProfitToCreator",
          "type": "uint256"
        },
        {
          "internalType": "uint256",
          "name": "_discountForBuyer",
          "type": "uint256"
        },
        {
          "internalType": "uint256",
          "name": "_discountForSota",
          "type": "uint256"
        }
      ],
      "name": "setSystemFee",
      "outputs": [],
      "stateMutability": "nonpayable",
      "type": "function"
    },
    {
      "inputs": [],
      "name": "sota",
      "outputs": [
        {
          "internalType": "address",
          "name": "",
          "type": "address"
        }
      ],
      "stateMutability": "view",
      "type": "function"
    },
    {
      "inputs": [],
      "name": "sotaExchangeContract",
      "outputs": [
        {
          "internalType": "address",
          "name": "",
          "type": "address"
        }
      ],
      "stateMutability": "view",
      "type": "function"
    },
    {
      "inputs": [
        {
          "internalType": "bytes4",
          "name": "interfaceId",
          "type": "bytes4"
        }
      ],
      "name": "supportsInterface",
      "outputs": [
        {
          "internalType": "bool",
          "name": "",
          "type": "bool"
        }
      ],
      "stateMutability": "view",
      "type": "function"
    },
    {
      "inputs": [],
      "name": "totalBids",
      "outputs": [
        {
          "internalType": "uint256",
          "name": "",
          "type": "uint256"
        }
      ],
      "stateMutability": "view",
      "type": "function"
    },
    {
      "inputs": [],
      "name": "totalOrders",
      "outputs": [
        {
          "internalType": "uint256",
          "name": "",
          "type": "uint256"
        }
      ],
      "stateMutability": "view",
      "type": "function"
    },
    {
      "inputs": [
        {
          "internalType": "address",
          "name": "newOwner",
          "type": "address"
        }
      ],
      "name": "transferOwnership",
      "outputs": [],
      "stateMutability": "nonpayable",
      "type": "function"
    },
    {
      "inputs": [],
      "name": "unPause",
      "outputs": [],
      "stateMutability": "nonpayable",
      "type": "function"
    },
    {
      "inputs": [
        {
          "internalType": "uint256",
          "name": "_bidId",
          "type": "uint256"
        },
        {
          "internalType": "uint256",
          "name": "_quantity",
          "type": "uint256"
        },
        {
          "internalType": "uint256",
          "name": "_bidPrice",
          "type": "uint256"
        }
      ],
      "name": "updateBid",
      "outputs": [],
      "stateMutability": "nonpayable",
      "type": "function"
    },
    {
      "inputs": [
        {
          "internalType": "uint256",
          "name": "_orderId",
          "type": "uint256"
        },
        {
          "internalType": "uint256",
          "name": "_quantity",
          "type": "uint256"
        },
        {
          "internalType": "uint256",
          "name": "_price",
          "type": "uint256"
        },
        {
          "internalType": "uint256",
          "name": "_retailFee",
          "type": "uint256"
        },
        {
          "internalType": "address",
          "name": "_retailer",
          "type": "address"
        }
      ],
      "name": "updateOrder",
      "outputs": [],
      "stateMutability": "nonpayable",
      "type": "function"
    },
    {
      "inputs": [
        {
          "internalType": "address",
          "name": "_operator",
          "type": "address"
        },
        {
          "internalType": "bool",
          "name": "_whitelist",
          "type": "bool"
        }
      ],
      "name": "whiteListOperator",
      "outputs": [],
      "stateMutability": "nonpayable",
      "type": "function"
    },
    {
      "inputs": [
        {
          "internalType": "address",
          "name": "_retailer",
          "type": "address"
        },
        {
          "internalType": "bool",
          "name": "_whitelist",
          "type": "bool"
        }
      ],
      "name": "whiteListRetailer",
      "outputs": [],
      "stateMutability": "nonpayable",
      "type": "function"
    },
    {
      "inputs": [
        {
          "internalType": "address payable",
          "name": "_beneficiary",
          "type": "address"
        },
        {
          "internalType": "address",
          "name": "_tokenAddress",
          "type": "address"
        }
      ],
      "name": "withdrawFunds",
      "outputs": [],
      "stateMutability": "nonpayable",
      "type": "function"
    },
    {
      "inputs": [],
      "name": "xCreator",
      "outputs": [
        {
          "internalType": "uint256",
          "name": "",
          "type": "uint256"
        }
      ],
      "stateMutability": "view",
      "type": "function"
    },
    {
      "inputs": [],
      "name": "xUser",
      "outputs": [
        {
          "internalType": "uint256",
          "name": "",
          "type": "uint256"
        }
      ],
      "stateMutability": "view",
      "type": "function"
    },
    {
      "inputs": [],
      "name": "yRefRate",
      "outputs": [
        {
          "internalType": "uint256",
          "name": "",
          "type": "uint256"
        }
      ],
      "stateMutability": "view",
      "type": "function"
    },
    {
      "inputs": [],
      "name": "zProfitToCreator",
      "outputs": [
        {
          "internalType": "uint256",
          "name": "",
          "type": "uint256"
        }
      ],
      "stateMutability": "view",
      "type": "function"
    }
  ],
  "bytecode": "0x60a060405273ae13d989dac2f0debff460ac112a837c89baa7cd600260006101000a81548173ffffffffffffffffffffffffffffffffffffffff021916908373ffffffffffffffffffffffffffffffffffffffff16021790555060fa6006556105dc6007556113886008556113886009556032600a556064600b553480156200008757600080fd5b506040516200a5323803806200a5328339818101604052810190620000ad91906200026a565b80620000ce620000c26200018760201b60201c565b6200018f60201b60201c565b60008060146101000a81548160ff0219169083151502179055506001600f60003373ffffffffffffffffffffffffffffffffffffffff1673ffffffffffffffffffffffffffffffffffffffff16815260200190815260200160002060006101000a81548160ff0219169083151502179055508073ffffffffffffffffffffffffffffffffffffffff1660808173ffffffffffffffffffffffffffffffffffffffff1660601b8152505050600160118190555050620002e4565b600033905090565b60008060009054906101000a900473ffffffffffffffffffffffffffffffffffffffff169050816000806101000a81548173ffffffffffffffffffffffffffffffffffffffff021916908373ffffffffffffffffffffffffffffffffffffffff1602179055508173ffffffffffffffffffffffffffffffffffffffff168173ffffffffffffffffffffffffffffffffffffffff167f8be0079c531659141344cd1fd0a4f28419497f9722a3daafe3b4186f6b6457e060405160405180910390a35050565b6000815190506200026481620002ca565b92915050565b6000602082840312156200027d57600080fd5b60006200028d8482850162000253565b91505092915050565b6000620002a382620002aa565b9050919050565b600073ffffffffffffffffffffffffffffffffffffffff82169050919050565b620002d58162000296565b8114620002e157600080fd5b50565b60805160601c61a2216200031160003960008181614602015281816153a40152615483015261a2216000f3fe6080604052600436106103755760003560e01c80637dad19db116101d1578063b3de7a9d11610102578063d2f4e2ca116100a0578063e1812d3e1161006f578063e1812d3e14610da7578063f23a6e6114610dd0578063f2fde38b14610e0d578063f7b188a514610e3657610375565b8063d2f4e2ca14610ceb578063d5991b8f14610d14578063d60ebf4e14610d3f578063e0683dcb14610d6a57610375565b8063cd38463f116100dc578063cd38463f14610c3f578063ceddd2b914610c6a578063d0a106ba14610c95578063d234428714610cc057610375565b8063b3de7a9d14610b9c578063bc197c8114610bc5578063c159ba6414610c0257610375565b80638fe8fb051161016f5780639efc1b1c116101495780639efc1b1c14610ac3578063a0f5cb3f14610aee578063a85c38ef14610b2b578063adc4baa614610b7157610375565b80638fe8fb0514610a4857806396c89cab14610a715780639703ef3514610a9a57610375565b80638bf5651a116101ab5780638bf5651a1461098a5780638da5cb5b146109c75780638dd95002146109f25780638f6d637e14610a1d57610375565b80637dad19db1461091d5780638456cb59146109485780638b0341361461095f57610375565b806347ef7f64116102ab5780635c975abb116102495780636b745326116102235780636b745326146108635780636d70f7ae146108a057806370e103fc146108dd578063715018a61461090657610375565b80635c975abb146107d25780635da09b88146107fd5780635e110da91461083a57610375565b8063514fcac711610285578063514fcac7146106ff57806359a87bc11461072857806359b46087146107585780635a9175001461079557610375565b806347ef7f641461067e5780634c013cee146106a957806350c7e003146106d457610375565b8063150b7a02116103185780632834303a116102f25780632834303a146105a257806328b76e37146105d25780634278f7e31461060f5780634423c5f11461063a57610375565b8063150b7a02146104fd5780631d8344091461053a5780631e9e42041461056557610375565b806306ad5a471161035457806306ad5a471461041d5780630ac9e5771461045a5780630edef38a146104975780630fcd1cb4146104d457610375565b80620fa9fb1461037a57806301ffc9a7146103a357806302e9d5e4146103e0575b600080fd5b34801561038657600080fd5b506103a1600480360381019061039c919061838b565b610e4d565b005b3480156103af57600080fd5b506103ca60048036038101906103c591906188fa565b6110b4565b6040516103d791906193c0565b60405180910390f35b3480156103ec57600080fd5b5061040760048036038101906104029190618975565b61112e565b60405161041491906193c0565b60405180910390f35b34801561042957600080fd5b50610444600480360381019061043f9190618310565b6117bd565b60405161045191906193c0565b60405180910390f35b34801561046657600080fd5b50610481600480360381019061047c9190618310565b611885565b60405161048e91906193c0565b60405180910390f35b3480156104a357600080fd5b506104be60048036038101906104b99190618310565b61194d565b6040516104cb91906193c0565b60405180910390f35b3480156104e057600080fd5b506104fb60048036038101906104f691906183c7565b61196d565b005b34801561050957600080fd5b50610524600480360381019061051f919061863b565b611a5b565b60405161053191906193db565b60405180910390f35b34801561054657600080fd5b5061054f611a6f565b60405161055c91906196b8565b60405180910390f35b34801561057157600080fd5b5061058c600480360381019061058791906184de565b611a75565b60405161059991906196b8565b60405180910390f35b6105bc60048036038101906105b79190618745565b612721565b6040516105c991906196b8565b60405180910390f35b3480156105de57600080fd5b506105f960048036038101906105f49190618310565b612b60565b60405161060691906193c0565b60405180910390f35b34801561061b57600080fd5b50610624612b80565b60405161063191906196b8565b60405180910390f35b34801561064657600080fd5b50610661600480360381019061065c9190618923565b612b87565b604051610675989796959493929190619146565b60405180910390f35b34801561068a57600080fd5b50610693612c3c565b6040516106a091906196b8565b60405180910390f35b3480156106b557600080fd5b506106be612c42565b6040516106cb91906196b8565b60405180910390f35b3480156106e057600080fd5b506106e9612c48565b6040516106f69190619066565b60405180910390f35b34801561070b57600080fd5b5061072660048036038101906107219190618923565b612c6e565b005b610742600480360381019061073d91906189b1565b613248565b60405161074f91906193c0565b60405180910390f35b34801561076457600080fd5b5061077f600480360381019061077a9190618310565b613834565b60405161078c91906193c0565b60405180910390f35b3480156107a157600080fd5b506107bc60048036038101906107b7919061880a565b6138fc565b6040516107c991906193c0565b60405180910390f35b3480156107de57600080fd5b506107e7613a4b565b6040516107f491906193c0565b60405180910390f35b34801561080957600080fd5b50610824600480360381019061081f9190618310565b613a61565b60405161083191906193c0565b60405180910390f35b34801561084657600080fd5b50610861600480360381019061085c91906187ce565b613a81565b005b34801561086f57600080fd5b5061088a60048036038101906108859190618859565b613b58565b60405161089791906196b8565b60405180910390f35b3480156108ac57600080fd5b506108c760048036038101906108c29190618310565b613b7d565b6040516108d491906193c0565b60405180910390f35b3480156108e957600080fd5b5061090460048036038101906108ff91906183c7565b613b9d565b005b34801561091257600080fd5b5061091b613c8b565b005b34801561092957600080fd5b50610932613d13565b60405161093f9190619066565b60405180910390f35b34801561095457600080fd5b5061095d613d39565b005b34801561096b57600080fd5b50610974613dbf565b60405161098191906196b8565b60405180910390f35b34801561099657600080fd5b506109b160048036038101906109ac9190618895565b613dc5565b6040516109be91906196b8565b60405180910390f35b3480156109d357600080fd5b506109dc613dea565b6040516109e99190619066565b60405180910390f35b3480156109fe57600080fd5b50610a07613e13565b604051610a149190619066565b60405180910390f35b348015610a2957600080fd5b50610a32613e39565b604051610a3f91906196b8565b60405180910390f35b348015610a5457600080fd5b50610a6f6004803603810190610a6a91906187ce565b613e3f565b005b348015610a7d57600080fd5b50610a986004803603810190610a939190618ac6565b613f16565b005b348015610aa657600080fd5b50610ac16004803603810190610abc9190618923565b613fa8565b005b348015610acf57600080fd5b50610ad8614424565b604051610ae59190619066565b60405180910390f35b348015610afa57600080fd5b50610b156004803603810190610b109190618310565b61444a565b604051610b2291906193c0565b60405180910390f35b348015610b3757600080fd5b50610b526004803603810190610b4d9190618923565b614512565b604051610b689a999897969594939291906190aa565b60405180910390f35b348015610b7d57600080fd5b50610b86614600565b604051610b939190619066565b60405180910390f35b348015610ba857600080fd5b50610bc36004803603810190610bbe9190618a00565b614624565b005b348015610bd157600080fd5b50610bec6004803603810190610be7919061857c565b6149c1565b604051610bf991906193db565b60405180910390f35b348015610c0e57600080fd5b50610c296004803603810190610c249190618310565b6149d6565b604051610c3691906193c0565b60405180910390f35b348015610c4b57600080fd5b50610c546149f6565b604051610c6191906196b8565b60405180910390f35b348015610c7657600080fd5b50610c7f6149fc565b604051610c8c9190619066565b60405180910390f35b348015610ca157600080fd5b50610caa614a22565b604051610cb791906196b8565b60405180910390f35b348015610ccc57600080fd5b50610cd5614a28565b604051610ce291906196b8565b60405180910390f35b348015610cf757600080fd5b50610d126004803603810190610d0d9190618a4f565b614a34565b005b348015610d2057600080fd5b50610d29615094565b604051610d3691906196b8565b60405180910390f35b348015610d4b57600080fd5b50610d5461509a565b604051610d6191906196b8565b60405180910390f35b348015610d7657600080fd5b50610d916004803603810190610d8c91906187ce565b6150a0565b604051610d9e91906193c0565b60405180910390f35b348015610db357600080fd5b50610dce6004803603810190610dc99190618975565b615310565b005b348015610ddc57600080fd5b50610df76004803603810190610df291906186b6565b61583b565b604051610e0491906193db565b60405180910390f35b348015610e1957600080fd5b50610e346004803603810190610e2f9190618310565b615850565b005b348015610e4257600080fd5b50610e4b615948565b005b610e556159ce565b73ffffffffffffffffffffffffffffffffffffffff16610e73613dea565b73ffffffffffffffffffffffffffffffffffffffff1614610ec9576040517f08c379a0000000000000000000000000000000000000000000000000000000008152600401610ec0906195d8565b60405180910390fd5b610ed1613a4b565b610f10576040517f08c379a0000000000000000000000000000000000000000000000000000000008152600401610f0790619458565b60405180910390fd5b60008073ffffffffffffffffffffffffffffffffffffffff168273ffffffffffffffffffffffffffffffffffffffff161415610f95578273ffffffffffffffffffffffffffffffffffffffff166108fc479081150290604051600060405180830381858888f19350505050158015610f8c573d6000803e3d6000fd5b504790506110af565b8173ffffffffffffffffffffffffffffffffffffffff166370a08231306040518263ffffffff1660e01b8152600401610fce9190619066565b60206040518083038186803b158015610fe657600080fd5b505afa158015610ffa573d6000803e3d6000fd5b505050506040513d601f19601f8201168201806040525081019061101e919061894c565b90508173ffffffffffffffffffffffffffffffffffffffff1663a9059cbb84836040518363ffffffff1660e01b815260040161105b929190619081565b602060405180830381600087803b15801561107557600080fd5b505af1158015611089573d6000803e3d6000fd5b505050506040513d601f19601f820116820180604052508101906110ad91906188d1565b505b505050565b60007f4e2312e0000000000000000000000000000000000000000000000000000000007bffffffffffffffffffffffffffffffffffffffffffffffffffffffff1916827bffffffffffffffffffffffffffffffffffffffffffffffffffffffff191614806111275750611126826159d6565b5b9050919050565b6000611138613a4b565b15611178576040517f08c379a000000000000000000000000000000000000000000000000000000000815260040161116f90619598565b60405180910390fd5b600060166000858152602001908152602001600020604051806101000160405290816000820160009054906101000a900473ffffffffffffffffffffffffffffffffffffffff1673ffffffffffffffffffffffffffffffffffffffff1673ffffffffffffffffffffffffffffffffffffffff1681526020016001820160009054906101000a900473ffffffffffffffffffffffffffffffffffffffff1673ffffffffffffffffffffffffffffffffffffffff1673ffffffffffffffffffffffffffffffffffffffff1681526020016002820160009054906101000a900473ffffffffffffffffffffffffffffffffffffffff1673ffffffffffffffffffffffffffffffffffffffff1673ffffffffffffffffffffffffffffffffffffffff168152602001600382015481526020016004820154815260200160058201548152602001600682015481526020016007820160009054906101000a900460ff1615151515815250509050600081604001518260600151336040516020016112ff93929190618fe2565b604051602081830303815290604052805190602001209050600060156000838152602001908152602001600020549050600060146000838152602001908152602001600020604051806101400160405290816000820160009054906101000a900473ffffffffffffffffffffffffffffffffffffffff1673ffffffffffffffffffffffffffffffffffffffff1673ffffffffffffffffffffffffffffffffffffffff1681526020016001820160009054906101000a900473ffffffffffffffffffffffffffffffffffffffff1673ffffffffffffffffffffffffffffffffffffffff1673ffffffffffffffffffffffffffffffffffffffff1681526020016002820160009054906101000a900473ffffffffffffffffffffffffffffffffffffffff1673ffffffffffffffffffffffffffffffffffffffff1673ffffffffffffffffffffffffffffffffffffffff1681526020016003820160009054906101000a900473ffffffffffffffffffffffffffffffffffffffff1673ffffffffffffffffffffffffffffffffffffffff1673ffffffffffffffffffffffffffffffffffffffff168152602001600482015481526020016005820154815260200160068201548152602001600782015481526020016008820160009054906101000a900460ff161515151581526020016008820160019054906101000a900460ff16151515158152505090503373ffffffffffffffffffffffffffffffffffffffff16816000015173ffffffffffffffffffffffffffffffffffffffff1614801561154957508061010001515b611588576040517f08c379a000000000000000000000000000000000000000000000000000000000815260040161157f90619578565b60405180910390fd5b858160a00151101580156115a057508360a001518611155b80156115ad57508360e001515b6115ec576040517f08c379a00000000000000000000000000000000000000000000000000000000081526004016115e390619658565b60405180910390fd5b6000611605878660800151615a4090919063ffffffff16565b9050600061163f61271061163160065461271061162291906197dd565b85615a4090919063ffffffff16565b615a5690919063ffffffff16565b9050600160009054906101000a900473ffffffffffffffffffffffffffffffffffffffff1673ffffffffffffffffffffffffffffffffffffffff16866020015173ffffffffffffffffffffffffffffffffffffffff1614156116d9576116d66116c76127106116b9600b5486615a4090919063ffffffff16565b615a5690919063ffffffff16565b82615a6c90919063ffffffff16565b90505b600073ffffffffffffffffffffffffffffffffffffffff16866020015173ffffffffffffffffffffffffffffffffffffffff16146117475761174686600001513083896020015173ffffffffffffffffffffffffffffffffffffffff16615a82909392919063ffffffff16565b5b61177786600001518760200151868b8a608001518761176533615b0b565b6117728e60000151615b0b565b615bc4565b50887f39b82a7cab2f4a4e3eeaf375e5c52bb595c49b26a687549d444664688ea94ee960405160405180910390a26117af89896170cf565b965050505050505092915050565b60006117c76159ce565b73ffffffffffffffffffffffffffffffffffffffff166117e5613dea565b73ffffffffffffffffffffffffffffffffffffffff161461183b576040517f08c379a0000000000000000000000000000000000000000000000000000000008152600401611832906195d8565b60405180910390fd5b81600360006101000a81548173ffffffffffffffffffffffffffffffffffffffff021916908373ffffffffffffffffffffffffffffffffffffffff16021790555060019050919050565b600061188f6159ce565b73ffffffffffffffffffffffffffffffffffffffff166118ad613dea565b73ffffffffffffffffffffffffffffffffffffffff1614611903576040517f08c379a00000000000000000000000000000000000000000000000000000000081526004016118fa906195d8565b60405180910390fd5b81600160006101000a81548173ffffffffffffffffffffffffffffffffffffffff021916908373ffffffffffffffffffffffffffffffffffffffff16021790555060019050919050565b600c6020528060005260406000206000915054906101000a900460ff1681565b6119756159ce565b73ffffffffffffffffffffffffffffffffffffffff16611993613dea565b73ffffffffffffffffffffffffffffffffffffffff16146119e9576040517f08c379a00000000000000000000000000000000000000000000000000000000081526004016119e0906195d8565b60405180910390fd5b8173ffffffffffffffffffffffffffffffffffffffff1663a22cb4658260016040518363ffffffff1660e01b8152600401611a2592919061930e565b600060405180830381600087803b158015611a3f57600080fd5b505af1158015611a53573d6000803e3d6000fd5b505050505050565b600063150b7a0260e01b9050949350505050565b60125481565b6000611a7f613a4b565b15611abf576040517f08c379a0000000000000000000000000000000000000000000000000000000008152600401611ab690619598565b60405180910390fd5b60008411611b02576040517f08c379a0000000000000000000000000000000000000000000000000000000008152600401611af990619498565b60405180910390fd5b60008873ffffffffffffffffffffffffffffffffffffffff166301ffc9a76380ac58cd60e01b6040518263ffffffff1660e01b8152600401611b4491906193db565b60206040518083038186803b158015611b5c57600080fd5b505afa158015611b70573d6000803e3d6000fd5b505050506040513d601f19601f82011682018060405250810190611b9491906188d1565b905060008115611d1f573373ffffffffffffffffffffffffffffffffffffffff168a73ffffffffffffffffffffffffffffffffffffffff16636352211e896040518263ffffffff1660e01b8152600401611bee91906196b8565b60206040518083038186803b158015611c0657600080fd5b505afa158015611c1a573d6000803e3d6000fd5b505050506040513d601f19601f82011682018060405250810190611c3e9190618339565b73ffffffffffffffffffffffffffffffffffffffff1614611c60576000611c63565b60015b60ff16905085811015611cab576040517f08c379a0000000000000000000000000000000000000000000000000000000008152600401611ca290619558565b60405180910390fd5b8973ffffffffffffffffffffffffffffffffffffffff166342842e0e33308a6040518463ffffffff1660e01b8152600401611ce8939291906191c4565b600060405180830381600087803b158015611d0257600080fd5b505af1158015611d16573d6000803e3d6000fd5b50505050611e60565b8973ffffffffffffffffffffffffffffffffffffffff1662fdd58e33896040518363ffffffff1660e01b8152600401611d59929190619360565b60206040518083038186803b158015611d7157600080fd5b505afa158015611d85573d6000803e3d6000fd5b505050506040513d601f19601f82011682018060405250810190611da9919061894c565b905085811015611dee576040517f08c379a0000000000000000000000000000000000000000000000000000000008152600401611de590619558565b60405180910390fd5b8973ffffffffffffffffffffffffffffffffffffffff1663f242432a33308a8a6040518563ffffffff1660e01b8152600401611e2d9493929190619255565b600060405180830381600087803b158015611e4757600080fd5b505af1158015611e5b573d6000803e3d6000fd5b505050505b600c60008973ffffffffffffffffffffffffffffffffffffffff1673ffffffffffffffffffffffffffffffffffffffff16815260200190815260200160002060009054906101000a900460ff16611eec576040517f08c379a0000000000000000000000000000000000000000000000000000000008152600401611ee3906194b8565b60405180910390fd5b611ef4618008565b60018161010001901515908115158152505033816000019073ffffffffffffffffffffffffffffffffffffffff16908173ffffffffffffffffffffffffffffffffffffffff1681525050858160c0018181525050868160a0018181525050601060008b73ffffffffffffffffffffffffffffffffffffffff1673ffffffffffffffffffffffffffffffffffffffff16815260200190815260200160002060009054906101000a900460ff1615611fe75789816060019073ffffffffffffffffffffffffffffffffffffffff16908173ffffffffffffffffffffffffffffffffffffffff1681525050848160e00181815250505b8781608001818152505082816101200190151590811515815250508a816020019073ffffffffffffffffffffffffffffffffffffffff16908173ffffffffffffffffffffffffffffffffffffffff168152505088816040019073ffffffffffffffffffffffffffffffffffffffff16908173ffffffffffffffffffffffffffffffffffffffff1681525050600d60008c73ffffffffffffffffffffffffffffffffffffffff1673ffffffffffffffffffffffffffffffffffffffff16815260200190815260200160002060009054906101000a900460ff16801561217e57503373ffffffffffffffffffffffffffffffffffffffff168b73ffffffffffffffffffffffffffffffffffffffff1663d48e638a8a6040518263ffffffff1660e01b815260040161211691906196b8565b60206040518083038186803b15801561212e57600080fd5b505afa158015612142573d6000803e3d6000fd5b505050506040513d601f19601f820116820180604052508101906121669190618339565b73ffffffffffffffffffffffffffffffffffffffff16145b80156121da57506000601860008d73ffffffffffffffffffffffffffffffffffffffff1673ffffffffffffffffffffffffffffffffffffffff16815260200190815260200160002060008a815260200190815260200160002054145b801561225e57506000601760003373ffffffffffffffffffffffffffffffffffffffff1673ffffffffffffffffffffffffffffffffffffffff16815260200190815260200160002060008d8b604051602001612237929190618fb6565b60405160208183030381529060405280519060200120815260200190815260200160002054145b156122b95781601860008d73ffffffffffffffffffffffffffffffffffffffff1673ffffffffffffffffffffffffffffffffffffffff16815260200190815260200160002060008a8152602001908152602001600020819055505b600e60008c73ffffffffffffffffffffffffffffffffffffffff1673ffffffffffffffffffffffffffffffffffffffff16815260200190815260200160002060009054906101000a900460ff1680156123c657508a73ffffffffffffffffffffffffffffffffffffffff1663d48e638a896040518263ffffffff1660e01b815260040161234691906196b8565b60206040518083038186803b15801561235e57600080fd5b505afa158015612372573d6000803e3d6000fd5b505050506040513d601f19601f820116820180604052508101906123969190618339565b73ffffffffffffffffffffffffffffffffffffffff163373ffffffffffffffffffffffffffffffffffffffff1614155b801561244a57506000601760003373ffffffffffffffffffffffffffffffffffffffff1673ffffffffffffffffffffffffffffffffffffffff16815260200190815260200160002060008d8b604051602001612423929190618fb6565b60405160208183030381529060405280519060200120815260200190815260200160002054145b156124cd5781601960003373ffffffffffffffffffffffffffffffffffffffff1673ffffffffffffffffffffffffffffffffffffffff16815260200190815260200160002060008d8b6040516020016124a4929190618fb6565b604051602081830303815290604052805190602001208152602001908152602001600020819055505b8060146000601254815260200190815260200160002060008201518160000160006101000a81548173ffffffffffffffffffffffffffffffffffffffff021916908373ffffffffffffffffffffffffffffffffffffffff16021790555060208201518160010160006101000a81548173ffffffffffffffffffffffffffffffffffffffff021916908373ffffffffffffffffffffffffffffffffffffffff16021790555060408201518160020160006101000a81548173ffffffffffffffffffffffffffffffffffffffff021916908373ffffffffffffffffffffffffffffffffffffffff16021790555060608201518160030160006101000a81548173ffffffffffffffffffffffffffffffffffffffff021916908373ffffffffffffffffffffffffffffffffffffffff1602179055506080820151816004015560a0820151816005015560c0820151816006015560e082015181600701556101008201518160080160006101000a81548160ff0219169083151502179055506101208201518160080160016101000a81548160ff0219169083151502179055509050506012549350612687600160125461739790919063ffffffff16565b6012819055508688857fa3c7269751aac44df3e7658a3f7bb744b1ea9765bb933d9226e6dd0eba6cb6f98e8a8e6040516126c393929190619389565b60405180910390a460008b89336040516020016126e293929190618fe2565b60405160208183030381529060405280519060200120905084601560008381526020019081526020016000208190555050505050979650505050505050565b600061272b613a4b565b1561276b576040517f08c379a000000000000000000000000000000000000000000000000000000000815260040161276290619598565b60405180910390fd5b600084116127ae576040517f08c379a00000000000000000000000000000000000000000000000000000000081526004016127a590619498565b60405180910390fd5b600c60008773ffffffffffffffffffffffffffffffffffffffff1673ffffffffffffffffffffffffffffffffffffffff16815260200190815260200160002060009054906101000a900460ff1661283a576040517f08c379a0000000000000000000000000000000000000000000000000000000008152600401612831906194b8565b60405180910390fd5b6128426180b7565b33816000019073ffffffffffffffffffffffffffffffffffffffff16908173ffffffffffffffffffffffffffffffffffffffff168152505083816080018181525050848160a00181815250508581606001818152505087816040019073ffffffffffffffffffffffffffffffffffffffff16908173ffffffffffffffffffffffffffffffffffffffff1681525050600034111561296c576128ec8486615a4090919063ffffffff16565b34101561292e576040517f08c379a0000000000000000000000000000000000000000000000000000000008152600401612925906195f8565b60405180910390fd5b6000816020019073ffffffffffffffffffffffffffffffffffffffff16908173ffffffffffffffffffffffffffffffffffffffff16815250506129a5565b86816020019073ffffffffffffffffffffffffffffffffffffffff16908173ffffffffffffffffffffffffffffffffffffffff16815250505b60018160e0019015159081151581525050828160c00181815250508060166000601354815260200190815260200160002060008201518160000160006101000a81548173ffffffffffffffffffffffffffffffffffffffff021916908373ffffffffffffffffffffffffffffffffffffffff16021790555060208201518160010160006101000a81548173ffffffffffffffffffffffffffffffffffffffff021916908373ffffffffffffffffffffffffffffffffffffffff16021790555060408201518160020160006101000a81548173ffffffffffffffffffffffffffffffffffffffff021916908373ffffffffffffffffffffffffffffffffffffffff160217905550606082015181600301556080820151816004015560a0820151816005015560c0820151816006015560e08201518160070160006101000a81548160ff0219169083151502179055509050506013549150612b11600160135461739790919063ffffffff16565b6013819055508486837f5c16514d15965733767103439dd14e5cddc88675f8ce7521c5ce86ea90852f5e8b888c604051612b4d93929190619389565b60405180910390a4509695505050505050565b600d6020528060005260406000206000915054906101000a900460ff1681565b620f424081565b60166020528060005260406000206000915090508060000160009054906101000a900473ffffffffffffffffffffffffffffffffffffffff16908060010160009054906101000a900473ffffffffffffffffffffffffffffffffffffffff16908060020160009054906101000a900473ffffffffffffffffffffffffffffffffffffffff16908060030154908060040154908060050154908060060154908060070160009054906101000a900460ff16905088565b600a5481565b60075481565b600460009054906101000a900473ffffffffffffffffffffffffffffffffffffffff1681565b612c76613a4b565b15612cb6576040517f08c379a0000000000000000000000000000000000000000000000000000000008152600401612cad90619598565b60405180910390fd5b600060146000838152602001908152602001600020604051806101400160405290816000820160009054906101000a900473ffffffffffffffffffffffffffffffffffffffff1673ffffffffffffffffffffffffffffffffffffffff1673ffffffffffffffffffffffffffffffffffffffff1681526020016001820160009054906101000a900473ffffffffffffffffffffffffffffffffffffffff1673ffffffffffffffffffffffffffffffffffffffff1673ffffffffffffffffffffffffffffffffffffffff1681526020016002820160009054906101000a900473ffffffffffffffffffffffffffffffffffffffff1673ffffffffffffffffffffffffffffffffffffffff1673ffffffffffffffffffffffffffffffffffffffff1681526020016003820160009054906101000a900473ffffffffffffffffffffffffffffffffffffffff1673ffffffffffffffffffffffffffffffffffffffff1673ffffffffffffffffffffffffffffffffffffffff168152602001600482015481526020016005820154815260200160068201548152602001600782015481526020016008820160009054906101000a900460ff161515151581526020016008820160019054906101000a900460ff16151515158152505090503373ffffffffffffffffffffffffffffffffffffffff16816000015173ffffffffffffffffffffffffffffffffffffffff16148015612ed057508061010001515b612f0f576040517f08c379a0000000000000000000000000000000000000000000000000000000008152600401612f0690619578565b60405180910390fd5b80610120015115612f9a57806020015173ffffffffffffffffffffffffffffffffffffffff166342842e0e30836000015184608001516040518463ffffffff1660e01b8152600401612f63939291906191c4565b600060405180830381600087803b158015612f7d57600080fd5b505af1158015612f91573d6000803e3d6000fd5b5050505061305d565b806020015173ffffffffffffffffffffffffffffffffffffffff1663f242432a30836000015184608001518560a001517ff23a6e612e1ff4830e658fe43f4e3cb4a5f8170bd5d9e69fb5d7a7fa9e4fdf97604051602001612ffb919061901f565b6040516020818303038152906040526040518663ffffffff1660e01b815260040161302a9594939291906191fb565b600060405180830381600087803b15801561304457600080fd5b505af1158015613058573d6000803e3d6000fd5b505050505b60008160a0018181525050600081610100019015159081151581525050806014600084815260200190815260200160002060008201518160000160006101000a81548173ffffffffffffffffffffffffffffffffffffffff021916908373ffffffffffffffffffffffffffffffffffffffff16021790555060208201518160010160006101000a81548173ffffffffffffffffffffffffffffffffffffffff021916908373ffffffffffffffffffffffffffffffffffffffff16021790555060408201518160020160006101000a81548173ffffffffffffffffffffffffffffffffffffffff021916908373ffffffffffffffffffffffffffffffffffffffff16021790555060608201518160030160006101000a81548173ffffffffffffffffffffffffffffffffffffffff021916908373ffffffffffffffffffffffffffffffffffffffff1602179055506080820151816004015560a0820151816005015560c0820151816006015560e082015181600701556101008201518160080160006101000a81548160ff0219169083151502179055506101208201518160080160016101000a81548160ff021916908315150217905550905050817f61b9399f2f0f32ca39ce8d7be32caed5ec22fe07a6daba3a467ed479ec60658260405160405180910390a25050565b6000613252613a4b565b15613292576040517f08c379a000000000000000000000000000000000000000000000000000000000815260040161328990619598565b60405180910390fd5b600060146000868152602001908152602001600020604051806101400160405290816000820160009054906101000a900473ffffffffffffffffffffffffffffffffffffffff1673ffffffffffffffffffffffffffffffffffffffff1673ffffffffffffffffffffffffffffffffffffffff1681526020016001820160009054906101000a900473ffffffffffffffffffffffffffffffffffffffff1673ffffffffffffffffffffffffffffffffffffffff1673ffffffffffffffffffffffffffffffffffffffff1681526020016002820160009054906101000a900473ffffffffffffffffffffffffffffffffffffffff1673ffffffffffffffffffffffffffffffffffffffff1673ffffffffffffffffffffffffffffffffffffffff1681526020016003820160009054906101000a900473ffffffffffffffffffffffffffffffffffffffff1673ffffffffffffffffffffffffffffffffffffffff1673ffffffffffffffffffffffffffffffffffffffff168152602001600482015481526020016005820154815260200160068201548152602001600782015481526020016008820160009054906101000a900460ff161515151581526020016008820160019054906101000a900460ff1615151515815250509050600073ffffffffffffffffffffffffffffffffffffffff16816000015173ffffffffffffffffffffffffffffffffffffffff1614156134df576040517f08c379a00000000000000000000000000000000000000000000000000000000081526004016134d6906195b8565b60405180910390fd5b600c60008473ffffffffffffffffffffffffffffffffffffffff1673ffffffffffffffffffffffffffffffffffffffff16815260200190815260200160002060009054906101000a900460ff1661356b576040517f08c379a0000000000000000000000000000000000000000000000000000000008152600401613562906194b8565b60405180910390fd5b80610100015180156135815750838160a0015110155b6135c0576040517f08c379a00000000000000000000000000000000000000000000000000000000081526004016135b790619438565b60405180910390fd5b60006135d9858360c00151615a4090919063ffffffff16565b90506000826040015173ffffffffffffffffffffffffffffffffffffffff168573ffffffffffffffffffffffffffffffffffffffff1614156136525761364b61271061363d60065461271061362e91906197dd565b85615a4090919063ffffffff16565b615a5690919063ffffffff16565b9050613697565b61365c85836173ad565b915061369461271061368660065461271061367791906197dd565b85615a4090919063ffffffff16565b615a5690919063ffffffff16565b90505b600160009054906101000a900473ffffffffffffffffffffffffffffffffffffffff1673ffffffffffffffffffffffffffffffffffffffff168573ffffffffffffffffffffffffffffffffffffffff161480156136f657506000600b54115b1561373957613736613727612710613719600b5486615a4090919063ffffffff16565b615a5690919063ffffffff16565b82615a6c90919063ffffffff16565b90505b600073ffffffffffffffffffffffffffffffffffffffff168573ffffffffffffffffffffffffffffffffffffffff161480156137755750600034115b1561378c578034101561378757600080fd5b6137ba565b6137b93330838873ffffffffffffffffffffffffffffffffffffffff16615a82909392919063ffffffff16565b5b7f27f0e57684cd818b3b06246bbc63cf3366959e8e4dcdbd46aa5b2778f25e73b0878787846040516137ef94939291906196d3565b60405180910390a16138283386898961380c8a8960c001516173ad565b8761381a8a60000151615b0b565b61382333615b0b565b615bc4565b93505050509392505050565b600061383e6159ce565b73ffffffffffffffffffffffffffffffffffffffff1661385c613dea565b73ffffffffffffffffffffffffffffffffffffffff16146138b2576040517f08c379a00000000000000000000000000000000000000000000000000000000081526004016138a9906195d8565b60405180910390fd5b81600560006101000a81548173ffffffffffffffffffffffffffffffffffffffff021916908373ffffffffffffffffffffffffffffffffffffffff16021790555060019050919050565b6000600f60003373ffffffffffffffffffffffffffffffffffffffff1673ffffffffffffffffffffffffffffffffffffffff16815260200190815260200160002060009054906101000a900460ff1661398a576040517f08c379a000000000000000000000000000000000000000000000000000000000815260040161398190619618565b60405180910390fd5b82600d60008673ffffffffffffffffffffffffffffffffffffffff1673ffffffffffffffffffffffffffffffffffffffff16815260200190815260200160002060006101000a81548160ff0219169083151502179055508115613a40576001600e60008673ffffffffffffffffffffffffffffffffffffffff1673ffffffffffffffffffffffffffffffffffffffff16815260200190815260200160002060006101000a81548160ff0219169083151502179055505b600190509392505050565b60008060149054906101000a900460ff16905090565b60106020528060005260406000206000915054906101000a900460ff1681565b613a896159ce565b73ffffffffffffffffffffffffffffffffffffffff16613aa7613dea565b73ffffffffffffffffffffffffffffffffffffffff1614613afd576040517f08c379a0000000000000000000000000000000000000000000000000000000008152600401613af4906195d8565b60405180910390fd5b80600f60008473ffffffffffffffffffffffffffffffffffffffff1673ffffffffffffffffffffffffffffffffffffffff16815260200190815260200160002060006101000a81548160ff0219169083151502179055505050565b6019602052816000526040600020602052806000526040600020600091509150505481565b600f6020528060005260406000206000915054906101000a900460ff1681565b613ba56159ce565b73ffffffffffffffffffffffffffffffffffffffff16613bc3613dea565b73ffffffffffffffffffffffffffffffffffffffff1614613c19576040517f08c379a0000000000000000000000000000000000000000000000000000000008152600401613c10906195d8565b60405180910390fd5b8173ffffffffffffffffffffffffffffffffffffffff1663a22cb4658260016040518363ffffffff1660e01b8152600401613c5592919061930e565b600060405180830381600087803b158015613c6f57600080fd5b505af1158015613c83573d6000803e3d6000fd5b505050505050565b613c936159ce565b73ffffffffffffffffffffffffffffffffffffffff16613cb1613dea565b73ffffffffffffffffffffffffffffffffffffffff1614613d07576040517f08c379a0000000000000000000000000000000000000000000000000000000008152600401613cfe906195d8565b60405180910390fd5b613d116000617464565b565b600360009054906101000a900473ffffffffffffffffffffffffffffffffffffffff1681565b613d416159ce565b73ffffffffffffffffffffffffffffffffffffffff16613d5f613dea565b73ffffffffffffffffffffffffffffffffffffffff1614613db5576040517f08c379a0000000000000000000000000000000000000000000000000000000008152600401613dac906195d8565b60405180910390fd5b613dbd617528565b565b60135481565b6018602052816000526040600020602052806000526040600020600091509150505481565b60008060009054906101000a900473ffffffffffffffffffffffffffffffffffffffff16905090565b600260009054906101000a900473ffffffffffffffffffffffffffffffffffffffff1681565b61271081565b613e476159ce565b73ffffffffffffffffffffffffffffffffffffffff16613e65613dea565b73ffffffffffffffffffffffffffffffffffffffff1614613ebb576040517f08c379a0000000000000000000000000000000000000000000000000000000008152600401613eb2906195d8565b60405180910390fd5b80601060008473ffffffffffffffffffffffffffffffffffffffff1673ffffffffffffffffffffffffffffffffffffffff16815260200190815260200160002060006101000a81548160ff0219169083151502179055505050565b613f1e6159ce565b73ffffffffffffffffffffffffffffffffffffffff16613f3c613dea565b73ffffffffffffffffffffffffffffffffffffffff1614613f92576040517f08c379a0000000000000000000000000000000000000000000000000000000008152600401613f89906195d8565b60405180910390fd5b613fa08686868686866175cb565b505050505050565b613fb0613a4b565b15613ff0576040517f08c379a0000000000000000000000000000000000000000000000000000000008152600401613fe790619598565b60405180910390fd5b60026011541415614036576040517f08c379a000000000000000000000000000000000000000000000000000000000815260040161402d90619698565b60405180910390fd5b6002601181905550600060166000838152602001908152602001600020604051806101000160405290816000820160009054906101000a900473ffffffffffffffffffffffffffffffffffffffff1673ffffffffffffffffffffffffffffffffffffffff1673ffffffffffffffffffffffffffffffffffffffff1681526020016001820160009054906101000a900473ffffffffffffffffffffffffffffffffffffffff1673ffffffffffffffffffffffffffffffffffffffff1673ffffffffffffffffffffffffffffffffffffffff1681526020016002820160009054906101000a900473ffffffffffffffffffffffffffffffffffffffff1673ffffffffffffffffffffffffffffffffffffffff1673ffffffffffffffffffffffffffffffffffffffff168152602001600382015481526020016004820154815260200160058201548152602001600682015481526020016007820160009054906101000a900460ff16151515158152505090503373ffffffffffffffffffffffffffffffffffffffff16816000015173ffffffffffffffffffffffffffffffffffffffff1614614218576040517f08c379a000000000000000000000000000000000000000000000000000000000815260040161420f90619418565b60405180910390fd5b600073ffffffffffffffffffffffffffffffffffffffff16816020015173ffffffffffffffffffffffffffffffffffffffff16141561429b57600061426e82608001518360a00151615a4090919063ffffffff16565b9050614299813373ffffffffffffffffffffffffffffffffffffffff166175fd90919063ffffffff16565b505b60008160e001901515908115158152505060008160a0018181525050806016600084815260200190815260200160002060008201518160000160006101000a81548173ffffffffffffffffffffffffffffffffffffffff021916908373ffffffffffffffffffffffffffffffffffffffff16021790555060208201518160010160006101000a81548173ffffffffffffffffffffffffffffffffffffffff021916908373ffffffffffffffffffffffffffffffffffffffff16021790555060408201518160020160006101000a81548173ffffffffffffffffffffffffffffffffffffffff021916908373ffffffffffffffffffffffffffffffffffffffff160217905550606082015181600301556080820151816004015560a0820151816005015560c0820151816006015560e08201518160070160006101000a81548160ff021916908315150217905550905050817fc1546e394b1975212fe013e7e6995653585f44e568c407d1157483f7d4b9458160405160405180910390a250600160118190555050565b600160009054906101000a900473ffffffffffffffffffffffffffffffffffffffff1681565b60006144546159ce565b73ffffffffffffffffffffffffffffffffffffffff16614472613dea565b73ffffffffffffffffffffffffffffffffffffffff16146144c8576040517f08c379a00000000000000000000000000000000000000000000000000000000081526004016144bf906195d8565b60405180910390fd5b81600460006101000a81548173ffffffffffffffffffffffffffffffffffffffff021916908373ffffffffffffffffffffffffffffffffffffffff16021790555060019050919050565b60146020528060005260406000206000915090508060000160009054906101000a900473ffffffffffffffffffffffffffffffffffffffff16908060010160009054906101000a900473ffffffffffffffffffffffffffffffffffffffff16908060020160009054906101000a900473ffffffffffffffffffffffffffffffffffffffff16908060030160009054906101000a900473ffffffffffffffffffffffffffffffffffffffff16908060040154908060050154908060060154908060070154908060080160009054906101000a900460ff16908060080160019054906101000a900460ff1690508a565b7f000000000000000000000000000000000000000000000000000000000000000081565b61462c613a4b565b1561466c576040517f08c379a000000000000000000000000000000000000000000000000000000000815260040161466390619598565b60405180910390fd5b600060166000858152602001908152602001600020604051806101000160405290816000820160009054906101000a900473ffffffffffffffffffffffffffffffffffffffff1673ffffffffffffffffffffffffffffffffffffffff1673ffffffffffffffffffffffffffffffffffffffff1681526020016001820160009054906101000a900473ffffffffffffffffffffffffffffffffffffffff1673ffffffffffffffffffffffffffffffffffffffff1673ffffffffffffffffffffffffffffffffffffffff1681526020016002820160009054906101000a900473ffffffffffffffffffffffffffffffffffffffff1673ffffffffffffffffffffffffffffffffffffffff1673ffffffffffffffffffffffffffffffffffffffff168152602001600382015481526020016004820154815260200160058201548152602001600682015481526020016007820160009054906101000a900460ff16151515158152505090503373ffffffffffffffffffffffffffffffffffffffff16816000015173ffffffffffffffffffffffffffffffffffffffff1614614846576040517f08c379a000000000000000000000000000000000000000000000000000000000815260040161483d90619418565b60405180910390fd5b828160a001818152505081816080018181525050806016600086815260200190815260200160002060008201518160000160006101000a81548173ffffffffffffffffffffffffffffffffffffffff021916908373ffffffffffffffffffffffffffffffffffffffff16021790555060208201518160010160006101000a81548173ffffffffffffffffffffffffffffffffffffffff021916908373ffffffffffffffffffffffffffffffffffffffff16021790555060408201518160020160006101000a81548173ffffffffffffffffffffffffffffffffffffffff021916908373ffffffffffffffffffffffffffffffffffffffff160217905550606082015181600301556080820151816004015560a0820151816005015560c0820151816006015560e08201518160070160006101000a81548160ff021916908315150217905550905050837fb16ba0a2ed46bbba0676798be43c6d757a6a5d4fb13a251ee5c0075bf726498960405160405180910390a250505050565b600063bc197c8160e01b905095945050505050565b600e6020528060005260406000206000915054906101000a900460ff1681565b60085481565b600560009054906101000a900473ffffffffffffffffffffffffffffffffffffffff1681565b60095481565b670de0b6b3a764000081565b614a3c613a4b565b15614a7c576040517f08c379a0000000000000000000000000000000000000000000000000000000008152600401614a7390619598565b60405180910390fd5b600060146000878152602001908152602001600020604051806101400160405290816000820160009054906101000a900473ffffffffffffffffffffffffffffffffffffffff1673ffffffffffffffffffffffffffffffffffffffff1673ffffffffffffffffffffffffffffffffffffffff1681526020016001820160009054906101000a900473ffffffffffffffffffffffffffffffffffffffff1673ffffffffffffffffffffffffffffffffffffffff1673ffffffffffffffffffffffffffffffffffffffff1681526020016002820160009054906101000a900473ffffffffffffffffffffffffffffffffffffffff1673ffffffffffffffffffffffffffffffffffffffff1673ffffffffffffffffffffffffffffffffffffffff1681526020016003820160009054906101000a900473ffffffffffffffffffffffffffffffffffffffff1673ffffffffffffffffffffffffffffffffffffffff1673ffffffffffffffffffffffffffffffffffffffff168152602001600482015481526020016005820154815260200160068201548152602001600782015481526020016008820160009054906101000a900460ff161515151581526020016008820160019054906101000a900460ff16151515158152505090503373ffffffffffffffffffffffffffffffffffffffff16816000015173ffffffffffffffffffffffffffffffffffffffff16148015614c9657508061010001515b614cd5576040517f08c379a0000000000000000000000000000000000000000000000000000000008152600401614ccc90619578565b60405180910390fd5b8060a0015185118015614ceb5750806101200151155b15614d8e57806020015173ffffffffffffffffffffffffffffffffffffffff1663f242432a33308460800151614d2e8660a001518b615a6c90919063ffffffff16565b6040518563ffffffff1660e01b8152600401614d4d9493929190619255565b600060405180830381600087803b158015614d6757600080fd5b505af1158015614d7b573d6000803e3d6000fd5b50505050848160a0018181525050614e76565b8060a00151851015614e7557806020015173ffffffffffffffffffffffffffffffffffffffff1663f242432a30338460800151614dd88a8760a00151615a6c90919063ffffffff16565b7ff23a6e612e1ff4830e658fe43f4e3cb4a5f8170bd5d9e69fb5d7a7fa9e4fdf97604051602001614e09919061901f565b6040516020818303038152906040526040518663ffffffff1660e01b8152600401614e389594939291906191fb565b600060405180830381600087803b158015614e5257600080fd5b505af1158015614e66573d6000803e3d6000fd5b50505050848160a00181815250505b5b838160c0018181525050806014600088815260200190815260200160002060008201518160000160006101000a81548173ffffffffffffffffffffffffffffffffffffffff021916908373ffffffffffffffffffffffffffffffffffffffff16021790555060208201518160010160006101000a81548173ffffffffffffffffffffffffffffffffffffffff021916908373ffffffffffffffffffffffffffffffffffffffff16021790555060408201518160020160006101000a81548173ffffffffffffffffffffffffffffffffffffffff021916908373ffffffffffffffffffffffffffffffffffffffff16021790555060608201518160030160006101000a81548173ffffffffffffffffffffffffffffffffffffffff021916908373ffffffffffffffffffffffffffffffffffffffff1602179055506080820151816004015560a0820151816005015560c0820151816006015560e082015181600701556101008201518160080160006101000a81548160ff0219169083151502179055506101208201518160080160016101000a81548160ff02191690831515021790555090505081816060019073ffffffffffffffffffffffffffffffffffffffff16908173ffffffffffffffffffffffffffffffffffffffff1681525050828160e0018181525050857fb8b459bc0688c37baf5f735d17f1711684bc14ab7db116f88bc18bf409b9309a60405160405180910390a2505050505050565b600b5481565b60065481565b60006150aa6159ce565b73ffffffffffffffffffffffffffffffffffffffff166150c8613dea565b73ffffffffffffffffffffffffffffffffffffffff161461511e576040517f08c379a0000000000000000000000000000000000000000000000000000000008152600401615115906195d8565b60405180910390fd5b81600c60008573ffffffffffffffffffffffffffffffffffffffff1673ffffffffffffffffffffffffffffffffffffffff16815260200190815260200160002060006101000a81548160ff021916908315150217905550600073ffffffffffffffffffffffffffffffffffffffff168373ffffffffffffffffffffffffffffffffffffffff1614615306578273ffffffffffffffffffffffffffffffffffffffff1663095ea7b3337fffffffffffffffffffffffffffffffffffffffffffffffffffffffffffffffff6040518363ffffffff1660e01b8152600401615204929190619337565b602060405180830381600087803b15801561521e57600080fd5b505af1158015615232573d6000803e3d6000fd5b505050506040513d601f19601f8201168201806040525081019061525691906188d1565b508273ffffffffffffffffffffffffffffffffffffffff1663095ea7b3307fffffffffffffffffffffffffffffffffffffffffffffffffffffffffffffffff6040518363ffffffff1660e01b81526004016152b2929190619337565b602060405180830381600087803b1580156152cc57600080fd5b505af11580156152e0573d6000803e3d6000fd5b505050506040513d601f19601f8201168201806040525081019061530491906188d1565b505b6001905092915050565b6153186159ce565b73ffffffffffffffffffffffffffffffffffffffff16615336613dea565b73ffffffffffffffffffffffffffffffffffffffff161461538c576040517f08c379a0000000000000000000000000000000000000000000000000000000008152600401615383906195d8565b60405180910390fd5b60008290505b818111615836576000806000806000807f000000000000000000000000000000000000000000000000000000000000000073ffffffffffffffffffffffffffffffffffffffff1663a85c38ef886040518263ffffffff1660e01b81526004016153fb91906196b8565b6101406040518083038186803b15801561541457600080fd5b505afa158015615428573d6000803e3d6000fd5b505050506040513d601f19601f8201168201806040525081019061544c9190618403565b505050965096509650509550955095506000821115615801578473ffffffffffffffffffffffffffffffffffffffff1663f242432a7f00000000000000000000000000000000000000000000000000000000000000003086866040518563ffffffff1660e01b81526004016154c49493929190619255565b600060405180830381600087803b1580156154de57600080fd5b505af11580156154f2573d6000803e3d6000fd5b505050506154fe618008565b60018161010001901515908115158152505086816000019073ffffffffffffffffffffffffffffffffffffffff16908173ffffffffffffffffffffffffffffffffffffffff168152505061558361280a6155756127106155678787615a5690919063ffffffff16565b615a4090919063ffffffff16565b615a5690919063ffffffff16565b8160c0018181525050828160a00181815250508381608001818152505085816020019073ffffffffffffffffffffffffffffffffffffffff16908173ffffffffffffffffffffffffffffffffffffffff168152505084816040019073ffffffffffffffffffffffffffffffffffffffff16908173ffffffffffffffffffffffffffffffffffffffff16815250508060146000601254815260200190815260200160002060008201518160000160006101000a81548173ffffffffffffffffffffffffffffffffffffffff021916908373ffffffffffffffffffffffffffffffffffffffff16021790555060208201518160010160006101000a81548173ffffffffffffffffffffffffffffffffffffffff021916908373ffffffffffffffffffffffffffffffffffffffff16021790555060408201518160020160006101000a81548173ffffffffffffffffffffffffffffffffffffffff021916908373ffffffffffffffffffffffffffffffffffffffff16021790555060608201518160030160006101000a81548173ffffffffffffffffffffffffffffffffffffffff021916908373ffffffffffffffffffffffffffffffffffffffff1602179055506080820151816004015560a0820151816005015560c0820151816006015560e082015181600701556101008201518160080160006101000a81548160ff0219169083151502179055506101208201518160080160016101000a81548160ff02191690831515021790555090505060006012549050600087868a6040516020016157cd93929190618fe2565b6040516020818303038152906040528051906020012090508160156000838152602001908152602001600020819055505050505b615817600160125461739790919063ffffffff16565b601281905550505050505050808061582e90619bbb565b915050615392565b505050565b600063f23a6e6160e01b905095945050505050565b6158586159ce565b73ffffffffffffffffffffffffffffffffffffffff16615876613dea565b73ffffffffffffffffffffffffffffffffffffffff16146158cc576040517f08c379a00000000000000000000000000000000000000000000000000000000081526004016158c3906195d8565b60405180910390fd5b600073ffffffffffffffffffffffffffffffffffffffff168173ffffffffffffffffffffffffffffffffffffffff16141561593c576040517f08c379a000000000000000000000000000000000000000000000000000000000815260040161593390619478565b60405180910390fd5b61594581617464565b50565b6159506159ce565b73ffffffffffffffffffffffffffffffffffffffff1661596e613dea565b73ffffffffffffffffffffffffffffffffffffffff16146159c4576040517f08c379a00000000000000000000000000000000000000000000000000000000081526004016159bb906195d8565b60405180910390fd5b6159cc6176f1565b565b600033905090565b60007f01ffc9a7000000000000000000000000000000000000000000000000000000007bffffffffffffffffffffffffffffffffffffffffffffffffffffffff1916827bffffffffffffffffffffffffffffffffffffffffffffffffffffffff1916149050919050565b60008183615a4e91906199d5565b905092915050565b60008183615a649190619833565b905092915050565b60008183615a7a9190619a2f565b905092915050565b615b05846323b872dd60e01b858585604051602401615aa3939291906191c4565b604051602081830303815290604052907bffffffffffffffffffffffffffffffffffffffffffffffffffffffff19166020820180517bffffffffffffffffffffffffffffffffffffffffffffffffffffffff8381831617835250505050617792565b50505050565b600080600360009054906101000a900473ffffffffffffffffffffffffffffffffffffffff1673ffffffffffffffffffffffffffffffffffffffff16633b0f0f2f846040518263ffffffff1660e01b8152600401615b699190619066565b60206040518083038186803b158015615b8157600080fd5b505afa158015615b95573d6000803e3d6000fd5b505050506040513d601f19601f82011682018060405250810190615bb99190618362565b905080915050919050565b60008060146000898152602001908152602001600020604051806101400160405290816000820160009054906101000a900473ffffffffffffffffffffffffffffffffffffffff1673ffffffffffffffffffffffffffffffffffffffff1673ffffffffffffffffffffffffffffffffffffffff1681526020016001820160009054906101000a900473ffffffffffffffffffffffffffffffffffffffff1673ffffffffffffffffffffffffffffffffffffffff1673ffffffffffffffffffffffffffffffffffffffff1681526020016002820160009054906101000a900473ffffffffffffffffffffffffffffffffffffffff1673ffffffffffffffffffffffffffffffffffffffff1673ffffffffffffffffffffffffffffffffffffffff1681526020016003820160009054906101000a900473ffffffffffffffffffffffffffffffffffffffff1673ffffffffffffffffffffffffffffffffffffffff1673ffffffffffffffffffffffffffffffffffffffff168152602001600482015481526020016005820154815260200160068201548152602001600782015481526020016008820160009054906101000a900460ff161515151581526020016008820160019054906101000a900460ff16151515158152505090506000859050600073ffffffffffffffffffffffffffffffffffffffff168473ffffffffffffffffffffffffffffffffffffffff1614615e7d576000615e2f6002612710615deb91906198b7565b615e21600854612710615dfe9190619a2f565b615e136006548c615a4090919063ffffffff16565b615a4090919063ffffffff16565b615a5690919063ffffffff16565b9050615e3c8b8683617859565b6000600a541115615e7b57615e7a8b8d615e75612710615e67600a548d615a4090919063ffffffff16565b615a5690919063ffffffff16565b617859565b5b505b600073ffffffffffffffffffffffffffffffffffffffff16826060015173ffffffffffffffffffffffffffffffffffffffff1614615f2e57615eee8a8360600151615ee9612710615edb8760e001518c615a4090919063ffffffff16565b615a5690919063ffffffff16565b617859565b615f2b615f1c612710615f0e8560e001518a615a4090919063ffffffff16565b615a5690919063ffffffff16565b82615a6c90919063ffffffff16565b90505b600d6000836020015173ffffffffffffffffffffffffffffffffffffffff1673ffffffffffffffffffffffffffffffffffffffff16815260200190815260200160002060009054906101000a900460ff1615616f9f576000826020015173ffffffffffffffffffffffffffffffffffffffff1663d48e638a84608001516040518263ffffffff1660e01b8152600401615fc791906196b8565b60206040518083038186803b158015615fdf57600080fd5b505afa158015615ff3573d6000803e3d6000fd5b505050506040513d601f19601f820116820180604052508101906160179190618339565b9050600060186000856020015173ffffffffffffffffffffffffffffffffffffffff1673ffffffffffffffffffffffffffffffffffffffff168152602001908152602001600020600085608001518152602001908152602001600020541180156160b05750826000015173ffffffffffffffffffffffffffffffffffffffff168173ffffffffffffffffffffffffffffffffffffffff16145b156167a557600073ffffffffffffffffffffffffffffffffffffffff168673ffffffffffffffffffffffffffffffffffffffff16146164c25760008960186000866020015173ffffffffffffffffffffffffffffffffffffffff1673ffffffffffffffffffffffffffffffffffffffff16815260200190815260200160002060008660800151815260200190815260200160002054106162ab576161a0600261271061615c91906198b7565b61619260085461271061616f9190619a2f565b6161846007548d615a4090919063ffffffff16565b615a4090919063ffffffff16565b615a5690919063ffffffff16565b90506161dd6161ce6127106161c06007548c615a4090919063ffffffff16565b615a5690919063ffffffff16565b84615a6c90919063ffffffff16565b925061624a8a60186000876020015173ffffffffffffffffffffffffffffffffffffffff1673ffffffffffffffffffffffffffffffffffffffff16815260200190815260200160002060008760800151815260200190815260200160002054615a6c90919063ffffffff16565b60186000866020015173ffffffffffffffffffffffffffffffffffffffff1673ffffffffffffffffffffffffffffffffffffffff168152602001908152602001600020600086608001518152602001908152602001600020819055506164b1565b600061632c60075461631e8c601860008a6020015173ffffffffffffffffffffffffffffffffffffffff1673ffffffffffffffffffffffffffffffffffffffff16815260200190815260200160002060008a60800151815260200190815260200160002054615a4090919063ffffffff16565b615a4090919063ffffffff16565b905061635561634661271083615a5690919063ffffffff16565b85615a6c90919063ffffffff16565b9350616399600261271061636991906198b7565b61638b60085461271061637c9190619a2f565b84615a4090919063ffffffff16565b615a5690919063ffffffff16565b905080915060186000866020015173ffffffffffffffffffffffffffffffffffffffff1673ffffffffffffffffffffffffffffffffffffffff168152602001908152602001600020600086608001518152602001908152602001600020548b6164029190619a2f565b905061642b60065461641d8c84615a4090919063ffffffff16565b615a4090919063ffffffff16565b905061645461644561271083615a5690919063ffffffff16565b85615a6c90919063ffffffff16565b9350616498600261271061646891906198b7565b61648a60085461271061647b9190619a2f565b84615a4090919063ffffffff16565b615a5690919063ffffffff16565b90506164ad818361739790919063ffffffff16565b9150505b6164bc8c8883617859565b50616791565b8860186000856020015173ffffffffffffffffffffffffffffffffffffffff1673ffffffffffffffffffffffffffffffffffffffff168152602001908152602001600020600085608001518152602001908152602001600020541061662a5761655c61654d61271061653f6007548b615a4090919063ffffffff16565b615a5690919063ffffffff16565b83615a6c90919063ffffffff16565b91506165c98960186000866020015173ffffffffffffffffffffffffffffffffffffffff1673ffffffffffffffffffffffffffffffffffffffff16815260200190815260200160002060008660800151815260200190815260200160002054615a6c90919063ffffffff16565b60186000856020015173ffffffffffffffffffffffffffffffffffffffff1673ffffffffffffffffffffffffffffffffffffffff16815260200190815260200160002060008560800151815260200190815260200160002081905550616790565b60006166bf6127106166b16007546166a38d601860008b6020015173ffffffffffffffffffffffffffffffffffffffff1673ffffffffffffffffffffffffffffffffffffffff16815260200190815260200160002060008b60800151815260200190815260200160002054615a4090919063ffffffff16565b615a4090919063ffffffff16565b615a5690919063ffffffff16565b90506166d48184615a6c90919063ffffffff16565b925060186000856020015173ffffffffffffffffffffffffffffffffffffffff1673ffffffffffffffffffffffffffffffffffffffff168152602001908152602001600020600085608001518152602001908152602001600020548a61673a9190619a2f565b905061677761271061676960065461675b8d86615a4090919063ffffffff16565b615a4090919063ffffffff16565b615a5690919063ffffffff16565b905061678c8184615a6c90919063ffffffff16565b9250505b5b6167a08b846000015184617859565b616f99565b600e6000846020015173ffffffffffffffffffffffffffffffffffffffff1673ffffffffffffffffffffffffffffffffffffffff16815260200190815260200160002060009054906101000a900460ff16801561683257508073ffffffffffffffffffffffffffffffffffffffff16836000015173ffffffffffffffffffffffffffffffffffffffff1614155b80156168c25750600060196000856000015173ffffffffffffffffffffffffffffffffffffffff1673ffffffffffffffffffffffffffffffffffffffff16815260200190815260200160002060008560200151866080015160405160200161689b929190618fb6565b60405160208183030381529060405280519060200120815260200190815260200160002054115b15616cfa57600060196000856000015173ffffffffffffffffffffffffffffffffffffffff1673ffffffffffffffffffffffffffffffffffffffff168152602001908152602001600020600085602001518660800151604051602001616929929190618fb6565b604051602081830303815290604052805190602001208152602001908152602001600020549050898110616a835761698a8c836169856127106169776009548e615a4090919063ffffffff16565b615a5690919063ffffffff16565b617859565b6169d26169c36127106169b56009546127106169a69190619a2f565b8c615a4090919063ffffffff16565b615a5690919063ffffffff16565b84615a6c90919063ffffffff16565b92506169e38c856000015185617859565b6169f68a82615a6c90919063ffffffff16565b60196000866000015173ffffffffffffffffffffffffffffffffffffffff1673ffffffffffffffffffffffffffffffffffffffff168152602001908152602001600020600086602001518760800151604051602001616a56929190618fb6565b60405160208183030381529060405280519060200120815260200190815260200160002081905550616cf4565b6000616ac0612710616ab2600954616aa48e87615a4090919063ffffffff16565b615a4090919063ffffffff16565b615a5690919063ffffffff16565b9050616ad58185615a6c90919063ffffffff16565b9350616aea828c615a6c90919063ffffffff16565b9150600560009054906101000a900473ffffffffffffffffffffffffffffffffffffffff1673ffffffffffffffffffffffffffffffffffffffff16634623afa186602001518f8860800151868f601760008d6000015173ffffffffffffffffffffffffffffffffffffffff1673ffffffffffffffffffffffffffffffffffffffff16815260200190815260200160002060008d602001518e60800151604051602001616b97929190618fb6565b604051602081830303815290604052805190602001208152602001908152602001600020546040518763ffffffff1660e01b8152600401616bdd969594939291906192ad565b602060405180830381600087803b158015616bf757600080fd5b505af1158015616c0b573d6000803e3d6000fd5b505050506040513d601f19601f82011682018060405250810190616c2f919061894c565b81616c3a91906197dd565b9050616c478d8483617859565b616c688d8660000151616c638488615a6c90919063ffffffff16565b617859565b600060196000876000015173ffffffffffffffffffffffffffffffffffffffff1673ffffffffffffffffffffffffffffffffffffffff168152602001908152602001600020600087602001518860800151604051602001616cca929190618fb6565b60405160208183030381529060405280519060200120815260200190815260200160002081905550505b50616f98565b616d35616d26612710616d186006548b615a4090919063ffffffff16565b615a5690919063ffffffff16565b83615a6c90919063ffffffff16565b9150600073ffffffffffffffffffffffffffffffffffffffff168673ffffffffffffffffffffffffffffffffffffffff1614616dcc57616dcb8b87616dc66002612710616d8291906198b7565b616db8600854612710616d959190619a2f565b616daa6006548f615a4090919063ffffffff16565b615a4090919063ffffffff16565b615a5690919063ffffffff16565b617859565b5b8073ffffffffffffffffffffffffffffffffffffffff16836000015173ffffffffffffffffffffffffffffffffffffffff161415616e1857616e138b846000015184617859565b616f97565b6000600560009054906101000a900473ffffffffffffffffffffffffffffffffffffffff1673ffffffffffffffffffffffffffffffffffffffff16634623afa185602001518e87608001518e8e601760008c6000015173ffffffffffffffffffffffffffffffffffffffff1673ffffffffffffffffffffffffffffffffffffffff16815260200190815260200160002060008c602001518d60800151604051602001616ec5929190618fb6565b604051602081830303815290604052805190602001208152602001908152602001600020546040518763ffffffff1660e01b8152600401616f0b969594939291906192ad565b602060405180830381600087803b158015616f2557600080fd5b505af1158015616f39573d6000803e3d6000fd5b505050506040513d601f19601f82011682018060405250810190616f5d919061894c565b90506000811115616f7457616f738c8383617859565b5b616f958c8560000151616f908487615a6c90919063ffffffff16565b617859565b505b5b5b50617081565b616fda616fcb612710616fbd6006548a615a4090919063ffffffff16565b615a5690919063ffffffff16565b82615a6c90919063ffffffff16565b9050600073ffffffffffffffffffffffffffffffffffffffff168573ffffffffffffffffffffffffffffffffffffffff1614617071576170708a8661706b600261271061702791906198b7565b61705d60085461271061703a9190619a2f565b61704f6006548e615a4090919063ffffffff16565b615a4090919063ffffffff16565b615a5690919063ffffffff16565b617859565b5b6170808a836000015183617859565b5b6170bf8b8b8b8b8b876020015188608001516040516020016170a4929190618fb6565b6040516020818303038152906040528051906020012061795d565b9250505098975050505050505050565b60008060166000858152602001908152602001600020604051806101000160405290816000820160009054906101000a900473ffffffffffffffffffffffffffffffffffffffff1673ffffffffffffffffffffffffffffffffffffffff1673ffffffffffffffffffffffffffffffffffffffff1681526020016001820160009054906101000a900473ffffffffffffffffffffffffffffffffffffffff1673ffffffffffffffffffffffffffffffffffffffff1673ffffffffffffffffffffffffffffffffffffffff1681526020016002820160009054906101000a900473ffffffffffffffffffffffffffffffffffffffff1673ffffffffffffffffffffffffffffffffffffffff1673ffffffffffffffffffffffffffffffffffffffff168152602001600382015481526020016004820154815260200160058201548152602001600682015481526020016007820160009054906101000a900460ff161515151581525050905061724f838260a00151615a6c90919063ffffffff16565b8160a0018181525050806016600086815260200190815260200160002060008201518160000160006101000a81548173ffffffffffffffffffffffffffffffffffffffff021916908373ffffffffffffffffffffffffffffffffffffffff16021790555060208201518160010160006101000a81548173ffffffffffffffffffffffffffffffffffffffff021916908373ffffffffffffffffffffffffffffffffffffffff16021790555060408201518160020160006101000a81548173ffffffffffffffffffffffffffffffffffffffff021916908373ffffffffffffffffffffffffffffffffffffffff160217905550606082015181600301556080820151816004015560a0820151816005015560c0820151816006015560e08201518160070160006101000a81548160ff021916908315150217905550905050600191505092915050565b600081836173a591906197dd565b905092915050565b6000600460009054906101000a900473ffffffffffffffffffffffffffffffffffffffff1673ffffffffffffffffffffffffffffffffffffffff166366ad7b2b84846040518363ffffffff1660e01b815260040161740c929190619360565b60206040518083038186803b15801561742457600080fd5b505afa158015617438573d6000803e3d6000fd5b505050506040513d601f19601f8201168201806040525081019061745c919061894c565b905092915050565b60008060009054906101000a900473ffffffffffffffffffffffffffffffffffffffff169050816000806101000a81548173ffffffffffffffffffffffffffffffffffffffff021916908373ffffffffffffffffffffffffffffffffffffffff1602179055508173ffffffffffffffffffffffffffffffffffffffff168173ffffffffffffffffffffffffffffffffffffffff167f8be0079c531659141344cd1fd0a4f28419497f9722a3daafe3b4186f6b6457e060405160405180910390a35050565b617530613a4b565b15617570576040517f08c379a000000000000000000000000000000000000000000000000000000000815260040161756790619598565b60405180910390fd5b6001600060146101000a81548160ff0219169083151502179055507f62e78cea01bee320cd4e420270b5ea74000d11b0c9f74754ebdbfc544b05a2586175b46159ce565b6040516175c19190619066565b60405180910390a1565b8560068190555084600781905550836008819055508260098190555081600a8190555080600b81905550505050505050565b80471015617640576040517f08c379a0000000000000000000000000000000000000000000000000000000008152600401617637906194f8565b60405180910390fd5b60008273ffffffffffffffffffffffffffffffffffffffff168260405161766690619051565b60006040518083038185875af1925050503d80600081146176a3576040519150601f19603f3d011682016040523d82523d6000602084013e6176a8565b606091505b50509050806176ec576040517f08c379a00000000000000000000000000000000000000000000000000000000081526004016176e3906194d8565b60405180910390fd5b505050565b6176f9613a4b565b617738576040517f08c379a000000000000000000000000000000000000000000000000000000000815260040161772f90619458565b60405180910390fd5b60008060146101000a81548160ff0219169083151502179055507f5db9ee0a495bf2e6ff9c91a7834c1ba4fdd244a5e8aa4e537bd38aeae4b073aa61777b6159ce565b6040516177889190619066565b60405180910390a1565b60006177f4826040518060400160405280602081526020017f5361666545524332303a206c6f772d6c6576656c2063616c6c206661696c65648152508573ffffffffffffffffffffffffffffffffffffffff16617d259092919063ffffffff16565b9050600081511115617854578080602001905181019061781491906188d1565b617853576040517f08c379a000000000000000000000000000000000000000000000000000000000815260040161784a90619678565b60405180910390fd5b5b505050565b600073ffffffffffffffffffffffffffffffffffffffff168273ffffffffffffffffffffffffffffffffffffffff1614156178c9576040517f08c379a00000000000000000000000000000000000000000000000000000000081526004016178c090619538565b60405180910390fd5b600073ffffffffffffffffffffffffffffffffffffffff168373ffffffffffffffffffffffffffffffffffffffff16141561792c57617927818373ffffffffffffffffffffffffffffffffffffffff166175fd90919063ffffffff16565b617958565b61795782828573ffffffffffffffffffffffffffffffffffffffff16617d3d9092919063ffffffff16565b5b505050565b60008060146000878152602001908152602001600020604051806101400160405290816000820160009054906101000a900473ffffffffffffffffffffffffffffffffffffffff1673ffffffffffffffffffffffffffffffffffffffff1673ffffffffffffffffffffffffffffffffffffffff1681526020016001820160009054906101000a900473ffffffffffffffffffffffffffffffffffffffff1673ffffffffffffffffffffffffffffffffffffffff1673ffffffffffffffffffffffffffffffffffffffff1681526020016002820160009054906101000a900473ffffffffffffffffffffffffffffffffffffffff1673ffffffffffffffffffffffffffffffffffffffff1673ffffffffffffffffffffffffffffffffffffffff1681526020016003820160009054906101000a900473ffffffffffffffffffffffffffffffffffffffff1673ffffffffffffffffffffffffffffffffffffffff1673ffffffffffffffffffffffffffffffffffffffff168152602001600482015481526020016005820154815260200160068201548152602001600782015481526020016008820160009054906101000a900460ff161515151581526020016008820160019054906101000a900460ff161515151581525050905080610120015115617bbe57806020015173ffffffffffffffffffffffffffffffffffffffff166342842e0e308a84608001516040518463ffffffff1660e01b8152600401617b87939291906191c4565b600060405180830381600087803b158015617ba157600080fd5b505af1158015617bb5573d6000803e3d6000fd5b50505050617c79565b806020015173ffffffffffffffffffffffffffffffffffffffff1663f242432a308a8460800151897ff23a6e612e1ff4830e658fe43f4e3cb4a5f8170bd5d9e69fb5d7a7fa9e4fdf97604051602001617c17919061901f565b6040516020818303038152906040526040518663ffffffff1660e01b8152600401617c469594939291906191fb565b600060405180830381600087803b158015617c6057600080fd5b505af1158015617c74573d6000803e3d6000fd5b505050505b617c90858260a00151615a6c90919063ffffffff16565b8160a00181815250508060a001516014600088815260200190815260200160002060050181905550617cc28785617dc3565b601760008a73ffffffffffffffffffffffffffffffffffffffff1673ffffffffffffffffffffffffffffffffffffffff16815260200190815260200160002060008581526020019081526020016000208190555060019150509695505050505050565b6060617d348484600085617e7a565b90509392505050565b617dbe8363a9059cbb60e01b8484604051602401617d5c929190619360565b604051602081830303815290604052907bffffffffffffffffffffffffffffffffffffffffffffffffffffffff19166020820180517bffffffffffffffffffffffffffffffffffffffffffffffffffffffff8381831617835250505050617792565b505050565b6000600460009054906101000a900473ffffffffffffffffffffffffffffffffffffffff1673ffffffffffffffffffffffffffffffffffffffff16630d38c59684846040518363ffffffff1660e01b8152600401617e22929190619360565b60206040518083038186803b158015617e3a57600080fd5b505afa158015617e4e573d6000803e3d6000fd5b505050506040513d601f19601f82011682018060405250810190617e72919061894c565b905092915050565b606082471015617ebf576040517f08c379a0000000000000000000000000000000000000000000000000000000008152600401617eb690619518565b60405180910390fd5b617ec885617f8e565b617f07576040517f08c379a0000000000000000000000000000000000000000000000000000000008152600401617efe90619638565b60405180910390fd5b6000808673ffffffffffffffffffffffffffffffffffffffff168587604051617f30919061903a565b60006040518083038185875af1925050503d8060008114617f6d576040519150601f19603f3d011682016040523d82523d6000602084013e617f72565b606091505b5091509150617f82828286617fa1565b92505050949350505050565b600080823b905060008111915050919050565b60608315617fb157829050618001565b600083511115617fc45782518084602001fd5b816040517f08c379a0000000000000000000000000000000000000000000000000000000008152600401617ff891906193f6565b60405180910390fd5b9392505050565b604051806101400160405280600073ffffffffffffffffffffffffffffffffffffffff168152602001600073ffffffffffffffffffffffffffffffffffffffff168152602001600073ffffffffffffffffffffffffffffffffffffffff168152602001600073ffffffffffffffffffffffffffffffffffffffff168152602001600081526020016000815260200160008152602001600081526020016000151581526020016000151581525090565b604051806101000160405280600073ffffffffffffffffffffffffffffffffffffffff168152602001600073ffffffffffffffffffffffffffffffffffffffff168152602001600073ffffffffffffffffffffffffffffffffffffffff168152602001600081526020016000815260200160008152602001600081526020016000151581525090565b600061815361814e8461973d565b619718565b9050808382526020820190508285602086028201111561817257600080fd5b60005b858110156181a2578161818888826182e6565b845260208401935060208301925050600181019050618175565b5050509392505050565b60006181bf6181ba84619769565b619718565b9050828152602081018484840111156181d757600080fd5b6181e2848285619b48565b509392505050565b6000813590506181f98161a161565b92915050565b60008151905061820e8161a161565b92915050565b6000813590506182238161a178565b92915050565b6000815190506182388161a178565b92915050565b600082601f83011261824f57600080fd5b813561825f848260208601618140565b91505092915050565b6000813590506182778161a18f565b92915050565b60008151905061828c8161a18f565b92915050565b6000813590506182a18161a1a6565b92915050565b6000813590506182b68161a1bd565b92915050565b600082601f8301126182cd57600080fd5b81356182dd8482602086016181ac565b91505092915050565b6000813590506182f58161a1d4565b92915050565b60008151905061830a8161a1d4565b92915050565b60006020828403121561832257600080fd5b6000618330848285016181ea565b91505092915050565b60006020828403121561834b57600080fd5b6000618359848285016181ff565b91505092915050565b60006020828403121561837457600080fd5b600061838284828501618229565b91505092915050565b6000806040838503121561839e57600080fd5b60006183ac85828601618214565b92505060206183bd858286016181ea565b9150509250929050565b600080604083850312156183da57600080fd5b60006183e8858286016181ea565b92505060206183f9858286016181ea565b9150509250929050565b6000806000806000806000806000806101408b8d03121561842357600080fd5b60006184318d828e016181ff565b9a505060206184428d828e016181ff565b99505060406184538d828e016181ff565b98505060606184648d828e016181ff565b97505060806184758d828e016182fb565b96505060a06184868d828e016182fb565b95505060c06184978d828e016182fb565b94505060e06184a88d828e016182fb565b9350506101006184ba8d828e0161827d565b9250506101206184cc8d828e0161827d565b9150509295989b9194979a5092959850565b600080600080600080600060e0888a0312156184f957600080fd5b60006185078a828b016181ea565b97505060206185188a828b016181ea565b96505060406185298a828b016181ea565b955050606061853a8a828b016182e6565b945050608061854b8a828b016182e6565b93505060a061855c8a828b016182e6565b92505060c061856d8a828b016182e6565b91505092959891949750929550565b600080600080600060a0868803121561859457600080fd5b60006185a2888289016181ea565b95505060206185b3888289016181ea565b945050604086013567ffffffffffffffff8111156185d057600080fd5b6185dc8882890161823e565b935050606086013567ffffffffffffffff8111156185f957600080fd5b6186058882890161823e565b925050608086013567ffffffffffffffff81111561862257600080fd5b61862e888289016182bc565b9150509295509295909350565b6000806000806080858703121561865157600080fd5b600061865f878288016181ea565b9450506020618670878288016181ea565b9350506040618681878288016182e6565b925050606085013567ffffffffffffffff81111561869e57600080fd5b6186aa878288016182bc565b91505092959194509250565b600080600080600060a086880312156186ce57600080fd5b60006186dc888289016181ea565b95505060206186ed888289016181ea565b94505060406186fe888289016182e6565b935050606061870f888289016182e6565b925050608086013567ffffffffffffffff81111561872c57600080fd5b618738888289016182bc565b9150509295509295909350565b60008060008060008060c0878903121561875e57600080fd5b600061876c89828a016181ea565b965050602061877d89828a016181ea565b955050604061878e89828a016182e6565b945050606061879f89828a016182e6565b93505060806187b089828a016182e6565b92505060a06187c189828a016182e6565b9150509295509295509295565b600080604083850312156187e157600080fd5b60006187ef858286016181ea565b925050602061880085828601618268565b9150509250929050565b60008060006060848603121561881f57600080fd5b600061882d868287016181ea565b935050602061883e86828701618268565b925050604061884f86828701618268565b9150509250925092565b6000806040838503121561886c57600080fd5b600061887a858286016181ea565b925050602061888b85828601618292565b9150509250929050565b600080604083850312156188a857600080fd5b60006188b6858286016181ea565b92505060206188c7858286016182e6565b9150509250929050565b6000602082840312156188e357600080fd5b60006188f18482850161827d565b91505092915050565b60006020828403121561890c57600080fd5b600061891a848285016182a7565b91505092915050565b60006020828403121561893557600080fd5b6000618943848285016182e6565b91505092915050565b60006020828403121561895e57600080fd5b600061896c848285016182fb565b91505092915050565b6000806040838503121561898857600080fd5b6000618996858286016182e6565b92505060206189a7858286016182e6565b9150509250929050565b6000806000606084860312156189c657600080fd5b60006189d4868287016182e6565b93505060206189e5868287016182e6565b92505060406189f6868287016181ea565b9150509250925092565b600080600060608486031215618a1557600080fd5b6000618a23868287016182e6565b9350506020618a34868287016182e6565b9250506040618a45868287016182e6565b9150509250925092565b600080600080600060a08688031215618a6757600080fd5b6000618a75888289016182e6565b9550506020618a86888289016182e6565b9450506040618a97888289016182e6565b9350506060618aa8888289016182e6565b9250506080618ab9888289016181ea565b9150509295509295909350565b60008060008060008060c08789031215618adf57600080fd5b6000618aed89828a016182e6565b9650506020618afe89828a016182e6565b9550506040618b0f89828a016182e6565b9450506060618b2089828a016182e6565b9350506080618b3189828a016182e6565b92505060a0618b4289828a016182e6565b9150509295509295509295565b618b5881619b00565b82525050565b618b6781619a63565b82525050565b618b7e618b7982619a63565b619c04565b82525050565b618b8d81619a87565b82525050565b618ba4618b9f82619a93565b619c16565b82525050565b618bb381619a9d565b82525050565b6000618bc48261979a565b618bce81856197b0565b9350618bde818560208601619b57565b618be781619cc9565b840191505092915050565b6000618bfd8261979a565b618c0781856197c1565b9350618c17818560208601619b57565b80840191505092915050565b618c2c81619b12565b82525050565b6000618c3d826197a5565b618c4781856197cc565b9350618c57818560208601619b57565b618c6081619cc9565b840191505092915050565b6000618c78600e836197cc565b9150618c8382619cf4565b602082019050919050565b6000618c9b6014836197cc565b9150618ca682619d1d565b602082019050919050565b6000618cbe6014836197cc565b9150618cc982619d46565b602082019050919050565b6000618ce16026836197cc565b9150618cec82619d6f565b604082019050919050565b6000618d046010836197cc565b9150618d0f82619dbe565b602082019050919050565b6000618d276002836197b0565b9150618d3282619de7565b602082019050919050565b6000618d4a601f836197cc565b9150618d5582619e10565b602082019050919050565b6000618d6d603a836197cc565b9150618d7882619e39565b604082019050919050565b6000618d90601d836197cc565b9150618d9b82619e88565b602082019050919050565b6000618db36026836197cc565b9150618dbe82619eb1565b604082019050919050565b6000618dd6600f836197cc565b9150618de182619f00565b602082019050919050565b6000618df9601a836197cc565b9150618e0482619f29565b602082019050919050565b6000618e1c6023836197cc565b9150618e2782619f52565b604082019050919050565b6000618e3f6010836197cc565b9150618e4a82619fa1565b602082019050919050565b6000618e626010836197cc565b9150618e6d82619fca565b602082019050919050565b6000618e856020836197cc565b9150618e9082619ff3565b602082019050919050565b6000618ea8600e836197cc565b9150618eb38261a01c565b602082019050919050565b6000618ecb600d836197cc565b9150618ed68261a045565b602082019050919050565b6000618eee6000836197c1565b9150618ef98261a06e565b600082019050919050565b6000618f11601d836197cc565b9150618f1c8261a071565b602082019050919050565b6000618f346021836197cc565b9150618f3f8261a09a565b604082019050919050565b6000618f57602a836197cc565b9150618f628261a0e9565b604082019050919050565b6000618f7a601f836197cc565b9150618f858261a138565b602082019050919050565b618f9981619ae9565b82525050565b618fb0618fab82619ae9565b619c32565b82525050565b6000618fc28285618b6d565b601482019150618fd28284618f9f565b6020820191508190509392505050565b6000618fee8286618b6d565b601482019150618ffe8285618f9f565b60208201915061900e8284618b6d565b601482019150819050949350505050565b600061902b8284618b93565b60208201915081905092915050565b60006190468284618bf2565b915081905092915050565b600061905c82618ee1565b9150819050919050565b600060208201905061907b6000830184618b5e565b92915050565b60006040820190506190966000830185618b4f565b6190a36020830184618f90565b9392505050565b6000610140820190506190c0600083018d618b5e565b6190cd602083018c618b5e565b6190da604083018b618b5e565b6190e7606083018a618b5e565b6190f46080830189618f90565b61910160a0830188618f90565b61910e60c0830187618f90565b61911b60e0830186618f90565b619129610100830185618b84565b619137610120830184618b84565b9b9a5050505050505050505050565b60006101008201905061915c600083018b618b5e565b619169602083018a618b5e565b6191766040830189618b5e565b6191836060830188618f90565b6191906080830187618f90565b61919d60a0830186618f90565b6191aa60c0830185618f90565b6191b760e0830184618b84565b9998505050505050505050565b60006060820190506191d96000830186618b5e565b6191e66020830185618b5e565b6191f36040830184618f90565b949350505050565b600060a0820190506192106000830188618b5e565b61921d6020830187618b5e565b61922a6040830186618f90565b6192376060830185618f90565b81810360808301526192498184618bb9565b90509695505050505050565b600060a08201905061926a6000830187618b5e565b6192776020830186618b5e565b6192846040830185618f90565b6192916060830184618f90565b81810360808301526192a281618d1a565b905095945050505050565b600060c0820190506192c26000830189618b5e565b6192cf6020830188618b5e565b6192dc6040830187618f90565b6192e96060830186618f90565b6192f66080830185618f90565b61930360a0830184618f90565b979650505050505050565b60006040820190506193236000830185618b5e565b6193306020830184618b84565b9392505050565b600060408201905061934c6000830185618b5e565b6193596020830184618c23565b9392505050565b60006040820190506193756000830185618b5e565b6193826020830184618f90565b9392505050565b600060608201905061939e6000830186618b5e565b6193ab6020830185618f90565b6193b86040830184618b5e565b949350505050565b60006020820190506193d56000830184618b84565b92915050565b60006020820190506193f06000830184618baa565b92915050565b600060208201905081810360008301526194108184618c32565b905092915050565b6000602082019050818103600083015261943181618c6b565b9050919050565b6000602082019050818103600083015261945181618c8e565b9050919050565b6000602082019050818103600083015261947181618cb1565b9050919050565b6000602082019050818103600083015261949181618cd4565b9050919050565b600060208201905081810360008301526194b181618cf7565b9050919050565b600060208201905081810360008301526194d181618d3d565b9050919050565b600060208201905081810360008301526194f181618d60565b9050919050565b6000602082019050818103600083015261951181618d83565b9050919050565b6000602082019050818103600083015261953181618da6565b9050919050565b6000602082019050818103600083015261955181618dc9565b9050919050565b6000602082019050818103600083015261957181618dec565b9050919050565b6000602082019050818103600083015261959181618e0f565b9050919050565b600060208201905081810360008301526195b181618e32565b9050919050565b600060208201905081810360008301526195d181618e55565b9050919050565b600060208201905081810360008301526195f181618e78565b9050919050565b6000602082019050818103600083015261961181618e9b565b9050919050565b6000602082019050818103600083015261963181618ebe565b9050919050565b6000602082019050818103600083015261965181618f04565b9050919050565b6000602082019050818103600083015261967181618f27565b9050919050565b6000602082019050818103600083015261969181618f4a565b9050919050565b600060208201905081810360008301526196b181618f6d565b9050919050565b60006020820190506196cd6000830184618f90565b92915050565b60006080820190506196e86000830187618f90565b6196f56020830186618f90565b6197026040830185618b5e565b61970f6060830184618f90565b95945050505050565b6000619722619733565b905061972e8282619b8a565b919050565b6000604051905090565b600067ffffffffffffffff82111561975857619757619c9a565b5b602082029050602081019050919050565b600067ffffffffffffffff82111561978457619783619c9a565b5b61978d82619cc9565b9050602081019050919050565b600081519050919050565b600081519050919050565b600082825260208201905092915050565b600081905092915050565b600082825260208201905092915050565b60006197e882619ae9565b91506197f383619ae9565b9250827fffffffffffffffffffffffffffffffffffffffffffffffffffffffffffffffff0382111561982857619827619c3c565b5b828201905092915050565b600061983e82619ae9565b915061984983619ae9565b92508261985957619858619c6b565b5b828204905092915050565b6000808291508390505b60018511156198ae5780860481111561988a57619889619c3c565b5b60018516156198995780820291505b80810290506198a785619ce7565b945061986e565b94509492505050565b60006198c282619ae9565b91506198cd83619af3565b92506198fa7fffffffffffffffffffffffffffffffffffffffffffffffffffffffffffffffff8484619902565b905092915050565b60008261991257600190506199ce565b8161992057600090506199ce565b816001811461993657600281146199405761996f565b60019150506199ce565b60ff84111561995257619951619c3c565b5b8360020a91508482111561996957619968619c3c565b5b506199ce565b5060208310610133831016604e8410600b84101617156199a45782820a90508381111561999f5761999e619c3c565b5b6199ce565b6199b18484846001619864565b925090508184048111156199c8576199c7619c3c565b5b81810290505b9392505050565b60006199e082619ae9565b91506199eb83619ae9565b9250817fffffffffffffffffffffffffffffffffffffffffffffffffffffffffffffffff0483118215151615619a2457619a23619c3c565b5b828202905092915050565b6000619a3a82619ae9565b9150619a4583619ae9565b925082821015619a5857619a57619c3c565b5b828203905092915050565b6000619a6e82619ac9565b9050919050565b6000619a8082619ac9565b9050919050565b60008115159050919050565b6000819050919050565b60007fffffffff0000000000000000000000000000000000000000000000000000000082169050919050565b600073ffffffffffffffffffffffffffffffffffffffff82169050919050565b6000819050919050565b600060ff82169050919050565b6000619b0b82619b24565b9050919050565b6000619b1d82619ae9565b9050919050565b6000619b2f82619b36565b9050919050565b6000619b4182619ac9565b9050919050565b82818337600083830152505050565b60005b83811015619b75578082015181840152602081019050619b5a565b83811115619b84576000848401525b50505050565b619b9382619cc9565b810181811067ffffffffffffffff82111715619bb257619bb1619c9a565b5b80604052505050565b6000619bc682619ae9565b91507fffffffffffffffffffffffffffffffffffffffffffffffffffffffffffffffff821415619bf957619bf8619c3c565b5b600182019050919050565b6000619c0f82619c20565b9050919050565b6000819050919050565b6000619c2b82619cda565b9050919050565b6000819050919050565b7f4e487b7100000000000000000000000000000000000000000000000000000000600052601160045260246000fd5b7f4e487b7100000000000000000000000000000000000000000000000000000000600052601260045260246000fd5b7f4e487b7100000000000000000000000000000000000000000000000000000000600052604160045260246000fd5b6000601f19601f8301169050919050565b60008160601b9050919050565b60008160011c9050919050565b7f496e76616c69642d626964646572000000000000000000000000000000000000600082015250565b7f4e6f742d617661696c61626c652d746f2d627579000000000000000000000000600082015250565b7f5061757361626c653a206e6f7420706175736564000000000000000000000000600082015250565b7f4f776e61626c653a206e6577206f776e657220697320746865207a65726f206160008201527f6464726573730000000000000000000000000000000000000000000000000000602082015250565b7f496e76616c69642d7175616e7469747900000000000000000000000000000000600082015250565b7f3078000000000000000000000000000000000000000000000000000000000000600082015250565b7f5061796d656e742d6d6574686f642d646f65732d6e6f742d737570706f727400600082015250565b7f416464726573733a20756e61626c6520746f2073656e642076616c75652c207260008201527f6563697069656e74206d61792068617665207265766572746564000000000000602082015250565b7f416464726573733a20696e73756666696369656e742062616c616e6365000000600082015250565b7f416464726573733a20696e73756666696369656e742062616c616e636520666f60008201527f722063616c6c0000000000000000000000000000000000000000000000000000602082015250565b7f496e76616c69642d616464726573730000000000000000000000000000000000600082015250565b7f496e73756666696369656e742d746f6b656e2d62616c616e6365000000000000600082015250565b7f4f6f70732157726f6e672d6f726465722d6f776e65722d6f722d63616e63656c60008201527f6c65640000000000000000000000000000000000000000000000000000000000602082015250565b7f5061757361626c653a2070617573656400000000000000000000000000000000600082015250565b7f496e76616c69642d6f726465722d696400000000000000000000000000000000600082015250565b7f4f776e61626c653a2063616c6c6572206973206e6f7420746865206f776e6572600082015250565b7f496e76616c69642d616d6f756e74000000000000000000000000000000000000600082015250565b7f4f6e6c792d6f70657261746f7200000000000000000000000000000000000000600082015250565b50565b7f416464726573733a2063616c6c20746f206e6f6e2d636f6e7472616374000000600082015250565b7f496e76616c69642d7175616e746974792d6f722d6269642d63616e63656c6c6560008201527f6400000000000000000000000000000000000000000000000000000000000000602082015250565b7f5361666545524332303a204552433230206f7065726174696f6e20646964206e60008201527f6f74207375636365656400000000000000000000000000000000000000000000602082015250565b7f5265656e7472616e637947756172643a207265656e7472616e742063616c6c00600082015250565b61a16a81619a63565b811461a17557600080fd5b50565b61a18181619a75565b811461a18c57600080fd5b50565b61a19881619a87565b811461a1a357600080fd5b50565b61a1af81619a93565b811461a1ba57600080fd5b50565b61a1c681619a9d565b811461a1d157600080fd5b50565b61a1dd81619ae9565b811461a1e857600080fd5b5056fea264697066735822122057cb7d166e1a33ea845bd8a8f0323fbed3546bf81075390a1f33cdd4feaad52464736f6c63430008040033",
  "linkReferences": {},
  "deployedLinkReferences": {}
}