{
  "_format": "hh-sol-artifact-1",
  "contractName": "Sota721General",
  "sourceName": "contracts/Sota721General.sol",
  "abi": [
    {
      "inputs": [],
      "stateMutability": "nonpayable",
      "type": "constructor"
    },
    {
      "anonymous": false,
      "inputs": [
        {
          "indexed": true,
          "internalType": "address",
          "name": "owner",
          "type": "address"
        },
        {
          "indexed": true,
          "internalType": "address",
          "name": "approved",
          "type": "address"
        },
        {
          "indexed": true,
          "internalType": "uint256",
          "name": "tokenId",
          "type": "uint256"
        }
      ],
      "name": "Approval",
      "type": "event"
    },
    {
      "anonymous": false,
      "inputs": [
        {
          "indexed": true,
          "internalType": "address",
          "name": "owner",
          "type": "address"
        },
        {
          "indexed": true,
          "internalType": "address",
          "name": "operator",
          "type": "address"
        },
        {
          "indexed": false,
          "internalType": "bool",
          "name": "approved",
          "type": "bool"
        }
      ],
      "name": "ApprovalForAll",
      "type": "event"
    },
    {
      "anonymous": false,
      "inputs": [
        {
          "indexed": true,
          "internalType": "address",
          "name": "previousOwner",
          "type": "address"
        },
        {
          "indexed": true,
          "internalType": "address",
          "name": "newOwner",
          "type": "address"
        }
      ],
      "name": "OwnershipTransferred",
      "type": "event"
    },
    {
      "anonymous": false,
      "inputs": [
        {
          "indexed": true,
          "internalType": "address",
          "name": "from",
          "type": "address"
        },
        {
          "indexed": true,
          "internalType": "address",
          "name": "to",
          "type": "address"
        },
        {
          "indexed": true,
          "internalType": "uint256",
          "name": "tokenId",
          "type": "uint256"
        }
      ],
      "name": "Transfer",
      "type": "event"
    },
    {
      "inputs": [],
      "name": "_currentTokenId",
      "outputs": [
        {
          "internalType": "uint256",
          "name": "",
          "type": "uint256"
        }
      ],
      "stateMutability": "view",
      "type": "function"
    },
    {
      "inputs": [
        {
          "internalType": "address",
          "name": "to",
          "type": "address"
        },
        {
          "internalType": "uint256",
          "name": "tokenId",
          "type": "uint256"
        }
      ],
      "name": "approve",
      "outputs": [],
      "stateMutability": "nonpayable",
      "type": "function"
    },
    {
      "inputs": [
        {
          "internalType": "address",
          "name": "owner",
          "type": "address"
        }
      ],
      "name": "balanceOf",
      "outputs": [
        {
          "internalType": "uint256",
          "name": "",
          "type": "uint256"
        }
      ],
      "stateMutability": "view",
      "type": "function"
    },
    {
      "inputs": [
        {
          "internalType": "string",
          "name": "_tokenURI",
          "type": "string"
        },
        {
          "internalType": "uint256",
          "name": "_loyaltyFee",
          "type": "uint256"
        }
      ],
      "name": "create",
      "outputs": [],
      "stateMutability": "nonpayable",
      "type": "function"
    },
    {
      "inputs": [
        {
          "internalType": "uint256",
          "name": "",
          "type": "uint256"
        }
      ],
      "name": "creators",
      "outputs": [
        {
          "internalType": "address",
          "name": "",
          "type": "address"
        }
      ],
      "stateMutability": "view",
      "type": "function"
    },
    {
      "inputs": [
        {
          "internalType": "uint256",
          "name": "tokenId",
          "type": "uint256"
        }
      ],
      "name": "getApproved",
      "outputs": [
        {
          "internalType": "address",
          "name": "",
          "type": "address"
        }
      ],
      "stateMutability": "view",
      "type": "function"
    },
    {
      "inputs": [
        {
          "internalType": "uint256",
          "name": "_id",
          "type": "uint256"
        }
      ],
      "name": "getCreator",
      "outputs": [
        {
          "internalType": "address",
          "name": "",
          "type": "address"
        }
      ],
      "stateMutability": "view",
      "type": "function"
    },
    {
      "inputs": [
        {
          "internalType": "uint256",
          "name": "_id",
          "type": "uint256"
        }
      ],
      "name": "getLoyaltyFee",
      "outputs": [
        {
          "internalType": "uint256",
          "name": "",
          "type": "uint256"
        }
      ],
      "stateMutability": "view",
      "type": "function"
    },
    {
      "inputs": [
        {
          "internalType": "address",
          "name": "owner",
          "type": "address"
        },
        {
          "internalType": "address",
          "name": "operator",
          "type": "address"
        }
      ],
      "name": "isApprovedForAll",
      "outputs": [
        {
          "internalType": "bool",
          "name": "",
          "type": "bool"
        }
      ],
      "stateMutability": "view",
      "type": "function"
    },
    {
      "inputs": [
        {
          "internalType": "uint256",
          "name": "",
          "type": "uint256"
        }
      ],
      "name": "loyaltyFee",
      "outputs": [
        {
          "internalType": "uint256",
          "name": "",
          "type": "uint256"
        }
      ],
      "stateMutability": "view",
      "type": "function"
    },
    {
      "inputs": [],
      "name": "name",
      "outputs": [
        {
          "internalType": "string",
          "name": "",
          "type": "string"
        }
      ],
      "stateMutability": "view",
      "type": "function"
    },
    {
      "inputs": [],
      "name": "owner",
      "outputs": [
        {
          "internalType": "address",
          "name": "",
          "type": "address"
        }
      ],
      "stateMutability": "view",
      "type": "function"
    },
    {
      "inputs": [
        {
          "internalType": "uint256",
          "name": "tokenId",
          "type": "uint256"
        }
      ],
      "name": "ownerOf",
      "outputs": [
        {
          "internalType": "address",
          "name": "",
          "type": "address"
        }
      ],
      "stateMutability": "view",
      "type": "function"
    },
    {
      "inputs": [],
      "name": "renounceOwnership",
      "outputs": [],
      "stateMutability": "nonpayable",
      "type": "function"
    },
    {
      "inputs": [
        {
          "internalType": "address",
          "name": "from",
          "type": "address"
        },
        {
          "internalType": "address",
          "name": "to",
          "type": "address"
        },
        {
          "internalType": "uint256",
          "name": "tokenId",
          "type": "uint256"
        }
      ],
      "name": "safeTransferFrom",
      "outputs": [],
      "stateMutability": "nonpayable",
      "type": "function"
    },
    {
      "inputs": [
        {
          "internalType": "address",
          "name": "from",
          "type": "address"
        },
        {
          "internalType": "address",
          "name": "to",
          "type": "address"
        },
        {
          "internalType": "uint256",
          "name": "tokenId",
          "type": "uint256"
        },
        {
          "internalType": "bytes",
          "name": "_data",
          "type": "bytes"
        }
      ],
      "name": "safeTransferFrom",
      "outputs": [],
      "stateMutability": "nonpayable",
      "type": "function"
    },
    {
      "inputs": [
        {
          "internalType": "address",
          "name": "operator",
          "type": "address"
        },
        {
          "internalType": "bool",
          "name": "approved",
          "type": "bool"
        }
      ],
      "name": "setApprovalForAll",
      "outputs": [],
      "stateMutability": "nonpayable",
      "type": "function"
    },
    {
      "inputs": [
        {
          "internalType": "string",
          "name": "baseURI_",
          "type": "string"
        }
      ],
      "name": "setBaseURI",
      "outputs": [],
      "stateMutability": "nonpayable",
      "type": "function"
    },
    {
      "inputs": [
        {
          "internalType": "bytes4",
          "name": "interfaceId",
          "type": "bytes4"
        }
      ],
      "name": "supportsInterface",
      "outputs": [
        {
          "internalType": "bool",
          "name": "",
          "type": "bool"
        }
      ],
      "stateMutability": "view",
      "type": "function"
    },
    {
      "inputs": [],
      "name": "symbol",
      "outputs": [
        {
          "internalType": "string",
          "name": "",
          "type": "string"
        }
      ],
      "stateMutability": "view",
      "type": "function"
    },
    {
      "inputs": [
        {
          "internalType": "uint256",
          "name": "tokenId",
          "type": "uint256"
        }
      ],
      "name": "tokenURI",
      "outputs": [
        {
          "internalType": "string",
          "name": "",
          "type": "string"
        }
      ],
      "stateMutability": "view",
      "type": "function"
    },
    {
      "inputs": [
        {
          "internalType": "address",
          "name": "from",
          "type": "address"
        },
        {
          "internalType": "address",
          "name": "to",
          "type": "address"
        },
        {
          "internalType": "uint256",
          "name": "tokenId",
          "type": "uint256"
        }
      ],
      "name": "transferFrom",
      "outputs": [],
      "stateMutability": "nonpayable",
      "type": "function"
    },
    {
      "inputs": [
        {
          "internalType": "address",
          "name": "newOwner",
          "type": "address"
        }
      ],
      "name": "transferOwnership",
      "outputs": [],
      "stateMutability": "nonpayable",
      "type": "function"
    }
  ],
  "bytecode": "0x608060405260006008553480156200001657600080fd5b506040518060400160405280601981526020017f536f746120506c6174666f726d20455243373231204e465473000000000000008152506040518060400160405280600e81526020017f534f544137323147454e4552414c00000000000000000000000000000000000081525081600090805190602001906200009b929190620001ab565b508060019080519060200190620000b4929190620001ab565b505050620000d7620000cb620000dd60201b60201c565b620000e560201b60201c565b620002c0565b600033905090565b6000600660009054906101000a900473ffffffffffffffffffffffffffffffffffffffff16905081600660006101000a81548173ffffffffffffffffffffffffffffffffffffffff021916908373ffffffffffffffffffffffffffffffffffffffff1602179055508173ffffffffffffffffffffffffffffffffffffffff168173ffffffffffffffffffffffffffffffffffffffff167f8be0079c531659141344cd1fd0a4f28419497f9722a3daafe3b4186f6b6457e060405160405180910390a35050565b828054620001b9906200025b565b90600052602060002090601f016020900481019282620001dd576000855562000229565b82601f10620001f857805160ff191683800117855562000229565b8280016001018555821562000229579182015b82811115620002285782518255916020019190600101906200020b565b5b5090506200023891906200023c565b5090565b5b80821115620002575760008160009055506001016200023d565b5090565b600060028204905060018216806200027457607f821691505b602082108114156200028b576200028a62000291565b5b50919050565b7f4e487b7100000000000000000000000000000000000000000000000000000000600052602260045260246000fd5b6130ad80620002d06000396000f3fe608060405234801561001057600080fd5b506004361061014d5760003560e01c806370a08231116100c3578063c87b56dd1161007c578063c87b56dd1461039a578063c963483c146103ca578063cd53d08e146103e8578063d48e638a14610418578063e985e9c514610448578063f2fde38b146104785761014d565b806370a08231146102ec578063715018a61461031c5780638da5cb5b1461032657806395d89b4114610344578063a22cb46514610362578063b88d4fde1461037e5761014d565b8063240d704511610115578063240d70451461020857806342842e0e1461023857806346f81a871461025457806355f804b3146102705780635d4205331461028c5780636352211e146102bc5761014d565b806301ffc9a71461015257806306fdde0314610182578063081812fc146101a0578063095ea7b3146101d057806323b872dd146101ec575b600080fd5b61016c60048036038101906101679190612082565b610494565b6040516101799190612548565b60405180910390f35b61018a610576565b6040516101979190612563565b60405180910390f35b6101ba60048036038101906101b59190612171565b610608565b6040516101c791906124e1565b60405180910390f35b6101ea60048036038101906101e59190612046565b61068d565b005b61020660048036038101906102019190611f40565b6107a5565b005b610222600480360381019061021d9190612171565b610805565b60405161022f91906127a5565b60405180910390f35b610252600480360381019061024d9190611f40565b61081d565b005b61026e60048036038101906102699190612119565b61083d565b005b61028a600480360381019061028591906120d4565b6108d5565b005b6102a660048036038101906102a19190612171565b61095e565b6040516102b391906127a5565b60405180910390f35b6102d660048036038101906102d19190612171565b61097b565b6040516102e391906124e1565b60405180910390f35b61030660048036038101906103019190611edb565b610a2d565b60405161031391906127a5565b60405180910390f35b610324610ae5565b005b61032e610b6d565b60405161033b91906124e1565b60405180910390f35b61034c610b97565b6040516103599190612563565b60405180910390f35b61037c6004803603810190610377919061200a565b610c29565b005b61039860048036038101906103939190611f8f565b610daa565b005b6103b460048036038101906103af9190612171565b610e0c565b6040516103c19190612563565b60405180910390f35b6103d2610e1e565b6040516103df91906127a5565b60405180910390f35b61040260048036038101906103fd9190612171565b610e24565b60405161040f91906124e1565b60405180910390f35b610432600480360381019061042d9190612171565b610e57565b60405161043f91906124e1565b60405180910390f35b610462600480360381019061045d9190611f04565b610e94565b60405161046f9190612548565b60405180910390f35b610492600480360381019061048d9190611edb565b610f28565b005b60007f80ac58cd000000000000000000000000000000000000000000000000000000007bffffffffffffffffffffffffffffffffffffffffffffffffffffffff1916827bffffffffffffffffffffffffffffffffffffffffffffffffffffffff1916148061055f57507f5b5e139f000000000000000000000000000000000000000000000000000000007bffffffffffffffffffffffffffffffffffffffffffffffffffffffff1916827bffffffffffffffffffffffffffffffffffffffffffffffffffffffff1916145b8061056f575061056e82611020565b5b9050919050565b606060008054610585906129ca565b80601f01602080910402602001604051908101604052809291908181526020018280546105b1906129ca565b80156105fe5780601f106105d3576101008083540402835291602001916105fe565b820191906000526020600020905b8154815290600101906020018083116105e157829003601f168201915b5050505050905090565b60006106138261108a565b610652576040517f08c379a0000000000000000000000000000000000000000000000000000000008152600401610649906126e5565b60405180910390fd5b6004600083815260200190815260200160002060009054906101000a900473ffffffffffffffffffffffffffffffffffffffff169050919050565b60006106988261097b565b90508073ffffffffffffffffffffffffffffffffffffffff168373ffffffffffffffffffffffffffffffffffffffff161415610709576040517f08c379a000000000000000000000000000000000000000000000000000000000815260040161070090612765565b60405180910390fd5b8073ffffffffffffffffffffffffffffffffffffffff166107286110f6565b73ffffffffffffffffffffffffffffffffffffffff1614806107575750610756816107516110f6565b610e94565b5b610796576040517f08c379a000000000000000000000000000000000000000000000000000000000815260040161078d90612645565b60405180910390fd5b6107a083836110fe565b505050565b6107b66107b06110f6565b826111b7565b6107f5576040517f08c379a00000000000000000000000000000000000000000000000000000000081526004016107ec90612785565b60405180910390fd5b610800838383611295565b505050565b600a6020528060005260406000206000915090505481565b61083883838360405180602001604052806000815250610daa565b505050565b60006108476114f1565b9050610853338261150e565b336009600083815260200190815260200160002060006101000a81548173ffffffffffffffffffffffffffffffffffffffff021916908373ffffffffffffffffffffffffffffffffffffffff16021790555081600a6000838152602001908152602001600020819055506108c681610e0c565b506108cf6116dc565b50505050565b6108dd6110f6565b73ffffffffffffffffffffffffffffffffffffffff166108fb610b6d565b73ffffffffffffffffffffffffffffffffffffffff1614610951576040517f08c379a000000000000000000000000000000000000000000000000000000000815260040161094890612705565b60405180910390fd5b6109596116f6565b505050565b6000600a6000838152602001908152602001600020549050919050565b6000806002600084815260200190815260200160002060009054906101000a900473ffffffffffffffffffffffffffffffffffffffff169050600073ffffffffffffffffffffffffffffffffffffffff168173ffffffffffffffffffffffffffffffffffffffff161415610a24576040517f08c379a0000000000000000000000000000000000000000000000000000000008152600401610a1b90612685565b60405180910390fd5b80915050919050565b60008073ffffffffffffffffffffffffffffffffffffffff168273ffffffffffffffffffffffffffffffffffffffff161415610a9e576040517f08c379a0000000000000000000000000000000000000000000000000000000008152600401610a9590612665565b60405180910390fd5b600360008373ffffffffffffffffffffffffffffffffffffffff1673ffffffffffffffffffffffffffffffffffffffff168152602001908152602001600020549050919050565b610aed6110f6565b73ffffffffffffffffffffffffffffffffffffffff16610b0b610b6d565b73ffffffffffffffffffffffffffffffffffffffff1614610b61576040517f08c379a0000000000000000000000000000000000000000000000000000000008152600401610b5890612705565b60405180910390fd5b610b6b6000611733565b565b6000600660009054906101000a900473ffffffffffffffffffffffffffffffffffffffff16905090565b606060018054610ba6906129ca565b80601f0160208091040260200160405190810160405280929190818152602001828054610bd2906129ca565b8015610c1f5780601f10610bf457610100808354040283529160200191610c1f565b820191906000526020600020905b815481529060010190602001808311610c0257829003601f168201915b5050505050905090565b610c316110f6565b73ffffffffffffffffffffffffffffffffffffffff168273ffffffffffffffffffffffffffffffffffffffff161415610c9f576040517f08c379a0000000000000000000000000000000000000000000000000000000008152600401610c9690612605565b60405180910390fd5b8060056000610cac6110f6565b73ffffffffffffffffffffffffffffffffffffffff1673ffffffffffffffffffffffffffffffffffffffff16815260200190815260200160002060008473ffffffffffffffffffffffffffffffffffffffff1673ffffffffffffffffffffffffffffffffffffffff16815260200190815260200160002060006101000a81548160ff0219169083151502179055508173ffffffffffffffffffffffffffffffffffffffff16610d596110f6565b73ffffffffffffffffffffffffffffffffffffffff167f17307eab39ab6107e8899845ad3d59bd9653f200f220920489ca2b5937696c3183604051610d9e9190612548565b60405180910390a35050565b610dbb610db56110f6565b836111b7565b610dfa576040517f08c379a0000000000000000000000000000000000000000000000000000000008152600401610df190612785565b60405180910390fd5b610e06848484846117f9565b50505050565b6060610e1782611855565b9050919050565b60085481565b60096020528060005260406000206000915054906101000a900473ffffffffffffffffffffffffffffffffffffffff1681565b60006009600083815260200190815260200160002060009054906101000a900473ffffffffffffffffffffffffffffffffffffffff169050919050565b6000600560008473ffffffffffffffffffffffffffffffffffffffff1673ffffffffffffffffffffffffffffffffffffffff16815260200190815260200160002060008373ffffffffffffffffffffffffffffffffffffffff1673ffffffffffffffffffffffffffffffffffffffff16815260200190815260200160002060009054906101000a900460ff16905092915050565b610f306110f6565b73ffffffffffffffffffffffffffffffffffffffff16610f4e610b6d565b73ffffffffffffffffffffffffffffffffffffffff1614610fa4576040517f08c379a0000000000000000000000000000000000000000000000000000000008152600401610f9b90612705565b60405180910390fd5b600073ffffffffffffffffffffffffffffffffffffffff168173ffffffffffffffffffffffffffffffffffffffff161415611014576040517f08c379a000000000000000000000000000000000000000000000000000000000815260040161100b906125a5565b60405180910390fd5b61101d81611733565b50565b60007f01ffc9a7000000000000000000000000000000000000000000000000000000007bffffffffffffffffffffffffffffffffffffffffffffffffffffffff1916827bffffffffffffffffffffffffffffffffffffffffffffffffffffffff1916149050919050565b60008073ffffffffffffffffffffffffffffffffffffffff166002600084815260200190815260200160002060009054906101000a900473ffffffffffffffffffffffffffffffffffffffff1673ffffffffffffffffffffffffffffffffffffffff1614159050919050565b600033905090565b816004600083815260200190815260200160002060006101000a81548173ffffffffffffffffffffffffffffffffffffffff021916908373ffffffffffffffffffffffffffffffffffffffff160217905550808273ffffffffffffffffffffffffffffffffffffffff166111718361097b565b73ffffffffffffffffffffffffffffffffffffffff167f8c5be1e5ebec7d5bd14f71427d1e84f3dd0314c0f7b2291e5b200ac8c7c3b92560405160405180910390a45050565b60006111c28261108a565b611201576040517f08c379a00000000000000000000000000000000000000000000000000000000081526004016111f890612625565b60405180910390fd5b600061120c8361097b565b90508073ffffffffffffffffffffffffffffffffffffffff168473ffffffffffffffffffffffffffffffffffffffff16148061127b57508373ffffffffffffffffffffffffffffffffffffffff1661126384610608565b73ffffffffffffffffffffffffffffffffffffffff16145b8061128c575061128b8185610e94565b5b91505092915050565b8273ffffffffffffffffffffffffffffffffffffffff166112b58261097b565b73ffffffffffffffffffffffffffffffffffffffff161461130b576040517f08c379a000000000000000000000000000000000000000000000000000000000815260040161130290612725565b60405180910390fd5b600073ffffffffffffffffffffffffffffffffffffffff168273ffffffffffffffffffffffffffffffffffffffff16141561137b576040517f08c379a0000000000000000000000000000000000000000000000000000000008152600401611372906125e5565b60405180910390fd5b6113868383836119a7565b6113916000826110fe565b6001600360008573ffffffffffffffffffffffffffffffffffffffff1673ffffffffffffffffffffffffffffffffffffffff16815260200190815260200160002060008282546113e191906128e0565b925050819055506001600360008473ffffffffffffffffffffffffffffffffffffffff1673ffffffffffffffffffffffffffffffffffffffff16815260200190815260200160002060008282546114389190612859565b92505081905550816002600083815260200190815260200160002060006101000a81548173ffffffffffffffffffffffffffffffffffffffff021916908373ffffffffffffffffffffffffffffffffffffffff160217905550808273ffffffffffffffffffffffffffffffffffffffff168473ffffffffffffffffffffffffffffffffffffffff167fddf252ad1be2c89b69c2b068fc378daa952ba7f163c4a11628f55a4df523b3ef60405160405180910390a4505050565b600061150960016008546119ac90919063ffffffff16565b905090565b600073ffffffffffffffffffffffffffffffffffffffff168273ffffffffffffffffffffffffffffffffffffffff16141561157e576040517f08c379a0000000000000000000000000000000000000000000000000000000008152600401611575906126a5565b60405180910390fd5b6115878161108a565b156115c7576040517f08c379a00000000000000000000000000000000000000000000000000000000081526004016115be906125c5565b60405180910390fd5b6115d3600083836119a7565b6001600360008473ffffffffffffffffffffffffffffffffffffffff1673ffffffffffffffffffffffffffffffffffffffff16815260200190815260200160002060008282546116239190612859565b92505081905550816002600083815260200190815260200160002060006101000a81548173ffffffffffffffffffffffffffffffffffffffff021916908373ffffffffffffffffffffffffffffffffffffffff160217905550808273ffffffffffffffffffffffffffffffffffffffff16600073ffffffffffffffffffffffffffffffffffffffff167fddf252ad1be2c89b69c2b068fc378daa952ba7f163c4a11628f55a4df523b3ef60405160405180910390a45050565b600860008154809291906116ef90612a2d565b9190505550565b60606040518060400160405280601c81526020017f68747470733a2f2f73746f726167652e736f74612e66696e616e636500000000815250905090565b6000600660009054906101000a900473ffffffffffffffffffffffffffffffffffffffff16905081600660006101000a81548173ffffffffffffffffffffffffffffffffffffffff021916908373ffffffffffffffffffffffffffffffffffffffff1602179055508173ffffffffffffffffffffffffffffffffffffffff168173ffffffffffffffffffffffffffffffffffffffff167f8be0079c531659141344cd1fd0a4f28419497f9722a3daafe3b4186f6b6457e060405160405180910390a35050565b611804848484611295565b611810848484846119c2565b61184f576040517f08c379a000000000000000000000000000000000000000000000000000000000815260040161184690612585565b60405180910390fd5b50505050565b60606118608261108a565b61189f576040517f08c379a0000000000000000000000000000000000000000000000000000000008152600401611896906126c5565b60405180910390fd5b60006007600084815260200190815260200160002080546118bf906129ca565b80601f01602080910402602001604051908101604052809291908181526020018280546118eb906129ca565b80156119385780601f1061190d57610100808354040283529160200191611938565b820191906000526020600020905b81548152906001019060200180831161191b57829003601f168201915b5050505050905060006119496116f6565b905060008151141561195f5781925050506119a2565b60008251111561199457808260405160200161197c9291906124bd565b604051602081830303815290604052925050506119a2565b61199d84611b59565b925050505b919050565b505050565b600081836119ba9190612859565b905092915050565b60006119e38473ffffffffffffffffffffffffffffffffffffffff16611c00565b15611b4c578373ffffffffffffffffffffffffffffffffffffffff1663150b7a02611a0c6110f6565b8786866040518563ffffffff1660e01b8152600401611a2e94939291906124fc565b602060405180830381600087803b158015611a4857600080fd5b505af1925050508015611a7957506040513d601f19601f82011682018060405250810190611a7691906120ab565b60015b611afc573d8060008114611aa9576040519150601f19603f3d011682016040523d82523d6000602084013e611aae565b606091505b50600081511415611af4576040517f08c379a0000000000000000000000000000000000000000000000000000000008152600401611aeb90612585565b60405180910390fd5b805181602001fd5b63150b7a0260e01b7bffffffffffffffffffffffffffffffffffffffffffffffffffffffff1916817bffffffffffffffffffffffffffffffffffffffffffffffffffffffff191614915050611b51565b600190505b949350505050565b6060611b648261108a565b611ba3576040517f08c379a0000000000000000000000000000000000000000000000000000000008152600401611b9a90612745565b60405180910390fd5b6000611bad6116f6565b90506000815111611bcd5760405180602001604052806000815250611bf8565b80611bd784611c13565b604051602001611be89291906124bd565b6040516020818303038152906040525b915050919050565b600080823b905060008111915050919050565b60606000821415611c5b576040518060400160405280600181526020017f30000000000000000000000000000000000000000000000000000000000000008152509050611dbb565b600082905060005b60008214611c8d578080611c7690612a2d565b915050600a82611c8691906128af565b9150611c63565b60008167ffffffffffffffff811115611ccf577f4e487b7100000000000000000000000000000000000000000000000000000000600052604160045260246000fd5b6040519080825280601f01601f191660200182016040528015611d015781602001600182028036833780820191505090505b5090505b60008514611db457600182611d1a91906128e0565b9150600a85611d299190612a76565b6030611d359190612859565b60f81b818381518110611d71577f4e487b7100000000000000000000000000000000000000000000000000000000600052603260045260246000fd5b60200101907effffffffffffffffffffffffffffffffffffffffffffffffffffffffffffff1916908160001a905350600a85611dad91906128af565b9450611d05565b8093505050505b919050565b6000611dd3611dce846127e5565b6127c0565b905082815260208101848484011115611deb57600080fd5b611df6848285612988565b509392505050565b600081359050611e0d8161301b565b92915050565b600081359050611e2281613032565b92915050565b600081359050611e3781613049565b92915050565b600081519050611e4c81613049565b92915050565b600082601f830112611e6357600080fd5b8135611e73848260208601611dc0565b91505092915050565b60008083601f840112611e8e57600080fd5b8235905067ffffffffffffffff811115611ea757600080fd5b602083019150836001820283011115611ebf57600080fd5b9250929050565b600081359050611ed581613060565b92915050565b600060208284031215611eed57600080fd5b6000611efb84828501611dfe565b91505092915050565b60008060408385031215611f1757600080fd5b6000611f2585828601611dfe565b9250506020611f3685828601611dfe565b9150509250929050565b600080600060608486031215611f5557600080fd5b6000611f6386828701611dfe565b9350506020611f7486828701611dfe565b9250506040611f8586828701611ec6565b9150509250925092565b60008060008060808587031215611fa557600080fd5b6000611fb387828801611dfe565b9450506020611fc487828801611dfe565b9350506040611fd587828801611ec6565b925050606085013567ffffffffffffffff811115611ff257600080fd5b611ffe87828801611e52565b91505092959194509250565b6000806040838503121561201d57600080fd5b600061202b85828601611dfe565b925050602061203c85828601611e13565b9150509250929050565b6000806040838503121561205957600080fd5b600061206785828601611dfe565b925050602061207885828601611ec6565b9150509250929050565b60006020828403121561209457600080fd5b60006120a284828501611e28565b91505092915050565b6000602082840312156120bd57600080fd5b60006120cb84828501611e3d565b91505092915050565b600080602083850312156120e757600080fd5b600083013567ffffffffffffffff81111561210157600080fd5b61210d85828601611e7c565b92509250509250929050565b60008060006040848603121561212e57600080fd5b600084013567ffffffffffffffff81111561214857600080fd5b61215486828701611e7c565b9350935050602061216786828701611ec6565b9150509250925092565b60006020828403121561218357600080fd5b600061219184828501611ec6565b91505092915050565b6121a381612914565b82525050565b6121b281612926565b82525050565b60006121c382612816565b6121cd818561282c565b93506121dd818560208601612997565b6121e681612b63565b840191505092915050565b60006121fc82612821565b612206818561283d565b9350612216818560208601612997565b61221f81612b63565b840191505092915050565b600061223582612821565b61223f818561284e565b935061224f818560208601612997565b80840191505092915050565b600061226860328361283d565b915061227382612b74565b604082019050919050565b600061228b60268361283d565b915061229682612bc3565b604082019050919050565b60006122ae601c8361283d565b91506122b982612c12565b602082019050919050565b60006122d160248361283d565b91506122dc82612c3b565b604082019050919050565b60006122f460198361283d565b91506122ff82612c8a565b602082019050919050565b6000612317602c8361283d565b915061232282612cb3565b604082019050919050565b600061233a60388361283d565b915061234582612d02565b604082019050919050565b600061235d602a8361283d565b915061236882612d51565b604082019050919050565b600061238060298361283d565b915061238b82612da0565b604082019050919050565b60006123a360208361283d565b91506123ae82612def565b602082019050919050565b60006123c660318361283d565b91506123d182612e18565b604082019050919050565b60006123e9602c8361283d565b91506123f482612e67565b604082019050919050565b600061240c60208361283d565b915061241782612eb6565b602082019050919050565b600061242f60298361283d565b915061243a82612edf565b604082019050919050565b6000612452602f8361283d565b915061245d82612f2e565b604082019050919050565b600061247560218361283d565b915061248082612f7d565b604082019050919050565b600061249860318361283d565b91506124a382612fcc565b604082019050919050565b6124b78161297e565b82525050565b60006124c9828561222a565b91506124d5828461222a565b91508190509392505050565b60006020820190506124f6600083018461219a565b92915050565b6000608082019050612511600083018761219a565b61251e602083018661219a565b61252b60408301856124ae565b818103606083015261253d81846121b8565b905095945050505050565b600060208201905061255d60008301846121a9565b92915050565b6000602082019050818103600083015261257d81846121f1565b905092915050565b6000602082019050818103600083015261259e8161225b565b9050919050565b600060208201905081810360008301526125be8161227e565b9050919050565b600060208201905081810360008301526125de816122a1565b9050919050565b600060208201905081810360008301526125fe816122c4565b9050919050565b6000602082019050818103600083015261261e816122e7565b9050919050565b6000602082019050818103600083015261263e8161230a565b9050919050565b6000602082019050818103600083015261265e8161232d565b9050919050565b6000602082019050818103600083015261267e81612350565b9050919050565b6000602082019050818103600083015261269e81612373565b9050919050565b600060208201905081810360008301526126be81612396565b9050919050565b600060208201905081810360008301526126de816123b9565b9050919050565b600060208201905081810360008301526126fe816123dc565b9050919050565b6000602082019050818103600083015261271e816123ff565b9050919050565b6000602082019050818103600083015261273e81612422565b9050919050565b6000602082019050818103600083015261275e81612445565b9050919050565b6000602082019050818103600083015261277e81612468565b9050919050565b6000602082019050818103600083015261279e8161248b565b9050919050565b60006020820190506127ba60008301846124ae565b92915050565b60006127ca6127db565b90506127d682826129fc565b919050565b6000604051905090565b600067ffffffffffffffff821115612800576127ff612b34565b5b61280982612b63565b9050602081019050919050565b600081519050919050565b600081519050919050565b600082825260208201905092915050565b600082825260208201905092915050565b600081905092915050565b60006128648261297e565b915061286f8361297e565b9250827fffffffffffffffffffffffffffffffffffffffffffffffffffffffffffffffff038211156128a4576128a3612aa7565b5b828201905092915050565b60006128ba8261297e565b91506128c58361297e565b9250826128d5576128d4612ad6565b5b828204905092915050565b60006128eb8261297e565b91506128f68361297e565b92508282101561290957612908612aa7565b5b828203905092915050565b600061291f8261295e565b9050919050565b60008115159050919050565b60007fffffffff0000000000000000000000000000000000000000000000000000000082169050919050565b600073ffffffffffffffffffffffffffffffffffffffff82169050919050565b6000819050919050565b82818337600083830152505050565b60005b838110156129b557808201518184015260208101905061299a565b838111156129c4576000848401525b50505050565b600060028204905060018216806129e257607f821691505b602082108114156129f6576129f5612b05565b5b50919050565b612a0582612b63565b810181811067ffffffffffffffff82111715612a2457612a23612b34565b5b80604052505050565b6000612a388261297e565b91507fffffffffffffffffffffffffffffffffffffffffffffffffffffffffffffffff821415612a6b57612a6a612aa7565b5b600182019050919050565b6000612a818261297e565b9150612a8c8361297e565b925082612a9c57612a9b612ad6565b5b828206905092915050565b7f4e487b7100000000000000000000000000000000000000000000000000000000600052601160045260246000fd5b7f4e487b7100000000000000000000000000000000000000000000000000000000600052601260045260246000fd5b7f4e487b7100000000000000000000000000000000000000000000000000000000600052602260045260246000fd5b7f4e487b7100000000000000000000000000000000000000000000000000000000600052604160045260246000fd5b6000601f19601f8301169050919050565b7f4552433732313a207472616e7366657220746f206e6f6e20455243373231526560008201527f63656976657220696d706c656d656e7465720000000000000000000000000000602082015250565b7f4f776e61626c653a206e6577206f776e657220697320746865207a65726f206160008201527f6464726573730000000000000000000000000000000000000000000000000000602082015250565b7f4552433732313a20746f6b656e20616c7265616479206d696e74656400000000600082015250565b7f4552433732313a207472616e7366657220746f20746865207a65726f2061646460008201527f7265737300000000000000000000000000000000000000000000000000000000602082015250565b7f4552433732313a20617070726f766520746f2063616c6c657200000000000000600082015250565b7f4552433732313a206f70657261746f7220717565727920666f72206e6f6e657860008201527f697374656e7420746f6b656e0000000000000000000000000000000000000000602082015250565b7f4552433732313a20617070726f76652063616c6c6572206973206e6f74206f7760008201527f6e6572206e6f7220617070726f76656420666f7220616c6c0000000000000000602082015250565b7f4552433732313a2062616c616e636520717565727920666f7220746865207a6560008201527f726f206164647265737300000000000000000000000000000000000000000000602082015250565b7f4552433732313a206f776e657220717565727920666f72206e6f6e657869737460008201527f656e7420746f6b656e0000000000000000000000000000000000000000000000602082015250565b7f4552433732313a206d696e7420746f20746865207a65726f2061646472657373600082015250565b7f45524337323155524953746f726167653a2055524920717565727920666f722060008201527f6e6f6e6578697374656e7420746f6b656e000000000000000000000000000000602082015250565b7f4552433732313a20617070726f76656420717565727920666f72206e6f6e657860008201527f697374656e7420746f6b656e0000000000000000000000000000000000000000602082015250565b7f4f776e61626c653a2063616c6c6572206973206e6f7420746865206f776e6572600082015250565b7f4552433732313a207472616e73666572206f6620746f6b656e2074686174206960008201527f73206e6f74206f776e0000000000000000000000000000000000000000000000602082015250565b7f4552433732314d657461646174613a2055524920717565727920666f72206e6f60008201527f6e6578697374656e7420746f6b656e0000000000000000000000000000000000602082015250565b7f4552433732313a20617070726f76616c20746f2063757272656e74206f776e6560008201527f7200000000000000000000000000000000000000000000000000000000000000602082015250565b7f4552433732313a207472616e736665722063616c6c6572206973206e6f74206f60008201527f776e6572206e6f7220617070726f766564000000000000000000000000000000602082015250565b61302481612914565b811461302f57600080fd5b50565b61303b81612926565b811461304657600080fd5b50565b61305281612932565b811461305d57600080fd5b50565b6130698161297e565b811461307457600080fd5b5056fea2646970667358221220b1ae8d6589ba8ff488067a1e1a0444b31fd8fb3fac68a9db36115658ed5e58ad64736f6c63430008040033",
  "linkReferences": {},
  "deployedLinkReferences": {}
}