{
  "_format": "hh-sol-artifact-1",
  "contractName": "ExchangeDev",
  "sourceName": "contracts/ExchangeDev.sol",
  "abi": [
    {
      "inputs": [],
      "name": "SOTA",
      "outputs": [
        {
          "internalType": "address",
          "name": "",
          "type": "address"
        }
      ],
      "stateMutability": "view",
      "type": "function"
    },
    {
      "inputs": [],
      "name": "USDT",
      "outputs": [
        {
          "internalType": "address",
          "name": "",
          "type": "address"
        }
      ],
      "stateMutability": "view",
      "type": "function"
    },
    {
      "inputs": [],
      "name": "WBNB",
      "outputs": [
        {
          "internalType": "address",
          "name": "",
          "type": "address"
        }
      ],
      "stateMutability": "view",
      "type": "function"
    },
    {
      "inputs": [
        {
          "internalType": "address",
          "name": "_paymentToken",
          "type": "address"
        },
        {
          "internalType": "uint256",
          "name": "_usdtAmount",
          "type": "uint256"
        }
      ],
      "name": "estimateFromUSDT",
      "outputs": [
        {
          "internalType": "uint256",
          "name": "",
          "type": "uint256"
        }
      ],
      "stateMutability": "view",
      "type": "function"
    },
    {
      "inputs": [
        {
          "internalType": "address",
          "name": "_paymentToken",
          "type": "address"
        },
        {
          "internalType": "uint256",
          "name": "_paymentAmount",
          "type": "uint256"
        }
      ],
      "name": "estimateToUSDT",
      "outputs": [
        {
          "internalType": "uint256",
          "name": "",
          "type": "uint256"
        }
      ],
      "stateMutability": "view",
      "type": "function"
    }
  ],
  "bytecode": "0x608060405273aa4c85035f71e579833f0ec37a767edbaa5c05bf6000806101000a81548173ffffffffffffffffffffffffffffffffffffffff021916908373ffffffffffffffffffffffffffffffffffffffff16021790555073584119951fa66bf223312a29fb6edebdd957c5d8600160006101000a81548173ffffffffffffffffffffffffffffffffffffffff021916908373ffffffffffffffffffffffffffffffffffffffff16021790555073ae13d989dac2f0debff460ac112a837c89baa7cd600260006101000a81548173ffffffffffffffffffffffffffffffffffffffff021916908373ffffffffffffffffffffffffffffffffffffffff16021790555034801561010e57600080fd5b506105f98061011e6000396000f3fe608060405234801561001057600080fd5b50600436106100575760003560e01c80630d38c5961461005c578063468812eb1461008c57806366ad7b2b146100aa5780638dd95002146100da578063c54e44eb146100f8575b600080fd5b610076600480360381019061007191906103e0565b610116565b6040516100839190610455565b60405180910390f35b61009461022e565b6040516100a1919061043a565b60405180910390f35b6100c460048036038101906100bf91906103e0565b610252565b6040516100d19190610455565b60405180910390f35b6100e261036a565b6040516100ef919061043a565b60405180910390f35b610100610390565b60405161010d919061043a565b60405180910390f35b60008073ffffffffffffffffffffffffffffffffffffffff168373ffffffffffffffffffffffffffffffffffffffff1614156101615761012c8261015a91906104a1565b9050610228565b60008054906101000a900473ffffffffffffffffffffffffffffffffffffffff1673ffffffffffffffffffffffffffffffffffffffff168373ffffffffffffffffffffffffffffffffffffffff1614156101c9576002826101c29190610470565b9050610228565b600160009054906101000a900473ffffffffffffffffffffffffffffffffffffffff1673ffffffffffffffffffffffffffffffffffffffff168373ffffffffffffffffffffffffffffffffffffffff16141561022757819050610228565b5b92915050565b60008054906101000a900473ffffffffffffffffffffffffffffffffffffffff1681565b60008073ffffffffffffffffffffffffffffffffffffffff168373ffffffffffffffffffffffffffffffffffffffff16141561029d5761012c826102969190610470565b9050610364565b60008054906101000a900473ffffffffffffffffffffffffffffffffffffffff1673ffffffffffffffffffffffffffffffffffffffff168373ffffffffffffffffffffffffffffffffffffffff161415610305576002826102fe91906104a1565b9050610364565b600160009054906101000a900473ffffffffffffffffffffffffffffffffffffffff1673ffffffffffffffffffffffffffffffffffffffff168373ffffffffffffffffffffffffffffffffffffffff16141561036357819050610364565b5b92915050565b600260009054906101000a900473ffffffffffffffffffffffffffffffffffffffff1681565b600160009054906101000a900473ffffffffffffffffffffffffffffffffffffffff1681565b6000813590506103c581610595565b92915050565b6000813590506103da816105ac565b92915050565b600080604083850312156103f357600080fd5b6000610401858286016103b6565b9250506020610412858286016103cb565b9150509250929050565b610425816104fb565b82525050565b6104348161052d565b82525050565b600060208201905061044f600083018461041c565b92915050565b600060208201905061046a600083018461042b565b92915050565b600061047b8261052d565b91506104868361052d565b92508261049657610495610566565b5b828204905092915050565b60006104ac8261052d565b91506104b78361052d565b9250817fffffffffffffffffffffffffffffffffffffffffffffffffffffffffffffffff04831182151516156104f0576104ef610537565b5b828202905092915050565b60006105068261050d565b9050919050565b600073ffffffffffffffffffffffffffffffffffffffff82169050919050565b6000819050919050565b7f4e487b7100000000000000000000000000000000000000000000000000000000600052601160045260246000fd5b7f4e487b7100000000000000000000000000000000000000000000000000000000600052601260045260246000fd5b61059e816104fb565b81146105a957600080fd5b50565b6105b58161052d565b81146105c057600080fd5b5056fea2646970667358221220bc85798a154197b7c46357fa606ebfd82d38205237bdb47ad1b756001a47b6b664736f6c63430008040033",
  "linkReferences": {},
  "deployedLinkReferences": {}
}