{
  "_format": "hh-sol-artifact-1",
  "contractName": "ProfitEstimator",
  "sourceName": "contracts/ProfitEstimator.sol",
  "abi": [
    {
      "inputs": [
        {
          "internalType": "address",
          "name": "_sotaMarket",
          "type": "address"
        },
        {
          "internalType": "address",
          "name": "_sotaExchangeContract",
          "type": "address"
        }
      ],
      "stateMutability": "nonpayable",
      "type": "constructor"
    },
    {
      "anonymous": false,
      "inputs": [
        {
          "indexed": true,
          "internalType": "address",
          "name": "previousOwner",
          "type": "address"
        },
        {
          "indexed": true,
          "internalType": "address",
          "name": "newOwner",
          "type": "address"
        }
      ],
      "name": "OwnershipTransferred",
      "type": "event"
    },
    {
      "inputs": [],
      "name": "ZOOM_FEE",
      "outputs": [
        {
          "internalType": "uint256",
          "name": "",
          "type": "uint256"
        }
      ],
      "stateMutability": "view",
      "type": "function"
    },
    {
      "inputs": [],
      "name": "owner",
      "outputs": [
        {
          "internalType": "address",
          "name": "",
          "type": "address"
        }
      ],
      "stateMutability": "view",
      "type": "function"
    },
    {
      "inputs": [
        {
          "internalType": "address",
          "name": "_nft",
          "type": "address"
        },
        {
          "internalType": "address",
          "name": "_paymentToken",
          "type": "address"
        },
        {
          "internalType": "uint256",
          "name": "_tokenId",
          "type": "uint256"
        },
        {
          "internalType": "uint256",
          "name": "_amount",
          "type": "uint256"
        },
        {
          "internalType": "uint256",
          "name": "_price",
          "type": "uint256"
        },
        {
          "internalType": "uint256",
          "name": "_lastBuyPriceInUSD",
          "type": "uint256"
        }
      ],
      "name": "profitToCreator",
      "outputs": [
        {
          "internalType": "uint256",
          "name": "",
          "type": "uint256"
        }
      ],
      "stateMutability": "nonpayable",
      "type": "function"
    },
    {
      "inputs": [],
      "name": "renounceOwnership",
      "outputs": [],
      "stateMutability": "nonpayable",
      "type": "function"
    },
    {
      "inputs": [
        {
          "internalType": "uint256",
          "name": "_xUser",
          "type": "uint256"
        }
      ],
      "name": "setFee",
      "outputs": [],
      "stateMutability": "nonpayable",
      "type": "function"
    },
    {
      "inputs": [
        {
          "internalType": "address",
          "name": "_sotaMarket",
          "type": "address"
        }
      ],
      "name": "setMarket",
      "outputs": [],
      "stateMutability": "nonpayable",
      "type": "function"
    },
    {
      "inputs": [],
      "name": "sotaExchangeContract",
      "outputs": [
        {
          "internalType": "address",
          "name": "",
          "type": "address"
        }
      ],
      "stateMutability": "view",
      "type": "function"
    },
    {
      "inputs": [],
      "name": "sotaMarket",
      "outputs": [
        {
          "internalType": "address",
          "name": "",
          "type": "address"
        }
      ],
      "stateMutability": "view",
      "type": "function"
    },
    {
      "inputs": [
        {
          "internalType": "address",
          "name": "newOwner",
          "type": "address"
        }
      ],
      "name": "transferOwnership",
      "outputs": [],
      "stateMutability": "nonpayable",
      "type": "function"
    },
    {
      "inputs": [],
      "name": "xUser",
      "outputs": [
        {
          "internalType": "uint256",
          "name": "",
          "type": "uint256"
        }
      ],
      "stateMutability": "view",
      "type": "function"
    }
  ],
  "bytecode": "0x608060405260fa6003553480156200001657600080fd5b506040516200117c3803806200117c83398181016040528101906200003c9190620001c9565b6200005c62000050620000e660201b60201c565b620000ee60201b60201c565b81600160006101000a81548173ffffffffffffffffffffffffffffffffffffffff021916908373ffffffffffffffffffffffffffffffffffffffff16021790555080600260006101000a81548173ffffffffffffffffffffffffffffffffffffffff021916908373ffffffffffffffffffffffffffffffffffffffff160217905550505062000258565b600033905090565b60008060009054906101000a900473ffffffffffffffffffffffffffffffffffffffff169050816000806101000a81548173ffffffffffffffffffffffffffffffffffffffff021916908373ffffffffffffffffffffffffffffffffffffffff1602179055508173ffffffffffffffffffffffffffffffffffffffff168173ffffffffffffffffffffffffffffffffffffffff167f8be0079c531659141344cd1fd0a4f28419497f9722a3daafe3b4186f6b6457e060405160405180910390a35050565b600081519050620001c3816200023e565b92915050565b60008060408385031215620001dd57600080fd5b6000620001ed85828601620001b2565b92505060206200020085828601620001b2565b9150509250929050565b600062000217826200021e565b9050919050565b600073ffffffffffffffffffffffffffffffffffffffff82169050919050565b62000249816200020a565b81146200025557600080fd5b50565b610f1480620002686000396000f3fe608060405234801561001057600080fd5b506004361061009e5760003560e01c8063715018a611610066578063715018a6146101475780638da5cb5b146101515780638f6d637e1461016f578063d60ebf4e1461018d578063f2fde38b146101ab5761009e565b80633ce778ef146100a35780634623afa1146100c157806350c7e003146100f157806369fe0e2d1461010f5780636dcea85f1461012b575b600080fd5b6100ab6101c7565b6040516100b89190610b90565b60405180910390f35b6100db60048036038101906100d69190610a2e565b6101ed565b6040516100e89190610c34565b60405180910390f35b6100f9610429565b6040516101069190610b90565b60405180910390f35b61012960048036038101906101249190610ab7565b61044f565b005b61014560048036038101906101409190610a05565b6104d5565b005b61014f610595565b005b61015961061d565b6040516101669190610b90565b60405180910390f35b610177610646565b6040516101849190610c34565b60405180910390f35b61019561064c565b6040516101a29190610c34565b60405180910390f35b6101c560048036038101906101c09190610a05565b610652565b005b600160009054906101000a900473ffffffffffffffffffffffffffffffffffffffff1681565b6000600160009054906101000a900473ffffffffffffffffffffffffffffffffffffffff1673ffffffffffffffffffffffffffffffffffffffff163373ffffffffffffffffffffffffffffffffffffffff161461027f576040517f08c379a000000000000000000000000000000000000000000000000000000000815260040161027690610bd4565b60405180910390fd5b60008773ffffffffffffffffffffffffffffffffffffffff16635d420533876040518263ffffffff1660e01b81526004016102ba9190610c34565b60206040518083038186803b1580156102d257600080fd5b505afa1580156102e6573d6000803e3d6000fd5b505050506040513d601f19601f8201168201806040525081019061030a9190610ae0565b90506000610318888661074a565b90508381111561041857600061036c61271061035e60035461271061033d9190610d41565b6103508b8761080190919063ffffffff16565b61080190919063ffffffff16565b61081790919063ffffffff16565b905060006103b86127106103aa6003546127106103899190610c60565b61039c8c8b61080190919063ffffffff16565b61080190919063ffffffff16565b61081790919063ffffffff16565b9050808211156104155760006103d7828461082d90919063ffffffff16565b90506104098b6104046127106103f6898661080190919063ffffffff16565b61081790919063ffffffff16565b610843565b9550505050505061041f565b50505b6000925050505b9695505050505050565b600260009054906101000a900473ffffffffffffffffffffffffffffffffffffffff1681565b6104576108fa565b73ffffffffffffffffffffffffffffffffffffffff1661047561061d565b73ffffffffffffffffffffffffffffffffffffffff16146104cb576040517f08c379a00000000000000000000000000000000000000000000000000000000081526004016104c290610c14565b60405180910390fd5b8060038190555050565b6104dd6108fa565b73ffffffffffffffffffffffffffffffffffffffff166104fb61061d565b73ffffffffffffffffffffffffffffffffffffffff1614610551576040517f08c379a000000000000000000000000000000000000000000000000000000000815260040161054890610c14565b60405180910390fd5b80600160006101000a81548173ffffffffffffffffffffffffffffffffffffffff021916908373ffffffffffffffffffffffffffffffffffffffff16021790555050565b61059d6108fa565b73ffffffffffffffffffffffffffffffffffffffff166105bb61061d565b73ffffffffffffffffffffffffffffffffffffffff1614610611576040517f08c379a000000000000000000000000000000000000000000000000000000000815260040161060890610c14565b60405180910390fd5b61061b6000610902565b565b60008060009054906101000a900473ffffffffffffffffffffffffffffffffffffffff16905090565b61271081565b60035481565b61065a6108fa565b73ffffffffffffffffffffffffffffffffffffffff1661067861061d565b73ffffffffffffffffffffffffffffffffffffffff16146106ce576040517f08c379a00000000000000000000000000000000000000000000000000000000081526004016106c590610c14565b60405180910390fd5b600073ffffffffffffffffffffffffffffffffffffffff168173ffffffffffffffffffffffffffffffffffffffff16141561073e576040517f08c379a000000000000000000000000000000000000000000000000000000000815260040161073590610bf4565b60405180910390fd5b61074781610902565b50565b6000600260009054906101000a900473ffffffffffffffffffffffffffffffffffffffff1673ffffffffffffffffffffffffffffffffffffffff16630d38c59684846040518363ffffffff1660e01b81526004016107a9929190610bab565b60206040518083038186803b1580156107c157600080fd5b505afa1580156107d5573d6000803e3d6000fd5b505050506040513d601f19601f820116820180604052508101906107f99190610ae0565b905092915050565b6000818361080f9190610ce7565b905092915050565b600081836108259190610cb6565b905092915050565b6000818361083b9190610d41565b905092915050565b6000600260009054906101000a900473ffffffffffffffffffffffffffffffffffffffff1673ffffffffffffffffffffffffffffffffffffffff166366ad7b2b84846040518363ffffffff1660e01b81526004016108a2929190610bab565b60206040518083038186803b1580156108ba57600080fd5b505afa1580156108ce573d6000803e3d6000fd5b505050506040513d601f19601f820116820180604052508101906108f29190610ae0565b905092915050565b600033905090565b60008060009054906101000a900473ffffffffffffffffffffffffffffffffffffffff169050816000806101000a81548173ffffffffffffffffffffffffffffffffffffffff021916908373ffffffffffffffffffffffffffffffffffffffff1602179055508173ffffffffffffffffffffffffffffffffffffffff168173ffffffffffffffffffffffffffffffffffffffff167f8be0079c531659141344cd1fd0a4f28419497f9722a3daafe3b4186f6b6457e060405160405180910390a35050565b6000813590506109d581610eb0565b92915050565b6000813590506109ea81610ec7565b92915050565b6000815190506109ff81610ec7565b92915050565b600060208284031215610a1757600080fd5b6000610a25848285016109c6565b91505092915050565b60008060008060008060c08789031215610a4757600080fd5b6000610a5589828a016109c6565b9650506020610a6689828a016109c6565b9550506040610a7789828a016109db565b9450506060610a8889828a016109db565b9350506080610a9989828a016109db565b92505060a0610aaa89828a016109db565b9150509295509295509295565b600060208284031215610ac957600080fd5b6000610ad7848285016109db565b91505092915050565b600060208284031215610af257600080fd5b6000610b00848285016109f0565b91505092915050565b610b1281610d75565b82525050565b6000610b25600e83610c4f565b9150610b3082610e0f565b602082019050919050565b6000610b48602683610c4f565b9150610b5382610e38565b604082019050919050565b6000610b6b602083610c4f565b9150610b7682610e87565b602082019050919050565b610b8a81610da7565b82525050565b6000602082019050610ba56000830184610b09565b92915050565b6000604082019050610bc06000830185610b09565b610bcd6020830184610b81565b9392505050565b60006020820190508181036000830152610bed81610b18565b9050919050565b60006020820190508181036000830152610c0d81610b3b565b9050919050565b60006020820190508181036000830152610c2d81610b5e565b9050919050565b6000602082019050610c496000830184610b81565b92915050565b600082825260208201905092915050565b6000610c6b82610da7565b9150610c7683610da7565b9250827fffffffffffffffffffffffffffffffffffffffffffffffffffffffffffffffff03821115610cab57610caa610db1565b5b828201905092915050565b6000610cc182610da7565b9150610ccc83610da7565b925082610cdc57610cdb610de0565b5b828204905092915050565b6000610cf282610da7565b9150610cfd83610da7565b9250817fffffffffffffffffffffffffffffffffffffffffffffffffffffffffffffffff0483118215151615610d3657610d35610db1565b5b828202905092915050565b6000610d4c82610da7565b9150610d5783610da7565b925082821015610d6a57610d69610db1565b5b828203905092915050565b6000610d8082610d87565b9050919050565b600073ffffffffffffffffffffffffffffffffffffffff82169050919050565b6000819050919050565b7f4e487b7100000000000000000000000000000000000000000000000000000000600052601160045260246000fd5b7f4e487b7100000000000000000000000000000000000000000000000000000000600052601260045260246000fd5b7f496e76616c69642d73656e646572000000000000000000000000000000000000600082015250565b7f4f776e61626c653a206e6577206f776e657220697320746865207a65726f206160008201527f6464726573730000000000000000000000000000000000000000000000000000602082015250565b7f4f776e61626c653a2063616c6c6572206973206e6f7420746865206f776e6572600082015250565b610eb981610d75565b8114610ec457600080fd5b50565b610ed081610da7565b8114610edb57600080fd5b5056fea26469706673582212206845b708d43eca9371d81780f3e84f0c4a622c82882164d2a44d2e37c7e6f56e64736f6c63430008040033",
  "linkReferences": {},
  "deployedLinkReferences": {}
}