{
  "contracts/ExchangeDev.sol": {
    "ExchangeDev": {
      "abi": [
        {
          "inputs": [],
          "name": "SOTA",
          "outputs": [
            {
              "internalType": "address",
              "name": "",
              "type": "address"
            }
          ],
          "stateMutability": "view",
          "type": "function"
        },
        {
          "inputs": [],
          "name": "USDT",
          "outputs": [
            {
              "internalType": "address",
              "name": "",
              "type": "address"
            }
          ],
          "stateMutability": "view",
          "type": "function"
        },
        {
          "inputs": [],
          "name": "WBNB",
          "outputs": [
            {
              "internalType": "address",
              "name": "",
              "type": "address"
            }
          ],
          "stateMutability": "view",
          "type": "function"
        },
        {
          "inputs": [
            {
              "internalType": "address",
              "name": "_paymentToken",
              "type": "address"
            },
            {
              "internalType": "uint256",
              "name": "_usdtAmount",
              "type": "uint256"
            }
          ],
          "name": "estimateFromUSDT",
          "outputs": [
            {
              "internalType": "uint256",
              "name": "",
              "type": "uint256"
            }
          ],
          "stateMutability": "view",
          "type": "function"
        },
        {
          "inputs": [
            {
              "internalType": "address",
              "name": "_paymentToken",
              "type": "address"
            },
            {
              "internalType": "uint256",
              "name": "_paymentAmount",
              "type": "uint256"
            }
          ],
          "name": "estimateToUSDT",
          "outputs": [
            {
              "internalType": "uint256",
              "name": "",
              "type": "uint256"
            }
          ],
          "stateMutability": "view",
          "type": "function"
        }
      ],
      "evm": {
        "bytecode": {
          "linkReferences": {},
          "object": "6080604052600080546001600160a01b031990811673aa4c85035f71e579833f0ec37a767edbaa5c05bf1790915560018054821673584119951fa66bf223312a29fb6edebdd957c5d81790556002805490911673ae13d989dac2f0debff460ac112a837c89baa7cd17905534801561007657600080fd5b50610243806100866000396000f3fe608060405234801561001057600080fd5b50600436106100575760003560e01c80630d38c5961461005c578063468812eb1461008257806366ad7b2b146100ad5780638dd95002146100c0578063c54e44eb146100d3575b600080fd5b61006f61006a366004610186565b6100e6565b6040519081526020015b60405180910390f35b600054610095906001600160a01b031681565b6040516001600160a01b039091168152602001610079565b61006f6100bb366004610186565b610149565b600254610095906001600160a01b031681565b600154610095906001600160a01b031681565b60006001600160a01b038316610109576101028261012c6101e0565b9050610143565b6000546001600160a01b038481169116141561012a576101026002836101be565b6001546001600160a01b03848116911614156101435750805b92915050565b60006001600160a01b0383166101655761010261012c836101be565b6000546001600160a01b038481169116141561012a576101028260026101e0565b6000806040838503121561019957600080fd5b82356001600160a01b03811681146101b057600080fd5b946020939093013593505050565b6000826101db57634e487b7160e01b600052601260045260246000fd5b500490565b600081600019048311821515161561020857634e487b7160e01b600052601160045260246000fd5b50029056fea26469706673582212205f370b5200cb06bd9f78cf5c926c529f1edacc1f74bc460631a8824d5ea7872964736f6c63430008060033",
          "opcodes": "PUSH1 0x80 PUSH1 0x40 MSTORE PUSH1 0x0 DUP1 SLOAD PUSH1 0x1 PUSH1 0x1 PUSH1 0xA0 SHL SUB NOT SWAP1 DUP2 AND PUSH20 0xAA4C85035F71E579833F0EC37A767EDBAA5C05BF OR SWAP1 SWAP2 SSTORE PUSH1 0x1 DUP1 SLOAD DUP3 AND PUSH20 0x584119951FA66BF223312A29FB6EDEBDD957C5D8 OR SWAP1 SSTORE PUSH1 0x2 DUP1 SLOAD SWAP1 SWAP2 AND PUSH20 0xAE13D989DAC2F0DEBFF460AC112A837C89BAA7CD OR SWAP1 SSTORE CALLVALUE DUP1 ISZERO PUSH2 0x76 JUMPI PUSH1 0x0 DUP1 REVERT JUMPDEST POP PUSH2 0x243 DUP1 PUSH2 0x86 PUSH1 0x0 CODECOPY PUSH1 0x0 RETURN INVALID PUSH1 0x80 PUSH1 0x40 MSTORE CALLVALUE DUP1 ISZERO PUSH2 0x10 JUMPI PUSH1 0x0 DUP1 REVERT JUMPDEST POP PUSH1 0x4 CALLDATASIZE LT PUSH2 0x57 JUMPI PUSH1 0x0 CALLDATALOAD PUSH1 0xE0 SHR DUP1 PUSH4 0xD38C596 EQ PUSH2 0x5C JUMPI DUP1 PUSH4 0x468812EB EQ PUSH2 0x82 JUMPI DUP1 PUSH4 0x66AD7B2B EQ PUSH2 0xAD JUMPI DUP1 PUSH4 0x8DD95002 EQ PUSH2 0xC0 JUMPI DUP1 PUSH4 0xC54E44EB EQ PUSH2 0xD3 JUMPI JUMPDEST PUSH1 0x0 DUP1 REVERT JUMPDEST PUSH2 0x6F PUSH2 0x6A CALLDATASIZE PUSH1 0x4 PUSH2 0x186 JUMP JUMPDEST PUSH2 0xE6 JUMP JUMPDEST PUSH1 0x40 MLOAD SWAP1 DUP2 MSTORE PUSH1 0x20 ADD JUMPDEST PUSH1 0x40 MLOAD DUP1 SWAP2 SUB SWAP1 RETURN JUMPDEST PUSH1 0x0 SLOAD PUSH2 0x95 SWAP1 PUSH1 0x1 PUSH1 0x1 PUSH1 0xA0 SHL SUB AND DUP2 JUMP JUMPDEST PUSH1 0x40 MLOAD PUSH1 0x1 PUSH1 0x1 PUSH1 0xA0 SHL SUB SWAP1 SWAP2 AND DUP2 MSTORE PUSH1 0x20 ADD PUSH2 0x79 JUMP JUMPDEST PUSH2 0x6F PUSH2 0xBB CALLDATASIZE PUSH1 0x4 PUSH2 0x186 JUMP JUMPDEST PUSH2 0x149 JUMP JUMPDEST PUSH1 0x2 SLOAD PUSH2 0x95 SWAP1 PUSH1 0x1 PUSH1 0x1 PUSH1 0xA0 SHL SUB AND DUP2 JUMP JUMPDEST PUSH1 0x1 SLOAD PUSH2 0x95 SWAP1 PUSH1 0x1 PUSH1 0x1 PUSH1 0xA0 SHL SUB AND DUP2 JUMP JUMPDEST PUSH1 0x0 PUSH1 0x1 PUSH1 0x1 PUSH1 0xA0 SHL SUB DUP4 AND PUSH2 0x109 JUMPI PUSH2 0x102 DUP3 PUSH2 0x12C PUSH2 0x1E0 JUMP JUMPDEST SWAP1 POP PUSH2 0x143 JUMP JUMPDEST PUSH1 0x0 SLOAD PUSH1 0x1 PUSH1 0x1 PUSH1 0xA0 SHL SUB DUP5 DUP2 AND SWAP2 AND EQ ISZERO PUSH2 0x12A JUMPI PUSH2 0x102 PUSH1 0x2 DUP4 PUSH2 0x1BE JUMP JUMPDEST PUSH1 0x1 SLOAD PUSH1 0x1 PUSH1 0x1 PUSH1 0xA0 SHL SUB DUP5 DUP2 AND SWAP2 AND EQ ISZERO PUSH2 0x143 JUMPI POP DUP1 JUMPDEST SWAP3 SWAP2 POP POP JUMP JUMPDEST PUSH1 0x0 PUSH1 0x1 PUSH1 0x1 PUSH1 0xA0 SHL SUB DUP4 AND PUSH2 0x165 JUMPI PUSH2 0x102 PUSH2 0x12C DUP4 PUSH2 0x1BE JUMP JUMPDEST PUSH1 0x0 SLOAD PUSH1 0x1 PUSH1 0x1 PUSH1 0xA0 SHL SUB DUP5 DUP2 AND SWAP2 AND EQ ISZERO PUSH2 0x12A JUMPI PUSH2 0x102 DUP3 PUSH1 0x2 PUSH2 0x1E0 JUMP JUMPDEST PUSH1 0x0 DUP1 PUSH1 0x40 DUP4 DUP6 SUB SLT ISZERO PUSH2 0x199 JUMPI PUSH1 0x0 DUP1 REVERT JUMPDEST DUP3 CALLDATALOAD PUSH1 0x1 PUSH1 0x1 PUSH1 0xA0 SHL SUB DUP2 AND DUP2 EQ PUSH2 0x1B0 JUMPI PUSH1 0x0 DUP1 REVERT JUMPDEST SWAP5 PUSH1 0x20 SWAP4 SWAP1 SWAP4 ADD CALLDATALOAD SWAP4 POP POP POP JUMP JUMPDEST PUSH1 0x0 DUP3 PUSH2 0x1DB JUMPI PUSH4 0x4E487B71 PUSH1 0xE0 SHL PUSH1 0x0 MSTORE PUSH1 0x12 PUSH1 0x4 MSTORE PUSH1 0x24 PUSH1 0x0 REVERT JUMPDEST POP DIV SWAP1 JUMP JUMPDEST PUSH1 0x0 DUP2 PUSH1 0x0 NOT DIV DUP4 GT DUP3 ISZERO ISZERO AND ISZERO PUSH2 0x208 JUMPI PUSH4 0x4E487B71 PUSH1 0xE0 SHL PUSH1 0x0 MSTORE PUSH1 0x11 PUSH1 0x4 MSTORE PUSH1 0x24 PUSH1 0x0 REVERT JUMPDEST POP MUL SWAP1 JUMP INVALID LOG2 PUSH5 0x6970667358 0x22 SLT KECCAK256 0x5F CALLDATACOPY SIGNEXTEND MSTORE STOP 0xCB MOD 0xBD SWAP16 PUSH25 0xCF5C926C529F1EDACC1F74BC460631A8824D5EA7872964736F PUSH13 0x63430008060033000000000000 "
        },
        "methodIdentifiers": {
          "SOTA()": "468812eb",
          "USDT()": "c54e44eb",
          "WBNB()": "8dd95002",
          "estimateFromUSDT(address,uint256)": "66ad7b2b",
          "estimateToUSDT(address,uint256)": "0d38c596"
        }
      }
    }
  }
}