{
  "_format": "hh-sol-artifact-1",
  "contractName": "ERC1155MintBurn",
  "sourceName": "contracts/libs/ERC1155MintBurn.sol",
  "abi": [
    {
      "anonymous": false,
      "inputs": [
        {
          "indexed": true,
          "internalType": "address",
          "name": "_owner",
          "type": "address"
        },
        {
          "indexed": true,
          "internalType": "address",
          "name": "_operator",
          "type": "address"
        },
        {
          "indexed": false,
          "internalType": "bool",
          "name": "_approved",
          "type": "bool"
        }
      ],
      "name": "ApprovalForAll",
      "type": "event"
    },
    {
      "anonymous": false,
      "inputs": [
        {
          "indexed": true,
          "internalType": "address",
          "name": "_operator",
          "type": "address"
        },
        {
          "indexed": true,
          "internalType": "address",
          "name": "_from",
          "type": "address"
        },
        {
          "indexed": true,
          "internalType": "address",
          "name": "_to",
          "type": "address"
        },
        {
          "indexed": false,
          "internalType": "uint256[]",
          "name": "_ids",
          "type": "uint256[]"
        },
        {
          "indexed": false,
          "internalType": "uint256[]",
          "name": "_amounts",
          "type": "uint256[]"
        }
      ],
      "name": "TransferBatch",
      "type": "event"
    },
    {
      "anonymous": false,
      "inputs": [
        {
          "indexed": true,
          "internalType": "address",
          "name": "_operator",
          "type": "address"
        },
        {
          "indexed": true,
          "internalType": "address",
          "name": "_from",
          "type": "address"
        },
        {
          "indexed": true,
          "internalType": "address",
          "name": "_to",
          "type": "address"
        },
        {
          "indexed": false,
          "internalType": "uint256",
          "name": "_id",
          "type": "uint256"
        },
        {
          "indexed": false,
          "internalType": "uint256",
          "name": "_amount",
          "type": "uint256"
        }
      ],
      "name": "TransferSingle",
      "type": "event"
    },
    {
      "anonymous": false,
      "inputs": [
        {
          "indexed": false,
          "internalType": "string",
          "name": "_uri",
          "type": "string"
        },
        {
          "indexed": true,
          "internalType": "uint256",
          "name": "_id",
          "type": "uint256"
        }
      ],
      "name": "URI_ERC1155",
      "type": "event"
    },
    {
      "inputs": [
        {
          "internalType": "address",
          "name": "_owner",
          "type": "address"
        },
        {
          "internalType": "uint256",
          "name": "_id",
          "type": "uint256"
        }
      ],
      "name": "balanceOf",
      "outputs": [
        {
          "internalType": "uint256",
          "name": "",
          "type": "uint256"
        }
      ],
      "stateMutability": "view",
      "type": "function"
    },
    {
      "inputs": [
        {
          "internalType": "address[]",
          "name": "_owners",
          "type": "address[]"
        },
        {
          "internalType": "uint256[]",
          "name": "_ids",
          "type": "uint256[]"
        }
      ],
      "name": "balanceOfBatch",
      "outputs": [
        {
          "internalType": "uint256[]",
          "name": "",
          "type": "uint256[]"
        }
      ],
      "stateMutability": "view",
      "type": "function"
    },
    {
      "inputs": [
        {
          "internalType": "address",
          "name": "_owner",
          "type": "address"
        },
        {
          "internalType": "address",
          "name": "_operator",
          "type": "address"
        }
      ],
      "name": "isApprovedForAll",
      "outputs": [
        {
          "internalType": "bool",
          "name": "isOperator",
          "type": "bool"
        }
      ],
      "stateMutability": "view",
      "type": "function"
    },
    {
      "inputs": [
        {
          "internalType": "address",
          "name": "_from",
          "type": "address"
        },
        {
          "internalType": "address",
          "name": "_to",
          "type": "address"
        },
        {
          "internalType": "uint256[]",
          "name": "_ids",
          "type": "uint256[]"
        },
        {
          "internalType": "uint256[]",
          "name": "_amounts",
          "type": "uint256[]"
        },
        {
          "internalType": "bytes",
          "name": "_data",
          "type": "bytes"
        }
      ],
      "name": "safeBatchTransferFrom",
      "outputs": [],
      "stateMutability": "nonpayable",
      "type": "function"
    },
    {
      "inputs": [
        {
          "internalType": "address",
          "name": "_from",
          "type": "address"
        },
        {
          "internalType": "address",
          "name": "_to",
          "type": "address"
        },
        {
          "internalType": "uint256",
          "name": "_id",
          "type": "uint256"
        },
        {
          "internalType": "uint256",
          "name": "_amount",
          "type": "uint256"
        },
        {
          "internalType": "bytes",
          "name": "_data",
          "type": "bytes"
        }
      ],
      "name": "safeTransferFrom",
      "outputs": [],
      "stateMutability": "nonpayable",
      "type": "function"
    },
    {
      "inputs": [
        {
          "internalType": "address",
          "name": "_operator",
          "type": "address"
        },
        {
          "internalType": "bool",
          "name": "_approved",
          "type": "bool"
        }
      ],
      "name": "setApprovalForAll",
      "outputs": [],
      "stateMutability": "nonpayable",
      "type": "function"
    },
    {
      "inputs": [
        {
          "internalType": "bytes4",
          "name": "_interfaceID",
          "type": "bytes4"
        }
      ],
      "name": "supportsInterface",
      "outputs": [
        {
          "internalType": "bool",
          "name": "",
          "type": "bool"
        }
      ],
      "stateMutability": "view",
      "type": "function"
    }
  ],
  "bytecode": "0x608060405234801561001057600080fd5b50612064806100206000396000f3fe608060405234801561001057600080fd5b506004361061007c5760003560e01c80634e1273f41161005b5780634e1273f4146100fd578063a22cb4651461012d578063e985e9c514610149578063f242432a146101795761007c565b8062fdd58e1461008157806301ffc9a7146100b15780632eb2c2d6146100e1575b600080fd5b61009b600480360381019061009691906114a6565b610195565b6040516100a891906119d9565b60405180910390f35b6100cb60048036038101906100c6919061154e565b6101ef565b6040516100d891906118be565b60405180910390f35b6100fb60048036038101906100f6919061131c565b6102a0565b005b610117600480360381019061011291906114e2565b6103af565b6040516101249190611865565b60405180910390f35b6101476004803603810190610142919061146a565b6105a8565b005b610163600480360381019061015e91906112e0565b6106a5565b60405161017091906118be565b60405180910390f35b610193600480360381019061018e91906113db565b610739565b005b60008060008473ffffffffffffffffffffffffffffffffffffffff1673ffffffffffffffffffffffffffffffffffffffff168152602001908152602001600020600083815260200190815260200160002054905092915050565b60006301ffc9a760e01b7bffffffffffffffffffffffffffffffffffffffffffffffffffffffff1916827bffffffffffffffffffffffffffffffffffffffffffffffffffffffff19161480610288575063d9b67a2660e01b7bffffffffffffffffffffffffffffffffffffffffffffffffffffffff1916827bffffffffffffffffffffffffffffffffffffffffffffffffffffffff1916145b15610296576001905061029b565b600090505b919050565b8473ffffffffffffffffffffffffffffffffffffffff163373ffffffffffffffffffffffffffffffffffffffff1614806102e057506102df85336106a5565b5b61031f576040517f08c379a000000000000000000000000000000000000000000000000000000000815260040161031690611979565b60405180910390fd5b600073ffffffffffffffffffffffffffffffffffffffff168473ffffffffffffffffffffffffffffffffffffffff16141561038f576040517f08c379a000000000000000000000000000000000000000000000000000000000815260040161038690611939565b60405180910390fd5b61039b85858585610848565b6103a88585858585610c20565b5050505050565b606081518351146103f5576040517f08c379a00000000000000000000000000000000000000000000000000000000081526004016103ec90611959565b60405180910390fd5b6000835167ffffffffffffffff811115610438577f4e487b7100000000000000000000000000000000000000000000000000000000600052604160045260246000fd5b6040519080825280602002602001820160405280156104665781602001602082028036833780820191505090505b50905060005b845181101561059d576000808683815181106104b1577f4e487b7100000000000000000000000000000000000000000000000000000000600052603260045260246000fd5b602002602001015173ffffffffffffffffffffffffffffffffffffffff1673ffffffffffffffffffffffffffffffffffffffff168152602001908152602001600020600085838151811061052e577f4e487b7100000000000000000000000000000000000000000000000000000000600052603260045260246000fd5b602002602001015181526020019081526020016000205482828151811061057e577f4e487b7100000000000000000000000000000000000000000000000000000000600052603260045260246000fd5b602002602001018181525050808061059590611ca2565b91505061046c565b508091505092915050565b80600160003373ffffffffffffffffffffffffffffffffffffffff1673ffffffffffffffffffffffffffffffffffffffff16815260200190815260200160002060008473ffffffffffffffffffffffffffffffffffffffff1673ffffffffffffffffffffffffffffffffffffffff16815260200190815260200160002060006101000a81548160ff0219169083151502179055508173ffffffffffffffffffffffffffffffffffffffff163373ffffffffffffffffffffffffffffffffffffffff167f17307eab39ab6107e8899845ad3d59bd9653f200f220920489ca2b5937696c318360405161069991906118be565b60405180910390a35050565b6000600160008473ffffffffffffffffffffffffffffffffffffffff1673ffffffffffffffffffffffffffffffffffffffff16815260200190815260200160002060008373ffffffffffffffffffffffffffffffffffffffff1673ffffffffffffffffffffffffffffffffffffffff16815260200190815260200160002060009054906101000a900460ff16905092915050565b8473ffffffffffffffffffffffffffffffffffffffff163373ffffffffffffffffffffffffffffffffffffffff161480610779575061077885336106a5565b5b6107b8576040517f08c379a00000000000000000000000000000000000000000000000000000000081526004016107af906118f9565b60405180910390fd5b600073ffffffffffffffffffffffffffffffffffffffff168473ffffffffffffffffffffffffffffffffffffffff161415610828576040517f08c379a000000000000000000000000000000000000000000000000000000000815260040161081f906118d9565b60405180910390fd5b61083485858585610d6b565b6108418585858585610f59565b5050505050565b805182511461088c576040517f08c379a000000000000000000000000000000000000000000000000000000000815260040161088390611919565b60405180910390fd5b60008251905060005b81811015610b9a5761097f8382815181106108d9577f4e487b7100000000000000000000000000000000000000000000000000000000600052603260045260246000fd5b60200260200101516000808973ffffffffffffffffffffffffffffffffffffffff1673ffffffffffffffffffffffffffffffffffffffff168152602001908152602001600020600087858151811061095a577f4e487b7100000000000000000000000000000000000000000000000000000000600052603260045260246000fd5b60200260200101518152602001908152602001600020546110a490919063ffffffff16565b6000808873ffffffffffffffffffffffffffffffffffffffff1673ffffffffffffffffffffffffffffffffffffffff16815260200190815260200160002060008684815181106109f8577f4e487b7100000000000000000000000000000000000000000000000000000000600052603260045260246000fd5b6020026020010151815260200190815260200160002081905550610af4838281518110610a4e577f4e487b7100000000000000000000000000000000000000000000000000000000600052603260045260246000fd5b60200260200101516000808873ffffffffffffffffffffffffffffffffffffffff1673ffffffffffffffffffffffffffffffffffffffff1681526020019081526020016000206000878581518110610acf577f4e487b7100000000000000000000000000000000000000000000000000000000600052603260045260246000fd5b60200260200101518152602001908152602001600020546110ba90919063ffffffff16565b6000808773ffffffffffffffffffffffffffffffffffffffff1673ffffffffffffffffffffffffffffffffffffffff1681526020019081526020016000206000868481518110610b6d577f4e487b7100000000000000000000000000000000000000000000000000000000600052603260045260246000fd5b60200260200101518152602001908152602001600020819055508080610b9290611ca2565b915050610895565b508373ffffffffffffffffffffffffffffffffffffffff168573ffffffffffffffffffffffffffffffffffffffff163373ffffffffffffffffffffffffffffffffffffffff167f4a39dc06d4c0dbc64b70af90fd698a233a518aa5d07e595d983b8c0526c8f7fb8686604051610c11929190611887565b60405180910390a45050505050565b610c3f8473ffffffffffffffffffffffffffffffffffffffff166110d0565b15610d645760008473ffffffffffffffffffffffffffffffffffffffff1663bc197c8133888787876040518663ffffffff1660e01b8152600401610c879594939291906117a3565b602060405180830381600087803b158015610ca157600080fd5b505af1158015610cb5573d6000803e3d6000fd5b505050506040513d601f19601f82011682018060405250810190610cd99190611577565b905063bc197c8160e01b7bffffffffffffffffffffffffffffffffffffffffffffffffffffffff1916817bffffffffffffffffffffffffffffffffffffffffffffffffffffffff191614610d62576040517f08c379a0000000000000000000000000000000000000000000000000000000008152600401610d5990611999565b60405180910390fd5b505b5050505050565b610dcd816000808773ffffffffffffffffffffffffffffffffffffffff1673ffffffffffffffffffffffffffffffffffffffff1681526020019081526020016000206000858152602001908152602001600020546110a490919063ffffffff16565b6000808673ffffffffffffffffffffffffffffffffffffffff1673ffffffffffffffffffffffffffffffffffffffff168152602001908152602001600020600084815260200190815260200160002081905550610e82816000808673ffffffffffffffffffffffffffffffffffffffff1673ffffffffffffffffffffffffffffffffffffffff1681526020019081526020016000206000858152602001908152602001600020546110ba90919063ffffffff16565b6000808573ffffffffffffffffffffffffffffffffffffffff1673ffffffffffffffffffffffffffffffffffffffff1681526020019081526020016000206000848152602001908152602001600020819055508273ffffffffffffffffffffffffffffffffffffffff168473ffffffffffffffffffffffffffffffffffffffff163373ffffffffffffffffffffffffffffffffffffffff167fc3d58168c5ae7397731d063d5bbf3d657854427343f4c083240f7aacaa2d0f628585604051610f4b9291906119f4565b60405180910390a450505050565b610f788473ffffffffffffffffffffffffffffffffffffffff166110d0565b1561109d5760008473ffffffffffffffffffffffffffffffffffffffff1663f23a6e6133888787876040518663ffffffff1660e01b8152600401610fc095949392919061180b565b602060405180830381600087803b158015610fda57600080fd5b505af1158015610fee573d6000803e3d6000fd5b505050506040513d601f19601f820116820180604052508101906110129190611577565b905063f23a6e6160e01b7bffffffffffffffffffffffffffffffffffffffffffffffffffffffff1916817bffffffffffffffffffffffffffffffffffffffffffffffffffffffff19161461109b576040517f08c379a0000000000000000000000000000000000000000000000000000000008152600401611092906119b9565b60405180910390fd5b505b5050505050565b600081836110b29190611b87565b905092915050565b600081836110c89190611b31565b905092915050565b600080823b905060008111915050919050565b60006110f66110f184611a42565b611a1d565b9050808382526020820190508285602086028201111561111557600080fd5b60005b85811015611145578161112b88826111f9565b845260208401935060208301925050600181019050611118565b5050509392505050565b600061116261115d84611a6e565b611a1d565b9050808382526020820190508285602086028201111561118157600080fd5b60005b858110156111b1578161119788826112cb565b845260208401935060208301925050600181019050611184565b5050509392505050565b60006111ce6111c984611a9a565b611a1d565b9050828152602081018484840111156111e657600080fd5b6111f1848285611c2f565b509392505050565b60008135905061120881611fd2565b92915050565b600082601f83011261121f57600080fd5b813561122f8482602086016110e3565b91505092915050565b600082601f83011261124957600080fd5b813561125984826020860161114f565b91505092915050565b60008135905061127181611fe9565b92915050565b60008135905061128681612000565b92915050565b60008151905061129b81612000565b92915050565b600082601f8301126112b257600080fd5b81356112c28482602086016111bb565b91505092915050565b6000813590506112da81612017565b92915050565b600080604083850312156112f357600080fd5b6000611301858286016111f9565b9250506020611312858286016111f9565b9150509250929050565b600080600080600060a0868803121561133457600080fd5b6000611342888289016111f9565b9550506020611353888289016111f9565b945050604086013567ffffffffffffffff81111561137057600080fd5b61137c88828901611238565b935050606086013567ffffffffffffffff81111561139957600080fd5b6113a588828901611238565b925050608086013567ffffffffffffffff8111156113c257600080fd5b6113ce888289016112a1565b9150509295509295909350565b600080600080600060a086880312156113f357600080fd5b6000611401888289016111f9565b9550506020611412888289016111f9565b9450506040611423888289016112cb565b9350506060611434888289016112cb565b925050608086013567ffffffffffffffff81111561145157600080fd5b61145d888289016112a1565b9150509295509295909350565b6000806040838503121561147d57600080fd5b600061148b858286016111f9565b925050602061149c85828601611262565b9150509250929050565b600080604083850312156114b957600080fd5b60006114c7858286016111f9565b92505060206114d8858286016112cb565b9150509250929050565b600080604083850312156114f557600080fd5b600083013567ffffffffffffffff81111561150f57600080fd5b61151b8582860161120e565b925050602083013567ffffffffffffffff81111561153857600080fd5b61154485828601611238565b9150509250929050565b60006020828403121561156057600080fd5b600061156e84828501611277565b91505092915050565b60006020828403121561158957600080fd5b60006115978482850161128c565b91505092915050565b60006115ac8383611785565b60208301905092915050565b6115c181611bbb565b82525050565b60006115d282611adb565b6115dc8185611afe565b93506115e783611acb565b8060005b838110156116185781516115ff88826115a0565b975061160a83611af1565b9250506001810190506115eb565b5085935050505092915050565b61162e81611bcd565b82525050565b600061163f82611ae6565b6116498185611b0f565b9350611659818560208601611c3e565b61166281611d49565b840191505092915050565b600061167a602b83611b20565b915061168582611d5a565b604082019050919050565b600061169d602a83611b20565b91506116a882611da9565b604082019050919050565b60006116c0603583611b20565b91506116cb82611df8565b604082019050919050565b60006116e3603083611b20565b91506116ee82611e47565b604082019050919050565b6000611706602c83611b20565b915061171182611e96565b604082019050919050565b6000611729602f83611b20565b915061173482611ee5565b604082019050919050565b600061174c603f83611b20565b915061175782611f34565b604082019050919050565b600061176f603a83611b20565b915061177a82611f83565b604082019050919050565b61178e81611c25565b82525050565b61179d81611c25565b82525050565b600060a0820190506117b860008301886115b8565b6117c560208301876115b8565b81810360408301526117d781866115c7565b905081810360608301526117eb81856115c7565b905081810360808301526117ff8184611634565b90509695505050505050565b600060a08201905061182060008301886115b8565b61182d60208301876115b8565b61183a6040830186611794565b6118476060830185611794565b81810360808301526118598184611634565b90509695505050505050565b6000602082019050818103600083015261187f81846115c7565b905092915050565b600060408201905081810360008301526118a181856115c7565b905081810360208301526118b581846115c7565b90509392505050565b60006020820190506118d36000830184611625565b92915050565b600060208201905081810360008301526118f28161166d565b9050919050565b6000602082019050818103600083015261191281611690565b9050919050565b60006020820190508181036000830152611932816116b3565b9050919050565b60006020820190508181036000830152611952816116d6565b9050919050565b60006020820190508181036000830152611972816116f9565b9050919050565b600060208201905081810360008301526119928161171c565b9050919050565b600060208201905081810360008301526119b28161173f565b9050919050565b600060208201905081810360008301526119d281611762565b9050919050565b60006020820190506119ee6000830184611794565b92915050565b6000604082019050611a096000830185611794565b611a166020830184611794565b9392505050565b6000611a27611a38565b9050611a338282611c71565b919050565b6000604051905090565b600067ffffffffffffffff821115611a5d57611a5c611d1a565b5b602082029050602081019050919050565b600067ffffffffffffffff821115611a8957611a88611d1a565b5b602082029050602081019050919050565b600067ffffffffffffffff821115611ab557611ab4611d1a565b5b611abe82611d49565b9050602081019050919050565b6000819050602082019050919050565b600081519050919050565b600081519050919050565b6000602082019050919050565b600082825260208201905092915050565b600082825260208201905092915050565b600082825260208201905092915050565b6000611b3c82611c25565b9150611b4783611c25565b9250827fffffffffffffffffffffffffffffffffffffffffffffffffffffffffffffffff03821115611b7c57611b7b611ceb565b5b828201905092915050565b6000611b9282611c25565b9150611b9d83611c25565b925082821015611bb057611baf611ceb565b5b828203905092915050565b6000611bc682611c05565b9050919050565b60008115159050919050565b60007fffffffff0000000000000000000000000000000000000000000000000000000082169050919050565b600073ffffffffffffffffffffffffffffffffffffffff82169050919050565b6000819050919050565b82818337600083830152505050565b60005b83811015611c5c578082015181840152602081019050611c41565b83811115611c6b576000848401525b50505050565b611c7a82611d49565b810181811067ffffffffffffffff82111715611c9957611c98611d1a565b5b80604052505050565b6000611cad82611c25565b91507fffffffffffffffffffffffffffffffffffffffffffffffffffffffffffffffff821415611ce057611cdf611ceb565b5b600182019050919050565b7f4e487b7100000000000000000000000000000000000000000000000000000000600052601160045260246000fd5b7f4e487b7100000000000000000000000000000000000000000000000000000000600052604160045260246000fd5b6000601f19601f8301169050919050565b7f4552433131353523736166655472616e7366657246726f6d3a20494e56414c4960008201527f445f524543495049454e54000000000000000000000000000000000000000000602082015250565b7f4552433131353523736166655472616e7366657246726f6d3a20494e56414c4960008201527f445f4f50455241544f5200000000000000000000000000000000000000000000602082015250565b7f45524331313535235f7361666542617463685472616e7366657246726f6d3a2060008201527f494e56414c49445f4152524159535f4c454e4754480000000000000000000000602082015250565b7f45524331313535237361666542617463685472616e7366657246726f6d3a204960008201527f4e56414c49445f524543495049454e5400000000000000000000000000000000602082015250565b7f455243313135352362616c616e63654f6642617463683a20494e56414c49445f60008201527f41525241595f4c454e4754480000000000000000000000000000000000000000602082015250565b7f45524331313535237361666542617463685472616e7366657246726f6d3a204960008201527f4e56414c49445f4f50455241544f520000000000000000000000000000000000602082015250565b7f45524331313535235f63616c6c6f6e455243313135354261746368526563656960008201527f7665643a20494e56414c49445f4f4e5f524543454956455f4d45535341474500602082015250565b7f45524331313535235f63616c6c6f6e4552433131353552656365697665643a2060008201527f494e56414c49445f4f4e5f524543454956455f4d455353414745000000000000602082015250565b611fdb81611bbb565b8114611fe657600080fd5b50565b611ff281611bcd565b8114611ffd57600080fd5b50565b61200981611bd9565b811461201457600080fd5b50565b61202081611c25565b811461202b57600080fd5b5056fea2646970667358221220d2b5874dd12522ee12c329599983e46bc71e4e73f31d776ead1f63d3af02b57a64736f6c63430008040033",
  "linkReferences": {},
  "deployedLinkReferences": {}
}