{
  "_format": "hh-sol-artifact-1",
  "contractName": "MockERC721",
  "sourceName": "contracts/mocks/MockERC721.sol",
  "abi": [
    {
      "inputs": [],
      "stateMutability": "nonpayable",
      "type": "constructor"
    },
    {
      "anonymous": false,
      "inputs": [
        {
          "indexed": true,
          "internalType": "address",
          "name": "owner",
          "type": "address"
        },
        {
          "indexed": true,
          "internalType": "address",
          "name": "approved",
          "type": "address"
        },
        {
          "indexed": true,
          "internalType": "uint256",
          "name": "tokenId",
          "type": "uint256"
        }
      ],
      "name": "Approval",
      "type": "event"
    },
    {
      "anonymous": false,
      "inputs": [
        {
          "indexed": true,
          "internalType": "address",
          "name": "owner",
          "type": "address"
        },
        {
          "indexed": true,
          "internalType": "address",
          "name": "operator",
          "type": "address"
        },
        {
          "indexed": false,
          "internalType": "bool",
          "name": "approved",
          "type": "bool"
        }
      ],
      "name": "ApprovalForAll",
      "type": "event"
    },
    {
      "anonymous": false,
      "inputs": [
        {
          "indexed": true,
          "internalType": "address",
          "name": "from",
          "type": "address"
        },
        {
          "indexed": true,
          "internalType": "address",
          "name": "to",
          "type": "address"
        },
        {
          "indexed": true,
          "internalType": "uint256",
          "name": "tokenId",
          "type": "uint256"
        }
      ],
      "name": "Transfer",
      "type": "event"
    },
    {
      "inputs": [
        {
          "internalType": "address",
          "name": "to",
          "type": "address"
        },
        {
          "internalType": "uint256",
          "name": "tokenId",
          "type": "uint256"
        }
      ],
      "name": "approve",
      "outputs": [],
      "stateMutability": "nonpayable",
      "type": "function"
    },
    {
      "inputs": [
        {
          "internalType": "address",
          "name": "owner",
          "type": "address"
        }
      ],
      "name": "balanceOf",
      "outputs": [
        {
          "internalType": "uint256",
          "name": "",
          "type": "uint256"
        }
      ],
      "stateMutability": "view",
      "type": "function"
    },
    {
      "inputs": [
        {
          "internalType": "uint256",
          "name": "tokenId",
          "type": "uint256"
        }
      ],
      "name": "getApproved",
      "outputs": [
        {
          "internalType": "address",
          "name": "",
          "type": "address"
        }
      ],
      "stateMutability": "view",
      "type": "function"
    },
    {
      "inputs": [
        {
          "internalType": "address",
          "name": "owner",
          "type": "address"
        },
        {
          "internalType": "address",
          "name": "operator",
          "type": "address"
        }
      ],
      "name": "isApprovedForAll",
      "outputs": [
        {
          "internalType": "bool",
          "name": "",
          "type": "bool"
        }
      ],
      "stateMutability": "view",
      "type": "function"
    },
    {
      "inputs": [
        {
          "internalType": "uint256",
          "name": "_tokenId",
          "type": "uint256"
        }
      ],
      "name": "mint",
      "outputs": [],
      "stateMutability": "nonpayable",
      "type": "function"
    },
    {
      "inputs": [],
      "name": "name",
      "outputs": [
        {
          "internalType": "string",
          "name": "",
          "type": "string"
        }
      ],
      "stateMutability": "view",
      "type": "function"
    },
    {
      "inputs": [
        {
          "internalType": "uint256",
          "name": "tokenId",
          "type": "uint256"
        }
      ],
      "name": "ownerOf",
      "outputs": [
        {
          "internalType": "address",
          "name": "",
          "type": "address"
        }
      ],
      "stateMutability": "view",
      "type": "function"
    },
    {
      "inputs": [
        {
          "internalType": "address",
          "name": "from",
          "type": "address"
        },
        {
          "internalType": "address",
          "name": "to",
          "type": "address"
        },
        {
          "internalType": "uint256",
          "name": "tokenId",
          "type": "uint256"
        }
      ],
      "name": "safeTransferFrom",
      "outputs": [],
      "stateMutability": "nonpayable",
      "type": "function"
    },
    {
      "inputs": [
        {
          "internalType": "address",
          "name": "from",
          "type": "address"
        },
        {
          "internalType": "address",
          "name": "to",
          "type": "address"
        },
        {
          "internalType": "uint256",
          "name": "tokenId",
          "type": "uint256"
        },
        {
          "internalType": "bytes",
          "name": "_data",
          "type": "bytes"
        }
      ],
      "name": "safeTransferFrom",
      "outputs": [],
      "stateMutability": "nonpayable",
      "type": "function"
    },
    {
      "inputs": [
        {
          "internalType": "address",
          "name": "operator",
          "type": "address"
        },
        {
          "internalType": "bool",
          "name": "approved",
          "type": "bool"
        }
      ],
      "name": "setApprovalForAll",
      "outputs": [],
      "stateMutability": "nonpayable",
      "type": "function"
    },
    {
      "inputs": [
        {
          "internalType": "bytes4",
          "name": "interfaceId",
          "type": "bytes4"
        }
      ],
      "name": "supportsInterface",
      "outputs": [
        {
          "internalType": "bool",
          "name": "",
          "type": "bool"
        }
      ],
      "stateMutability": "view",
      "type": "function"
    },
    {
      "inputs": [],
      "name": "symbol",
      "outputs": [
        {
          "internalType": "string",
          "name": "",
          "type": "string"
        }
      ],
      "stateMutability": "view",
      "type": "function"
    },
    {
      "inputs": [
        {
          "internalType": "uint256",
          "name": "tokenId",
          "type": "uint256"
        }
      ],
      "name": "tokenURI",
      "outputs": [
        {
          "internalType": "string",
          "name": "",
          "type": "string"
        }
      ],
      "stateMutability": "view",
      "type": "function"
    },
    {
      "inputs": [
        {
          "internalType": "address",
          "name": "from",
          "type": "address"
        },
        {
          "internalType": "address",
          "name": "to",
          "type": "address"
        },
        {
          "internalType": "uint256",
          "name": "tokenId",
          "type": "uint256"
        }
      ],
      "name": "transferFrom",
      "outputs": [],
      "stateMutability": "nonpayable",
      "type": "function"
    }
  ],
  "bytecode": "0x60806040523480156200001157600080fd5b506040518060400160405280600681526020017f45524337323100000000000000000000000000000000000000000000000000008152506040518060400160405280600681526020017f4552433732310000000000000000000000000000000000000000000000000000815250816000908051906020019062000096929190620000b8565b508060019080519060200190620000af929190620000b8565b505050620001cd565b828054620000c69062000168565b90600052602060002090601f016020900481019282620000ea576000855562000136565b82601f106200010557805160ff191683800117855562000136565b8280016001018555821562000136579182015b828111156200013557825182559160200191906001019062000118565b5b50905062000145919062000149565b5090565b5b80821115620001645760008160009055506001016200014a565b5090565b600060028204905060018216806200018157607f821691505b602082108114156200019857620001976200019e565b5b50919050565b7f4e487b7100000000000000000000000000000000000000000000000000000000600052602260045260246000fd5b6126b580620001dd6000396000f3fe608060405234801561001057600080fd5b50600436106100ea5760003560e01c806370a082311161008c578063a22cb46511610066578063a22cb4651461025b578063b88d4fde14610277578063c87b56dd14610293578063e985e9c5146102c3576100ea565b806370a08231146101f157806395d89b4114610221578063a0712d681461023f576100ea565b8063095ea7b3116100c8578063095ea7b31461016d57806323b872dd1461018957806342842e0e146101a55780636352211e146101c1576100ea565b806301ffc9a7146100ef57806306fdde031461011f578063081812fc1461013d575b600080fd5b610109600480360381019061010491906118b7565b6102f3565b6040516101169190611c77565b60405180910390f35b6101276103d5565b6040516101349190611c92565b60405180910390f35b61015760048036038101906101529190611909565b610467565b6040516101649190611c10565b60405180910390f35b6101876004803603810190610182919061187b565b6104ec565b005b6101a3600480360381019061019e9190611775565b610604565b005b6101bf60048036038101906101ba9190611775565b610664565b005b6101db60048036038101906101d69190611909565b610684565b6040516101e89190611c10565b60405180910390f35b61020b60048036038101906102069190611710565b610736565b6040516102189190611e74565b60405180910390f35b6102296107ee565b6040516102369190611c92565b60405180910390f35b61025960048036038101906102549190611909565b610880565b005b6102756004803603810190610270919061183f565b61088d565b005b610291600480360381019061028c91906117c4565b610a0e565b005b6102ad60048036038101906102a89190611909565b610a70565b6040516102ba9190611c92565b60405180910390f35b6102dd60048036038101906102d89190611739565b610b17565b6040516102ea9190611c77565b60405180910390f35b60007f80ac58cd000000000000000000000000000000000000000000000000000000007bffffffffffffffffffffffffffffffffffffffffffffffffffffffff1916827bffffffffffffffffffffffffffffffffffffffffffffffffffffffff191614806103be57507f5b5e139f000000000000000000000000000000000000000000000000000000007bffffffffffffffffffffffffffffffffffffffffffffffffffffffff1916827bffffffffffffffffffffffffffffffffffffffffffffffffffffffff1916145b806103ce57506103cd82610bab565b5b9050919050565b6060600080546103e490612099565b80601f016020809104026020016040519081016040528092919081815260200182805461041090612099565b801561045d5780601f106104325761010080835404028352916020019161045d565b820191906000526020600020905b81548152906001019060200180831161044057829003601f168201915b5050505050905090565b600061047282610c15565b6104b1576040517f08c379a00000000000000000000000000000000000000000000000000000000081526004016104a890611dd4565b60405180910390fd5b6004600083815260200190815260200160002060009054906101000a900473ffffffffffffffffffffffffffffffffffffffff169050919050565b60006104f782610684565b90508073ffffffffffffffffffffffffffffffffffffffff168373ffffffffffffffffffffffffffffffffffffffff161415610568576040517f08c379a000000000000000000000000000000000000000000000000000000000815260040161055f90611e34565b60405180910390fd5b8073ffffffffffffffffffffffffffffffffffffffff16610587610c81565b73ffffffffffffffffffffffffffffffffffffffff1614806105b657506105b5816105b0610c81565b610b17565b5b6105f5576040517f08c379a00000000000000000000000000000000000000000000000000000000081526004016105ec90611d54565b60405180910390fd5b6105ff8383610c89565b505050565b61061561060f610c81565b82610d42565b610654576040517f08c379a000000000000000000000000000000000000000000000000000000000815260040161064b90611e54565b60405180910390fd5b61065f838383610e20565b505050565b61067f83838360405180602001604052806000815250610a0e565b505050565b6000806002600084815260200190815260200160002060009054906101000a900473ffffffffffffffffffffffffffffffffffffffff169050600073ffffffffffffffffffffffffffffffffffffffff168173ffffffffffffffffffffffffffffffffffffffff16141561072d576040517f08c379a000000000000000000000000000000000000000000000000000000000815260040161072490611d94565b60405180910390fd5b80915050919050565b60008073ffffffffffffffffffffffffffffffffffffffff168273ffffffffffffffffffffffffffffffffffffffff1614156107a7576040517f08c379a000000000000000000000000000000000000000000000000000000000815260040161079e90611d74565b60405180910390fd5b600360008373ffffffffffffffffffffffffffffffffffffffff1673ffffffffffffffffffffffffffffffffffffffff168152602001908152602001600020549050919050565b6060600180546107fd90612099565b80601f016020809104026020016040519081016040528092919081815260200182805461082990612099565b80156108765780601f1061084b57610100808354040283529160200191610876565b820191906000526020600020905b81548152906001019060200180831161085957829003601f168201915b5050505050905090565b61088a338261107c565b50565b610895610c81565b73ffffffffffffffffffffffffffffffffffffffff168273ffffffffffffffffffffffffffffffffffffffff161415610903576040517f08c379a00000000000000000000000000000000000000000000000000000000081526004016108fa90611d14565b60405180910390fd5b8060056000610910610c81565b73ffffffffffffffffffffffffffffffffffffffff1673ffffffffffffffffffffffffffffffffffffffff16815260200190815260200160002060008473ffffffffffffffffffffffffffffffffffffffff1673ffffffffffffffffffffffffffffffffffffffff16815260200190815260200160002060006101000a81548160ff0219169083151502179055508173ffffffffffffffffffffffffffffffffffffffff166109bd610c81565b73ffffffffffffffffffffffffffffffffffffffff167f17307eab39ab6107e8899845ad3d59bd9653f200f220920489ca2b5937696c3183604051610a029190611c77565b60405180910390a35050565b610a1f610a19610c81565b83610d42565b610a5e576040517f08c379a0000000000000000000000000000000000000000000000000000000008152600401610a5590611e54565b60405180910390fd5b610a6a8484848461124a565b50505050565b6060610a7b82610c15565b610aba576040517f08c379a0000000000000000000000000000000000000000000000000000000008152600401610ab190611e14565b60405180910390fd5b6000610ac46112a6565b90506000815111610ae45760405180602001604052806000815250610b0f565b80610aee846112e3565b604051602001610aff929190611bec565b6040516020818303038152906040525b915050919050565b6000600560008473ffffffffffffffffffffffffffffffffffffffff1673ffffffffffffffffffffffffffffffffffffffff16815260200190815260200160002060008373ffffffffffffffffffffffffffffffffffffffff1673ffffffffffffffffffffffffffffffffffffffff16815260200190815260200160002060009054906101000a900460ff16905092915050565b60007f01ffc9a7000000000000000000000000000000000000000000000000000000007bffffffffffffffffffffffffffffffffffffffffffffffffffffffff1916827bffffffffffffffffffffffffffffffffffffffffffffffffffffffff1916149050919050565b60008073ffffffffffffffffffffffffffffffffffffffff166002600084815260200190815260200160002060009054906101000a900473ffffffffffffffffffffffffffffffffffffffff1673ffffffffffffffffffffffffffffffffffffffff1614159050919050565b600033905090565b816004600083815260200190815260200160002060006101000a81548173ffffffffffffffffffffffffffffffffffffffff021916908373ffffffffffffffffffffffffffffffffffffffff160217905550808273ffffffffffffffffffffffffffffffffffffffff16610cfc83610684565b73ffffffffffffffffffffffffffffffffffffffff167f8c5be1e5ebec7d5bd14f71427d1e84f3dd0314c0f7b2291e5b200ac8c7c3b92560405160405180910390a45050565b6000610d4d82610c15565b610d8c576040517f08c379a0000000000000000000000000000000000000000000000000000000008152600401610d8390611d34565b60405180910390fd5b6000610d9783610684565b90508073ffffffffffffffffffffffffffffffffffffffff168473ffffffffffffffffffffffffffffffffffffffff161480610e0657508373ffffffffffffffffffffffffffffffffffffffff16610dee84610467565b73ffffffffffffffffffffffffffffffffffffffff16145b80610e175750610e168185610b17565b5b91505092915050565b8273ffffffffffffffffffffffffffffffffffffffff16610e4082610684565b73ffffffffffffffffffffffffffffffffffffffff1614610e96576040517f08c379a0000000000000000000000000000000000000000000000000000000008152600401610e8d90611df4565b60405180910390fd5b600073ffffffffffffffffffffffffffffffffffffffff168273ffffffffffffffffffffffffffffffffffffffff161415610f06576040517f08c379a0000000000000000000000000000000000000000000000000000000008152600401610efd90611cf4565b60405180910390fd5b610f11838383611490565b610f1c600082610c89565b6001600360008573ffffffffffffffffffffffffffffffffffffffff1673ffffffffffffffffffffffffffffffffffffffff1681526020019081526020016000206000828254610f6c9190611faf565b925050819055506001600360008473ffffffffffffffffffffffffffffffffffffffff1673ffffffffffffffffffffffffffffffffffffffff1681526020019081526020016000206000828254610fc39190611f28565b92505081905550816002600083815260200190815260200160002060006101000a81548173ffffffffffffffffffffffffffffffffffffffff021916908373ffffffffffffffffffffffffffffffffffffffff160217905550808273ffffffffffffffffffffffffffffffffffffffff168473ffffffffffffffffffffffffffffffffffffffff167fddf252ad1be2c89b69c2b068fc378daa952ba7f163c4a11628f55a4df523b3ef60405160405180910390a4505050565b600073ffffffffffffffffffffffffffffffffffffffff168273ffffffffffffffffffffffffffffffffffffffff1614156110ec576040517f08c379a00000000000000000000000000000000000000000000000000000000081526004016110e390611db4565b60405180910390fd5b6110f581610c15565b15611135576040517f08c379a000000000000000000000000000000000000000000000000000000000815260040161112c90611cd4565b60405180910390fd5b61114160008383611490565b6001600360008473ffffffffffffffffffffffffffffffffffffffff1673ffffffffffffffffffffffffffffffffffffffff16815260200190815260200160002060008282546111919190611f28565b92505081905550816002600083815260200190815260200160002060006101000a81548173ffffffffffffffffffffffffffffffffffffffff021916908373ffffffffffffffffffffffffffffffffffffffff160217905550808273ffffffffffffffffffffffffffffffffffffffff16600073ffffffffffffffffffffffffffffffffffffffff167fddf252ad1be2c89b69c2b068fc378daa952ba7f163c4a11628f55a4df523b3ef60405160405180910390a45050565b611255848484610e20565b61126184848484611495565b6112a0576040517f08c379a000000000000000000000000000000000000000000000000000000000815260040161129790611cb4565b60405180910390fd5b50505050565b60606040518060400160405280601781526020017f68747470733a2f2f6170692e736f746164782e636f6d2f000000000000000000815250905090565b6060600082141561132b576040518060400160405280600181526020017f3000000000000000000000000000000000000000000000000000000000000000815250905061148b565b600082905060005b6000821461135d578080611346906120fc565b915050600a826113569190611f7e565b9150611333565b60008167ffffffffffffffff81111561139f577f4e487b7100000000000000000000000000000000000000000000000000000000600052604160045260246000fd5b6040519080825280601f01601f1916602001820160405280156113d15781602001600182028036833780820191505090505b5090505b60008514611484576001826113ea9190611faf565b9150600a856113f99190612145565b60306114059190611f28565b60f81b818381518110611441577f4e487b7100000000000000000000000000000000000000000000000000000000600052603260045260246000fd5b60200101907effffffffffffffffffffffffffffffffffffffffffffffffffffffffffffff1916908160001a905350600a8561147d9190611f7e565b94506113d5565b8093505050505b919050565b505050565b60006114b68473ffffffffffffffffffffffffffffffffffffffff1661162c565b1561161f578373ffffffffffffffffffffffffffffffffffffffff1663150b7a026114df610c81565b8786866040518563ffffffff1660e01b81526004016115019493929190611c2b565b602060405180830381600087803b15801561151b57600080fd5b505af192505050801561154c57506040513d601f19601f8201168201806040525081019061154991906118e0565b60015b6115cf573d806000811461157c576040519150601f19603f3d011682016040523d82523d6000602084013e611581565b606091505b506000815114156115c7576040517f08c379a00000000000000000000000000000000000000000000000000000000081526004016115be90611cb4565b60405180910390fd5b805181602001fd5b63150b7a0260e01b7bffffffffffffffffffffffffffffffffffffffffffffffffffffffff1916817bffffffffffffffffffffffffffffffffffffffffffffffffffffffff191614915050611624565b600190505b949350505050565b600080823b905060008111915050919050565b600061165261164d84611eb4565b611e8f565b90508281526020810184848401111561166a57600080fd5b611675848285612057565b509392505050565b60008135905061168c81612623565b92915050565b6000813590506116a18161263a565b92915050565b6000813590506116b681612651565b92915050565b6000815190506116cb81612651565b92915050565b600082601f8301126116e257600080fd5b81356116f284826020860161163f565b91505092915050565b60008135905061170a81612668565b92915050565b60006020828403121561172257600080fd5b60006117308482850161167d565b91505092915050565b6000806040838503121561174c57600080fd5b600061175a8582860161167d565b925050602061176b8582860161167d565b9150509250929050565b60008060006060848603121561178a57600080fd5b60006117988682870161167d565b93505060206117a98682870161167d565b92505060406117ba868287016116fb565b9150509250925092565b600080600080608085870312156117da57600080fd5b60006117e88782880161167d565b94505060206117f98782880161167d565b935050604061180a878288016116fb565b925050606085013567ffffffffffffffff81111561182757600080fd5b611833878288016116d1565b91505092959194509250565b6000806040838503121561185257600080fd5b60006118608582860161167d565b925050602061187185828601611692565b9150509250929050565b6000806040838503121561188e57600080fd5b600061189c8582860161167d565b92505060206118ad858286016116fb565b9150509250929050565b6000602082840312156118c957600080fd5b60006118d7848285016116a7565b91505092915050565b6000602082840312156118f257600080fd5b6000611900848285016116bc565b91505092915050565b60006020828403121561191b57600080fd5b6000611929848285016116fb565b91505092915050565b61193b81611fe3565b82525050565b61194a81611ff5565b82525050565b600061195b82611ee5565b6119658185611efb565b9350611975818560208601612066565b61197e81612232565b840191505092915050565b600061199482611ef0565b61199e8185611f0c565b93506119ae818560208601612066565b6119b781612232565b840191505092915050565b60006119cd82611ef0565b6119d78185611f1d565b93506119e7818560208601612066565b80840191505092915050565b6000611a00603283611f0c565b9150611a0b82612243565b604082019050919050565b6000611a23601c83611f0c565b9150611a2e82612292565b602082019050919050565b6000611a46602483611f0c565b9150611a51826122bb565b604082019050919050565b6000611a69601983611f0c565b9150611a748261230a565b602082019050919050565b6000611a8c602c83611f0c565b9150611a9782612333565b604082019050919050565b6000611aaf603883611f0c565b9150611aba82612382565b604082019050919050565b6000611ad2602a83611f0c565b9150611add826123d1565b604082019050919050565b6000611af5602983611f0c565b9150611b0082612420565b604082019050919050565b6000611b18602083611f0c565b9150611b238261246f565b602082019050919050565b6000611b3b602c83611f0c565b9150611b4682612498565b604082019050919050565b6000611b5e602983611f0c565b9150611b69826124e7565b604082019050919050565b6000611b81602f83611f0c565b9150611b8c82612536565b604082019050919050565b6000611ba4602183611f0c565b9150611baf82612585565b604082019050919050565b6000611bc7603183611f0c565b9150611bd2826125d4565b604082019050919050565b611be68161204d565b82525050565b6000611bf882856119c2565b9150611c0482846119c2565b91508190509392505050565b6000602082019050611c256000830184611932565b92915050565b6000608082019050611c406000830187611932565b611c4d6020830186611932565b611c5a6040830185611bdd565b8181036060830152611c6c8184611950565b905095945050505050565b6000602082019050611c8c6000830184611941565b92915050565b60006020820190508181036000830152611cac8184611989565b905092915050565b60006020820190508181036000830152611ccd816119f3565b9050919050565b60006020820190508181036000830152611ced81611a16565b9050919050565b60006020820190508181036000830152611d0d81611a39565b9050919050565b60006020820190508181036000830152611d2d81611a5c565b9050919050565b60006020820190508181036000830152611d4d81611a7f565b9050919050565b60006020820190508181036000830152611d6d81611aa2565b9050919050565b60006020820190508181036000830152611d8d81611ac5565b9050919050565b60006020820190508181036000830152611dad81611ae8565b9050919050565b60006020820190508181036000830152611dcd81611b0b565b9050919050565b60006020820190508181036000830152611ded81611b2e565b9050919050565b60006020820190508181036000830152611e0d81611b51565b9050919050565b60006020820190508181036000830152611e2d81611b74565b9050919050565b60006020820190508181036000830152611e4d81611b97565b9050919050565b60006020820190508181036000830152611e6d81611bba565b9050919050565b6000602082019050611e896000830184611bdd565b92915050565b6000611e99611eaa565b9050611ea582826120cb565b919050565b6000604051905090565b600067ffffffffffffffff821115611ecf57611ece612203565b5b611ed882612232565b9050602081019050919050565b600081519050919050565b600081519050919050565b600082825260208201905092915050565b600082825260208201905092915050565b600081905092915050565b6000611f338261204d565b9150611f3e8361204d565b9250827fffffffffffffffffffffffffffffffffffffffffffffffffffffffffffffffff03821115611f7357611f72612176565b5b828201905092915050565b6000611f898261204d565b9150611f948361204d565b925082611fa457611fa36121a5565b5b828204905092915050565b6000611fba8261204d565b9150611fc58361204d565b925082821015611fd857611fd7612176565b5b828203905092915050565b6000611fee8261202d565b9050919050565b60008115159050919050565b60007fffffffff0000000000000000000000000000000000000000000000000000000082169050919050565b600073ffffffffffffffffffffffffffffffffffffffff82169050919050565b6000819050919050565b82818337600083830152505050565b60005b83811015612084578082015181840152602081019050612069565b83811115612093576000848401525b50505050565b600060028204905060018216806120b157607f821691505b602082108114156120c5576120c46121d4565b5b50919050565b6120d482612232565b810181811067ffffffffffffffff821117156120f3576120f2612203565b5b80604052505050565b60006121078261204d565b91507fffffffffffffffffffffffffffffffffffffffffffffffffffffffffffffffff82141561213a57612139612176565b5b600182019050919050565b60006121508261204d565b915061215b8361204d565b92508261216b5761216a6121a5565b5b828206905092915050565b7f4e487b7100000000000000000000000000000000000000000000000000000000600052601160045260246000fd5b7f4e487b7100000000000000000000000000000000000000000000000000000000600052601260045260246000fd5b7f4e487b7100000000000000000000000000000000000000000000000000000000600052602260045260246000fd5b7f4e487b7100000000000000000000000000000000000000000000000000000000600052604160045260246000fd5b6000601f19601f8301169050919050565b7f4552433732313a207472616e7366657220746f206e6f6e20455243373231526560008201527f63656976657220696d706c656d656e7465720000000000000000000000000000602082015250565b7f4552433732313a20746f6b656e20616c7265616479206d696e74656400000000600082015250565b7f4552433732313a207472616e7366657220746f20746865207a65726f2061646460008201527f7265737300000000000000000000000000000000000000000000000000000000602082015250565b7f4552433732313a20617070726f766520746f2063616c6c657200000000000000600082015250565b7f4552433732313a206f70657261746f7220717565727920666f72206e6f6e657860008201527f697374656e7420746f6b656e0000000000000000000000000000000000000000602082015250565b7f4552433732313a20617070726f76652063616c6c6572206973206e6f74206f7760008201527f6e6572206e6f7220617070726f76656420666f7220616c6c0000000000000000602082015250565b7f4552433732313a2062616c616e636520717565727920666f7220746865207a6560008201527f726f206164647265737300000000000000000000000000000000000000000000602082015250565b7f4552433732313a206f776e657220717565727920666f72206e6f6e657869737460008201527f656e7420746f6b656e0000000000000000000000000000000000000000000000602082015250565b7f4552433732313a206d696e7420746f20746865207a65726f2061646472657373600082015250565b7f4552433732313a20617070726f76656420717565727920666f72206e6f6e657860008201527f697374656e7420746f6b656e0000000000000000000000000000000000000000602082015250565b7f4552433732313a207472616e73666572206f6620746f6b656e2074686174206960008201527f73206e6f74206f776e0000000000000000000000000000000000000000000000602082015250565b7f4552433732314d657461646174613a2055524920717565727920666f72206e6f60008201527f6e6578697374656e7420746f6b656e0000000000000000000000000000000000602082015250565b7f4552433732313a20617070726f76616c20746f2063757272656e74206f776e6560008201527f7200000000000000000000000000000000000000000000000000000000000000602082015250565b7f4552433732313a207472616e736665722063616c6c6572206973206e6f74206f60008201527f776e6572206e6f7220617070726f766564000000000000000000000000000000602082015250565b61262c81611fe3565b811461263757600080fd5b50565b61264381611ff5565b811461264e57600080fd5b50565b61265a81612001565b811461266557600080fd5b50565b6126718161204d565b811461267c57600080fd5b5056fea26469706673582212206a5689e6f8fdc6550d79745eff32cd7e4482b409d889393a1182c79a3ff5842764736f6c63430008040033",
  "linkReferences": {},
  "deployedLinkReferences": {}
}