{
  "_format": "hh-sol-artifact-1",
  "contractName": "NFT150",
  "sourceName": "contracts/NFT150.sol",
  "abi": [
    {
      "inputs": [],
      "stateMutability": "nonpayable",
      "type": "constructor"
    },
    {
      "anonymous": false,
      "inputs": [
        {
          "indexed": true,
          "internalType": "address",
          "name": "_owner",
          "type": "address"
        },
        {
          "indexed": true,
          "internalType": "address",
          "name": "_operator",
          "type": "address"
        },
        {
          "indexed": false,
          "internalType": "bool",
          "name": "_approved",
          "type": "bool"
        }
      ],
      "name": "ApprovalForAll",
      "type": "event"
    },
    {
      "anonymous": false,
      "inputs": [
        {
          "indexed": true,
          "internalType": "address",
          "name": "_creator",
          "type": "address"
        },
        {
          "indexed": true,
          "internalType": "uint256",
          "name": "_id",
          "type": "uint256"
        },
        {
          "indexed": true,
          "internalType": "uint256",
          "name": "_loyaltyFee",
          "type": "uint256"
        },
        {
          "indexed": false,
          "internalType": "uint256",
          "name": "_maxSupply",
          "type": "uint256"
        },
        {
          "indexed": false,
          "internalType": "uint256",
          "name": "_initSupply",
          "type": "uint256"
        }
      ],
      "name": "Create",
      "type": "event"
    },
    {
      "anonymous": false,
      "inputs": [
        {
          "indexed": true,
          "internalType": "address",
          "name": "account",
          "type": "address"
        }
      ],
      "name": "MinterAdded",
      "type": "event"
    },
    {
      "anonymous": false,
      "inputs": [
        {
          "indexed": true,
          "internalType": "address",
          "name": "account",
          "type": "address"
        }
      ],
      "name": "MinterRemoved",
      "type": "event"
    },
    {
      "anonymous": false,
      "inputs": [
        {
          "indexed": true,
          "internalType": "address",
          "name": "previousOwner",
          "type": "address"
        },
        {
          "indexed": true,
          "internalType": "address",
          "name": "newOwner",
          "type": "address"
        }
      ],
      "name": "OwnershipTransferred",
      "type": "event"
    },
    {
      "anonymous": false,
      "inputs": [
        {
          "indexed": true,
          "internalType": "address",
          "name": "_operator",
          "type": "address"
        },
        {
          "indexed": true,
          "internalType": "address",
          "name": "_from",
          "type": "address"
        },
        {
          "indexed": true,
          "internalType": "address",
          "name": "_to",
          "type": "address"
        },
        {
          "indexed": false,
          "internalType": "uint256[]",
          "name": "_ids",
          "type": "uint256[]"
        },
        {
          "indexed": false,
          "internalType": "uint256[]",
          "name": "_amounts",
          "type": "uint256[]"
        }
      ],
      "name": "TransferBatch",
      "type": "event"
    },
    {
      "anonymous": false,
      "inputs": [
        {
          "indexed": true,
          "internalType": "address",
          "name": "_operator",
          "type": "address"
        },
        {
          "indexed": true,
          "internalType": "address",
          "name": "_from",
          "type": "address"
        },
        {
          "indexed": true,
          "internalType": "address",
          "name": "_to",
          "type": "address"
        },
        {
          "indexed": false,
          "internalType": "uint256",
          "name": "_id",
          "type": "uint256"
        },
        {
          "indexed": false,
          "internalType": "uint256",
          "name": "_amount",
          "type": "uint256"
        }
      ],
      "name": "TransferSingle",
      "type": "event"
    },
    {
      "anonymous": false,
      "inputs": [
        {
          "indexed": true,
          "internalType": "address",
          "name": "account",
          "type": "address"
        }
      ],
      "name": "WhitelistAdminAdded",
      "type": "event"
    },
    {
      "anonymous": false,
      "inputs": [
        {
          "indexed": true,
          "internalType": "address",
          "name": "account",
          "type": "address"
        }
      ],
      "name": "WhitelistAdminRemoved",
      "type": "event"
    },
    {
      "inputs": [],
      "name": "_currentTokenID",
      "outputs": [
        {
          "internalType": "uint256",
          "name": "",
          "type": "uint256"
        }
      ],
      "stateMutability": "view",
      "type": "function"
    },
    {
      "inputs": [
        {
          "internalType": "address",
          "name": "account",
          "type": "address"
        }
      ],
      "name": "addMinter",
      "outputs": [],
      "stateMutability": "nonpayable",
      "type": "function"
    },
    {
      "inputs": [
        {
          "internalType": "address",
          "name": "account",
          "type": "address"
        }
      ],
      "name": "addWhitelistAdmin",
      "outputs": [],
      "stateMutability": "nonpayable",
      "type": "function"
    },
    {
      "inputs": [
        {
          "internalType": "address",
          "name": "_owner",
          "type": "address"
        },
        {
          "internalType": "uint256",
          "name": "_id",
          "type": "uint256"
        }
      ],
      "name": "balanceOf",
      "outputs": [
        {
          "internalType": "uint256",
          "name": "",
          "type": "uint256"
        }
      ],
      "stateMutability": "view",
      "type": "function"
    },
    {
      "inputs": [
        {
          "internalType": "address[]",
          "name": "_owners",
          "type": "address[]"
        },
        {
          "internalType": "uint256[]",
          "name": "_ids",
          "type": "uint256[]"
        }
      ],
      "name": "balanceOfBatch",
      "outputs": [
        {
          "internalType": "uint256[]",
          "name": "",
          "type": "uint256[]"
        }
      ],
      "stateMutability": "view",
      "type": "function"
    },
    {
      "inputs": [
        {
          "internalType": "uint256",
          "name": "_maxSupply",
          "type": "uint256"
        },
        {
          "internalType": "uint256",
          "name": "_initialSupply",
          "type": "uint256"
        },
        {
          "internalType": "uint256",
          "name": "_loyaltyFee",
          "type": "uint256"
        },
        {
          "internalType": "string",
          "name": "_uri",
          "type": "string"
        },
        {
          "internalType": "bytes",
          "name": "_data",
          "type": "bytes"
        }
      ],
      "name": "create",
      "outputs": [
        {
          "internalType": "uint256",
          "name": "tokenId",
          "type": "uint256"
        }
      ],
      "stateMutability": "nonpayable",
      "type": "function"
    },
    {
      "inputs": [
        {
          "internalType": "uint256",
          "name": "",
          "type": "uint256"
        }
      ],
      "name": "creators",
      "outputs": [
        {
          "internalType": "address",
          "name": "",
          "type": "address"
        }
      ],
      "stateMutability": "view",
      "type": "function"
    },
    {
      "inputs": [
        {
          "internalType": "uint256",
          "name": "_id",
          "type": "uint256"
        }
      ],
      "name": "getCreator",
      "outputs": [
        {
          "internalType": "address",
          "name": "",
          "type": "address"
        }
      ],
      "stateMutability": "view",
      "type": "function"
    },
    {
      "inputs": [
        {
          "internalType": "uint256",
          "name": "_id",
          "type": "uint256"
        }
      ],
      "name": "getLoyaltyFee",
      "outputs": [
        {
          "internalType": "uint256",
          "name": "",
          "type": "uint256"
        }
      ],
      "stateMutability": "view",
      "type": "function"
    },
    {
      "inputs": [
        {
          "internalType": "address",
          "name": "_owner",
          "type": "address"
        },
        {
          "internalType": "address",
          "name": "_operator",
          "type": "address"
        }
      ],
      "name": "isApprovedForAll",
      "outputs": [
        {
          "internalType": "bool",
          "name": "isOperator",
          "type": "bool"
        }
      ],
      "stateMutability": "view",
      "type": "function"
    },
    {
      "inputs": [
        {
          "internalType": "address",
          "name": "account",
          "type": "address"
        }
      ],
      "name": "isMinter",
      "outputs": [
        {
          "internalType": "bool",
          "name": "",
          "type": "bool"
        }
      ],
      "stateMutability": "view",
      "type": "function"
    },
    {
      "inputs": [],
      "name": "isOwner",
      "outputs": [
        {
          "internalType": "bool",
          "name": "",
          "type": "bool"
        }
      ],
      "stateMutability": "view",
      "type": "function"
    },
    {
      "inputs": [
        {
          "internalType": "address",
          "name": "account",
          "type": "address"
        }
      ],
      "name": "isWhitelistAdmin",
      "outputs": [
        {
          "internalType": "bool",
          "name": "",
          "type": "bool"
        }
      ],
      "stateMutability": "view",
      "type": "function"
    },
    {
      "inputs": [
        {
          "internalType": "uint256",
          "name": "",
          "type": "uint256"
        }
      ],
      "name": "loyaltyFee",
      "outputs": [
        {
          "internalType": "uint256",
          "name": "",
          "type": "uint256"
        }
      ],
      "stateMutability": "view",
      "type": "function"
    },
    {
      "inputs": [
        {
          "internalType": "uint256",
          "name": "_id",
          "type": "uint256"
        }
      ],
      "name": "maxSupply",
      "outputs": [
        {
          "internalType": "uint256",
          "name": "",
          "type": "uint256"
        }
      ],
      "stateMutability": "view",
      "type": "function"
    },
    {
      "inputs": [
        {
          "internalType": "address",
          "name": "_to",
          "type": "address"
        },
        {
          "internalType": "uint256",
          "name": "_id",
          "type": "uint256"
        },
        {
          "internalType": "uint256",
          "name": "_quantity",
          "type": "uint256"
        },
        {
          "internalType": "bytes",
          "name": "_data",
          "type": "bytes"
        }
      ],
      "name": "mint",
      "outputs": [],
      "stateMutability": "nonpayable",
      "type": "function"
    },
    {
      "inputs": [],
      "name": "name",
      "outputs": [
        {
          "internalType": "string",
          "name": "",
          "type": "string"
        }
      ],
      "stateMutability": "view",
      "type": "function"
    },
    {
      "inputs": [],
      "name": "owner",
      "outputs": [
        {
          "internalType": "address",
          "name": "",
          "type": "address"
        }
      ],
      "stateMutability": "view",
      "type": "function"
    },
    {
      "inputs": [
        {
          "internalType": "address",
          "name": "account",
          "type": "address"
        }
      ],
      "name": "removeMinter",
      "outputs": [],
      "stateMutability": "nonpayable",
      "type": "function"
    },
    {
      "inputs": [
        {
          "internalType": "address",
          "name": "account",
          "type": "address"
        }
      ],
      "name": "removeWhitelistAdmin",
      "outputs": [],
      "stateMutability": "nonpayable",
      "type": "function"
    },
    {
      "inputs": [],
      "name": "renounceMinter",
      "outputs": [],
      "stateMutability": "nonpayable",
      "type": "function"
    },
    {
      "inputs": [],
      "name": "renounceOwnership",
      "outputs": [],
      "stateMutability": "nonpayable",
      "type": "function"
    },
    {
      "inputs": [],
      "name": "renounceWhitelistAdmin",
      "outputs": [],
      "stateMutability": "nonpayable",
      "type": "function"
    },
    {
      "inputs": [
        {
          "internalType": "address",
          "name": "_from",
          "type": "address"
        },
        {
          "internalType": "address",
          "name": "_to",
          "type": "address"
        },
        {
          "internalType": "uint256[]",
          "name": "_ids",
          "type": "uint256[]"
        },
        {
          "internalType": "uint256[]",
          "name": "_amounts",
          "type": "uint256[]"
        },
        {
          "internalType": "bytes",
          "name": "_data",
          "type": "bytes"
        }
      ],
      "name": "safeBatchTransferFrom",
      "outputs": [],
      "stateMutability": "nonpayable",
      "type": "function"
    },
    {
      "inputs": [
        {
          "internalType": "address",
          "name": "_from",
          "type": "address"
        },
        {
          "internalType": "address",
          "name": "_to",
          "type": "address"
        },
        {
          "internalType": "uint256",
          "name": "_id",
          "type": "uint256"
        },
        {
          "internalType": "uint256",
          "name": "_amount",
          "type": "uint256"
        },
        {
          "internalType": "bytes",
          "name": "_data",
          "type": "bytes"
        }
      ],
      "name": "safeTransferFrom",
      "outputs": [],
      "stateMutability": "nonpayable",
      "type": "function"
    },
    {
      "inputs": [
        {
          "internalType": "address",
          "name": "_operator",
          "type": "address"
        },
        {
          "internalType": "bool",
          "name": "_approved",
          "type": "bool"
        }
      ],
      "name": "setApprovalForAll",
      "outputs": [],
      "stateMutability": "nonpayable",
      "type": "function"
    },
    {
      "inputs": [
        {
          "internalType": "string",
          "name": "_newBaseMetadataURI",
          "type": "string"
        }
      ],
      "name": "setBaseMetadataURI",
      "outputs": [],
      "stateMutability": "nonpayable",
      "type": "function"
    },
    {
      "inputs": [
        {
          "internalType": "address",
          "name": "_proxyRegistryAddress",
          "type": "address"
        }
      ],
      "name": "setProxyAddress",
      "outputs": [
        {
          "internalType": "bool",
          "name": "",
          "type": "bool"
        }
      ],
      "stateMutability": "nonpayable",
      "type": "function"
    },
    {
      "inputs": [
        {
          "internalType": "bytes4",
          "name": "_interfaceID",
          "type": "bytes4"
        }
      ],
      "name": "supportsInterface",
      "outputs": [
        {
          "internalType": "bool",
          "name": "",
          "type": "bool"
        }
      ],
      "stateMutability": "pure",
      "type": "function"
    },
    {
      "inputs": [],
      "name": "symbol",
      "outputs": [
        {
          "internalType": "string",
          "name": "",
          "type": "string"
        }
      ],
      "stateMutability": "view",
      "type": "function"
    },
    {
      "inputs": [
        {
          "internalType": "uint256",
          "name": "",
          "type": "uint256"
        }
      ],
      "name": "tokenMaxSupply",
      "outputs": [
        {
          "internalType": "uint256",
          "name": "",
          "type": "uint256"
        }
      ],
      "stateMutability": "view",
      "type": "function"
    },
    {
      "inputs": [
        {
          "internalType": "uint256",
          "name": "",
          "type": "uint256"
        }
      ],
      "name": "tokenSupply",
      "outputs": [
        {
          "internalType": "uint256",
          "name": "",
          "type": "uint256"
        }
      ],
      "stateMutability": "view",
      "type": "function"
    },
    {
      "inputs": [
        {
          "internalType": "uint256",
          "name": "",
          "type": "uint256"
        }
      ],
      "name": "tokenURI",
      "outputs": [
        {
          "internalType": "string",
          "name": "",
          "type": "string"
        }
      ],
      "stateMutability": "view",
      "type": "function"
    },
    {
      "inputs": [
        {
          "internalType": "uint256",
          "name": "_id",
          "type": "uint256"
        }
      ],
      "name": "totalSupply",
      "outputs": [
        {
          "internalType": "uint256",
          "name": "",
          "type": "uint256"
        }
      ],
      "stateMutability": "view",
      "type": "function"
    },
    {
      "inputs": [
        {
          "internalType": "address",
          "name": "newOwner",
          "type": "address"
        }
      ],
      "name": "transferOwnership",
      "outputs": [],
      "stateMutability": "nonpayable",
      "type": "function"
    },
    {
      "inputs": [
        {
          "internalType": "uint256",
          "name": "_id",
          "type": "uint256"
        }
      ],
      "name": "uri",
      "outputs": [
        {
          "internalType": "string",
          "name": "",
          "type": "string"
        }
      ],
      "stateMutability": "view",
      "type": "function"
    }
  ],
  "bytecode": "0x608060405260006007553480156200001657600080fd5b506040518060400160405280600e81526020016d1391950c4d4c0811d95b995c985b60921b8152506040518060400160405280600681526020016504e46543135360d41b81525060006200006f6200012b60201b60201c565b600380546001600160a01b0319166001600160a01b038316908117909155604051919250906000907f8be0079c531659141344cd1fd0a4f28419497f9722a3daafe3b4186f6b6457e0908290a350620000c8336200012f565b620000d33362000181565b8151620000e890600d906020850190620002f5565b508051620000fe90600e906020840190620002f5565b5050506200012560405180606001604052806021815260200162002c8b60219139620001d3565b620003d8565b3390565b6200014a816004620001ec60201b620011ae1790919060201c565b6040516001600160a01b038216907f6ae172837ea30b801fbfcdd4108aa1d5bf8ff775444fd70256b44e6bf3dfc3f690600090a250565b6200019c816005620001ec60201b620011ae1790919060201c565b6040516001600160a01b038216907f22380c05984257a1cb900161c713dd71d39e74820f1aea43bd3f1bdd2096129990600090a250565b8051620001e8906002906020840190620002f5565b5050565b620001f8828262000270565b156200024b5760405162461bcd60e51b815260206004820152601f60248201527f526f6c65733a206163636f756e7420616c72656164792068617320726f6c650060448201526064015b60405180910390fd5b6001600160a01b0316600090815260209190915260409020805460ff19166001179055565b60006001600160a01b038216620002d55760405162461bcd60e51b815260206004820152602260248201527f526f6c65733a206163636f756e7420697320746865207a65726f206164647265604482015261737360f01b606482015260840162000242565b506001600160a01b03166000908152602091909152604090205460ff1690565b82805462000303906200039b565b90600052602060002090601f01602090048101928262000327576000855562000372565b82601f106200034257805160ff191683800117855562000372565b8280016001018555821562000372579182015b828111156200037257825182559160200191906001019062000355565b506200038092915062000384565b5090565b5b8082111562000380576000815560010162000385565b600181811c90821680620003b057607f821691505b60208210811415620003d257634e487b7160e01b600052602260045260246000fd5b50919050565b6128a380620003e86000396000f3fe608060405234801561001057600080fd5b506004361061021a5760003560e01c80637e518ec811610125578063aa271e1a116100ad578063cd53d08e1161007c578063cd53d08e146104ca578063d48e638a146104f3578063e985e9c51461051c578063f242432a1461052f578063f2fde38b1461054257600080fd5b8063aa271e1a14610471578063bb5f747b14610484578063bd85b03914610497578063c87b56dd146104b757600080fd5b80638f32d59b116100f45780638f32d59b1461042857806395d89b411461043b578063983b2d56146104435780639865027514610456578063a22cb4651461045e57600080fd5b80637e518ec8146103c7578063832efb5a146103da578063869f7594146103e35780638da5cb5b1461040357600080fd5b80634698bf35116101a85780635d420533116101775780635d420533146103665780636897e97414610386578063715018a614610399578063731133e9146103a15780637362d9c8146103b457600080fd5b80634698bf351461031857806346a7dadc1461032b5780634c5a628c1461033e5780634e1273f41461034657600080fd5b80630e89341c116101ef5780630e89341c1461029d578063240d7045146102b05780632693ebf2146102d05780632eb2c2d6146102f05780633092afd51461030557600080fd5b80624221f01461021f578062fdd58e1461025257806301ffc9a71461026557806306fdde0314610288575b600080fd5b61023f61022d3660046124aa565b600b6020526000908152604090205481565b6040519081526020015b60405180910390f35b61023f6102603660046122c6565b610555565b61027861027336600461241e565b61057e565b6040519015158152602001610249565b6102906105c4565b6040516102499190612680565b6102906102ab3660046124aa565b610652565b61023f6102be3660046124aa565b60096020526000908152604090205481565b61023f6102de3660046124aa565b600a6020526000908152604090205481565b6103036102fe36600461217c565b6107f8565b005b610303610313366004612126565b610907565b61023f6103263660046124c3565b61093d565b610278610339366004612126565b610ab9565b610303610b0b565b610359610354366004612355565b610b16565b604051610249919061263f565b61023f6103743660046124aa565b60009081526009602052604090205490565b610303610394366004612126565b610c71565b610303610ca4565b6103036103af3660046122f2565b610d18565b6103036103c2366004612126565b610e13565b6103036103d5366004612475565b610e41565b61023f60075481565b61023f6103f13660046124aa565b6000908152600b602052604090205490565b6003546001600160a01b03165b6040516001600160a01b039091168152602001610249565b6003546001600160a01b03163314610278565b610290610e6f565b610303610451366004612126565b610e7c565b610303610ef3565b61030361046c366004612293565b610efc565b61027861047f366004612126565b610f68565b610278610492366004612126565b610f75565b61023f6104a53660046124aa565b6000908152600a602052604090205490565b6102906104c53660046124aa565b610f82565b6104106104d83660046124aa565b6008602052600090815260409020546001600160a01b031681565b6104106105013660046124aa565b6000908152600860205260409020546001600160a01b031690565b61027861052a366004612143565b610f9b565b61030361053d36600461222a565b61107d565b610303610550366004612126565b61117b565b6001600160a01b0382166000908152602081815260408083208484529091529020545b92915050565b60006001600160e01b031982166301ffc9a760e01b14806105af57506001600160e01b03198216636cdb3d1360e11b145b156105bc57506001919050565b506000919050565b600d80546105d1906127aa565b80601f01602080910402602001604051908101604052809291908181526020018280546105fd906127aa565b801561064a5780601f1061061f5761010080835404028352916020019161064a565b820191906000526020600020905b81548152906001019060200180831161062d57829003601f168201915b505050505081565b6000818152600860205260409020546060906001600160a01b03166106cc5760405162461bcd60e51b815260206004820152602560248201527f4552433732315472616461626c65237572693a204e4f4e4558495354454e545f6044820152642a27a5a2a760d91b60648201526084015b60405180910390fd5b610578600280546106dc906127aa565b80601f0160208091040260200160405190810160405280929190818152602001828054610708906127aa565b80156107555780601f1061072a57610100808354040283529160200191610755565b820191906000526020600020905b81548152906001019060200180831161073857829003601f168201915b5050506000868152600c60205260409020805490925061077591506127aa565b80601f01602080910402602001604051908101604052809291908181526020018280546107a1906127aa565b80156107ee5780601f106107c3576101008083540402835291602001916107ee565b820191906000526020600020905b8154815290600101906020018083116107d157829003601f168201915b505050505061122a565b336001600160a01b038616148061081457506108148533610f9b565b6108785760405162461bcd60e51b815260206004820152602f60248201527f45524331313535237361666542617463685472616e7366657246726f6d3a204960448201526e272b20a624a22fa7a822a920aa27a960891b60648201526084016106c3565b6001600160a01b0384166108e75760405162461bcd60e51b815260206004820152603060248201527f45524331313535237361666542617463685472616e7366657246726f6d3a204960448201526f13959053125117d49150d2541251539560821b60648201526084016106c3565b6108f385858585611266565b61090085858585856114ec565b5050505050565b6003546001600160a01b031633146109315760405162461bcd60e51b81526004016106c390612693565b61093a8161161c565b50565b6000858511156109a55760405162461bcd60e51b815260206004820152602d60248201527f496e697469616c20737570706c792063616e6e6f74206265206d6f726520746860448201526c616e206d617820737570706c7960981b60648201526084016106c3565b6127108411156109ed5760405162461bcd60e51b8152602060048201526013602482015272496e76616c69642d6c6f79616c74792d66656560681b60448201526064016106c3565b60006109f761165e565b9050610a01611674565b600081815260086020908152604080832080546001600160a01b0319163317905560098252808320889055600c82529091208551610a4192870190611fab565b508515610a5457610a543382888661168b565b6000818152600a60209081526040808320899055600b82529182902089905581518981529081018890528691839133917f1bbfc9eb113af4226de738bd6f2c94b98c4618014c7d65650e0b5d179697bf27910160405180910390a49695505050505050565b6003546000906001600160a01b03163314610ae65760405162461bcd60e51b81526004016106c390612693565b50600680546001600160a01b0383166001600160a01b03199091161790556001919050565b610b143361172c565b565b60608151835114610b7e5760405162461bcd60e51b815260206004820152602c60248201527f455243313135352362616c616e63654f6642617463683a20494e56414c49445f60448201526b082a4a482b2be988a9c8ea8960a31b60648201526084016106c3565b6000835167ffffffffffffffff811115610b9a57610b9a61282c565b604051908082528060200260200182016040528015610bc3578160200160208202803683370190505b50905060005b8451811015610c6957600080868381518110610be757610be7612816565b60200260200101516001600160a01b03166001600160a01b031681526020019081526020016000206000858381518110610c2357610c23612816565b6020026020010151815260200190815260200160002054828281518110610c4c57610c4c612816565b602090810291909101015280610c61816127e5565b915050610bc9565b509392505050565b6003546001600160a01b03163314610c9b5760405162461bcd60e51b81526004016106c390612693565b61093a8161172c565b6003546001600160a01b03163314610cce5760405162461bcd60e51b81526004016106c390612693565b6003546040516000916001600160a01b0316907f8be0079c531659141344cd1fd0a4f28419497f9722a3daafe3b4186f6b6457e0908390a3600380546001600160a01b0319169055565b60008381526008602052604090205483906001600160a01b03163314610d785760405162461bcd60e51b815260206004820152601560248201527413db9b1e4b58dc99585d1bdc8b58d85b8b5b5a5b9d605a1b60448201526064016106c3565b6000818152600b6020908152604080832054600a9092529091205410610dd55760405162461bcd60e51b815260206004820152601260248201527113585e081cdd5c1c1b1e481c995858da195960721b60448201526064016106c3565b610de18585858561168b565b6000848152600a6020526040902054610dfa908461176e565b6000948552600a60205260409094209390935550505050565b610e1c33610f75565b610e385760405162461bcd60e51b81526004016106c3906126c8565b61093a816117c6565b610e4a33610f75565b610e665760405162461bcd60e51b81526004016106c3906126c8565b61093a81611808565b600e80546105d1906127aa565b610e8533610f68565b610eea5760405162461bcd60e51b815260206004820152603060248201527f4d696e746572526f6c653a2063616c6c657220646f6573206e6f74206861766560448201526f20746865204d696e74657220726f6c6560801b60648201526084016106c3565b61093a8161181f565b610b143361161c565b3360008181526001602090815260408083206001600160a01b03871680855290835292819020805460ff191686151590811790915590519081529192917f17307eab39ab6107e8899845ad3d59bd9653f200f220920489ca2b5937696c31910160405180910390a35050565b6000610578600483611861565b6000610578600583611861565b600c60205260009081526040902080546105d1906127aa565b6006546000906001600160a01b03161561104c5760065460405163c455279160e01b81526001600160a01b03858116600483015291821691841690829063c45527919060240160206040518083038186803b158015610ff957600080fd5b505afa15801561100d573d6000803e3d6000fd5b505050506040513d601f19601f820116820180604052508101906110319190612458565b6001600160a01b0316141561104a576001915050610578565b505b6001600160a01b0380841660009081526001602090815260408083209386168352929052205460ff165b9392505050565b336001600160a01b038616148061109957506110998533610f9b565b6110f85760405162461bcd60e51b815260206004820152602a60248201527f4552433131353523736166655472616e7366657246726f6d3a20494e56414c49604482015269222fa7a822a920aa27a960b11b60648201526084016106c3565b6001600160a01b0384166111625760405162461bcd60e51b815260206004820152602b60248201527f4552433131353523736166655472616e7366657246726f6d3a20494e56414c4960448201526a1117d49150d2541251539560aa1b60648201526084016106c3565b61116e858585856118e4565b61090085858585856119be565b6003546001600160a01b031633146111a55760405162461bcd60e51b81526004016106c390612693565b61093a81611ae6565b6111b88282611861565b156112055760405162461bcd60e51b815260206004820152601f60248201527f526f6c65733a206163636f756e7420616c72656164792068617320726f6c650060448201526064016106c3565b6001600160a01b0316600090815260209190915260409020805460ff19166001179055565b60606110768383604051806020016040528060008152506040518060200160405280600081525060405180602001604052806000815250611ba7565b80518251146112d55760405162461bcd60e51b815260206004820152603560248201527f45524331313535235f7361666542617463685472616e7366657246726f6d3a206044820152740929cac82989288be82a4a482b2a6be988a9c8ea89605b1b60648201526084016106c3565b815160005b8181101561148d5761135c8382815181106112f7576112f7612816565b6020026020010151600080896001600160a01b03166001600160a01b03168152602001908152602001600020600087858151811061133757611337612816565b6020026020010151815260200190815260200160002054611e8c90919063ffffffff16565b600080886001600160a01b03166001600160a01b03168152602001908152602001600020600086848151811061139457611394612816565b60200260200101518152602001908152602001600020819055506114288382815181106113c3576113c3612816565b6020026020010151600080886001600160a01b03166001600160a01b03168152602001908152602001600020600087858151811061140357611403612816565b602002602001015181526020019081526020016000205461176e90919063ffffffff16565b600080876001600160a01b03166001600160a01b03168152602001908152602001600020600086848151811061146057611460612816565b60200260200101518152602001908152602001600020819055508080611485906127e5565b9150506112da565b50836001600160a01b0316856001600160a01b0316336001600160a01b03167f4a39dc06d4c0dbc64b70af90fd698a233a518aa5d07e595d983b8c0526c8f7fb86866040516114dd929190612652565b60405180910390a45050505050565b6114fe846001600160a01b0316611ef2565b156109005760405163bc197c8160e01b81526000906001600160a01b0386169063bc197c819061153a9033908a9089908990899060040161259c565b602060405180830381600087803b15801561155457600080fd5b505af1158015611568573d6000803e3d6000fd5b505050506040513d601f19601f8201168201806040525081019061158c919061243b565b90506001600160e01b0319811663bc197c8160e01b146116145760405162461bcd60e51b815260206004820152603f60248201527f45524331313535235f63616c6c6f6e455243313135354261746368526563656960448201527f7665643a20494e56414c49445f4f4e5f524543454956455f4d4553534147450060648201526084016106c3565b505050505050565b611627600482611f29565b6040516001600160a01b038216907fe94479a9f7e1952cc78f2d6baab678adc1b772d936c6583def489e524cb6669290600090a250565b60075460009061166f90600161176e565b905090565b60078054906000611684836127e5565b9190505550565b6001600160a01b0384166000908152602081815260408083208684529091529020546116b7908361176e565b6001600160a01b03851660008181526020818152604080832088845282528083209490945583518781529081018690529192909133917fc3d58168c5ae7397731d063d5bbf3d657854427343f4c083240f7aacaa2d0f62910160405180910390a46117266000858585856119be565b50505050565b611737600582611f29565b6040516001600160a01b038216907f0a8eb35e5ca14b3d6f28e4abf2f128dbab231a58b56e89beb5d636115001e16590600090a250565b60008061177b838561277b565b9050838110156110765760405162461bcd60e51b8152602060048201526016602482015275536166654d617468236164643a204f564552464c4f5760501b60448201526064016106c3565b6117d16005826111ae565b6040516001600160a01b038216907f22380c05984257a1cb900161c713dd71d39e74820f1aea43bd3f1bdd2096129990600090a250565b805161181b906002906020840190611fab565b5050565b61182a6004826111ae565b6040516001600160a01b038216907f6ae172837ea30b801fbfcdd4108aa1d5bf8ff775444fd70256b44e6bf3dfc3f690600090a250565b60006001600160a01b0382166118c45760405162461bcd60e51b815260206004820152602260248201527f526f6c65733a206163636f756e7420697320746865207a65726f206164647265604482015261737360f01b60648201526084016106c3565b506001600160a01b03166000908152602091909152604090205460ff1690565b6001600160a01b0384166000908152602081815260408083208584529091529020546119109082611e8c565b6001600160a01b0380861660009081526020818152604080832087845282528083209490945591861681528082528281208582529091522054611953908261176e565b6001600160a01b0384811660008181526020818152604080832088845282529182902094909455805186815293840185905290929187169133917fc3d58168c5ae7397731d063d5bbf3d657854427343f4c083240f7aacaa2d0f62910160405180910390a450505050565b6119d0846001600160a01b0316611ef2565b156109005760405163f23a6e6160e01b81526000906001600160a01b0386169063f23a6e6190611a0c9033908a908990899089906004016125fa565b602060405180830381600087803b158015611a2657600080fd5b505af1158015611a3a573d6000803e3d6000fd5b505050506040513d601f19601f82011682018060405250810190611a5e919061243b565b90506001600160e01b0319811663f23a6e6160e01b146116145760405162461bcd60e51b815260206004820152603a60248201527f45524331313535235f63616c6c6f6e4552433131353552656365697665643a2060448201527f494e56414c49445f4f4e5f524543454956455f4d45535341474500000000000060648201526084016106c3565b6001600160a01b038116611b4b5760405162461bcd60e51b815260206004820152602660248201527f4f776e61626c653a206e6577206f776e657220697320746865207a65726f206160448201526564647265737360d01b60648201526084016106c3565b6003546040516001600160a01b038084169216907f8be0079c531659141344cd1fd0a4f28419497f9722a3daafe3b4186f6b6457e090600090a3600380546001600160a01b0319166001600160a01b0392909216919091179055565b805182518451865188516060948a948a948a948a948a94600094909390929091611bd1919061277b565b611bdb919061277b565b611be5919061277b565b611bef919061277b565b67ffffffffffffffff811115611c0757611c0761282c565b6040519080825280601f01601f191660200182016040528015611c31576020820181803683370190505b509050806000805b8851811015611ca957888181518110611c5457611c54612816565b01602001516001600160f81b0319168383611c6e816127e5565b945081518110611c8057611c80612816565b60200101906001600160f81b031916908160001a90535080611ca1816127e5565b915050611c39565b5060005b8751811015611d1d57878181518110611cc857611cc8612816565b01602001516001600160f81b0319168383611ce2816127e5565b945081518110611cf457611cf4612816565b60200101906001600160f81b031916908160001a90535080611d15816127e5565b915050611cad565b5060005b8651811015611d9157868181518110611d3c57611d3c612816565b01602001516001600160f81b0319168383611d56816127e5565b945081518110611d6857611d68612816565b60200101906001600160f81b031916908160001a90535080611d89816127e5565b915050611d21565b5060005b8551811015611e0557858181518110611db057611db0612816565b01602001516001600160f81b0319168383611dca816127e5565b945081518110611ddc57611ddc612816565b60200101906001600160f81b031916908160001a90535080611dfd816127e5565b915050611d95565b5060005b8451811015611e7957848181518110611e2457611e24612816565b01602001516001600160f81b0319168383611e3e816127e5565b945081518110611e5057611e50612816565b60200101906001600160f81b031916908160001a90535080611e71816127e5565b915050611e09565b50909d9c50505050505050505050505050565b600082821115611ede5760405162461bcd60e51b815260206004820152601760248201527f536166654d617468237375623a20554e444552464c4f5700000000000000000060448201526064016106c3565b6000611eea8385612793565b949350505050565b6000813f7fc5d2460186f7233c927e7db2dcc703c0e500b653ca82273b7bfad8045d85a4708115801590611eea5750141592915050565b611f338282611861565b611f895760405162461bcd60e51b815260206004820152602160248201527f526f6c65733a206163636f756e7420646f6573206e6f74206861766520726f6c6044820152606560f81b60648201526084016106c3565b6001600160a01b0316600090815260209190915260409020805460ff19169055565b828054611fb7906127aa565b90600052602060002090601f016020900481019282611fd9576000855561201f565b82601f10611ff257805160ff191683800117855561201f565b8280016001018555821561201f579182015b8281111561201f578251825591602001919060010190612004565b5061202b92915061202f565b5090565b5b8082111561202b5760008155600101612030565b600082601f83011261205557600080fd5b8135602061206a61206583612757565b612726565b80838252828201915082860187848660051b890101111561208a57600080fd5b60005b858110156120a95781358452928401929084019060010161208d565b5090979650505050505050565b600082601f8301126120c757600080fd5b813567ffffffffffffffff8111156120e1576120e161282c565b6120f4601f8201601f1916602001612726565b81815284602083860101111561210957600080fd5b816020850160208301376000918101602001919091529392505050565b60006020828403121561213857600080fd5b813561107681612842565b6000806040838503121561215657600080fd5b823561216181612842565b9150602083013561217181612842565b809150509250929050565b600080600080600060a0868803121561219457600080fd5b853561219f81612842565b945060208601356121af81612842565b9350604086013567ffffffffffffffff808211156121cc57600080fd5b6121d889838a01612044565b945060608801359150808211156121ee57600080fd5b6121fa89838a01612044565b9350608088013591508082111561221057600080fd5b5061221d888289016120b6565b9150509295509295909350565b600080600080600060a0868803121561224257600080fd5b853561224d81612842565b9450602086013561225d81612842565b93506040860135925060608601359150608086013567ffffffffffffffff81111561228757600080fd5b61221d888289016120b6565b600080604083850312156122a657600080fd5b82356122b181612842565b91506020830135801515811461217157600080fd5b600080604083850312156122d957600080fd5b82356122e481612842565b946020939093013593505050565b6000806000806080858703121561230857600080fd5b843561231381612842565b93506020850135925060408501359150606085013567ffffffffffffffff81111561233d57600080fd5b612349878288016120b6565b91505092959194509250565b6000806040838503121561236857600080fd5b823567ffffffffffffffff8082111561238057600080fd5b818501915085601f83011261239457600080fd5b813560206123a461206583612757565b8083825282820191508286018a848660051b89010111156123c457600080fd5b600096505b848710156123f05780356123dc81612842565b8352600196909601959183019183016123c9565b509650508601359250508082111561240757600080fd5b5061241485828601612044565b9150509250929050565b60006020828403121561243057600080fd5b813561107681612857565b60006020828403121561244d57600080fd5b815161107681612857565b60006020828403121561246a57600080fd5b815161107681612842565b60006020828403121561248757600080fd5b813567ffffffffffffffff81111561249e57600080fd5b611eea848285016120b6565b6000602082840312156124bc57600080fd5b5035919050565b600080600080600060a086880312156124db57600080fd5b853594506020860135935060408601359250606086013567ffffffffffffffff8082111561250857600080fd5b6121fa89838a016120b6565b600081518084526020808501945080840160005b8381101561254457815187529582019590820190600101612528565b509495945050505050565b6000815180845260005b8181101561257557602081850181015186830182015201612559565b81811115612587576000602083870101525b50601f01601f19169290920160200192915050565b6001600160a01b0386811682528516602082015260a0604082018190526000906125c890830186612514565b82810360608401526125da8186612514565b905082810360808401526125ee818561254f565b98975050505050505050565b6001600160a01b03868116825285166020820152604081018490526060810183905260a0608082018190526000906126349083018461254f565b979650505050505050565b6020815260006110766020830184612514565b6040815260006126656040830185612514565b82810360208401526126778185612514565b95945050505050565b602081526000611076602083018461254f565b6020808252818101527f4f776e61626c653a2063616c6c6572206973206e6f7420746865206f776e6572604082015260600190565b602080825260409082018190527f57686974656c69737441646d696e526f6c653a2063616c6c657220646f657320908201527f6e6f742068617665207468652057686974656c69737441646d696e20726f6c65606082015260800190565b604051601f8201601f1916810167ffffffffffffffff8111828210171561274f5761274f61282c565b604052919050565b600067ffffffffffffffff8211156127715761277161282c565b5060051b60200190565b6000821982111561278e5761278e612800565b500190565b6000828210156127a5576127a5612800565b500390565b600181811c908216806127be57607f821691505b602082108114156127df57634e487b7160e01b600052602260045260246000fd5b50919050565b60006000198214156127f9576127f9612800565b5060010190565b634e487b7160e01b600052601160045260246000fd5b634e487b7160e01b600052603260045260246000fd5b634e487b7160e01b600052604160045260246000fd5b6001600160a01b038116811461093a57600080fd5b6001600160e01b03198116811461093a57600080fdfea26469706673582212203501b1e88668fc3c1afae54a0b387b8fc5068f49777d36cea4b4f6a535b9691064736f6c6343000806003368747470733a2f2f686f646f6f692d6d6574612e736f746174656b2e776f726b2f",
  "linkReferences": {},
  "deployedLinkReferences": {}
}