{
  "_format": "hh-sol-artifact-1",
  "contractName": "Pausable",
  "sourceName": "contracts/libs/Pausable.sol",
  "abi": [
    {
      "inputs": [],
      "stateMutability": "nonpayable",
      "type": "constructor"
    },
    {
      "anonymous": false,
      "inputs": [
        {
          "indexed": false,
          "internalType": "address",
          "name": "account",
          "type": "address"
        }
      ],
      "name": "Paused",
      "type": "event"
    },
    {
      "anonymous": false,
      "inputs": [
        {
          "indexed": true,
          "internalType": "address",
          "name": "account",
          "type": "address"
        }
      ],
      "name": "PauserAdded",
      "type": "event"
    },
    {
      "anonymous": false,
      "inputs": [
        {
          "indexed": true,
          "internalType": "address",
          "name": "account",
          "type": "address"
        }
      ],
      "name": "PauserRemoved",
      "type": "event"
    },
    {
      "anonymous": false,
      "inputs": [
        {
          "indexed": false,
          "internalType": "address",
          "name": "account",
          "type": "address"
        }
      ],
      "name": "Unpaused",
      "type": "event"
    },
    {
      "inputs": [
        {
          "internalType": "address",
          "name": "account",
          "type": "address"
        }
      ],
      "name": "addPauser",
      "outputs": [],
      "stateMutability": "nonpayable",
      "type": "function"
    },
    {
      "inputs": [
        {
          "internalType": "address",
          "name": "account",
          "type": "address"
        }
      ],
      "name": "isPauser",
      "outputs": [
        {
          "internalType": "bool",
          "name": "",
          "type": "bool"
        }
      ],
      "stateMutability": "view",
      "type": "function"
    },
    {
      "inputs": [],
      "name": "pause",
      "outputs": [],
      "stateMutability": "nonpayable",
      "type": "function"
    },
    {
      "inputs": [],
      "name": "paused",
      "outputs": [
        {
          "internalType": "bool",
          "name": "",
          "type": "bool"
        }
      ],
      "stateMutability": "view",
      "type": "function"
    },
    {
      "inputs": [],
      "name": "renouncePauser",
      "outputs": [],
      "stateMutability": "nonpayable",
      "type": "function"
    },
    {
      "inputs": [],
      "name": "unpause",
      "outputs": [],
      "stateMutability": "nonpayable",
      "type": "function"
    }
  ],
  "bytecode": "0x60806040523480156200001157600080fd5b5062000032620000266200005360201b60201c565b6200005b60201b60201c565b6000600160006101000a81548160ff02191690831515021790555062000355565b600033905090565b62000076816000620000bc60201b620003821790919060201c565b8073ffffffffffffffffffffffffffffffffffffffff167f6719d08c1888103bea251a4ed56406bd0c3e69723c8a1686e017e7bbe159b6f860405160405180910390a250565b620000ce82826200016f60201b60201c565b1562000111576040517f08c379a0000000000000000000000000000000000000000000000000000000008152600401620001089062000288565b60405180910390fd5b60018260000160008373ffffffffffffffffffffffffffffffffffffffff1673ffffffffffffffffffffffffffffffffffffffff16815260200190815260200160002060006101000a81548160ff0219169083151502179055505050565b60008073ffffffffffffffffffffffffffffffffffffffff168273ffffffffffffffffffffffffffffffffffffffff161415620001e3576040517f08c379a0000000000000000000000000000000000000000000000000000000008152600401620001da90620002aa565b60405180910390fd5b8260000160008373ffffffffffffffffffffffffffffffffffffffff1673ffffffffffffffffffffffffffffffffffffffff16815260200190815260200160002060009054906101000a900460ff16905092915050565b600062000249601f83620002cc565b91506200025682620002dd565b602082019050919050565b600062000270602283620002cc565b91506200027d8262000306565b604082019050919050565b60006020820190508181036000830152620002a3816200023a565b9050919050565b60006020820190508181036000830152620002c58162000261565b9050919050565b600082825260208201905092915050565b7f526f6c65733a206163636f756e7420616c72656164792068617320726f6c6500600082015250565b7f526f6c65733a206163636f756e7420697320746865207a65726f20616464726560008201527f7373000000000000000000000000000000000000000000000000000000000000602082015250565b610a7d80620003656000396000f3fe608060405234801561001057600080fd5b50600436106100625760003560e01c80633f4ba83a1461006757806346fbf68e146100715780635c975abb146100a15780636ef8d66d146100bf57806382dc1ec4146100c95780638456cb59146100e5575b600080fd5b61006f6100ef565b005b61008b6004803603810190610086919061066a565b6101e8565b604051610098919061079e565b60405180910390f35b6100a9610205565b6040516100b6919061079e565b60405180910390f35b6100c761021c565b005b6100e360048036038101906100de919061066a565b61022e565b005b6100ed610289565b005b6100ff6100fa61042a565b6101e8565b61013e576040517f08c379a0000000000000000000000000000000000000000000000000000000008152600401610135906107f9565b60405180910390fd5b600160009054906101000a900460ff1661018d576040517f08c379a0000000000000000000000000000000000000000000000000000000008152600401610184906107b9565b60405180910390fd5b6000600160006101000a81548160ff0219169083151502179055507f5db9ee0a495bf2e6ff9c91a7834c1ba4fdd244a5e8aa4e537bd38aeae4b073aa6101d161042a565b6040516101de9190610783565b60405180910390a1565b60006101fe82600061043290919063ffffffff16565b9050919050565b6000600160009054906101000a900460ff16905090565b61022c61022761042a565b6104fa565b565b61023e61023961042a565b6101e8565b61027d576040517f08c379a0000000000000000000000000000000000000000000000000000000008152600401610274906107f9565b60405180910390fd5b61028681610554565b50565b61029961029461042a565b6101e8565b6102d8576040517f08c379a00000000000000000000000000000000000000000000000000000000081526004016102cf906107f9565b60405180910390fd5b600160009054906101000a900460ff1615610328576040517f08c379a000000000000000000000000000000000000000000000000000000000815260040161031f90610819565b60405180910390fd5b60018060006101000a81548160ff0219169083151502179055507f62e78cea01bee320cd4e420270b5ea74000d11b0c9f74754ebdbfc544b05a25861036b61042a565b6040516103789190610783565b60405180910390a1565b61038c8282610432565b156103cc576040517f08c379a00000000000000000000000000000000000000000000000000000000081526004016103c3906107d9565b60405180910390fd5b60018260000160008373ffffffffffffffffffffffffffffffffffffffff1673ffffffffffffffffffffffffffffffffffffffff16815260200190815260200160002060006101000a81548160ff0219169083151502179055505050565b600033905090565b60008073ffffffffffffffffffffffffffffffffffffffff168273ffffffffffffffffffffffffffffffffffffffff1614156104a3576040517f08c379a000000000000000000000000000000000000000000000000000000000815260040161049a90610859565b60405180910390fd5b8260000160008373ffffffffffffffffffffffffffffffffffffffff1673ffffffffffffffffffffffffffffffffffffffff16815260200190815260200160002060009054906101000a900460ff16905092915050565b61050e8160006105ae90919063ffffffff16565b8073ffffffffffffffffffffffffffffffffffffffff167fcd265ebaf09df2871cc7bd4133404a235ba12eff2041bb89d9c714a2621c7c7e60405160405180910390a250565b61056881600061038290919063ffffffff16565b8073ffffffffffffffffffffffffffffffffffffffff167f6719d08c1888103bea251a4ed56406bd0c3e69723c8a1686e017e7bbe159b6f860405160405180910390a250565b6105b88282610432565b6105f7576040517f08c379a00000000000000000000000000000000000000000000000000000000081526004016105ee90610839565b60405180910390fd5b60008260000160008373ffffffffffffffffffffffffffffffffffffffff1673ffffffffffffffffffffffffffffffffffffffff16815260200190815260200160002060006101000a81548160ff0219169083151502179055505050565b60008135905061066481610a30565b92915050565b60006020828403121561067c57600080fd5b600061068a84828501610655565b91505092915050565b61069c8161088a565b82525050565b6106ab8161089c565b82525050565b60006106be601483610879565b91506106c9826108c8565b602082019050919050565b60006106e1601f83610879565b91506106ec826108f1565b602082019050919050565b6000610704603083610879565b915061070f8261091a565b604082019050919050565b6000610727601083610879565b915061073282610969565b602082019050919050565b600061074a602183610879565b915061075582610992565b604082019050919050565b600061076d602283610879565b9150610778826109e1565b604082019050919050565b60006020820190506107986000830184610693565b92915050565b60006020820190506107b360008301846106a2565b92915050565b600060208201905081810360008301526107d2816106b1565b9050919050565b600060208201905081810360008301526107f2816106d4565b9050919050565b60006020820190508181036000830152610812816106f7565b9050919050565b600060208201905081810360008301526108328161071a565b9050919050565b600060208201905081810360008301526108528161073d565b9050919050565b6000602082019050818103600083015261087281610760565b9050919050565b600082825260208201905092915050565b6000610895826108a8565b9050919050565b60008115159050919050565b600073ffffffffffffffffffffffffffffffffffffffff82169050919050565b7f5061757361626c653a206e6f7420706175736564000000000000000000000000600082015250565b7f526f6c65733a206163636f756e7420616c72656164792068617320726f6c6500600082015250565b7f506175736572526f6c653a2063616c6c657220646f6573206e6f74206861766560008201527f207468652050617573657220726f6c6500000000000000000000000000000000602082015250565b7f5061757361626c653a2070617573656400000000000000000000000000000000600082015250565b7f526f6c65733a206163636f756e7420646f6573206e6f74206861766520726f6c60008201527f6500000000000000000000000000000000000000000000000000000000000000602082015250565b7f526f6c65733a206163636f756e7420697320746865207a65726f20616464726560008201527f7373000000000000000000000000000000000000000000000000000000000000602082015250565b610a398161088a565b8114610a4457600080fd5b5056fea264697066735822122041bc8cfb084f5ab4c104f64f49a9873563e77cc6073bdadcaa07f4e99b42de3364736f6c63430008040033",
  "linkReferences": {},
  "deployedLinkReferences": {}
}