{
  "_format": "hh-sol-artifact-1",
  "contractName": "SotaMarket",
  "sourceName": "contracts/SotaMarket.sol",
  "abi": [
    {
      "inputs": [
        {
          "internalType": "address",
          "name": "_oldMarket",
          "type": "address"
        }
      ],
      "stateMutability": "nonpayable",
      "type": "constructor"
    },
    {
      "anonymous": false,
      "inputs": [
        {
          "indexed": true,
          "internalType": "uint256",
          "name": "_bidId",
          "type": "uint256"
        }
      ],
      "name": "AcceptBid",
      "type": "event"
    },
    {
      "anonymous": false,
      "inputs": [
        {
          "indexed": true,
          "internalType": "uint256",
          "name": "_bidId",
          "type": "uint256"
        }
      ],
      "name": "BidCancelled",
      "type": "event"
    },
    {
      "anonymous": false,
      "inputs": [
        {
          "indexed": true,
          "internalType": "uint256",
          "name": "_bidId",
          "type": "uint256"
        },
        {
          "indexed": false,
          "internalType": "address",
          "name": "_tokenAddress",
          "type": "address"
        },
        {
          "indexed": true,
          "internalType": "uint256",
          "name": "_tokenId",
          "type": "uint256"
        },
        {
          "indexed": true,
          "internalType": "uint256",
          "name": "_quantity",
          "type": "uint256"
        },
        {
          "indexed": false,
          "internalType": "uint256",
          "name": "_price",
          "type": "uint256"
        },
        {
          "indexed": false,
          "internalType": "address",
          "name": "_paymentToken",
          "type": "address"
        }
      ],
      "name": "BidCreated",
      "type": "event"
    },
    {
      "anonymous": false,
      "inputs": [
        {
          "indexed": true,
          "internalType": "uint256",
          "name": "_bidId",
          "type": "uint256"
        }
      ],
      "name": "BidUpdated",
      "type": "event"
    },
    {
      "anonymous": false,
      "inputs": [
        {
          "indexed": false,
          "internalType": "uint256",
          "name": "_itemId",
          "type": "uint256"
        },
        {
          "indexed": false,
          "internalType": "uint256",
          "name": "_quantity",
          "type": "uint256"
        },
        {
          "indexed": false,
          "internalType": "address",
          "name": "_paymentToken",
          "type": "address"
        },
        {
          "indexed": false,
          "internalType": "uint256",
          "name": "_paymentAmount",
          "type": "uint256"
        }
      ],
      "name": "Buy",
      "type": "event"
    },
    {
      "anonymous": false,
      "inputs": [
        {
          "indexed": true,
          "internalType": "uint256",
          "name": "_orderId",
          "type": "uint256"
        }
      ],
      "name": "OrderCancelled",
      "type": "event"
    },
    {
      "anonymous": false,
      "inputs": [
        {
          "indexed": true,
          "internalType": "uint256",
          "name": "_orderId",
          "type": "uint256"
        },
        {
          "indexed": false,
          "internalType": "address",
          "name": "_tokenAddress",
          "type": "address"
        },
        {
          "indexed": true,
          "internalType": "uint256",
          "name": "_tokenId",
          "type": "uint256"
        },
        {
          "indexed": true,
          "internalType": "uint256",
          "name": "_quantity",
          "type": "uint256"
        },
        {
          "indexed": false,
          "internalType": "uint256",
          "name": "_price",
          "type": "uint256"
        },
        {
          "indexed": false,
          "internalType": "address",
          "name": "_paymentToken",
          "type": "address"
        }
      ],
      "name": "OrderCreated",
      "type": "event"
    },
    {
      "anonymous": false,
      "inputs": [
        {
          "indexed": true,
          "internalType": "uint256",
          "name": "_orderId",
          "type": "uint256"
        }
      ],
      "name": "OrderUpdated",
      "type": "event"
    },
    {
      "anonymous": false,
      "inputs": [
        {
          "indexed": true,
          "internalType": "address",
          "name": "previousOwner",
          "type": "address"
        },
        {
          "indexed": true,
          "internalType": "address",
          "name": "newOwner",
          "type": "address"
        }
      ],
      "name": "OwnershipTransferred",
      "type": "event"
    },
    {
      "anonymous": false,
      "inputs": [
        {
          "indexed": false,
          "internalType": "address",
          "name": "account",
          "type": "address"
        }
      ],
      "name": "Paused",
      "type": "event"
    },
    {
      "anonymous": false,
      "inputs": [
        {
          "indexed": false,
          "internalType": "address",
          "name": "account",
          "type": "address"
        }
      ],
      "name": "Unpaused",
      "type": "event"
    },
    {
      "inputs": [],
      "name": "WBNB",
      "outputs": [
        {
          "internalType": "address",
          "name": "",
          "type": "address"
        }
      ],
      "stateMutability": "view",
      "type": "function"
    },
    {
      "inputs": [],
      "name": "ZOOM_FEE",
      "outputs": [
        {
          "internalType": "uint256",
          "name": "",
          "type": "uint256"
        }
      ],
      "stateMutability": "view",
      "type": "function"
    },
    {
      "inputs": [],
      "name": "ZOOM_SOTA",
      "outputs": [
        {
          "internalType": "uint256",
          "name": "",
          "type": "uint256"
        }
      ],
      "stateMutability": "view",
      "type": "function"
    },
    {
      "inputs": [],
      "name": "ZOOM_USDT",
      "outputs": [
        {
          "internalType": "uint256",
          "name": "",
          "type": "uint256"
        }
      ],
      "stateMutability": "view",
      "type": "function"
    },
    {
      "inputs": [
        {
          "internalType": "uint256",
          "name": "_bidId",
          "type": "uint256"
        },
        {
          "internalType": "uint256",
          "name": "_quantity",
          "type": "uint256"
        }
      ],
      "name": "acceptBid",
      "outputs": [
        {
          "internalType": "bool",
          "name": "",
          "type": "bool"
        }
      ],
      "stateMutability": "nonpayable",
      "type": "function"
    },
    {
      "inputs": [
        {
          "internalType": "address",
          "name": "_sotaNFT",
          "type": "address"
        },
        {
          "internalType": "bool",
          "name": "_isSOTANFT",
          "type": "bool"
        },
        {
          "internalType": "bool",
          "name": "_isFarming",
          "type": "bool"
        }
      ],
      "name": "addSOTANFTs",
      "outputs": [
        {
          "internalType": "bool",
          "name": "",
          "type": "bool"
        }
      ],
      "stateMutability": "nonpayable",
      "type": "function"
    },
    {
      "inputs": [
        {
          "internalType": "uint256",
          "name": "_fromOrderId",
          "type": "uint256"
        },
        {
          "internalType": "uint256",
          "name": "_toOrderId",
          "type": "uint256"
        }
      ],
      "name": "adminMigrateData",
      "outputs": [],
      "stateMutability": "nonpayable",
      "type": "function"
    },
    {
      "inputs": [
        {
          "internalType": "address",
          "name": "",
          "type": "address"
        },
        {
          "internalType": "uint256",
          "name": "",
          "type": "uint256"
        }
      ],
      "name": "amountFirstSale",
      "outputs": [
        {
          "internalType": "uint256",
          "name": "",
          "type": "uint256"
        }
      ],
      "stateMutability": "view",
      "type": "function"
    },
    {
      "inputs": [
        {
          "internalType": "uint256",
          "name": "",
          "type": "uint256"
        }
      ],
      "name": "bids",
      "outputs": [
        {
          "internalType": "address",
          "name": "bidder",
          "type": "address"
        },
        {
          "internalType": "address",
          "name": "paymentToken",
          "type": "address"
        },
        {
          "internalType": "address",
          "name": "tokenAddress",
          "type": "address"
        },
        {
          "internalType": "uint256",
          "name": "tokenId",
          "type": "uint256"
        },
        {
          "internalType": "uint256",
          "name": "bidPrice",
          "type": "uint256"
        },
        {
          "internalType": "uint256",
          "name": "quantity",
          "type": "uint256"
        },
        {
          "internalType": "uint256",
          "name": "expTime",
          "type": "uint256"
        },
        {
          "internalType": "bool",
          "name": "status",
          "type": "bool"
        }
      ],
      "stateMutability": "view",
      "type": "function"
    },
    {
      "inputs": [
        {
          "internalType": "uint256",
          "name": "_orderId",
          "type": "uint256"
        },
        {
          "internalType": "uint256",
          "name": "_quantity",
          "type": "uint256"
        },
        {
          "internalType": "address",
          "name": "_paymentToken",
          "type": "address"
        }
      ],
      "name": "buy",
      "outputs": [
        {
          "internalType": "bool",
          "name": "",
          "type": "bool"
        }
      ],
      "stateMutability": "payable",
      "type": "function"
    },
    {
      "inputs": [
        {
          "internalType": "uint256",
          "name": "_bidId",
          "type": "uint256"
        }
      ],
      "name": "cancelBid",
      "outputs": [],
      "stateMutability": "nonpayable",
      "type": "function"
    },
    {
      "inputs": [
        {
          "internalType": "uint256",
          "name": "_orderId",
          "type": "uint256"
        }
      ],
      "name": "cancelOrder",
      "outputs": [],
      "stateMutability": "nonpayable",
      "type": "function"
    },
    {
      "inputs": [
        {
          "internalType": "address",
          "name": "_tokenAddress",
          "type": "address"
        },
        {
          "internalType": "address",
          "name": "_paymentToken",
          "type": "address"
        },
        {
          "internalType": "uint256",
          "name": "_tokenId",
          "type": "uint256"
        },
        {
          "internalType": "uint256",
          "name": "_quantity",
          "type": "uint256"
        },
        {
          "internalType": "uint256",
          "name": "_price",
          "type": "uint256"
        },
        {
          "internalType": "uint256",
          "name": "_expTime",
          "type": "uint256"
        }
      ],
      "name": "createBid",
      "outputs": [
        {
          "internalType": "uint256",
          "name": "_bidId",
          "type": "uint256"
        }
      ],
      "stateMutability": "payable",
      "type": "function"
    },
    {
      "inputs": [
        {
          "internalType": "address",
          "name": "_tokenAddress",
          "type": "address"
        },
        {
          "internalType": "address",
          "name": "_retailer",
          "type": "address"
        },
        {
          "internalType": "address",
          "name": "_paymentToken",
          "type": "address"
        },
        {
          "internalType": "uint256",
          "name": "_tokenId",
          "type": "uint256"
        },
        {
          "internalType": "uint256",
          "name": "_quantity",
          "type": "uint256"
        },
        {
          "internalType": "uint256",
          "name": "_price",
          "type": "uint256"
        },
        {
          "internalType": "uint256",
          "name": "_retailFee",
          "type": "uint256"
        }
      ],
      "name": "createOrder",
      "outputs": [
        {
          "internalType": "uint256",
          "name": "_orderId",
          "type": "uint256"
        }
      ],
      "stateMutability": "nonpayable",
      "type": "function"
    },
    {
      "inputs": [],
      "name": "discountForBuyer",
      "outputs": [
        {
          "internalType": "uint256",
          "name": "",
          "type": "uint256"
        }
      ],
      "stateMutability": "view",
      "type": "function"
    },
    {
      "inputs": [],
      "name": "discountForSota",
      "outputs": [
        {
          "internalType": "uint256",
          "name": "",
          "type": "uint256"
        }
      ],
      "stateMutability": "view",
      "type": "function"
    },
    {
      "inputs": [
        {
          "internalType": "address",
          "name": "",
          "type": "address"
        },
        {
          "internalType": "bytes32",
          "name": "",
          "type": "bytes32"
        }
      ],
      "name": "farmingAmount",
      "outputs": [
        {
          "internalType": "uint256",
          "name": "",
          "type": "uint256"
        }
      ],
      "stateMutability": "view",
      "type": "function"
    },
    {
      "inputs": [
        {
          "internalType": "address",
          "name": "",
          "type": "address"
        }
      ],
      "name": "isFarmingNFTs",
      "outputs": [
        {
          "internalType": "bool",
          "name": "",
          "type": "bool"
        }
      ],
      "stateMutability": "view",
      "type": "function"
    },
    {
      "inputs": [
        {
          "internalType": "address",
          "name": "",
          "type": "address"
        }
      ],
      "name": "isOperator",
      "outputs": [
        {
          "internalType": "bool",
          "name": "",
          "type": "bool"
        }
      ],
      "stateMutability": "view",
      "type": "function"
    },
    {
      "inputs": [
        {
          "internalType": "address",
          "name": "",
          "type": "address"
        }
      ],
      "name": "isRetailer",
      "outputs": [
        {
          "internalType": "bool",
          "name": "",
          "type": "bool"
        }
      ],
      "stateMutability": "view",
      "type": "function"
    },
    {
      "inputs": [
        {
          "internalType": "address",
          "name": "",
          "type": "address"
        }
      ],
      "name": "isSOTANFTs",
      "outputs": [
        {
          "internalType": "bool",
          "name": "",
          "type": "bool"
        }
      ],
      "stateMutability": "view",
      "type": "function"
    },
    {
      "inputs": [],
      "name": "oldMarket",
      "outputs": [
        {
          "internalType": "address",
          "name": "",
          "type": "address"
        }
      ],
      "stateMutability": "view",
      "type": "function"
    },
    {
      "inputs": [
        {
          "internalType": "address",
          "name": "",
          "type": "address"
        },
        {
          "internalType": "address",
          "name": "",
          "type": "address"
        },
        {
          "internalType": "uint256[]",
          "name": "",
          "type": "uint256[]"
        },
        {
          "internalType": "uint256[]",
          "name": "",
          "type": "uint256[]"
        },
        {
          "internalType": "bytes",
          "name": "",
          "type": "bytes"
        }
      ],
      "name": "onERC1155BatchReceived",
      "outputs": [
        {
          "internalType": "bytes4",
          "name": "",
          "type": "bytes4"
        }
      ],
      "stateMutability": "nonpayable",
      "type": "function"
    },
    {
      "inputs": [
        {
          "internalType": "address",
          "name": "",
          "type": "address"
        },
        {
          "internalType": "address",
          "name": "",
          "type": "address"
        },
        {
          "internalType": "uint256",
          "name": "",
          "type": "uint256"
        },
        {
          "internalType": "uint256",
          "name": "",
          "type": "uint256"
        },
        {
          "internalType": "bytes",
          "name": "",
          "type": "bytes"
        }
      ],
      "name": "onERC1155Received",
      "outputs": [
        {
          "internalType": "bytes4",
          "name": "",
          "type": "bytes4"
        }
      ],
      "stateMutability": "nonpayable",
      "type": "function"
    },
    {
      "inputs": [
        {
          "internalType": "address",
          "name": "",
          "type": "address"
        },
        {
          "internalType": "address",
          "name": "",
          "type": "address"
        },
        {
          "internalType": "uint256",
          "name": "",
          "type": "uint256"
        },
        {
          "internalType": "bytes",
          "name": "",
          "type": "bytes"
        }
      ],
      "name": "onERC721Received",
      "outputs": [
        {
          "internalType": "bytes4",
          "name": "",
          "type": "bytes4"
        }
      ],
      "stateMutability": "nonpayable",
      "type": "function"
    },
    {
      "inputs": [
        {
          "internalType": "uint256",
          "name": "",
          "type": "uint256"
        }
      ],
      "name": "orders",
      "outputs": [
        {
          "internalType": "address",
          "name": "owner",
          "type": "address"
        },
        {
          "internalType": "address",
          "name": "tokenAddress",
          "type": "address"
        },
        {
          "internalType": "address",
          "name": "paymentToken",
          "type": "address"
        },
        {
          "internalType": "address",
          "name": "retailer",
          "type": "address"
        },
        {
          "internalType": "uint256",
          "name": "tokenId",
          "type": "uint256"
        },
        {
          "internalType": "uint256",
          "name": "quantity",
          "type": "uint256"
        },
        {
          "internalType": "uint256",
          "name": "price",
          "type": "uint256"
        },
        {
          "internalType": "uint256",
          "name": "retailFee",
          "type": "uint256"
        },
        {
          "internalType": "bool",
          "name": "isOnsale",
          "type": "bool"
        },
        {
          "internalType": "bool",
          "name": "isERC721",
          "type": "bool"
        }
      ],
      "stateMutability": "view",
      "type": "function"
    },
    {
      "inputs": [],
      "name": "owner",
      "outputs": [
        {
          "internalType": "address",
          "name": "",
          "type": "address"
        }
      ],
      "stateMutability": "view",
      "type": "function"
    },
    {
      "inputs": [],
      "name": "pause",
      "outputs": [],
      "stateMutability": "nonpayable",
      "type": "function"
    },
    {
      "inputs": [],
      "name": "paused",
      "outputs": [
        {
          "internalType": "bool",
          "name": "",
          "type": "bool"
        }
      ],
      "stateMutability": "view",
      "type": "function"
    },
    {
      "inputs": [
        {
          "internalType": "address",
          "name": "",
          "type": "address"
        }
      ],
      "name": "paymentMethod",
      "outputs": [
        {
          "internalType": "bool",
          "name": "",
          "type": "bool"
        }
      ],
      "stateMutability": "view",
      "type": "function"
    },
    {
      "inputs": [],
      "name": "profitEstimatorContract",
      "outputs": [
        {
          "internalType": "address",
          "name": "",
          "type": "address"
        }
      ],
      "stateMutability": "view",
      "type": "function"
    },
    {
      "inputs": [],
      "name": "referralContract",
      "outputs": [
        {
          "internalType": "address",
          "name": "",
          "type": "address"
        }
      ],
      "stateMutability": "view",
      "type": "function"
    },
    {
      "inputs": [],
      "name": "renounceOwnership",
      "outputs": [],
      "stateMutability": "nonpayable",
      "type": "function"
    },
    {
      "inputs": [
        {
          "internalType": "address",
          "name": "_token",
          "type": "address"
        },
        {
          "internalType": "address",
          "name": "_spender",
          "type": "address"
        }
      ],
      "name": "setApproveForAll",
      "outputs": [],
      "stateMutability": "nonpayable",
      "type": "function"
    },
    {
      "inputs": [
        {
          "internalType": "address",
          "name": "_token",
          "type": "address"
        },
        {
          "internalType": "address",
          "name": "_spender",
          "type": "address"
        }
      ],
      "name": "setApproveForAllERC721",
      "outputs": [],
      "stateMutability": "nonpayable",
      "type": "function"
    },
    {
      "inputs": [
        {
          "internalType": "address",
          "name": "_token",
          "type": "address"
        },
        {
          "internalType": "bool",
          "name": "_status",
          "type": "bool"
        }
      ],
      "name": "setPaymentMethod",
      "outputs": [
        {
          "internalType": "bool",
          "name": "",
          "type": "bool"
        }
      ],
      "stateMutability": "nonpayable",
      "type": "function"
    },
    {
      "inputs": [
        {
          "internalType": "address",
          "name": "_profitEstimatorContract",
          "type": "address"
        }
      ],
      "name": "setProfitSenderContract",
      "outputs": [
        {
          "internalType": "bool",
          "name": "",
          "type": "bool"
        }
      ],
      "stateMutability": "nonpayable",
      "type": "function"
    },
    {
      "inputs": [
        {
          "internalType": "address",
          "name": "_referralContract",
          "type": "address"
        }
      ],
      "name": "setReferralContract",
      "outputs": [
        {
          "internalType": "bool",
          "name": "",
          "type": "bool"
        }
      ],
      "stateMutability": "nonpayable",
      "type": "function"
    },
    {
      "inputs": [
        {
          "internalType": "address",
          "name": "_sota",
          "type": "address"
        }
      ],
      "name": "setSotaContract",
      "outputs": [
        {
          "internalType": "bool",
          "name": "",
          "type": "bool"
        }
      ],
      "stateMutability": "nonpayable",
      "type": "function"
    },
    {
      "inputs": [
        {
          "internalType": "address",
          "name": "_sotaExchangeContract",
          "type": "address"
        }
      ],
      "name": "setSotaExchangeContract",
      "outputs": [
        {
          "internalType": "bool",
          "name": "",
          "type": "bool"
        }
      ],
      "stateMutability": "nonpayable",
      "type": "function"
    },
    {
      "inputs": [
        {
          "internalType": "uint256",
          "name": "_xUser",
          "type": "uint256"
        },
        {
          "internalType": "uint256",
          "name": "_xCreator",
          "type": "uint256"
        },
        {
          "internalType": "uint256",
          "name": "_yRefRate",
          "type": "uint256"
        },
        {
          "internalType": "uint256",
          "name": "_zProfitToCreator",
          "type": "uint256"
        },
        {
          "internalType": "uint256",
          "name": "_discountForBuyer",
          "type": "uint256"
        },
        {
          "internalType": "uint256",
          "name": "_discountForSota",
          "type": "uint256"
        }
      ],
      "name": "setSystemFee",
      "outputs": [],
      "stateMutability": "nonpayable",
      "type": "function"
    },
    {
      "inputs": [],
      "name": "sota",
      "outputs": [
        {
          "internalType": "address",
          "name": "",
          "type": "address"
        }
      ],
      "stateMutability": "view",
      "type": "function"
    },
    {
      "inputs": [],
      "name": "sotaExchangeContract",
      "outputs": [
        {
          "internalType": "address",
          "name": "",
          "type": "address"
        }
      ],
      "stateMutability": "view",
      "type": "function"
    },
    {
      "inputs": [
        {
          "internalType": "bytes4",
          "name": "interfaceId",
          "type": "bytes4"
        }
      ],
      "name": "supportsInterface",
      "outputs": [
        {
          "internalType": "bool",
          "name": "",
          "type": "bool"
        }
      ],
      "stateMutability": "view",
      "type": "function"
    },
    {
      "inputs": [],
      "name": "totalBids",
      "outputs": [
        {
          "internalType": "uint256",
          "name": "",
          "type": "uint256"
        }
      ],
      "stateMutability": "view",
      "type": "function"
    },
    {
      "inputs": [],
      "name": "totalOrders",
      "outputs": [
        {
          "internalType": "uint256",
          "name": "",
          "type": "uint256"
        }
      ],
      "stateMutability": "view",
      "type": "function"
    },
    {
      "inputs": [
        {
          "internalType": "address",
          "name": "_newOwner",
          "type": "address"
        }
      ],
      "name": "transferOwnerOldMarket",
      "outputs": [],
      "stateMutability": "nonpayable",
      "type": "function"
    },
    {
      "inputs": [
        {
          "internalType": "address",
          "name": "newOwner",
          "type": "address"
        }
      ],
      "name": "transferOwnership",
      "outputs": [],
      "stateMutability": "nonpayable",
      "type": "function"
    },
    {
      "inputs": [],
      "name": "unPause",
      "outputs": [],
      "stateMutability": "nonpayable",
      "type": "function"
    },
    {
      "inputs": [
        {
          "internalType": "uint256",
          "name": "_bidId",
          "type": "uint256"
        },
        {
          "internalType": "uint256",
          "name": "_quantity",
          "type": "uint256"
        },
        {
          "internalType": "uint256",
          "name": "_bidPrice",
          "type": "uint256"
        }
      ],
      "name": "updateBid",
      "outputs": [],
      "stateMutability": "nonpayable",
      "type": "function"
    },
    {
      "inputs": [
        {
          "internalType": "uint256",
          "name": "_orderId",
          "type": "uint256"
        },
        {
          "internalType": "uint256",
          "name": "_quantity",
          "type": "uint256"
        },
        {
          "internalType": "uint256",
          "name": "_price",
          "type": "uint256"
        },
        {
          "internalType": "uint256",
          "name": "_retailFee",
          "type": "uint256"
        },
        {
          "internalType": "address",
          "name": "_retailer",
          "type": "address"
        }
      ],
      "name": "updateOrder",
      "outputs": [],
      "stateMutability": "nonpayable",
      "type": "function"
    },
    {
      "inputs": [
        {
          "internalType": "address",
          "name": "_operator",
          "type": "address"
        },
        {
          "internalType": "bool",
          "name": "_whitelist",
          "type": "bool"
        }
      ],
      "name": "whiteListOperator",
      "outputs": [],
      "stateMutability": "nonpayable",
      "type": "function"
    },
    {
      "inputs": [
        {
          "internalType": "address",
          "name": "_retailer",
          "type": "address"
        },
        {
          "internalType": "bool",
          "name": "_whitelist",
          "type": "bool"
        }
      ],
      "name": "whiteListRetailer",
      "outputs": [],
      "stateMutability": "nonpayable",
      "type": "function"
    },
    {
      "inputs": [
        {
          "internalType": "address payable",
          "name": "_beneficiary",
          "type": "address"
        },
        {
          "internalType": "address",
          "name": "_tokenAddress",
          "type": "address"
        }
      ],
      "name": "withdrawFunds",
      "outputs": [],
      "stateMutability": "nonpayable",
      "type": "function"
    },
    {
      "inputs": [],
      "name": "xCreator",
      "outputs": [
        {
          "internalType": "uint256",
          "name": "",
          "type": "uint256"
        }
      ],
      "stateMutability": "view",
      "type": "function"
    },
    {
      "inputs": [],
      "name": "xUser",
      "outputs": [
        {
          "internalType": "uint256",
          "name": "",
          "type": "uint256"
        }
      ],
      "stateMutability": "view",
      "type": "function"
    },
    {
      "inputs": [],
      "name": "yRefRate",
      "outputs": [
        {
          "internalType": "uint256",
          "name": "",
          "type": "uint256"
        }
      ],
      "stateMutability": "view",
      "type": "function"
    },
    {
      "inputs": [],
      "name": "zProfitToCreator",
      "outputs": [
        {
          "internalType": "uint256",
          "name": "",
          "type": "uint256"
        }
      ],
      "stateMutability": "view",
      "type": "function"
    }
  ],
  "bytecode": "0x60a060405273ae13d989dac2f0debff460ac112a837c89baa7cd600260006101000a81548173ffffffffffffffffffffffffffffffffffffffff021916908373ffffffffffffffffffffffffffffffffffffffff16021790555060fa6006556105dc6007556113886008556113886009556032600a556064600b553480156200008757600080fd5b506040516200a6743803806200a6748339818101604052810190620000ad91906200026a565b80620000ce620000c26200018760201b60201c565b6200018f60201b60201c565b60008060146101000a81548160ff0219169083151502179055506001600f60003373ffffffffffffffffffffffffffffffffffffffff1673ffffffffffffffffffffffffffffffffffffffff16815260200190815260200160002060006101000a81548160ff0219169083151502179055508073ffffffffffffffffffffffffffffffffffffffff1660808173ffffffffffffffffffffffffffffffffffffffff1660601b8152505050600160118190555050620002e4565b600033905090565b60008060009054906101000a900473ffffffffffffffffffffffffffffffffffffffff169050816000806101000a81548173ffffffffffffffffffffffffffffffffffffffff021916908373ffffffffffffffffffffffffffffffffffffffff1602179055508173ffffffffffffffffffffffffffffffffffffffff168173ffffffffffffffffffffffffffffffffffffffff167f8be0079c531659141344cd1fd0a4f28419497f9722a3daafe3b4186f6b6457e060405160405180910390a35050565b6000815190506200026481620002ca565b92915050565b6000602082840312156200027d57600080fd5b60006200028d8482850162000253565b91505092915050565b6000620002a382620002aa565b9050919050565b600073ffffffffffffffffffffffffffffffffffffffff82169050919050565b620002d58162000296565b8114620002e157600080fd5b50565b60805160601c61a35c6200031860003960008181613deb01528181614740015281816154e201526158a0015261a35c6000f3fe6080604052600436106103805760003560e01c806384029191116101d1578063b3de7a9d11610102578063d2f4e2ca116100a0578063e1812d3e1161006f578063e1812d3e14610ddb578063f23a6e6114610e04578063f2fde38b14610e41578063f7b188a514610e6a57610380565b8063d2f4e2ca14610d1f578063d5991b8f14610d48578063d60ebf4e14610d73578063e0683dcb14610d9e57610380565b8063cd38463f116100dc578063cd38463f14610c73578063ceddd2b914610c9e578063d0a106ba14610cc9578063d234428714610cf457610380565b8063b3de7a9d14610bd0578063bc197c8114610bf9578063c159ba6414610c3657610380565b80638fe8fb051161016f5780639efc1b1c116101495780639efc1b1c14610af7578063a0f5cb3f14610b22578063a85c38ef14610b5f578063adc4baa614610ba557610380565b80638fe8fb0514610a7c57806396c89cab14610aa55780639703ef3514610ace57610380565b80638bf5651a116101ab5780638bf5651a146109be5780638da5cb5b146109fb5780638dd9500214610a265780638f6d637e14610a5157610380565b806384029191146109535780638456cb591461097c5780638b0341361461099357610380565b806347ef7f64116102b65780635c975abb116102545780636d70f7ae116102235780636d70f7ae146108ab57806370e103fc146108e8578063715018a6146109115780637dad19db1461092857610380565b80635c975abb146107dd5780635da09b88146108085780635e110da9146108455780636b7453261461086e57610380565b8063514fcac711610290578063514fcac71461070a57806359a87bc11461073357806359b46087146107635780635a917500146107a057610380565b806347ef7f64146106895780634c013cee146106b457806350c7e003146106df57610380565b8063150b7a02116103235780632834303a116102fd5780632834303a146105ad57806328b76e37146105dd5780634278f7e31461061a5780634423c5f11461064557610380565b8063150b7a02146105085780631d834409146105455780631e9e42041461057057610380565b806306ad5a471161035f57806306ad5a47146104285780630ac9e577146104655780630edef38a146104a25780630fcd1cb4146104df57610380565b80620fa9fb1461038557806301ffc9a7146103ae57806302e9d5e4146103eb575b600080fd5b34801561039157600080fd5b506103ac60048036038101906103a7919061849d565b610e81565b005b3480156103ba57600080fd5b506103d560048036038101906103d09190618a0c565b6110e8565b6040516103e291906194d2565b60405180910390f35b3480156103f757600080fd5b50610412600480360381019061040d9190618a87565b611162565b60405161041f91906194d2565b60405180910390f35b34801561043457600080fd5b5061044f600480360381019061044a9190618422565b6117f1565b60405161045c91906194d2565b60405180910390f35b34801561047157600080fd5b5061048c60048036038101906104879190618422565b6118b9565b60405161049991906194d2565b60405180910390f35b3480156104ae57600080fd5b506104c960048036038101906104c49190618422565b611981565b6040516104d691906194d2565b60405180910390f35b3480156104eb57600080fd5b50610506600480360381019061050191906184d9565b6119a1565b005b34801561051457600080fd5b5061052f600480360381019061052a919061874d565b611a8f565b60405161053c91906194ed565b60405180910390f35b34801561055157600080fd5b5061055a611aa3565b60405161056791906197ca565b60405180910390f35b34801561057c57600080fd5b5061059760048036038101906105929190618515565b611aa9565b6040516105a491906197ca565b60405180910390f35b6105c760048036038101906105c29190618857565b612755565b6040516105d491906197ca565b60405180910390f35b3480156105e957600080fd5b5061060460048036038101906105ff9190618422565b612b94565b60405161061191906194d2565b60405180910390f35b34801561062657600080fd5b5061062f612bb4565b60405161063c91906197ca565b60405180910390f35b34801561065157600080fd5b5061066c60048036038101906106679190618a35565b612bbb565b604051610680989796959493929190619258565b60405180910390f35b34801561069557600080fd5b5061069e612c70565b6040516106ab91906197ca565b60405180910390f35b3480156106c057600080fd5b506106c9612c76565b6040516106d691906197ca565b60405180910390f35b3480156106eb57600080fd5b506106f4612c7c565b6040516107019190619178565b60405180910390f35b34801561071657600080fd5b50610731600480360381019061072c9190618a35565b612ca2565b005b61074d60048036038101906107489190618ac3565b61327c565b60405161075a91906194d2565b60405180910390f35b34801561076f57600080fd5b5061078a60048036038101906107859190618422565b613868565b60405161079791906194d2565b60405180910390f35b3480156107ac57600080fd5b506107c760048036038101906107c2919061891c565b613930565b6040516107d491906194d2565b60405180910390f35b3480156107e957600080fd5b506107f2613a7f565b6040516107ff91906194d2565b60405180910390f35b34801561081457600080fd5b5061082f600480360381019061082a9190618422565b613a95565b60405161083c91906194d2565b60405180910390f35b34801561085157600080fd5b5061086c600480360381019061086791906188e0565b613ab5565b005b34801561087a57600080fd5b506108956004803603810190610890919061896b565b613b8c565b6040516108a291906197ca565b60405180910390f35b3480156108b757600080fd5b506108d260048036038101906108cd9190618422565b613bb1565b6040516108df91906194d2565b60405180910390f35b3480156108f457600080fd5b5061090f600480360381019061090a91906184d9565b613bd1565b005b34801561091d57600080fd5b50610926613cbf565b005b34801561093457600080fd5b5061093d613d47565b60405161094a9190619178565b60405180910390f35b34801561095f57600080fd5b5061097a60048036038101906109759190618422565b613d6d565b005b34801561098857600080fd5b50610991613e77565b005b34801561099f57600080fd5b506109a8613efd565b6040516109b591906197ca565b60405180910390f35b3480156109ca57600080fd5b506109e560048036038101906109e091906189a7565b613f03565b6040516109f291906197ca565b60405180910390f35b348015610a0757600080fd5b50610a10613f28565b604051610a1d9190619178565b60405180910390f35b348015610a3257600080fd5b50610a3b613f51565b604051610a489190619178565b60405180910390f35b348015610a5d57600080fd5b50610a66613f77565b604051610a7391906197ca565b60405180910390f35b348015610a8857600080fd5b50610aa36004803603810190610a9e91906188e0565b613f7d565b005b348015610ab157600080fd5b50610acc6004803603810190610ac79190618bd8565b614054565b005b348015610ada57600080fd5b50610af56004803603810190610af09190618a35565b6140e6565b005b348015610b0357600080fd5b50610b0c614562565b604051610b199190619178565b60405180910390f35b348015610b2e57600080fd5b50610b496004803603810190610b449190618422565b614588565b604051610b5691906194d2565b60405180910390f35b348015610b6b57600080fd5b50610b866004803603810190610b819190618a35565b614650565b604051610b9c9a999897969594939291906191bc565b60405180910390f35b348015610bb157600080fd5b50610bba61473e565b604051610bc79190619178565b60405180910390f35b348015610bdc57600080fd5b50610bf76004803603810190610bf29190618b12565b614762565b005b348015610c0557600080fd5b50610c206004803603810190610c1b919061868e565b614aff565b604051610c2d91906194ed565b60405180910390f35b348015610c4257600080fd5b50610c5d6004803603810190610c589190618422565b614b14565b604051610c6a91906194d2565b60405180910390f35b348015610c7f57600080fd5b50610c88614b34565b604051610c9591906197ca565b60405180910390f35b348015610caa57600080fd5b50610cb3614b3a565b604051610cc09190619178565b60405180910390f35b348015610cd557600080fd5b50610cde614b60565b604051610ceb91906197ca565b60405180910390f35b348015610d0057600080fd5b50610d09614b66565b604051610d1691906197ca565b60405180910390f35b348015610d2b57600080fd5b50610d466004803603810190610d419190618b61565b614b72565b005b348015610d5457600080fd5b50610d5d6151d2565b604051610d6a91906197ca565b60405180910390f35b348015610d7f57600080fd5b50610d886151d8565b604051610d9591906197ca565b60405180910390f35b348015610daa57600080fd5b50610dc56004803603810190610dc091906188e0565b6151de565b604051610dd291906194d2565b60405180910390f35b348015610de757600080fd5b50610e026004803603810190610dfd9190618a87565b61544e565b005b348015610e1057600080fd5b50610e2b6004803603810190610e2691906187c8565b61594d565b604051610e3891906194ed565b60405180910390f35b348015610e4d57600080fd5b50610e686004803603810190610e639190618422565b615962565b005b348015610e7657600080fd5b50610e7f615a5a565b005b610e89615ae0565b73ffffffffffffffffffffffffffffffffffffffff16610ea7613f28565b73ffffffffffffffffffffffffffffffffffffffff1614610efd576040517f08c379a0000000000000000000000000000000000000000000000000000000008152600401610ef4906196ea565b60405180910390fd5b610f05613a7f565b610f44576040517f08c379a0000000000000000000000000000000000000000000000000000000008152600401610f3b9061956a565b60405180910390fd5b60008073ffffffffffffffffffffffffffffffffffffffff168273ffffffffffffffffffffffffffffffffffffffff161415610fc9578273ffffffffffffffffffffffffffffffffffffffff166108fc479081150290604051600060405180830381858888f19350505050158015610fc0573d6000803e3d6000fd5b504790506110e3565b8173ffffffffffffffffffffffffffffffffffffffff166370a08231306040518263ffffffff1660e01b81526004016110029190619178565b60206040518083038186803b15801561101a57600080fd5b505afa15801561102e573d6000803e3d6000fd5b505050506040513d601f19601f820116820180604052508101906110529190618a5e565b90508173ffffffffffffffffffffffffffffffffffffffff1663a9059cbb84836040518363ffffffff1660e01b815260040161108f929190619193565b602060405180830381600087803b1580156110a957600080fd5b505af11580156110bd573d6000803e3d6000fd5b505050506040513d601f19601f820116820180604052508101906110e191906189e3565b505b505050565b60007f4e2312e0000000000000000000000000000000000000000000000000000000007bffffffffffffffffffffffffffffffffffffffffffffffffffffffff1916827bffffffffffffffffffffffffffffffffffffffffffffffffffffffff1916148061115b575061115a82615ae8565b5b9050919050565b600061116c613a7f565b156111ac576040517f08c379a00000000000000000000000000000000000000000000000000000000081526004016111a3906196aa565b60405180910390fd5b600060166000858152602001908152602001600020604051806101000160405290816000820160009054906101000a900473ffffffffffffffffffffffffffffffffffffffff1673ffffffffffffffffffffffffffffffffffffffff1673ffffffffffffffffffffffffffffffffffffffff1681526020016001820160009054906101000a900473ffffffffffffffffffffffffffffffffffffffff1673ffffffffffffffffffffffffffffffffffffffff1673ffffffffffffffffffffffffffffffffffffffff1681526020016002820160009054906101000a900473ffffffffffffffffffffffffffffffffffffffff1673ffffffffffffffffffffffffffffffffffffffff1673ffffffffffffffffffffffffffffffffffffffff168152602001600382015481526020016004820154815260200160058201548152602001600682015481526020016007820160009054906101000a900460ff161515151581525050905060008160400151826060015133604051602001611333939291906190f4565b604051602081830303815290604052805190602001209050600060156000838152602001908152602001600020549050600060146000838152602001908152602001600020604051806101400160405290816000820160009054906101000a900473ffffffffffffffffffffffffffffffffffffffff1673ffffffffffffffffffffffffffffffffffffffff1673ffffffffffffffffffffffffffffffffffffffff1681526020016001820160009054906101000a900473ffffffffffffffffffffffffffffffffffffffff1673ffffffffffffffffffffffffffffffffffffffff1673ffffffffffffffffffffffffffffffffffffffff1681526020016002820160009054906101000a900473ffffffffffffffffffffffffffffffffffffffff1673ffffffffffffffffffffffffffffffffffffffff1673ffffffffffffffffffffffffffffffffffffffff1681526020016003820160009054906101000a900473ffffffffffffffffffffffffffffffffffffffff1673ffffffffffffffffffffffffffffffffffffffff1673ffffffffffffffffffffffffffffffffffffffff168152602001600482015481526020016005820154815260200160068201548152602001600782015481526020016008820160009054906101000a900460ff161515151581526020016008820160019054906101000a900460ff16151515158152505090503373ffffffffffffffffffffffffffffffffffffffff16816000015173ffffffffffffffffffffffffffffffffffffffff1614801561157d57508061010001515b6115bc576040517f08c379a00000000000000000000000000000000000000000000000000000000081526004016115b39061968a565b60405180910390fd5b858160a00151101580156115d457508360a001518611155b80156115e157508360e001515b611620576040517f08c379a00000000000000000000000000000000000000000000000000000000081526004016116179061976a565b60405180910390fd5b6000611639878660800151615b5290919063ffffffff16565b905060006116736127106116656006546127106116569190619918565b85615b5290919063ffffffff16565b615b6890919063ffffffff16565b9050600160009054906101000a900473ffffffffffffffffffffffffffffffffffffffff1673ffffffffffffffffffffffffffffffffffffffff16866020015173ffffffffffffffffffffffffffffffffffffffff16141561170d5761170a6116fb6127106116ed600b5486615b5290919063ffffffff16565b615b6890919063ffffffff16565b82615b7e90919063ffffffff16565b90505b600073ffffffffffffffffffffffffffffffffffffffff16866020015173ffffffffffffffffffffffffffffffffffffffff161461177b5761177a86600001513083896020015173ffffffffffffffffffffffffffffffffffffffff16615b94909392919063ffffffff16565b5b6117ab86600001518760200151868b8a608001518761179933615c1d565b6117a68e60000151615c1d565b615cd6565b50887f39b82a7cab2f4a4e3eeaf375e5c52bb595c49b26a687549d444664688ea94ee960405160405180910390a26117e389896171e1565b965050505050505092915050565b60006117fb615ae0565b73ffffffffffffffffffffffffffffffffffffffff16611819613f28565b73ffffffffffffffffffffffffffffffffffffffff161461186f576040517f08c379a0000000000000000000000000000000000000000000000000000000008152600401611866906196ea565b60405180910390fd5b81600360006101000a81548173ffffffffffffffffffffffffffffffffffffffff021916908373ffffffffffffffffffffffffffffffffffffffff16021790555060019050919050565b60006118c3615ae0565b73ffffffffffffffffffffffffffffffffffffffff166118e1613f28565b73ffffffffffffffffffffffffffffffffffffffff1614611937576040517f08c379a000000000000000000000000000000000000000000000000000000000815260040161192e906196ea565b60405180910390fd5b81600160006101000a81548173ffffffffffffffffffffffffffffffffffffffff021916908373ffffffffffffffffffffffffffffffffffffffff16021790555060019050919050565b600c6020528060005260406000206000915054906101000a900460ff1681565b6119a9615ae0565b73ffffffffffffffffffffffffffffffffffffffff166119c7613f28565b73ffffffffffffffffffffffffffffffffffffffff1614611a1d576040517f08c379a0000000000000000000000000000000000000000000000000000000008152600401611a14906196ea565b60405180910390fd5b8173ffffffffffffffffffffffffffffffffffffffff1663a22cb4658260016040518363ffffffff1660e01b8152600401611a59929190619420565b600060405180830381600087803b158015611a7357600080fd5b505af1158015611a87573d6000803e3d6000fd5b505050505050565b600063150b7a0260e01b9050949350505050565b60125481565b6000611ab3613a7f565b15611af3576040517f08c379a0000000000000000000000000000000000000000000000000000000008152600401611aea906196aa565b60405180910390fd5b60008411611b36576040517f08c379a0000000000000000000000000000000000000000000000000000000008152600401611b2d906195aa565b60405180910390fd5b60008873ffffffffffffffffffffffffffffffffffffffff166301ffc9a76380ac58cd60e01b6040518263ffffffff1660e01b8152600401611b7891906194ed565b60206040518083038186803b158015611b9057600080fd5b505afa158015611ba4573d6000803e3d6000fd5b505050506040513d601f19601f82011682018060405250810190611bc891906189e3565b905060008115611d53573373ffffffffffffffffffffffffffffffffffffffff168a73ffffffffffffffffffffffffffffffffffffffff16636352211e896040518263ffffffff1660e01b8152600401611c2291906197ca565b60206040518083038186803b158015611c3a57600080fd5b505afa158015611c4e573d6000803e3d6000fd5b505050506040513d601f19601f82011682018060405250810190611c72919061844b565b73ffffffffffffffffffffffffffffffffffffffff1614611c94576000611c97565b60015b60ff16905085811015611cdf576040517f08c379a0000000000000000000000000000000000000000000000000000000008152600401611cd69061966a565b60405180910390fd5b8973ffffffffffffffffffffffffffffffffffffffff166342842e0e33308a6040518463ffffffff1660e01b8152600401611d1c939291906192d6565b600060405180830381600087803b158015611d3657600080fd5b505af1158015611d4a573d6000803e3d6000fd5b50505050611e94565b8973ffffffffffffffffffffffffffffffffffffffff1662fdd58e33896040518363ffffffff1660e01b8152600401611d8d929190619472565b60206040518083038186803b158015611da557600080fd5b505afa158015611db9573d6000803e3d6000fd5b505050506040513d601f19601f82011682018060405250810190611ddd9190618a5e565b905085811015611e22576040517f08c379a0000000000000000000000000000000000000000000000000000000008152600401611e199061966a565b60405180910390fd5b8973ffffffffffffffffffffffffffffffffffffffff1663f242432a33308a8a6040518563ffffffff1660e01b8152600401611e619493929190619367565b600060405180830381600087803b158015611e7b57600080fd5b505af1158015611e8f573d6000803e3d6000fd5b505050505b600c60008973ffffffffffffffffffffffffffffffffffffffff1673ffffffffffffffffffffffffffffffffffffffff16815260200190815260200160002060009054906101000a900460ff16611f20576040517f08c379a0000000000000000000000000000000000000000000000000000000008152600401611f17906195ca565b60405180910390fd5b611f2861811a565b60018161010001901515908115158152505033816000019073ffffffffffffffffffffffffffffffffffffffff16908173ffffffffffffffffffffffffffffffffffffffff1681525050858160c0018181525050868160a0018181525050601060008b73ffffffffffffffffffffffffffffffffffffffff1673ffffffffffffffffffffffffffffffffffffffff16815260200190815260200160002060009054906101000a900460ff161561201b5789816060019073ffffffffffffffffffffffffffffffffffffffff16908173ffffffffffffffffffffffffffffffffffffffff1681525050848160e00181815250505b8781608001818152505082816101200190151590811515815250508a816020019073ffffffffffffffffffffffffffffffffffffffff16908173ffffffffffffffffffffffffffffffffffffffff168152505088816040019073ffffffffffffffffffffffffffffffffffffffff16908173ffffffffffffffffffffffffffffffffffffffff1681525050600d60008c73ffffffffffffffffffffffffffffffffffffffff1673ffffffffffffffffffffffffffffffffffffffff16815260200190815260200160002060009054906101000a900460ff1680156121b257503373ffffffffffffffffffffffffffffffffffffffff168b73ffffffffffffffffffffffffffffffffffffffff1663d48e638a8a6040518263ffffffff1660e01b815260040161214a91906197ca565b60206040518083038186803b15801561216257600080fd5b505afa158015612176573d6000803e3d6000fd5b505050506040513d601f19601f8201168201806040525081019061219a919061844b565b73ffffffffffffffffffffffffffffffffffffffff16145b801561220e57506000601860008d73ffffffffffffffffffffffffffffffffffffffff1673ffffffffffffffffffffffffffffffffffffffff16815260200190815260200160002060008a815260200190815260200160002054145b801561229257506000601760003373ffffffffffffffffffffffffffffffffffffffff1673ffffffffffffffffffffffffffffffffffffffff16815260200190815260200160002060008d8b60405160200161226b9291906190c8565b60405160208183030381529060405280519060200120815260200190815260200160002054145b156122ed5781601860008d73ffffffffffffffffffffffffffffffffffffffff1673ffffffffffffffffffffffffffffffffffffffff16815260200190815260200160002060008a8152602001908152602001600020819055505b600e60008c73ffffffffffffffffffffffffffffffffffffffff1673ffffffffffffffffffffffffffffffffffffffff16815260200190815260200160002060009054906101000a900460ff1680156123fa57508a73ffffffffffffffffffffffffffffffffffffffff1663d48e638a896040518263ffffffff1660e01b815260040161237a91906197ca565b60206040518083038186803b15801561239257600080fd5b505afa1580156123a6573d6000803e3d6000fd5b505050506040513d601f19601f820116820180604052508101906123ca919061844b565b73ffffffffffffffffffffffffffffffffffffffff163373ffffffffffffffffffffffffffffffffffffffff1614155b801561247e57506000601760003373ffffffffffffffffffffffffffffffffffffffff1673ffffffffffffffffffffffffffffffffffffffff16815260200190815260200160002060008d8b6040516020016124579291906190c8565b60405160208183030381529060405280519060200120815260200190815260200160002054145b156125015781601960003373ffffffffffffffffffffffffffffffffffffffff1673ffffffffffffffffffffffffffffffffffffffff16815260200190815260200160002060008d8b6040516020016124d89291906190c8565b604051602081830303815290604052805190602001208152602001908152602001600020819055505b8060146000601254815260200190815260200160002060008201518160000160006101000a81548173ffffffffffffffffffffffffffffffffffffffff021916908373ffffffffffffffffffffffffffffffffffffffff16021790555060208201518160010160006101000a81548173ffffffffffffffffffffffffffffffffffffffff021916908373ffffffffffffffffffffffffffffffffffffffff16021790555060408201518160020160006101000a81548173ffffffffffffffffffffffffffffffffffffffff021916908373ffffffffffffffffffffffffffffffffffffffff16021790555060608201518160030160006101000a81548173ffffffffffffffffffffffffffffffffffffffff021916908373ffffffffffffffffffffffffffffffffffffffff1602179055506080820151816004015560a0820151816005015560c0820151816006015560e082015181600701556101008201518160080160006101000a81548160ff0219169083151502179055506101208201518160080160016101000a81548160ff02191690831515021790555090505060125493506126bb60016012546174a990919063ffffffff16565b6012819055508688857fa3c7269751aac44df3e7658a3f7bb744b1ea9765bb933d9226e6dd0eba6cb6f98e8a8e6040516126f79392919061949b565b60405180910390a460008b8933604051602001612716939291906190f4565b60405160208183030381529060405280519060200120905084601560008381526020019081526020016000208190555050505050979650505050505050565b600061275f613a7f565b1561279f576040517f08c379a0000000000000000000000000000000000000000000000000000000008152600401612796906196aa565b60405180910390fd5b600084116127e2576040517f08c379a00000000000000000000000000000000000000000000000000000000081526004016127d9906195aa565b60405180910390fd5b600c60008773ffffffffffffffffffffffffffffffffffffffff1673ffffffffffffffffffffffffffffffffffffffff16815260200190815260200160002060009054906101000a900460ff1661286e576040517f08c379a0000000000000000000000000000000000000000000000000000000008152600401612865906195ca565b60405180910390fd5b6128766181c9565b33816000019073ffffffffffffffffffffffffffffffffffffffff16908173ffffffffffffffffffffffffffffffffffffffff168152505083816080018181525050848160a00181815250508581606001818152505087816040019073ffffffffffffffffffffffffffffffffffffffff16908173ffffffffffffffffffffffffffffffffffffffff168152505060003411156129a0576129208486615b5290919063ffffffff16565b341015612962576040517f08c379a00000000000000000000000000000000000000000000000000000000081526004016129599061970a565b60405180910390fd5b6000816020019073ffffffffffffffffffffffffffffffffffffffff16908173ffffffffffffffffffffffffffffffffffffffff16815250506129d9565b86816020019073ffffffffffffffffffffffffffffffffffffffff16908173ffffffffffffffffffffffffffffffffffffffff16815250505b60018160e0019015159081151581525050828160c00181815250508060166000601354815260200190815260200160002060008201518160000160006101000a81548173ffffffffffffffffffffffffffffffffffffffff021916908373ffffffffffffffffffffffffffffffffffffffff16021790555060208201518160010160006101000a81548173ffffffffffffffffffffffffffffffffffffffff021916908373ffffffffffffffffffffffffffffffffffffffff16021790555060408201518160020160006101000a81548173ffffffffffffffffffffffffffffffffffffffff021916908373ffffffffffffffffffffffffffffffffffffffff160217905550606082015181600301556080820151816004015560a0820151816005015560c0820151816006015560e08201518160070160006101000a81548160ff0219169083151502179055509050506013549150612b4560016013546174a990919063ffffffff16565b6013819055508486837f5c16514d15965733767103439dd14e5cddc88675f8ce7521c5ce86ea90852f5e8b888c604051612b819392919061949b565b60405180910390a4509695505050505050565b600d6020528060005260406000206000915054906101000a900460ff1681565b620f424081565b60166020528060005260406000206000915090508060000160009054906101000a900473ffffffffffffffffffffffffffffffffffffffff16908060010160009054906101000a900473ffffffffffffffffffffffffffffffffffffffff16908060020160009054906101000a900473ffffffffffffffffffffffffffffffffffffffff16908060030154908060040154908060050154908060060154908060070160009054906101000a900460ff16905088565b600a5481565b60075481565b600460009054906101000a900473ffffffffffffffffffffffffffffffffffffffff1681565b612caa613a7f565b15612cea576040517f08c379a0000000000000000000000000000000000000000000000000000000008152600401612ce1906196aa565b60405180910390fd5b600060146000838152602001908152602001600020604051806101400160405290816000820160009054906101000a900473ffffffffffffffffffffffffffffffffffffffff1673ffffffffffffffffffffffffffffffffffffffff1673ffffffffffffffffffffffffffffffffffffffff1681526020016001820160009054906101000a900473ffffffffffffffffffffffffffffffffffffffff1673ffffffffffffffffffffffffffffffffffffffff1673ffffffffffffffffffffffffffffffffffffffff1681526020016002820160009054906101000a900473ffffffffffffffffffffffffffffffffffffffff1673ffffffffffffffffffffffffffffffffffffffff1673ffffffffffffffffffffffffffffffffffffffff1681526020016003820160009054906101000a900473ffffffffffffffffffffffffffffffffffffffff1673ffffffffffffffffffffffffffffffffffffffff1673ffffffffffffffffffffffffffffffffffffffff168152602001600482015481526020016005820154815260200160068201548152602001600782015481526020016008820160009054906101000a900460ff161515151581526020016008820160019054906101000a900460ff16151515158152505090503373ffffffffffffffffffffffffffffffffffffffff16816000015173ffffffffffffffffffffffffffffffffffffffff16148015612f0457508061010001515b612f43576040517f08c379a0000000000000000000000000000000000000000000000000000000008152600401612f3a9061968a565b60405180910390fd5b80610120015115612fce57806020015173ffffffffffffffffffffffffffffffffffffffff166342842e0e30836000015184608001516040518463ffffffff1660e01b8152600401612f97939291906192d6565b600060405180830381600087803b158015612fb157600080fd5b505af1158015612fc5573d6000803e3d6000fd5b50505050613091565b806020015173ffffffffffffffffffffffffffffffffffffffff1663f242432a30836000015184608001518560a001517ff23a6e612e1ff4830e658fe43f4e3cb4a5f8170bd5d9e69fb5d7a7fa9e4fdf9760405160200161302f9190619131565b6040516020818303038152906040526040518663ffffffff1660e01b815260040161305e95949392919061930d565b600060405180830381600087803b15801561307857600080fd5b505af115801561308c573d6000803e3d6000fd5b505050505b60008160a0018181525050600081610100019015159081151581525050806014600084815260200190815260200160002060008201518160000160006101000a81548173ffffffffffffffffffffffffffffffffffffffff021916908373ffffffffffffffffffffffffffffffffffffffff16021790555060208201518160010160006101000a81548173ffffffffffffffffffffffffffffffffffffffff021916908373ffffffffffffffffffffffffffffffffffffffff16021790555060408201518160020160006101000a81548173ffffffffffffffffffffffffffffffffffffffff021916908373ffffffffffffffffffffffffffffffffffffffff16021790555060608201518160030160006101000a81548173ffffffffffffffffffffffffffffffffffffffff021916908373ffffffffffffffffffffffffffffffffffffffff1602179055506080820151816004015560a0820151816005015560c0820151816006015560e082015181600701556101008201518160080160006101000a81548160ff0219169083151502179055506101208201518160080160016101000a81548160ff021916908315150217905550905050817f61b9399f2f0f32ca39ce8d7be32caed5ec22fe07a6daba3a467ed479ec60658260405160405180910390a25050565b6000613286613a7f565b156132c6576040517f08c379a00000000000000000000000000000000000000000000000000000000081526004016132bd906196aa565b60405180910390fd5b600060146000868152602001908152602001600020604051806101400160405290816000820160009054906101000a900473ffffffffffffffffffffffffffffffffffffffff1673ffffffffffffffffffffffffffffffffffffffff1673ffffffffffffffffffffffffffffffffffffffff1681526020016001820160009054906101000a900473ffffffffffffffffffffffffffffffffffffffff1673ffffffffffffffffffffffffffffffffffffffff1673ffffffffffffffffffffffffffffffffffffffff1681526020016002820160009054906101000a900473ffffffffffffffffffffffffffffffffffffffff1673ffffffffffffffffffffffffffffffffffffffff1673ffffffffffffffffffffffffffffffffffffffff1681526020016003820160009054906101000a900473ffffffffffffffffffffffffffffffffffffffff1673ffffffffffffffffffffffffffffffffffffffff1673ffffffffffffffffffffffffffffffffffffffff168152602001600482015481526020016005820154815260200160068201548152602001600782015481526020016008820160009054906101000a900460ff161515151581526020016008820160019054906101000a900460ff1615151515815250509050600073ffffffffffffffffffffffffffffffffffffffff16816000015173ffffffffffffffffffffffffffffffffffffffff161415613513576040517f08c379a000000000000000000000000000000000000000000000000000000000815260040161350a906196ca565b60405180910390fd5b600c60008473ffffffffffffffffffffffffffffffffffffffff1673ffffffffffffffffffffffffffffffffffffffff16815260200190815260200160002060009054906101000a900460ff1661359f576040517f08c379a0000000000000000000000000000000000000000000000000000000008152600401613596906195ca565b60405180910390fd5b80610100015180156135b55750838160a0015110155b6135f4576040517f08c379a00000000000000000000000000000000000000000000000000000000081526004016135eb9061954a565b60405180910390fd5b600061360d858360c00151615b5290919063ffffffff16565b90506000826040015173ffffffffffffffffffffffffffffffffffffffff168573ffffffffffffffffffffffffffffffffffffffff1614156136865761367f6127106136716006546127106136629190619918565b85615b5290919063ffffffff16565b615b6890919063ffffffff16565b90506136cb565b61369085836174bf565b91506136c86127106136ba6006546127106136ab9190619918565b85615b5290919063ffffffff16565b615b6890919063ffffffff16565b90505b600160009054906101000a900473ffffffffffffffffffffffffffffffffffffffff1673ffffffffffffffffffffffffffffffffffffffff168573ffffffffffffffffffffffffffffffffffffffff1614801561372a57506000600b54115b1561376d5761376a61375b61271061374d600b5486615b5290919063ffffffff16565b615b6890919063ffffffff16565b82615b7e90919063ffffffff16565b90505b600073ffffffffffffffffffffffffffffffffffffffff168573ffffffffffffffffffffffffffffffffffffffff161480156137a95750600034115b156137c057803410156137bb57600080fd5b6137ee565b6137ed3330838873ffffffffffffffffffffffffffffffffffffffff16615b94909392919063ffffffff16565b5b7f27f0e57684cd818b3b06246bbc63cf3366959e8e4dcdbd46aa5b2778f25e73b087878784604051613823949392919061980e565b60405180910390a161385c338689896138408a8960c001516174bf565b8761384e8a60000151615c1d565b61385733615c1d565b615cd6565b93505050509392505050565b6000613872615ae0565b73ffffffffffffffffffffffffffffffffffffffff16613890613f28565b73ffffffffffffffffffffffffffffffffffffffff16146138e6576040517f08c379a00000000000000000000000000000000000000000000000000000000081526004016138dd906196ea565b60405180910390fd5b81600560006101000a81548173ffffffffffffffffffffffffffffffffffffffff021916908373ffffffffffffffffffffffffffffffffffffffff16021790555060019050919050565b6000600f60003373ffffffffffffffffffffffffffffffffffffffff1673ffffffffffffffffffffffffffffffffffffffff16815260200190815260200160002060009054906101000a900460ff166139be576040517f08c379a00000000000000000000000000000000000000000000000000000000081526004016139b59061972a565b60405180910390fd5b82600d60008673ffffffffffffffffffffffffffffffffffffffff1673ffffffffffffffffffffffffffffffffffffffff16815260200190815260200160002060006101000a81548160ff0219169083151502179055508115613a74576001600e60008673ffffffffffffffffffffffffffffffffffffffff1673ffffffffffffffffffffffffffffffffffffffff16815260200190815260200160002060006101000a81548160ff0219169083151502179055505b600190509392505050565b60008060149054906101000a900460ff16905090565b60106020528060005260406000206000915054906101000a900460ff1681565b613abd615ae0565b73ffffffffffffffffffffffffffffffffffffffff16613adb613f28565b73ffffffffffffffffffffffffffffffffffffffff1614613b31576040517f08c379a0000000000000000000000000000000000000000000000000000000008152600401613b28906196ea565b60405180910390fd5b80600f60008473ffffffffffffffffffffffffffffffffffffffff1673ffffffffffffffffffffffffffffffffffffffff16815260200190815260200160002060006101000a81548160ff0219169083151502179055505050565b6019602052816000526040600020602052806000526040600020600091509150505481565b600f6020528060005260406000206000915054906101000a900460ff1681565b613bd9615ae0565b73ffffffffffffffffffffffffffffffffffffffff16613bf7613f28565b73ffffffffffffffffffffffffffffffffffffffff1614613c4d576040517f08c379a0000000000000000000000000000000000000000000000000000000008152600401613c44906196ea565b60405180910390fd5b8173ffffffffffffffffffffffffffffffffffffffff1663a22cb4658260016040518363ffffffff1660e01b8152600401613c89929190619420565b600060405180830381600087803b158015613ca357600080fd5b505af1158015613cb7573d6000803e3d6000fd5b505050505050565b613cc7615ae0565b73ffffffffffffffffffffffffffffffffffffffff16613ce5613f28565b73ffffffffffffffffffffffffffffffffffffffff1614613d3b576040517f08c379a0000000000000000000000000000000000000000000000000000000008152600401613d32906196ea565b60405180910390fd5b613d456000617576565b565b600360009054906101000a900473ffffffffffffffffffffffffffffffffffffffff1681565b613d75615ae0565b73ffffffffffffffffffffffffffffffffffffffff16613d93613f28565b73ffffffffffffffffffffffffffffffffffffffff1614613de9576040517f08c379a0000000000000000000000000000000000000000000000000000000008152600401613de0906196ea565b60405180910390fd5b7f000000000000000000000000000000000000000000000000000000000000000073ffffffffffffffffffffffffffffffffffffffff1663f2fde38b826040518263ffffffff1660e01b8152600401613e429190619178565b600060405180830381600087803b158015613e5c57600080fd5b505af1158015613e70573d6000803e3d6000fd5b5050505050565b613e7f615ae0565b73ffffffffffffffffffffffffffffffffffffffff16613e9d613f28565b73ffffffffffffffffffffffffffffffffffffffff1614613ef3576040517f08c379a0000000000000000000000000000000000000000000000000000000008152600401613eea906196ea565b60405180910390fd5b613efb61763a565b565b60135481565b6018602052816000526040600020602052806000526040600020600091509150505481565b60008060009054906101000a900473ffffffffffffffffffffffffffffffffffffffff16905090565b600260009054906101000a900473ffffffffffffffffffffffffffffffffffffffff1681565b61271081565b613f85615ae0565b73ffffffffffffffffffffffffffffffffffffffff16613fa3613f28565b73ffffffffffffffffffffffffffffffffffffffff1614613ff9576040517f08c379a0000000000000000000000000000000000000000000000000000000008152600401613ff0906196ea565b60405180910390fd5b80601060008473ffffffffffffffffffffffffffffffffffffffff1673ffffffffffffffffffffffffffffffffffffffff16815260200190815260200160002060006101000a81548160ff0219169083151502179055505050565b61405c615ae0565b73ffffffffffffffffffffffffffffffffffffffff1661407a613f28565b73ffffffffffffffffffffffffffffffffffffffff16146140d0576040517f08c379a00000000000000000000000000000000000000000000000000000000081526004016140c7906196ea565b60405180910390fd5b6140de8686868686866176dd565b505050505050565b6140ee613a7f565b1561412e576040517f08c379a0000000000000000000000000000000000000000000000000000000008152600401614125906196aa565b60405180910390fd5b60026011541415614174576040517f08c379a000000000000000000000000000000000000000000000000000000000815260040161416b906197aa565b60405180910390fd5b6002601181905550600060166000838152602001908152602001600020604051806101000160405290816000820160009054906101000a900473ffffffffffffffffffffffffffffffffffffffff1673ffffffffffffffffffffffffffffffffffffffff1673ffffffffffffffffffffffffffffffffffffffff1681526020016001820160009054906101000a900473ffffffffffffffffffffffffffffffffffffffff1673ffffffffffffffffffffffffffffffffffffffff1673ffffffffffffffffffffffffffffffffffffffff1681526020016002820160009054906101000a900473ffffffffffffffffffffffffffffffffffffffff1673ffffffffffffffffffffffffffffffffffffffff1673ffffffffffffffffffffffffffffffffffffffff168152602001600382015481526020016004820154815260200160058201548152602001600682015481526020016007820160009054906101000a900460ff16151515158152505090503373ffffffffffffffffffffffffffffffffffffffff16816000015173ffffffffffffffffffffffffffffffffffffffff1614614356576040517f08c379a000000000000000000000000000000000000000000000000000000000815260040161434d9061952a565b60405180910390fd5b600073ffffffffffffffffffffffffffffffffffffffff16816020015173ffffffffffffffffffffffffffffffffffffffff1614156143d95760006143ac82608001518360a00151615b5290919063ffffffff16565b90506143d7813373ffffffffffffffffffffffffffffffffffffffff1661770f90919063ffffffff16565b505b60008160e001901515908115158152505060008160a0018181525050806016600084815260200190815260200160002060008201518160000160006101000a81548173ffffffffffffffffffffffffffffffffffffffff021916908373ffffffffffffffffffffffffffffffffffffffff16021790555060208201518160010160006101000a81548173ffffffffffffffffffffffffffffffffffffffff021916908373ffffffffffffffffffffffffffffffffffffffff16021790555060408201518160020160006101000a81548173ffffffffffffffffffffffffffffffffffffffff021916908373ffffffffffffffffffffffffffffffffffffffff160217905550606082015181600301556080820151816004015560a0820151816005015560c0820151816006015560e08201518160070160006101000a81548160ff021916908315150217905550905050817fc1546e394b1975212fe013e7e6995653585f44e568c407d1157483f7d4b9458160405160405180910390a250600160118190555050565b600160009054906101000a900473ffffffffffffffffffffffffffffffffffffffff1681565b6000614592615ae0565b73ffffffffffffffffffffffffffffffffffffffff166145b0613f28565b73ffffffffffffffffffffffffffffffffffffffff1614614606576040517f08c379a00000000000000000000000000000000000000000000000000000000081526004016145fd906196ea565b60405180910390fd5b81600460006101000a81548173ffffffffffffffffffffffffffffffffffffffff021916908373ffffffffffffffffffffffffffffffffffffffff16021790555060019050919050565b60146020528060005260406000206000915090508060000160009054906101000a900473ffffffffffffffffffffffffffffffffffffffff16908060010160009054906101000a900473ffffffffffffffffffffffffffffffffffffffff16908060020160009054906101000a900473ffffffffffffffffffffffffffffffffffffffff16908060030160009054906101000a900473ffffffffffffffffffffffffffffffffffffffff16908060040154908060050154908060060154908060070154908060080160009054906101000a900460ff16908060080160019054906101000a900460ff1690508a565b7f000000000000000000000000000000000000000000000000000000000000000081565b61476a613a7f565b156147aa576040517f08c379a00000000000000000000000000000000000000000000000000000000081526004016147a1906196aa565b60405180910390fd5b600060166000858152602001908152602001600020604051806101000160405290816000820160009054906101000a900473ffffffffffffffffffffffffffffffffffffffff1673ffffffffffffffffffffffffffffffffffffffff1673ffffffffffffffffffffffffffffffffffffffff1681526020016001820160009054906101000a900473ffffffffffffffffffffffffffffffffffffffff1673ffffffffffffffffffffffffffffffffffffffff1673ffffffffffffffffffffffffffffffffffffffff1681526020016002820160009054906101000a900473ffffffffffffffffffffffffffffffffffffffff1673ffffffffffffffffffffffffffffffffffffffff1673ffffffffffffffffffffffffffffffffffffffff168152602001600382015481526020016004820154815260200160058201548152602001600682015481526020016007820160009054906101000a900460ff16151515158152505090503373ffffffffffffffffffffffffffffffffffffffff16816000015173ffffffffffffffffffffffffffffffffffffffff1614614984576040517f08c379a000000000000000000000000000000000000000000000000000000000815260040161497b9061952a565b60405180910390fd5b828160a001818152505081816080018181525050806016600086815260200190815260200160002060008201518160000160006101000a81548173ffffffffffffffffffffffffffffffffffffffff021916908373ffffffffffffffffffffffffffffffffffffffff16021790555060208201518160010160006101000a81548173ffffffffffffffffffffffffffffffffffffffff021916908373ffffffffffffffffffffffffffffffffffffffff16021790555060408201518160020160006101000a81548173ffffffffffffffffffffffffffffffffffffffff021916908373ffffffffffffffffffffffffffffffffffffffff160217905550606082015181600301556080820151816004015560a0820151816005015560c0820151816006015560e08201518160070160006101000a81548160ff021916908315150217905550905050837fb16ba0a2ed46bbba0676798be43c6d757a6a5d4fb13a251ee5c0075bf726498960405160405180910390a250505050565b600063bc197c8160e01b905095945050505050565b600e6020528060005260406000206000915054906101000a900460ff1681565b60085481565b600560009054906101000a900473ffffffffffffffffffffffffffffffffffffffff1681565b60095481565b670de0b6b3a764000081565b614b7a613a7f565b15614bba576040517f08c379a0000000000000000000000000000000000000000000000000000000008152600401614bb1906196aa565b60405180910390fd5b600060146000878152602001908152602001600020604051806101400160405290816000820160009054906101000a900473ffffffffffffffffffffffffffffffffffffffff1673ffffffffffffffffffffffffffffffffffffffff1673ffffffffffffffffffffffffffffffffffffffff1681526020016001820160009054906101000a900473ffffffffffffffffffffffffffffffffffffffff1673ffffffffffffffffffffffffffffffffffffffff1673ffffffffffffffffffffffffffffffffffffffff1681526020016002820160009054906101000a900473ffffffffffffffffffffffffffffffffffffffff1673ffffffffffffffffffffffffffffffffffffffff1673ffffffffffffffffffffffffffffffffffffffff1681526020016003820160009054906101000a900473ffffffffffffffffffffffffffffffffffffffff1673ffffffffffffffffffffffffffffffffffffffff1673ffffffffffffffffffffffffffffffffffffffff168152602001600482015481526020016005820154815260200160068201548152602001600782015481526020016008820160009054906101000a900460ff161515151581526020016008820160019054906101000a900460ff16151515158152505090503373ffffffffffffffffffffffffffffffffffffffff16816000015173ffffffffffffffffffffffffffffffffffffffff16148015614dd457508061010001515b614e13576040517f08c379a0000000000000000000000000000000000000000000000000000000008152600401614e0a9061968a565b60405180910390fd5b8060a0015185118015614e295750806101200151155b15614ecc57806020015173ffffffffffffffffffffffffffffffffffffffff1663f242432a33308460800151614e6c8660a001518b615b7e90919063ffffffff16565b6040518563ffffffff1660e01b8152600401614e8b9493929190619367565b600060405180830381600087803b158015614ea557600080fd5b505af1158015614eb9573d6000803e3d6000fd5b50505050848160a0018181525050614fb4565b8060a00151851015614fb357806020015173ffffffffffffffffffffffffffffffffffffffff1663f242432a30338460800151614f168a8760a00151615b7e90919063ffffffff16565b7ff23a6e612e1ff4830e658fe43f4e3cb4a5f8170bd5d9e69fb5d7a7fa9e4fdf97604051602001614f479190619131565b6040516020818303038152906040526040518663ffffffff1660e01b8152600401614f7695949392919061930d565b600060405180830381600087803b158015614f9057600080fd5b505af1158015614fa4573d6000803e3d6000fd5b50505050848160a00181815250505b5b838160c0018181525050806014600088815260200190815260200160002060008201518160000160006101000a81548173ffffffffffffffffffffffffffffffffffffffff021916908373ffffffffffffffffffffffffffffffffffffffff16021790555060208201518160010160006101000a81548173ffffffffffffffffffffffffffffffffffffffff021916908373ffffffffffffffffffffffffffffffffffffffff16021790555060408201518160020160006101000a81548173ffffffffffffffffffffffffffffffffffffffff021916908373ffffffffffffffffffffffffffffffffffffffff16021790555060608201518160030160006101000a81548173ffffffffffffffffffffffffffffffffffffffff021916908373ffffffffffffffffffffffffffffffffffffffff1602179055506080820151816004015560a0820151816005015560c0820151816006015560e082015181600701556101008201518160080160006101000a81548160ff0219169083151502179055506101208201518160080160016101000a81548160ff02191690831515021790555090505081816060019073ffffffffffffffffffffffffffffffffffffffff16908173ffffffffffffffffffffffffffffffffffffffff1681525050828160e0018181525050857fb8b459bc0688c37baf5f735d17f1711684bc14ab7db116f88bc18bf409b9309a60405160405180910390a2505050505050565b600b5481565b60065481565b60006151e8615ae0565b73ffffffffffffffffffffffffffffffffffffffff16615206613f28565b73ffffffffffffffffffffffffffffffffffffffff161461525c576040517f08c379a0000000000000000000000000000000000000000000000000000000008152600401615253906196ea565b60405180910390fd5b81600c60008573ffffffffffffffffffffffffffffffffffffffff1673ffffffffffffffffffffffffffffffffffffffff16815260200190815260200160002060006101000a81548160ff021916908315150217905550600073ffffffffffffffffffffffffffffffffffffffff168373ffffffffffffffffffffffffffffffffffffffff1614615444578273ffffffffffffffffffffffffffffffffffffffff1663095ea7b3337fffffffffffffffffffffffffffffffffffffffffffffffffffffffffffffffff6040518363ffffffff1660e01b8152600401615342929190619449565b602060405180830381600087803b15801561535c57600080fd5b505af1158015615370573d6000803e3d6000fd5b505050506040513d601f19601f8201168201806040525081019061539491906189e3565b508273ffffffffffffffffffffffffffffffffffffffff1663095ea7b3307fffffffffffffffffffffffffffffffffffffffffffffffffffffffffffffffff6040518363ffffffff1660e01b81526004016153f0929190619449565b602060405180830381600087803b15801561540a57600080fd5b505af115801561541e573d6000803e3d6000fd5b505050506040513d601f19601f8201168201806040525081019061544291906189e3565b505b6001905092915050565b615456615ae0565b73ffffffffffffffffffffffffffffffffffffffff16615474613f28565b73ffffffffffffffffffffffffffffffffffffffff16146154ca576040517f08c379a00000000000000000000000000000000000000000000000000000000081526004016154c1906196ea565b60405180910390fd5b60008290505b818111615948576000806000806000807f000000000000000000000000000000000000000000000000000000000000000073ffffffffffffffffffffffffffffffffffffffff1663bfb231d2886040518263ffffffff1660e01b815260040161553991906197ca565b6101406040518083038186803b15801561555257600080fd5b505afa158015615566573d6000803e3d6000fd5b505050506040513d601f19601f8201168201806040525081019061558a91906185b3565b509850505050955095509550955095506155a261811a565b60018161010001901515908115158152505086816000019073ffffffffffffffffffffffffffffffffffffffff16908173ffffffffffffffffffffffffffffffffffffffff1681525050818160c0018181525050828160a00181815250508381608001818152505060008161012001901515908115158152505085816020019073ffffffffffffffffffffffffffffffffffffffff16908173ffffffffffffffffffffffffffffffffffffffff168152505084816040019073ffffffffffffffffffffffffffffffffffffffff16908173ffffffffffffffffffffffffffffffffffffffff16815250508060146000601254815260200190815260200160002060008201518160000160006101000a81548173ffffffffffffffffffffffffffffffffffffffff021916908373ffffffffffffffffffffffffffffffffffffffff16021790555060208201518160010160006101000a81548173ffffffffffffffffffffffffffffffffffffffff021916908373ffffffffffffffffffffffffffffffffffffffff16021790555060408201518160020160006101000a81548173ffffffffffffffffffffffffffffffffffffffff021916908373ffffffffffffffffffffffffffffffffffffffff16021790555060608201518160030160006101000a81548173ffffffffffffffffffffffffffffffffffffffff021916908373ffffffffffffffffffffffffffffffffffffffff1602179055506080820151816004015560a0820151816005015560c0820151816006015560e082015181600701556101008201518160080160006101000a81548160ff0219169083151502179055506101208201518160080160016101000a81548160ff0219169083151502179055509050506000601254905061584860016012546174a990919063ffffffff16565b601281905550600087868a604051602001615865939291906190f4565b604051602081830303815290604052805190602001209050816015600083815260200190815260200160002081905550600085111561592c577f000000000000000000000000000000000000000000000000000000000000000073ffffffffffffffffffffffffffffffffffffffff166371ab7e678b306040518363ffffffff1660e01b81526004016158f99291906197e5565b600060405180830381600087803b15801561591357600080fd5b505af1158015615927573d6000803e3d6000fd5b505050505b505050505050505050808061594090619cf6565b9150506154d0565b505050565b600063f23a6e6160e01b905095945050505050565b61596a615ae0565b73ffffffffffffffffffffffffffffffffffffffff16615988613f28565b73ffffffffffffffffffffffffffffffffffffffff16146159de576040517f08c379a00000000000000000000000000000000000000000000000000000000081526004016159d5906196ea565b60405180910390fd5b600073ffffffffffffffffffffffffffffffffffffffff168173ffffffffffffffffffffffffffffffffffffffff161415615a4e576040517f08c379a0000000000000000000000000000000000000000000000000000000008152600401615a459061958a565b60405180910390fd5b615a5781617576565b50565b615a62615ae0565b73ffffffffffffffffffffffffffffffffffffffff16615a80613f28565b73ffffffffffffffffffffffffffffffffffffffff1614615ad6576040517f08c379a0000000000000000000000000000000000000000000000000000000008152600401615acd906196ea565b60405180910390fd5b615ade617803565b565b600033905090565b60007f01ffc9a7000000000000000000000000000000000000000000000000000000007bffffffffffffffffffffffffffffffffffffffffffffffffffffffff1916827bffffffffffffffffffffffffffffffffffffffffffffffffffffffff1916149050919050565b60008183615b609190619b10565b905092915050565b60008183615b76919061996e565b905092915050565b60008183615b8c9190619b6a565b905092915050565b615c17846323b872dd60e01b858585604051602401615bb5939291906192d6565b604051602081830303815290604052907bffffffffffffffffffffffffffffffffffffffffffffffffffffffff19166020820180517bffffffffffffffffffffffffffffffffffffffffffffffffffffffff83818316178352505050506178a4565b50505050565b600080600360009054906101000a900473ffffffffffffffffffffffffffffffffffffffff1673ffffffffffffffffffffffffffffffffffffffff16633b0f0f2f846040518263ffffffff1660e01b8152600401615c7b9190619178565b60206040518083038186803b158015615c9357600080fd5b505afa158015615ca7573d6000803e3d6000fd5b505050506040513d601f19601f82011682018060405250810190615ccb9190618474565b905080915050919050565b60008060146000898152602001908152602001600020604051806101400160405290816000820160009054906101000a900473ffffffffffffffffffffffffffffffffffffffff1673ffffffffffffffffffffffffffffffffffffffff1673ffffffffffffffffffffffffffffffffffffffff1681526020016001820160009054906101000a900473ffffffffffffffffffffffffffffffffffffffff1673ffffffffffffffffffffffffffffffffffffffff1673ffffffffffffffffffffffffffffffffffffffff1681526020016002820160009054906101000a900473ffffffffffffffffffffffffffffffffffffffff1673ffffffffffffffffffffffffffffffffffffffff1673ffffffffffffffffffffffffffffffffffffffff1681526020016003820160009054906101000a900473ffffffffffffffffffffffffffffffffffffffff1673ffffffffffffffffffffffffffffffffffffffff1673ffffffffffffffffffffffffffffffffffffffff168152602001600482015481526020016005820154815260200160068201548152602001600782015481526020016008820160009054906101000a900460ff161515151581526020016008820160019054906101000a900460ff16151515158152505090506000859050600073ffffffffffffffffffffffffffffffffffffffff168473ffffffffffffffffffffffffffffffffffffffff1614615f8f576000615f416002612710615efd91906199f2565b615f33600854612710615f109190619b6a565b615f256006548c615b5290919063ffffffff16565b615b5290919063ffffffff16565b615b6890919063ffffffff16565b9050615f4e8b868361796b565b6000600a541115615f8d57615f8c8b8d615f87612710615f79600a548d615b5290919063ffffffff16565b615b6890919063ffffffff16565b61796b565b5b505b600073ffffffffffffffffffffffffffffffffffffffff16826060015173ffffffffffffffffffffffffffffffffffffffff1614616040576160008a8360600151615ffb612710615fed8760e001518c615b5290919063ffffffff16565b615b6890919063ffffffff16565b61796b565b61603d61602e6127106160208560e001518a615b5290919063ffffffff16565b615b6890919063ffffffff16565b82615b7e90919063ffffffff16565b90505b600d6000836020015173ffffffffffffffffffffffffffffffffffffffff1673ffffffffffffffffffffffffffffffffffffffff16815260200190815260200160002060009054906101000a900460ff16156170b1576000826020015173ffffffffffffffffffffffffffffffffffffffff1663d48e638a84608001516040518263ffffffff1660e01b81526004016160d991906197ca565b60206040518083038186803b1580156160f157600080fd5b505afa158015616105573d6000803e3d6000fd5b505050506040513d601f19601f82011682018060405250810190616129919061844b565b9050600060186000856020015173ffffffffffffffffffffffffffffffffffffffff1673ffffffffffffffffffffffffffffffffffffffff168152602001908152602001600020600085608001518152602001908152602001600020541180156161c25750826000015173ffffffffffffffffffffffffffffffffffffffff168173ffffffffffffffffffffffffffffffffffffffff16145b156168b757600073ffffffffffffffffffffffffffffffffffffffff168673ffffffffffffffffffffffffffffffffffffffff16146165d45760008960186000866020015173ffffffffffffffffffffffffffffffffffffffff1673ffffffffffffffffffffffffffffffffffffffff16815260200190815260200160002060008660800151815260200190815260200160002054106163bd576162b2600261271061626e91906199f2565b6162a46008546127106162819190619b6a565b6162966007548d615b5290919063ffffffff16565b615b5290919063ffffffff16565b615b6890919063ffffffff16565b90506162ef6162e06127106162d26007548c615b5290919063ffffffff16565b615b6890919063ffffffff16565b84615b7e90919063ffffffff16565b925061635c8a60186000876020015173ffffffffffffffffffffffffffffffffffffffff1673ffffffffffffffffffffffffffffffffffffffff16815260200190815260200160002060008760800151815260200190815260200160002054615b7e90919063ffffffff16565b60186000866020015173ffffffffffffffffffffffffffffffffffffffff1673ffffffffffffffffffffffffffffffffffffffff168152602001908152602001600020600086608001518152602001908152602001600020819055506165c3565b600061643e6007546164308c601860008a6020015173ffffffffffffffffffffffffffffffffffffffff1673ffffffffffffffffffffffffffffffffffffffff16815260200190815260200160002060008a60800151815260200190815260200160002054615b5290919063ffffffff16565b615b5290919063ffffffff16565b905061646761645861271083615b6890919063ffffffff16565b85615b7e90919063ffffffff16565b93506164ab600261271061647b91906199f2565b61649d60085461271061648e9190619b6a565b84615b5290919063ffffffff16565b615b6890919063ffffffff16565b905080915060186000866020015173ffffffffffffffffffffffffffffffffffffffff1673ffffffffffffffffffffffffffffffffffffffff168152602001908152602001600020600086608001518152602001908152602001600020548b6165149190619b6a565b905061653d60065461652f8c84615b5290919063ffffffff16565b615b5290919063ffffffff16565b905061656661655761271083615b6890919063ffffffff16565b85615b7e90919063ffffffff16565b93506165aa600261271061657a91906199f2565b61659c60085461271061658d9190619b6a565b84615b5290919063ffffffff16565b615b6890919063ffffffff16565b90506165bf81836174a990919063ffffffff16565b9150505b6165ce8c888361796b565b506168a3565b8860186000856020015173ffffffffffffffffffffffffffffffffffffffff1673ffffffffffffffffffffffffffffffffffffffff168152602001908152602001600020600085608001518152602001908152602001600020541061673c5761666e61665f6127106166516007548b615b5290919063ffffffff16565b615b6890919063ffffffff16565b83615b7e90919063ffffffff16565b91506166db8960186000866020015173ffffffffffffffffffffffffffffffffffffffff1673ffffffffffffffffffffffffffffffffffffffff16815260200190815260200160002060008660800151815260200190815260200160002054615b7e90919063ffffffff16565b60186000856020015173ffffffffffffffffffffffffffffffffffffffff1673ffffffffffffffffffffffffffffffffffffffff168152602001908152602001600020600085608001518152602001908152602001600020819055506168a2565b60006167d16127106167c36007546167b58d601860008b6020015173ffffffffffffffffffffffffffffffffffffffff1673ffffffffffffffffffffffffffffffffffffffff16815260200190815260200160002060008b60800151815260200190815260200160002054615b5290919063ffffffff16565b615b5290919063ffffffff16565b615b6890919063ffffffff16565b90506167e68184615b7e90919063ffffffff16565b925060186000856020015173ffffffffffffffffffffffffffffffffffffffff1673ffffffffffffffffffffffffffffffffffffffff168152602001908152602001600020600085608001518152602001908152602001600020548a61684c9190619b6a565b905061688961271061687b60065461686d8d86615b5290919063ffffffff16565b615b5290919063ffffffff16565b615b6890919063ffffffff16565b905061689e8184615b7e90919063ffffffff16565b9250505b5b6168b28b84600001518461796b565b6170ab565b600e6000846020015173ffffffffffffffffffffffffffffffffffffffff1673ffffffffffffffffffffffffffffffffffffffff16815260200190815260200160002060009054906101000a900460ff16801561694457508073ffffffffffffffffffffffffffffffffffffffff16836000015173ffffffffffffffffffffffffffffffffffffffff1614155b80156169d45750600060196000856000015173ffffffffffffffffffffffffffffffffffffffff1673ffffffffffffffffffffffffffffffffffffffff1681526020019081526020016000206000856020015186608001516040516020016169ad9291906190c8565b60405160208183030381529060405280519060200120815260200190815260200160002054115b15616e0c57600060196000856000015173ffffffffffffffffffffffffffffffffffffffff1673ffffffffffffffffffffffffffffffffffffffff168152602001908152602001600020600085602001518660800151604051602001616a3b9291906190c8565b604051602081830303815290604052805190602001208152602001908152602001600020549050898110616b9557616a9c8c83616a97612710616a896009548e615b5290919063ffffffff16565b615b6890919063ffffffff16565b61796b565b616ae4616ad5612710616ac7600954612710616ab89190619b6a565b8c615b5290919063ffffffff16565b615b6890919063ffffffff16565b84615b7e90919063ffffffff16565b9250616af58c85600001518561796b565b616b088a82615b7e90919063ffffffff16565b60196000866000015173ffffffffffffffffffffffffffffffffffffffff1673ffffffffffffffffffffffffffffffffffffffff168152602001908152602001600020600086602001518760800151604051602001616b689291906190c8565b60405160208183030381529060405280519060200120815260200190815260200160002081905550616e06565b6000616bd2612710616bc4600954616bb68e87615b5290919063ffffffff16565b615b5290919063ffffffff16565b615b6890919063ffffffff16565b9050616be78185615b7e90919063ffffffff16565b9350616bfc828c615b7e90919063ffffffff16565b9150600560009054906101000a900473ffffffffffffffffffffffffffffffffffffffff1673ffffffffffffffffffffffffffffffffffffffff16634623afa186602001518f8860800151868f601760008d6000015173ffffffffffffffffffffffffffffffffffffffff1673ffffffffffffffffffffffffffffffffffffffff16815260200190815260200160002060008d602001518e60800151604051602001616ca99291906190c8565b604051602081830303815290604052805190602001208152602001908152602001600020546040518763ffffffff1660e01b8152600401616cef969594939291906193bf565b602060405180830381600087803b158015616d0957600080fd5b505af1158015616d1d573d6000803e3d6000fd5b505050506040513d601f19601f82011682018060405250810190616d419190618a5e565b81616d4c9190619918565b9050616d598d848361796b565b616d7a8d8660000151616d758488615b7e90919063ffffffff16565b61796b565b600060196000876000015173ffffffffffffffffffffffffffffffffffffffff1673ffffffffffffffffffffffffffffffffffffffff168152602001908152602001600020600087602001518860800151604051602001616ddc9291906190c8565b60405160208183030381529060405280519060200120815260200190815260200160002081905550505b506170aa565b616e47616e38612710616e2a6006548b615b5290919063ffffffff16565b615b6890919063ffffffff16565b83615b7e90919063ffffffff16565b9150600073ffffffffffffffffffffffffffffffffffffffff168673ffffffffffffffffffffffffffffffffffffffff1614616ede57616edd8b87616ed86002612710616e9491906199f2565b616eca600854612710616ea79190619b6a565b616ebc6006548f615b5290919063ffffffff16565b615b5290919063ffffffff16565b615b6890919063ffffffff16565b61796b565b5b8073ffffffffffffffffffffffffffffffffffffffff16836000015173ffffffffffffffffffffffffffffffffffffffff161415616f2a57616f258b84600001518461796b565b6170a9565b6000600560009054906101000a900473ffffffffffffffffffffffffffffffffffffffff1673ffffffffffffffffffffffffffffffffffffffff16634623afa185602001518e87608001518e8e601760008c6000015173ffffffffffffffffffffffffffffffffffffffff1673ffffffffffffffffffffffffffffffffffffffff16815260200190815260200160002060008c602001518d60800151604051602001616fd79291906190c8565b604051602081830303815290604052805190602001208152602001908152602001600020546040518763ffffffff1660e01b815260040161701d969594939291906193bf565b602060405180830381600087803b15801561703757600080fd5b505af115801561704b573d6000803e3d6000fd5b505050506040513d601f19601f8201168201806040525081019061706f9190618a5e565b90506000811115617086576170858c838361796b565b5b6170a78c85600001516170a28487615b7e90919063ffffffff16565b61796b565b505b5b5b50617193565b6170ec6170dd6127106170cf6006548a615b5290919063ffffffff16565b615b6890919063ffffffff16565b82615b7e90919063ffffffff16565b9050600073ffffffffffffffffffffffffffffffffffffffff168573ffffffffffffffffffffffffffffffffffffffff1614617183576171828a8661717d600261271061713991906199f2565b61716f60085461271061714c9190619b6a565b6171616006548e615b5290919063ffffffff16565b615b5290919063ffffffff16565b615b6890919063ffffffff16565b61796b565b5b6171928a83600001518361796b565b5b6171d18b8b8b8b8b876020015188608001516040516020016171b69291906190c8565b60405160208183030381529060405280519060200120617a6f565b9250505098975050505050505050565b60008060166000858152602001908152602001600020604051806101000160405290816000820160009054906101000a900473ffffffffffffffffffffffffffffffffffffffff1673ffffffffffffffffffffffffffffffffffffffff1673ffffffffffffffffffffffffffffffffffffffff1681526020016001820160009054906101000a900473ffffffffffffffffffffffffffffffffffffffff1673ffffffffffffffffffffffffffffffffffffffff1673ffffffffffffffffffffffffffffffffffffffff1681526020016002820160009054906101000a900473ffffffffffffffffffffffffffffffffffffffff1673ffffffffffffffffffffffffffffffffffffffff1673ffffffffffffffffffffffffffffffffffffffff168152602001600382015481526020016004820154815260200160058201548152602001600682015481526020016007820160009054906101000a900460ff1615151515815250509050617361838260a00151615b7e90919063ffffffff16565b8160a0018181525050806016600086815260200190815260200160002060008201518160000160006101000a81548173ffffffffffffffffffffffffffffffffffffffff021916908373ffffffffffffffffffffffffffffffffffffffff16021790555060208201518160010160006101000a81548173ffffffffffffffffffffffffffffffffffffffff021916908373ffffffffffffffffffffffffffffffffffffffff16021790555060408201518160020160006101000a81548173ffffffffffffffffffffffffffffffffffffffff021916908373ffffffffffffffffffffffffffffffffffffffff160217905550606082015181600301556080820151816004015560a0820151816005015560c0820151816006015560e08201518160070160006101000a81548160ff021916908315150217905550905050600191505092915050565b600081836174b79190619918565b905092915050565b6000600460009054906101000a900473ffffffffffffffffffffffffffffffffffffffff1673ffffffffffffffffffffffffffffffffffffffff166366ad7b2b84846040518363ffffffff1660e01b815260040161751e929190619472565b60206040518083038186803b15801561753657600080fd5b505afa15801561754a573d6000803e3d6000fd5b505050506040513d601f19601f8201168201806040525081019061756e9190618a5e565b905092915050565b60008060009054906101000a900473ffffffffffffffffffffffffffffffffffffffff169050816000806101000a81548173ffffffffffffffffffffffffffffffffffffffff021916908373ffffffffffffffffffffffffffffffffffffffff1602179055508173ffffffffffffffffffffffffffffffffffffffff168173ffffffffffffffffffffffffffffffffffffffff167f8be0079c531659141344cd1fd0a4f28419497f9722a3daafe3b4186f6b6457e060405160405180910390a35050565b617642613a7f565b15617682576040517f08c379a0000000000000000000000000000000000000000000000000000000008152600401617679906196aa565b60405180910390fd5b6001600060146101000a81548160ff0219169083151502179055507f62e78cea01bee320cd4e420270b5ea74000d11b0c9f74754ebdbfc544b05a2586176c6615ae0565b6040516176d39190619178565b60405180910390a1565b8560068190555084600781905550836008819055508260098190555081600a8190555080600b81905550505050505050565b80471015617752576040517f08c379a00000000000000000000000000000000000000000000000000000000081526004016177499061960a565b60405180910390fd5b60008273ffffffffffffffffffffffffffffffffffffffff168260405161777890619163565b60006040518083038185875af1925050503d80600081146177b5576040519150601f19603f3d011682016040523d82523d6000602084013e6177ba565b606091505b50509050806177fe576040517f08c379a00000000000000000000000000000000000000000000000000000000081526004016177f5906195ea565b60405180910390fd5b505050565b61780b613a7f565b61784a576040517f08c379a00000000000000000000000000000000000000000000000000000000081526004016178419061956a565b60405180910390fd5b60008060146101000a81548160ff0219169083151502179055507f5db9ee0a495bf2e6ff9c91a7834c1ba4fdd244a5e8aa4e537bd38aeae4b073aa61788d615ae0565b60405161789a9190619178565b60405180910390a1565b6000617906826040518060400160405280602081526020017f5361666545524332303a206c6f772d6c6576656c2063616c6c206661696c65648152508573ffffffffffffffffffffffffffffffffffffffff16617e379092919063ffffffff16565b9050600081511115617966578080602001905181019061792691906189e3565b617965576040517f08c379a000000000000000000000000000000000000000000000000000000000815260040161795c9061978a565b60405180910390fd5b5b505050565b600073ffffffffffffffffffffffffffffffffffffffff168273ffffffffffffffffffffffffffffffffffffffff1614156179db576040517f08c379a00000000000000000000000000000000000000000000000000000000081526004016179d29061964a565b60405180910390fd5b600073ffffffffffffffffffffffffffffffffffffffff168373ffffffffffffffffffffffffffffffffffffffff161415617a3e57617a39818373ffffffffffffffffffffffffffffffffffffffff1661770f90919063ffffffff16565b617a6a565b617a6982828573ffffffffffffffffffffffffffffffffffffffff16617e4f9092919063ffffffff16565b5b505050565b60008060146000878152602001908152602001600020604051806101400160405290816000820160009054906101000a900473ffffffffffffffffffffffffffffffffffffffff1673ffffffffffffffffffffffffffffffffffffffff1673ffffffffffffffffffffffffffffffffffffffff1681526020016001820160009054906101000a900473ffffffffffffffffffffffffffffffffffffffff1673ffffffffffffffffffffffffffffffffffffffff1673ffffffffffffffffffffffffffffffffffffffff1681526020016002820160009054906101000a900473ffffffffffffffffffffffffffffffffffffffff1673ffffffffffffffffffffffffffffffffffffffff1673ffffffffffffffffffffffffffffffffffffffff1681526020016003820160009054906101000a900473ffffffffffffffffffffffffffffffffffffffff1673ffffffffffffffffffffffffffffffffffffffff1673ffffffffffffffffffffffffffffffffffffffff168152602001600482015481526020016005820154815260200160068201548152602001600782015481526020016008820160009054906101000a900460ff161515151581526020016008820160019054906101000a900460ff161515151581525050905080610120015115617cd057806020015173ffffffffffffffffffffffffffffffffffffffff166342842e0e308a84608001516040518463ffffffff1660e01b8152600401617c99939291906192d6565b600060405180830381600087803b158015617cb357600080fd5b505af1158015617cc7573d6000803e3d6000fd5b50505050617d8b565b806020015173ffffffffffffffffffffffffffffffffffffffff1663f242432a308a8460800151897ff23a6e612e1ff4830e658fe43f4e3cb4a5f8170bd5d9e69fb5d7a7fa9e4fdf97604051602001617d299190619131565b6040516020818303038152906040526040518663ffffffff1660e01b8152600401617d5895949392919061930d565b600060405180830381600087803b158015617d7257600080fd5b505af1158015617d86573d6000803e3d6000fd5b505050505b617da2858260a00151615b7e90919063ffffffff16565b8160a00181815250508060a001516014600088815260200190815260200160002060050181905550617dd48785617ed5565b601760008a73ffffffffffffffffffffffffffffffffffffffff1673ffffffffffffffffffffffffffffffffffffffff16815260200190815260200160002060008581526020019081526020016000208190555060019150509695505050505050565b6060617e468484600085617f8c565b90509392505050565b617ed08363a9059cbb60e01b8484604051602401617e6e929190619472565b604051602081830303815290604052907bffffffffffffffffffffffffffffffffffffffffffffffffffffffff19166020820180517bffffffffffffffffffffffffffffffffffffffffffffffffffffffff83818316178352505050506178a4565b505050565b6000600460009054906101000a900473ffffffffffffffffffffffffffffffffffffffff1673ffffffffffffffffffffffffffffffffffffffff16630d38c59684846040518363ffffffff1660e01b8152600401617f34929190619472565b60206040518083038186803b158015617f4c57600080fd5b505afa158015617f60573d6000803e3d6000fd5b505050506040513d601f19601f82011682018060405250810190617f849190618a5e565b905092915050565b606082471015617fd1576040517f08c379a0000000000000000000000000000000000000000000000000000000008152600401617fc89061962a565b60405180910390fd5b617fda856180a0565b618019576040517f08c379a00000000000000000000000000000000000000000000000000000000081526004016180109061974a565b60405180910390fd5b6000808673ffffffffffffffffffffffffffffffffffffffff168587604051618042919061914c565b60006040518083038185875af1925050503d806000811461807f576040519150601f19603f3d011682016040523d82523d6000602084013e618084565b606091505b50915091506180948282866180b3565b92505050949350505050565b600080823b905060008111915050919050565b606083156180c357829050618113565b6000835111156180d65782518084602001fd5b816040517f08c379a000000000000000000000000000000000000000000000000000000000815260040161810a9190619508565b60405180910390fd5b9392505050565b604051806101400160405280600073ffffffffffffffffffffffffffffffffffffffff168152602001600073ffffffffffffffffffffffffffffffffffffffff168152602001600073ffffffffffffffffffffffffffffffffffffffff168152602001600073ffffffffffffffffffffffffffffffffffffffff168152602001600081526020016000815260200160008152602001600081526020016000151581526020016000151581525090565b604051806101000160405280600073ffffffffffffffffffffffffffffffffffffffff168152602001600073ffffffffffffffffffffffffffffffffffffffff168152602001600073ffffffffffffffffffffffffffffffffffffffff168152602001600081526020016000815260200160008152602001600081526020016000151581525090565b600061826561826084619878565b619853565b9050808382526020820190508285602086028201111561828457600080fd5b60005b858110156182b4578161829a88826183f8565b845260208401935060208301925050600181019050618287565b5050509392505050565b60006182d16182cc846198a4565b619853565b9050828152602081018484840111156182e957600080fd5b6182f4848285619c83565b509392505050565b60008135905061830b8161a29c565b92915050565b6000815190506183208161a29c565b92915050565b6000813590506183358161a2b3565b92915050565b60008151905061834a8161a2b3565b92915050565b600082601f83011261836157600080fd5b8135618371848260208601618252565b91505092915050565b6000813590506183898161a2ca565b92915050565b60008151905061839e8161a2ca565b92915050565b6000813590506183b38161a2e1565b92915050565b6000813590506183c88161a2f8565b92915050565b600082601f8301126183df57600080fd5b81356183ef8482602086016182be565b91505092915050565b6000813590506184078161a30f565b92915050565b60008151905061841c8161a30f565b92915050565b60006020828403121561843457600080fd5b6000618442848285016182fc565b91505092915050565b60006020828403121561845d57600080fd5b600061846b84828501618311565b91505092915050565b60006020828403121561848657600080fd5b60006184948482850161833b565b91505092915050565b600080604083850312156184b057600080fd5b60006184be85828601618326565b92505060206184cf858286016182fc565b9150509250929050565b600080604083850312156184ec57600080fd5b60006184fa858286016182fc565b925050602061850b858286016182fc565b9150509250929050565b600080600080600080600060e0888a03121561853057600080fd5b600061853e8a828b016182fc565b975050602061854f8a828b016182fc565b96505060406185608a828b016182fc565b95505060606185718a828b016183f8565b94505060806185828a828b016183f8565b93505060a06185938a828b016183f8565b92505060c06185a48a828b016183f8565b91505092959891949750929550565b6000806000806000806000806000806101408b8d0312156185d357600080fd5b60006185e18d828e01618311565b9a505060206185f28d828e01618311565b99505060406186038d828e01618311565b98505060606186148d828e0161840d565b97505060806186258d828e0161840d565b96505060a06186368d828e0161840d565b95505060c06186478d828e0161840d565b94505060e06186588d828e0161840d565b93505061010061866a8d828e0161840d565b92505061012061867c8d828e0161840d565b9150509295989b9194979a5092959850565b600080600080600060a086880312156186a657600080fd5b60006186b4888289016182fc565b95505060206186c5888289016182fc565b945050604086013567ffffffffffffffff8111156186e257600080fd5b6186ee88828901618350565b935050606086013567ffffffffffffffff81111561870b57600080fd5b61871788828901618350565b925050608086013567ffffffffffffffff81111561873457600080fd5b618740888289016183ce565b9150509295509295909350565b6000806000806080858703121561876357600080fd5b6000618771878288016182fc565b9450506020618782878288016182fc565b9350506040618793878288016183f8565b925050606085013567ffffffffffffffff8111156187b057600080fd5b6187bc878288016183ce565b91505092959194509250565b600080600080600060a086880312156187e057600080fd5b60006187ee888289016182fc565b95505060206187ff888289016182fc565b9450506040618810888289016183f8565b9350506060618821888289016183f8565b925050608086013567ffffffffffffffff81111561883e57600080fd5b61884a888289016183ce565b9150509295509295909350565b60008060008060008060c0878903121561887057600080fd5b600061887e89828a016182fc565b965050602061888f89828a016182fc565b95505060406188a089828a016183f8565b94505060606188b189828a016183f8565b93505060806188c289828a016183f8565b92505060a06188d389828a016183f8565b9150509295509295509295565b600080604083850312156188f357600080fd5b6000618901858286016182fc565b92505060206189128582860161837a565b9150509250929050565b60008060006060848603121561893157600080fd5b600061893f868287016182fc565b93505060206189508682870161837a565b92505060406189618682870161837a565b9150509250925092565b6000806040838503121561897e57600080fd5b600061898c858286016182fc565b925050602061899d858286016183a4565b9150509250929050565b600080604083850312156189ba57600080fd5b60006189c8858286016182fc565b92505060206189d9858286016183f8565b9150509250929050565b6000602082840312156189f557600080fd5b6000618a038482850161838f565b91505092915050565b600060208284031215618a1e57600080fd5b6000618a2c848285016183b9565b91505092915050565b600060208284031215618a4757600080fd5b6000618a55848285016183f8565b91505092915050565b600060208284031215618a7057600080fd5b6000618a7e8482850161840d565b91505092915050565b60008060408385031215618a9a57600080fd5b6000618aa8858286016183f8565b9250506020618ab9858286016183f8565b9150509250929050565b600080600060608486031215618ad857600080fd5b6000618ae6868287016183f8565b9350506020618af7868287016183f8565b9250506040618b08868287016182fc565b9150509250925092565b600080600060608486031215618b2757600080fd5b6000618b35868287016183f8565b9350506020618b46868287016183f8565b9250506040618b57868287016183f8565b9150509250925092565b600080600080600060a08688031215618b7957600080fd5b6000618b87888289016183f8565b9550506020618b98888289016183f8565b9450506040618ba9888289016183f8565b9350506060618bba888289016183f8565b9250506080618bcb888289016182fc565b9150509295509295909350565b60008060008060008060c08789031215618bf157600080fd5b6000618bff89828a016183f8565b9650506020618c1089828a016183f8565b9550506040618c2189828a016183f8565b9450506060618c3289828a016183f8565b9350506080618c4389828a016183f8565b92505060a0618c5489828a016183f8565b9150509295509295509295565b618c6a81619c3b565b82525050565b618c7981619b9e565b82525050565b618c90618c8b82619b9e565b619d3f565b82525050565b618c9f81619bc2565b82525050565b618cb6618cb182619bce565b619d51565b82525050565b618cc581619bd8565b82525050565b6000618cd6826198d5565b618ce081856198eb565b9350618cf0818560208601619c92565b618cf981619e04565b840191505092915050565b6000618d0f826198d5565b618d1981856198fc565b9350618d29818560208601619c92565b80840191505092915050565b618d3e81619c4d565b82525050565b6000618d4f826198e0565b618d598185619907565b9350618d69818560208601619c92565b618d7281619e04565b840191505092915050565b6000618d8a600e83619907565b9150618d9582619e2f565b602082019050919050565b6000618dad601483619907565b9150618db882619e58565b602082019050919050565b6000618dd0601483619907565b9150618ddb82619e81565b602082019050919050565b6000618df3602683619907565b9150618dfe82619eaa565b604082019050919050565b6000618e16601083619907565b9150618e2182619ef9565b602082019050919050565b6000618e396002836198eb565b9150618e4482619f22565b602082019050919050565b6000618e5c601f83619907565b9150618e6782619f4b565b602082019050919050565b6000618e7f603a83619907565b9150618e8a82619f74565b604082019050919050565b6000618ea2601d83619907565b9150618ead82619fc3565b602082019050919050565b6000618ec5602683619907565b9150618ed082619fec565b604082019050919050565b6000618ee8600f83619907565b9150618ef38261a03b565b602082019050919050565b6000618f0b601a83619907565b9150618f168261a064565b602082019050919050565b6000618f2e602383619907565b9150618f398261a08d565b604082019050919050565b6000618f51601083619907565b9150618f5c8261a0dc565b602082019050919050565b6000618f74601083619907565b9150618f7f8261a105565b602082019050919050565b6000618f97602083619907565b9150618fa28261a12e565b602082019050919050565b6000618fba600e83619907565b9150618fc58261a157565b602082019050919050565b6000618fdd600d83619907565b9150618fe88261a180565b602082019050919050565b60006190006000836198fc565b915061900b8261a1a9565b600082019050919050565b6000619023601d83619907565b915061902e8261a1ac565b602082019050919050565b6000619046602183619907565b91506190518261a1d5565b604082019050919050565b6000619069602a83619907565b91506190748261a224565b604082019050919050565b600061908c601f83619907565b91506190978261a273565b602082019050919050565b6190ab81619c24565b82525050565b6190c26190bd82619c24565b619d6d565b82525050565b60006190d48285618c7f565b6014820191506190e482846190b1565b6020820191508190509392505050565b60006191008286618c7f565b60148201915061911082856190b1565b6020820191506191208284618c7f565b601482019150819050949350505050565b600061913d8284618ca5565b60208201915081905092915050565b60006191588284618d04565b915081905092915050565b600061916e82618ff3565b9150819050919050565b600060208201905061918d6000830184618c70565b92915050565b60006040820190506191a86000830185618c61565b6191b560208301846190a2565b9392505050565b6000610140820190506191d2600083018d618c70565b6191df602083018c618c70565b6191ec604083018b618c70565b6191f9606083018a618c70565b61920660808301896190a2565b61921360a08301886190a2565b61922060c08301876190a2565b61922d60e08301866190a2565b61923b610100830185618c96565b619249610120830184618c96565b9b9a5050505050505050505050565b60006101008201905061926e600083018b618c70565b61927b602083018a618c70565b6192886040830189618c70565b61929560608301886190a2565b6192a260808301876190a2565b6192af60a08301866190a2565b6192bc60c08301856190a2565b6192c960e0830184618c96565b9998505050505050505050565b60006060820190506192eb6000830186618c70565b6192f86020830185618c70565b61930560408301846190a2565b949350505050565b600060a0820190506193226000830188618c70565b61932f6020830187618c70565b61933c60408301866190a2565b61934960608301856190a2565b818103608083015261935b8184618ccb565b90509695505050505050565b600060a08201905061937c6000830187618c70565b6193896020830186618c70565b61939660408301856190a2565b6193a360608301846190a2565b81810360808301526193b481618e2c565b905095945050505050565b600060c0820190506193d46000830189618c70565b6193e16020830188618c70565b6193ee60408301876190a2565b6193fb60608301866190a2565b61940860808301856190a2565b61941560a08301846190a2565b979650505050505050565b60006040820190506194356000830185618c70565b6194426020830184618c96565b9392505050565b600060408201905061945e6000830185618c70565b61946b6020830184618d35565b9392505050565b60006040820190506194876000830185618c70565b61949460208301846190a2565b9392505050565b60006060820190506194b06000830186618c70565b6194bd60208301856190a2565b6194ca6040830184618c70565b949350505050565b60006020820190506194e76000830184618c96565b92915050565b60006020820190506195026000830184618cbc565b92915050565b600060208201905081810360008301526195228184618d44565b905092915050565b6000602082019050818103600083015261954381618d7d565b9050919050565b6000602082019050818103600083015261956381618da0565b9050919050565b6000602082019050818103600083015261958381618dc3565b9050919050565b600060208201905081810360008301526195a381618de6565b9050919050565b600060208201905081810360008301526195c381618e09565b9050919050565b600060208201905081810360008301526195e381618e4f565b9050919050565b6000602082019050818103600083015261960381618e72565b9050919050565b6000602082019050818103600083015261962381618e95565b9050919050565b6000602082019050818103600083015261964381618eb8565b9050919050565b6000602082019050818103600083015261966381618edb565b9050919050565b6000602082019050818103600083015261968381618efe565b9050919050565b600060208201905081810360008301526196a381618f21565b9050919050565b600060208201905081810360008301526196c381618f44565b9050919050565b600060208201905081810360008301526196e381618f67565b9050919050565b6000602082019050818103600083015261970381618f8a565b9050919050565b6000602082019050818103600083015261972381618fad565b9050919050565b6000602082019050818103600083015261974381618fd0565b9050919050565b6000602082019050818103600083015261976381619016565b9050919050565b6000602082019050818103600083015261978381619039565b9050919050565b600060208201905081810360008301526197a38161905c565b9050919050565b600060208201905081810360008301526197c38161907f565b9050919050565b60006020820190506197df60008301846190a2565b92915050565b60006040820190506197fa60008301856190a2565b6198076020830184618c70565b9392505050565b600060808201905061982360008301876190a2565b61983060208301866190a2565b61983d6040830185618c70565b61984a60608301846190a2565b95945050505050565b600061985d61986e565b90506198698282619cc5565b919050565b6000604051905090565b600067ffffffffffffffff82111561989357619892619dd5565b5b602082029050602081019050919050565b600067ffffffffffffffff8211156198bf576198be619dd5565b5b6198c882619e04565b9050602081019050919050565b600081519050919050565b600081519050919050565b600082825260208201905092915050565b600081905092915050565b600082825260208201905092915050565b600061992382619c24565b915061992e83619c24565b9250827fffffffffffffffffffffffffffffffffffffffffffffffffffffffffffffffff0382111561996357619962619d77565b5b828201905092915050565b600061997982619c24565b915061998483619c24565b92508261999457619993619da6565b5b828204905092915050565b6000808291508390505b60018511156199e9578086048111156199c5576199c4619d77565b5b60018516156199d45780820291505b80810290506199e285619e22565b94506199a9565b94509492505050565b60006199fd82619c24565b9150619a0883619c2e565b9250619a357fffffffffffffffffffffffffffffffffffffffffffffffffffffffffffffffff8484619a3d565b905092915050565b600082619a4d5760019050619b09565b81619a5b5760009050619b09565b8160018114619a715760028114619a7b57619aaa565b6001915050619b09565b60ff841115619a8d57619a8c619d77565b5b8360020a915084821115619aa457619aa3619d77565b5b50619b09565b5060208310610133831016604e8410600b8410161715619adf5782820a905083811115619ada57619ad9619d77565b5b619b09565b619aec848484600161999f565b92509050818404811115619b0357619b02619d77565b5b81810290505b9392505050565b6000619b1b82619c24565b9150619b2683619c24565b9250817fffffffffffffffffffffffffffffffffffffffffffffffffffffffffffffffff0483118215151615619b5f57619b5e619d77565b5b828202905092915050565b6000619b7582619c24565b9150619b8083619c24565b925082821015619b9357619b92619d77565b5b828203905092915050565b6000619ba982619c04565b9050919050565b6000619bbb82619c04565b9050919050565b60008115159050919050565b6000819050919050565b60007fffffffff0000000000000000000000000000000000000000000000000000000082169050919050565b600073ffffffffffffffffffffffffffffffffffffffff82169050919050565b6000819050919050565b600060ff82169050919050565b6000619c4682619c5f565b9050919050565b6000619c5882619c24565b9050919050565b6000619c6a82619c71565b9050919050565b6000619c7c82619c04565b9050919050565b82818337600083830152505050565b60005b83811015619cb0578082015181840152602081019050619c95565b83811115619cbf576000848401525b50505050565b619cce82619e04565b810181811067ffffffffffffffff82111715619ced57619cec619dd5565b5b80604052505050565b6000619d0182619c24565b91507fffffffffffffffffffffffffffffffffffffffffffffffffffffffffffffffff821415619d3457619d33619d77565b5b600182019050919050565b6000619d4a82619d5b565b9050919050565b6000819050919050565b6000619d6682619e15565b9050919050565b6000819050919050565b7f4e487b7100000000000000000000000000000000000000000000000000000000600052601160045260246000fd5b7f4e487b7100000000000000000000000000000000000000000000000000000000600052601260045260246000fd5b7f4e487b7100000000000000000000000000000000000000000000000000000000600052604160045260246000fd5b6000601f19601f8301169050919050565b60008160601b9050919050565b60008160011c9050919050565b7f496e76616c69642d626964646572000000000000000000000000000000000000600082015250565b7f4e6f742d617661696c61626c652d746f2d627579000000000000000000000000600082015250565b7f5061757361626c653a206e6f7420706175736564000000000000000000000000600082015250565b7f4f776e61626c653a206e6577206f776e657220697320746865207a65726f206160008201527f6464726573730000000000000000000000000000000000000000000000000000602082015250565b7f496e76616c69642d7175616e7469747900000000000000000000000000000000600082015250565b7f3078000000000000000000000000000000000000000000000000000000000000600082015250565b7f5061796d656e742d6d6574686f642d646f65732d6e6f742d737570706f727400600082015250565b7f416464726573733a20756e61626c6520746f2073656e642076616c75652c207260008201527f6563697069656e74206d61792068617665207265766572746564000000000000602082015250565b7f416464726573733a20696e73756666696369656e742062616c616e6365000000600082015250565b7f416464726573733a20696e73756666696369656e742062616c616e636520666f60008201527f722063616c6c0000000000000000000000000000000000000000000000000000602082015250565b7f496e76616c69642d616464726573730000000000000000000000000000000000600082015250565b7f496e73756666696369656e742d746f6b656e2d62616c616e6365000000000000600082015250565b7f4f6f70732157726f6e672d6f726465722d6f776e65722d6f722d63616e63656c60008201527f6c65640000000000000000000000000000000000000000000000000000000000602082015250565b7f5061757361626c653a2070617573656400000000000000000000000000000000600082015250565b7f496e76616c69642d6f726465722d696400000000000000000000000000000000600082015250565b7f4f776e61626c653a2063616c6c6572206973206e6f7420746865206f776e6572600082015250565b7f496e76616c69642d616d6f756e74000000000000000000000000000000000000600082015250565b7f4f6e6c792d6f70657261746f7200000000000000000000000000000000000000600082015250565b50565b7f416464726573733a2063616c6c20746f206e6f6e2d636f6e7472616374000000600082015250565b7f496e76616c69642d7175616e746974792d6f722d6269642d63616e63656c6c6560008201527f6400000000000000000000000000000000000000000000000000000000000000602082015250565b7f5361666545524332303a204552433230206f7065726174696f6e20646964206e60008201527f6f74207375636365656400000000000000000000000000000000000000000000602082015250565b7f5265656e7472616e637947756172643a207265656e7472616e742063616c6c00600082015250565b61a2a581619b9e565b811461a2b057600080fd5b50565b61a2bc81619bb0565b811461a2c757600080fd5b50565b61a2d381619bc2565b811461a2de57600080fd5b50565b61a2ea81619bce565b811461a2f557600080fd5b50565b61a30181619bd8565b811461a30c57600080fd5b50565b61a31881619c24565b811461a32357600080fd5b5056fea2646970667358221220bec14b1ce1ddd9caf8a5b562fc738c06aa8c80373c9af9c5c2b5ad238df7185264736f6c63430008040033",
  "linkReferences": {},
  "deployedLinkReferences": {}
}