{
  "_format": "hh-sol-artifact-1",
  "contractName": "MockSOTA1155",
  "sourceName": "contracts/mocks/MockSOTA1155.sol",
  "abi": [
    {
      "inputs": [],
      "stateMutability": "nonpayable",
      "type": "constructor"
    },
    {
      "anonymous": false,
      "inputs": [
        {
          "indexed": true,
          "internalType": "address",
          "name": "_owner",
          "type": "address"
        },
        {
          "indexed": true,
          "internalType": "address",
          "name": "_operator",
          "type": "address"
        },
        {
          "indexed": false,
          "internalType": "bool",
          "name": "_approved",
          "type": "bool"
        }
      ],
      "name": "ApprovalForAll",
      "type": "event"
    },
    {
      "anonymous": false,
      "inputs": [
        {
          "indexed": true,
          "internalType": "address",
          "name": "account",
          "type": "address"
        }
      ],
      "name": "MinterAdded",
      "type": "event"
    },
    {
      "anonymous": false,
      "inputs": [
        {
          "indexed": true,
          "internalType": "address",
          "name": "account",
          "type": "address"
        }
      ],
      "name": "MinterRemoved",
      "type": "event"
    },
    {
      "anonymous": false,
      "inputs": [
        {
          "indexed": true,
          "internalType": "address",
          "name": "previousOwner",
          "type": "address"
        },
        {
          "indexed": true,
          "internalType": "address",
          "name": "newOwner",
          "type": "address"
        }
      ],
      "name": "OwnershipTransferred",
      "type": "event"
    },
    {
      "anonymous": false,
      "inputs": [
        {
          "indexed": true,
          "internalType": "address",
          "name": "_operator",
          "type": "address"
        },
        {
          "indexed": true,
          "internalType": "address",
          "name": "_from",
          "type": "address"
        },
        {
          "indexed": true,
          "internalType": "address",
          "name": "_to",
          "type": "address"
        },
        {
          "indexed": false,
          "internalType": "uint256[]",
          "name": "_ids",
          "type": "uint256[]"
        },
        {
          "indexed": false,
          "internalType": "uint256[]",
          "name": "_amounts",
          "type": "uint256[]"
        }
      ],
      "name": "TransferBatch",
      "type": "event"
    },
    {
      "anonymous": false,
      "inputs": [
        {
          "indexed": true,
          "internalType": "address",
          "name": "_operator",
          "type": "address"
        },
        {
          "indexed": true,
          "internalType": "address",
          "name": "_from",
          "type": "address"
        },
        {
          "indexed": true,
          "internalType": "address",
          "name": "_to",
          "type": "address"
        },
        {
          "indexed": false,
          "internalType": "uint256",
          "name": "_id",
          "type": "uint256"
        },
        {
          "indexed": false,
          "internalType": "uint256",
          "name": "_amount",
          "type": "uint256"
        }
      ],
      "name": "TransferSingle",
      "type": "event"
    },
    {
      "anonymous": false,
      "inputs": [
        {
          "indexed": false,
          "internalType": "string",
          "name": "_uri",
          "type": "string"
        },
        {
          "indexed": true,
          "internalType": "uint256",
          "name": "_id",
          "type": "uint256"
        }
      ],
      "name": "URI",
      "type": "event"
    },
    {
      "anonymous": false,
      "inputs": [
        {
          "indexed": false,
          "internalType": "string",
          "name": "_uri",
          "type": "string"
        },
        {
          "indexed": true,
          "internalType": "uint256",
          "name": "_id",
          "type": "uint256"
        }
      ],
      "name": "URI_ERC1155",
      "type": "event"
    },
    {
      "anonymous": false,
      "inputs": [
        {
          "indexed": true,
          "internalType": "address",
          "name": "account",
          "type": "address"
        }
      ],
      "name": "WhitelistAdminAdded",
      "type": "event"
    },
    {
      "anonymous": false,
      "inputs": [
        {
          "indexed": true,
          "internalType": "address",
          "name": "account",
          "type": "address"
        }
      ],
      "name": "WhitelistAdminRemoved",
      "type": "event"
    },
    {
      "inputs": [
        {
          "internalType": "address",
          "name": "account",
          "type": "address"
        }
      ],
      "name": "addMinter",
      "outputs": [],
      "stateMutability": "nonpayable",
      "type": "function"
    },
    {
      "inputs": [
        {
          "internalType": "address",
          "name": "account",
          "type": "address"
        }
      ],
      "name": "addWhitelistAdmin",
      "outputs": [],
      "stateMutability": "nonpayable",
      "type": "function"
    },
    {
      "inputs": [
        {
          "internalType": "address",
          "name": "_owner",
          "type": "address"
        },
        {
          "internalType": "uint256",
          "name": "_id",
          "type": "uint256"
        }
      ],
      "name": "balanceOf",
      "outputs": [
        {
          "internalType": "uint256",
          "name": "",
          "type": "uint256"
        }
      ],
      "stateMutability": "view",
      "type": "function"
    },
    {
      "inputs": [
        {
          "internalType": "address[]",
          "name": "_owners",
          "type": "address[]"
        },
        {
          "internalType": "uint256[]",
          "name": "_ids",
          "type": "uint256[]"
        }
      ],
      "name": "balanceOfBatch",
      "outputs": [
        {
          "internalType": "uint256[]",
          "name": "",
          "type": "uint256[]"
        }
      ],
      "stateMutability": "view",
      "type": "function"
    },
    {
      "inputs": [
        {
          "internalType": "uint256",
          "name": "_maxSupply",
          "type": "uint256"
        },
        {
          "internalType": "uint256",
          "name": "_initialSupply",
          "type": "uint256"
        },
        {
          "internalType": "uint256",
          "name": "_loyaltyFee",
          "type": "uint256"
        },
        {
          "internalType": "string",
          "name": "_uri",
          "type": "string"
        },
        {
          "internalType": "bytes",
          "name": "_data",
          "type": "bytes"
        }
      ],
      "name": "create",
      "outputs": [
        {
          "internalType": "uint256",
          "name": "tokenId",
          "type": "uint256"
        }
      ],
      "stateMutability": "nonpayable",
      "type": "function"
    },
    {
      "inputs": [
        {
          "internalType": "uint256",
          "name": "",
          "type": "uint256"
        }
      ],
      "name": "creators",
      "outputs": [
        {
          "internalType": "address",
          "name": "",
          "type": "address"
        }
      ],
      "stateMutability": "view",
      "type": "function"
    },
    {
      "inputs": [
        {
          "internalType": "uint256",
          "name": "_id",
          "type": "uint256"
        }
      ],
      "name": "getCreator",
      "outputs": [
        {
          "internalType": "address",
          "name": "",
          "type": "address"
        }
      ],
      "stateMutability": "view",
      "type": "function"
    },
    {
      "inputs": [
        {
          "internalType": "uint256",
          "name": "_id",
          "type": "uint256"
        }
      ],
      "name": "getLoyaltyFee",
      "outputs": [
        {
          "internalType": "uint256",
          "name": "",
          "type": "uint256"
        }
      ],
      "stateMutability": "view",
      "type": "function"
    },
    {
      "inputs": [
        {
          "internalType": "address",
          "name": "_owner",
          "type": "address"
        },
        {
          "internalType": "address",
          "name": "_operator",
          "type": "address"
        }
      ],
      "name": "isApprovedForAll",
      "outputs": [
        {
          "internalType": "bool",
          "name": "isOperator",
          "type": "bool"
        }
      ],
      "stateMutability": "view",
      "type": "function"
    },
    {
      "inputs": [
        {
          "internalType": "address",
          "name": "account",
          "type": "address"
        }
      ],
      "name": "isMinter",
      "outputs": [
        {
          "internalType": "bool",
          "name": "",
          "type": "bool"
        }
      ],
      "stateMutability": "view",
      "type": "function"
    },
    {
      "inputs": [
        {
          "internalType": "address",
          "name": "account",
          "type": "address"
        }
      ],
      "name": "isWhitelistAdmin",
      "outputs": [
        {
          "internalType": "bool",
          "name": "",
          "type": "bool"
        }
      ],
      "stateMutability": "view",
      "type": "function"
    },
    {
      "inputs": [
        {
          "internalType": "uint256",
          "name": "",
          "type": "uint256"
        }
      ],
      "name": "loyaltyFee",
      "outputs": [
        {
          "internalType": "uint256",
          "name": "",
          "type": "uint256"
        }
      ],
      "stateMutability": "view",
      "type": "function"
    },
    {
      "inputs": [
        {
          "internalType": "uint256",
          "name": "_id",
          "type": "uint256"
        }
      ],
      "name": "maxSupply",
      "outputs": [
        {
          "internalType": "uint256",
          "name": "",
          "type": "uint256"
        }
      ],
      "stateMutability": "view",
      "type": "function"
    },
    {
      "inputs": [
        {
          "internalType": "address",
          "name": "_to",
          "type": "address"
        },
        {
          "internalType": "uint256",
          "name": "_id",
          "type": "uint256"
        },
        {
          "internalType": "uint256",
          "name": "_quantity",
          "type": "uint256"
        },
        {
          "internalType": "bytes",
          "name": "_data",
          "type": "bytes"
        }
      ],
      "name": "mint",
      "outputs": [],
      "stateMutability": "nonpayable",
      "type": "function"
    },
    {
      "inputs": [],
      "name": "name",
      "outputs": [
        {
          "internalType": "string",
          "name": "",
          "type": "string"
        }
      ],
      "stateMutability": "view",
      "type": "function"
    },
    {
      "inputs": [],
      "name": "owner",
      "outputs": [
        {
          "internalType": "address",
          "name": "",
          "type": "address"
        }
      ],
      "stateMutability": "view",
      "type": "function"
    },
    {
      "inputs": [
        {
          "internalType": "address",
          "name": "account",
          "type": "address"
        }
      ],
      "name": "removeMinter",
      "outputs": [],
      "stateMutability": "nonpayable",
      "type": "function"
    },
    {
      "inputs": [
        {
          "internalType": "address",
          "name": "account",
          "type": "address"
        }
      ],
      "name": "removeWhitelistAdmin",
      "outputs": [],
      "stateMutability": "nonpayable",
      "type": "function"
    },
    {
      "inputs": [],
      "name": "renounceMinter",
      "outputs": [],
      "stateMutability": "nonpayable",
      "type": "function"
    },
    {
      "inputs": [],
      "name": "renounceOwnership",
      "outputs": [],
      "stateMutability": "nonpayable",
      "type": "function"
    },
    {
      "inputs": [],
      "name": "renounceWhitelistAdmin",
      "outputs": [],
      "stateMutability": "nonpayable",
      "type": "function"
    },
    {
      "inputs": [
        {
          "internalType": "address",
          "name": "_from",
          "type": "address"
        },
        {
          "internalType": "address",
          "name": "_to",
          "type": "address"
        },
        {
          "internalType": "uint256[]",
          "name": "_ids",
          "type": "uint256[]"
        },
        {
          "internalType": "uint256[]",
          "name": "_amounts",
          "type": "uint256[]"
        },
        {
          "internalType": "bytes",
          "name": "_data",
          "type": "bytes"
        }
      ],
      "name": "safeBatchTransferFrom",
      "outputs": [],
      "stateMutability": "nonpayable",
      "type": "function"
    },
    {
      "inputs": [
        {
          "internalType": "address",
          "name": "_from",
          "type": "address"
        },
        {
          "internalType": "address",
          "name": "_to",
          "type": "address"
        },
        {
          "internalType": "uint256",
          "name": "_id",
          "type": "uint256"
        },
        {
          "internalType": "uint256",
          "name": "_amount",
          "type": "uint256"
        },
        {
          "internalType": "bytes",
          "name": "_data",
          "type": "bytes"
        }
      ],
      "name": "safeTransferFrom",
      "outputs": [],
      "stateMutability": "nonpayable",
      "type": "function"
    },
    {
      "inputs": [
        {
          "internalType": "address",
          "name": "_operator",
          "type": "address"
        },
        {
          "internalType": "bool",
          "name": "_approved",
          "type": "bool"
        }
      ],
      "name": "setApprovalForAll",
      "outputs": [],
      "stateMutability": "nonpayable",
      "type": "function"
    },
    {
      "inputs": [
        {
          "internalType": "string",
          "name": "_newBaseMetadataURI",
          "type": "string"
        }
      ],
      "name": "setBaseMetadataURI",
      "outputs": [],
      "stateMutability": "nonpayable",
      "type": "function"
    },
    {
      "inputs": [
        {
          "internalType": "bytes4",
          "name": "_interfaceID",
          "type": "bytes4"
        }
      ],
      "name": "supportsInterface",
      "outputs": [
        {
          "internalType": "bool",
          "name": "",
          "type": "bool"
        }
      ],
      "stateMutability": "view",
      "type": "function"
    },
    {
      "inputs": [],
      "name": "symbol",
      "outputs": [
        {
          "internalType": "string",
          "name": "",
          "type": "string"
        }
      ],
      "stateMutability": "view",
      "type": "function"
    },
    {
      "inputs": [
        {
          "internalType": "uint256",
          "name": "",
          "type": "uint256"
        }
      ],
      "name": "tokenMaxSupply",
      "outputs": [
        {
          "internalType": "uint256",
          "name": "",
          "type": "uint256"
        }
      ],
      "stateMutability": "view",
      "type": "function"
    },
    {
      "inputs": [
        {
          "internalType": "uint256",
          "name": "",
          "type": "uint256"
        }
      ],
      "name": "tokenSupply",
      "outputs": [
        {
          "internalType": "uint256",
          "name": "",
          "type": "uint256"
        }
      ],
      "stateMutability": "view",
      "type": "function"
    },
    {
      "inputs": [
        {
          "internalType": "uint256",
          "name": "",
          "type": "uint256"
        }
      ],
      "name": "tokenURI",
      "outputs": [
        {
          "internalType": "string",
          "name": "",
          "type": "string"
        }
      ],
      "stateMutability": "view",
      "type": "function"
    },
    {
      "inputs": [
        {
          "internalType": "uint256",
          "name": "_id",
          "type": "uint256"
        }
      ],
      "name": "totalSupply",
      "outputs": [
        {
          "internalType": "uint256",
          "name": "",
          "type": "uint256"
        }
      ],
      "stateMutability": "view",
      "type": "function"
    },
    {
      "inputs": [
        {
          "internalType": "address",
          "name": "newOwner",
          "type": "address"
        }
      ],
      "name": "transferOwnership",
      "outputs": [],
      "stateMutability": "nonpayable",
      "type": "function"
    },
    {
      "inputs": [
        {
          "internalType": "uint256",
          "name": "id_",
          "type": "uint256"
        },
        {
          "internalType": "uint256",
          "name": "maxSupply_",
          "type": "uint256"
        }
      ],
      "name": "updateTokenMaxSupply",
      "outputs": [],
      "stateMutability": "nonpayable",
      "type": "function"
    },
    {
      "inputs": [
        {
          "internalType": "uint256",
          "name": "_id",
          "type": "uint256"
        }
      ],
      "name": "uri",
      "outputs": [
        {
          "internalType": "string",
          "name": "",
          "type": "string"
        }
      ],
      "stateMutability": "view",
      "type": "function"
    }
  ],
  "bytecode": "0x608060405260006007553480156200001657600080fd5b506040518060400160405280600881526020017f534f5441313135350000000000000000000000000000000000000000000000008152506040518060400160405280600881526020017f534f544131313535000000000000000000000000000000000000000000000000815250620000a3620000976200016360201b60201c565b6200016b60201b60201c565b620000c3620000b76200016360201b60201c565b6200023160201b60201c565b620000e3620000d76200016360201b60201c565b6200029260201b60201c565b81600d9080519060200190620000fb9291906200048d565b5080600e9080519060200190620001149291906200048d565b5050506200015d6040518060400160405280601781526020017f68747470733a2f2f6170692e736f746164782e636f6d2f000000000000000000815250620002f360201b60201c565b620006bd565b600033905090565b6000600360009054906101000a900473ffffffffffffffffffffffffffffffffffffffff16905081600360006101000a81548173ffffffffffffffffffffffffffffffffffffffff021916908373ffffffffffffffffffffffffffffffffffffffff1602179055508173ffffffffffffffffffffffffffffffffffffffff168173ffffffffffffffffffffffffffffffffffffffff167f8be0079c531659141344cd1fd0a4f28419497f9722a3daafe3b4186f6b6457e060405160405180910390a35050565b6200024c8160046200030f60201b62001a7d1790919060201c565b8073ffffffffffffffffffffffffffffffffffffffff167f6ae172837ea30b801fbfcdd4108aa1d5bf8ff775444fd70256b44e6bf3dfc3f660405160405180910390a250565b620002ad8160056200030f60201b62001a7d1790919060201c565b8073ffffffffffffffffffffffffffffffffffffffff167f22380c05984257a1cb900161c713dd71d39e74820f1aea43bd3f1bdd2096129960405160405180910390a250565b80600290805190602001906200030b9291906200048d565b5050565b620003218282620003c260201b60201c565b1562000364576040517f08c379a00000000000000000000000000000000000000000000000000000000081526004016200035b906200058b565b60405180910390fd5b60018260000160008373ffffffffffffffffffffffffffffffffffffffff1673ffffffffffffffffffffffffffffffffffffffff16815260200190815260200160002060006101000a81548160ff0219169083151502179055505050565b60008073ffffffffffffffffffffffffffffffffffffffff168273ffffffffffffffffffffffffffffffffffffffff16141562000436576040517f08c379a00000000000000000000000000000000000000000000000000000000081526004016200042d90620005ad565b60405180910390fd5b8260000160008373ffffffffffffffffffffffffffffffffffffffff1673ffffffffffffffffffffffffffffffffffffffff16815260200190815260200160002060009054906101000a900460ff16905092915050565b8280546200049b90620005e0565b90600052602060002090601f016020900481019282620004bf57600085556200050b565b82601f10620004da57805160ff19168380011785556200050b565b828001600101855582156200050b579182015b828111156200050a578251825591602001919060010190620004ed565b5b5090506200051a91906200051e565b5090565b5b80821115620005395760008160009055506001016200051f565b5090565b60006200054c601f83620005cf565b9150620005598262000645565b602082019050919050565b600062000573602283620005cf565b915062000580826200066e565b604082019050919050565b60006020820190508181036000830152620005a6816200053d565b9050919050565b60006020820190508181036000830152620005c88162000564565b9050919050565b600082825260208201905092915050565b60006002820490506001821680620005f957607f821691505b6020821081141562000610576200060f62000616565b5b50919050565b7f4e487b7100000000000000000000000000000000000000000000000000000000600052602260045260246000fd5b7f526f6c65733a206163636f756e7420616c72656164792068617320726f6c6500600082015250565b7f526f6c65733a206163636f756e7420697320746865207a65726f20616464726560008201527f7373000000000000000000000000000000000000000000000000000000000000602082015250565b614df780620006cd6000396000f3fe608060405234801561001057600080fd5b50600436106102045760003560e01c80637e518ec81161011a578063aa271e1a116100ad578063cd53d08e1161007c578063cd53d08e1461061d578063d48e638a1461064d578063e985e9c51461067d578063f242432a146106ad578063f2fde38b146106c957610204565b8063aa271e1a1461055d578063bb5f747b1461058d578063bd85b039146105bd578063c87b56dd146105ed57610204565b806395d89b41116100e957806395d89b41146104fd578063983b2d561461051b5780639865027514610537578063a22cb4651461054157610204565b80637e518ec814610477578063869f7594146104935780638da5cb5b146104c35780638dfea8db146104e157610204565b80633092afd51161019d5780635d4205331161016c5780635d420533146103e95780636897e97414610419578063715018a614610435578063731133e91461043f5780637362d9c81461045b57610204565b80633092afd5146103635780634698bf351461037f5780634c5a628c146103af5780634e1273f4146103b957610204565b80630e89341c116101d95780630e89341c146102b7578063240d7045146102e75780632693ebf2146103175780632eb2c2d61461034757610204565b80624221f014610209578062fdd58e1461023957806301ffc9a71461026957806306fdde0314610299575b600080fd5b610223600480360381019061021e9190613918565b6106e5565b6040516102309190614294565b60405180910390f35b610253600480360381019061024e9190613739565b6106fd565b6040516102609190614294565b60405180910390f35b610283600480360381019061027e919061385c565b610757565b6040516102909190613f93565b60405180910390f35b6102a1610808565b6040516102ae9190613fd2565b60405180910390f35b6102d160048036038101906102cc9190613918565b610896565b6040516102de9190613fd2565b60405180910390f35b61030160048036038101906102fc9190613918565b610983565b60405161030e9190614294565b60405180910390f35b610331600480360381019061032c9190613918565b61099b565b60405161033e9190614294565b60405180910390f35b610361600480360381019061035c91906135af565b6109b3565b005b61037d6004803603810190610378919061354a565b610ac2565b005b6103996004803603810190610394919061397d565b610b4a565b6040516103a69190614294565b60405180910390f35b6103b7610d61565b005b6103d360048036038101906103ce91906137f0565b610d73565b6040516103e09190613f3a565b60405180910390f35b61040360048036038101906103fe9190613918565b610f6c565b6040516104109190614294565b60405180910390f35b610433600480360381019061042e919061354a565b610f89565b005b61043d611011565b005b61045960048036038101906104549190613775565b611099565b005b6104756004803603810190610470919061354a565b6111b8565b005b610491600480360381019061048c91906138d7565b611213565b005b6104ad60048036038101906104a89190613918565b61126e565b6040516104ba9190614294565b60405180910390f35b6104cb61128b565b6040516104d89190613e5d565b60405180910390f35b6104fb60048036038101906104f69190613941565b6112b5565b005b6105056113be565b6040516105129190613fd2565b60405180910390f35b6105356004803603810190610530919061354a565b61144c565b005b61053f6114a7565b005b61055b600480360381019061055691906136fd565b6114b9565b005b6105776004803603810190610572919061354a565b6115b6565b6040516105849190613f93565b60405180910390f35b6105a760048036038101906105a2919061354a565b6115d3565b6040516105b49190613f93565b60405180910390f35b6105d760048036038101906105d29190613918565b6115f0565b6040516105e49190614294565b60405180910390f35b61060760048036038101906106029190613918565b61160d565b6040516106149190613fd2565b60405180910390f35b61063760048036038101906106329190613918565b6116ad565b6040516106449190613e5d565b60405180910390f35b61066760048036038101906106629190613918565b6116e0565b6040516106749190613e5d565b60405180910390f35b61069760048036038101906106929190613573565b61171d565b6040516106a49190613f93565b60405180910390f35b6106c760048036038101906106c2919061366e565b611876565b005b6106e360048036038101906106de919061354a565b611985565b005b600a6020528060005260406000206000915090505481565b60008060008473ffffffffffffffffffffffffffffffffffffffff1673ffffffffffffffffffffffffffffffffffffffff168152602001908152602001600020600083815260200190815260200160002054905092915050565b60006301ffc9a760e01b7bffffffffffffffffffffffffffffffffffffffffffffffffffffffff1916827bffffffffffffffffffffffffffffffffffffffffffffffffffffffff191614806107f0575063d9b67a2660e01b7bffffffffffffffffffffffffffffffffffffffffffffffffffffffff1916827bffffffffffffffffffffffffffffffffffffffffffffffffffffffff1916145b156107fe5760019050610803565b600090505b919050565b600d8054610815906145e7565b80601f0160208091040260200160405190810160405280929190818152602001828054610841906145e7565b801561088e5780601f106108635761010080835404028352916020019161088e565b820191906000526020600020905b81548152906001019060200180831161087157829003601f168201915b505050505081565b60606108a182611b25565b6108e0576040517f08c379a00000000000000000000000000000000000000000000000000000000081526004016108d790614134565b60405180910390fd5b61097c600280546108f0906145e7565b80601f016020809104026020016040519081016040528092919081815260200182805461091c906145e7565b80156109695780601f1061093e57610100808354040283529160200191610969565b820191906000526020600020905b81548152906001019060200180831161094c57829003601f168201915b505050505061097784611b91565b611d4d565b9050919050565b600b6020528060005260406000206000915090505481565b60096020528060005260406000206000915090505481565b8473ffffffffffffffffffffffffffffffffffffffff163373ffffffffffffffffffffffffffffffffffffffff1614806109f357506109f2853361171d565b5b610a32576040517f08c379a0000000000000000000000000000000000000000000000000000000008152600401610a29906141f4565b60405180910390fd5b600073ffffffffffffffffffffffffffffffffffffffff168473ffffffffffffffffffffffffffffffffffffffff161415610aa2576040517f08c379a0000000000000000000000000000000000000000000000000000000008152600401610a9990614114565b60405180910390fd5b610aae85858585611d91565b610abb8585858585612169565b5050505050565b610aca6122b4565b73ffffffffffffffffffffffffffffffffffffffff16610ae861128b565b73ffffffffffffffffffffffffffffffffffffffff1614610b3e576040517f08c379a0000000000000000000000000000000000000000000000000000000008152600401610b3590614154565b60405180910390fd5b610b47816122bc565b50565b600087871115610b8f576040517f08c379a0000000000000000000000000000000000000000000000000000000008152600401610b8690614174565b60405180910390fd5b85600011158015610ba257506127108611155b610be1576040517f08c379a0000000000000000000000000000000000000000000000000000000008152600401610bd890614214565b60405180910390fd5b6000610beb612316565b9050610bf5612333565b336008600083815260200190815260200160002060006101000a81548173ffffffffffffffffffffffffffffffffffffffff021916908373ffffffffffffffffffffffffffffffffffffffff16021790555086600b6000838152602001908152602001600020819055508585600c60008481526020019081526020016000209190610c81929190613113565b506000868690501115610cc957807f6bb7ff708619ba0610cba295a58592e0451dee2622938c8755667688daf3529b8787604051610cc0929190613fae565b60405180910390a25b60008814610d2257610d2133828a87878080601f016020809104026020016040519081016040528093929190818152602001838380828437600081840152601f19601f8201169050808301925050505050505061234d565b5b87600960008381526020019081526020016000208190555088600a60008381526020019081526020016000208190555080915050979650505050505050565b610d71610d6c6122b4565b612495565b565b60608151835114610db9576040517f08c379a0000000000000000000000000000000000000000000000000000000008152600401610db0906141d4565b60405180910390fd5b6000835167ffffffffffffffff811115610dfc577f4e487b7100000000000000000000000000000000000000000000000000000000600052604160045260246000fd5b604051908082528060200260200182016040528015610e2a5781602001602082028036833780820191505090505b50905060005b8451811015610f6157600080868381518110610e75577f4e487b7100000000000000000000000000000000000000000000000000000000600052603260045260246000fd5b602002602001015173ffffffffffffffffffffffffffffffffffffffff1673ffffffffffffffffffffffffffffffffffffffff1681526020019081526020016000206000858381518110610ef2577f4e487b7100000000000000000000000000000000000000000000000000000000600052603260045260246000fd5b6020026020010151815260200190815260200160002054828281518110610f42577f4e487b7100000000000000000000000000000000000000000000000000000000600052603260045260246000fd5b6020026020010181815250508080610f599061464a565b915050610e30565b508091505092915050565b6000600b6000838152602001908152602001600020549050919050565b610f916122b4565b73ffffffffffffffffffffffffffffffffffffffff16610faf61128b565b73ffffffffffffffffffffffffffffffffffffffff1614611005576040517f08c379a0000000000000000000000000000000000000000000000000000000008152600401610ffc90614154565b60405180910390fd5b61100e81612495565b50565b6110196122b4565b73ffffffffffffffffffffffffffffffffffffffff1661103761128b565b73ffffffffffffffffffffffffffffffffffffffff161461108d576040517f08c379a000000000000000000000000000000000000000000000000000000000815260040161108490614154565b60405180910390fd5b61109760006124ef565b565b6110a96110a46122b4565b6115b6565b6110e8576040517f08c379a00000000000000000000000000000000000000000000000000000000081526004016110df906140d4565b60405180910390fd5b6000839050600a6000828152602001908152602001600020546111278460096000858152602001908152602001600020546125b590919063ffffffff16565b1115611168576040517f08c379a000000000000000000000000000000000000000000000000000000000815260040161115f90614234565b60405180910390fd5b6111748585858561234d565b61119a8360096000878152602001908152602001600020546125b590919063ffffffff16565b60096000868152602001908152602001600020819055505050505050565b6111c86111c36122b4565b6115d3565b611207576040517f08c379a00000000000000000000000000000000000000000000000000000000081526004016111fe906141b4565b60405180910390fd5b611210816125cb565b50565b61122361121e6122b4565b6115d3565b611262576040517f08c379a0000000000000000000000000000000000000000000000000000000008152600401611259906141b4565b60405180910390fd5b61126b81612625565b50565b6000600a6000838152602001908152602001600020549050919050565b6000600360009054906101000a900473ffffffffffffffffffffffffffffffffffffffff16905090565b6112c56112c06122b4565b6115d3565b611304576040517f08c379a00000000000000000000000000000000000000000000000000000000081526004016112fb906141b4565b60405180910390fd5b61130d82611b25565b61134c576040517f08c379a0000000000000000000000000000000000000000000000000000000008152600401611343906140b4565b60405180910390fd5b80600960008481526020019081526020016000205411156113a2576040517f08c379a000000000000000000000000000000000000000000000000000000000815260040161139990614074565b60405180910390fd5b80600a6000848152602001908152602001600020819055505050565b600e80546113cb906145e7565b80601f01602080910402602001604051908101604052809291908181526020018280546113f7906145e7565b80156114445780601f1061141957610100808354040283529160200191611444565b820191906000526020600020905b81548152906001019060200180831161142757829003601f168201915b505050505081565b61145c6114576122b4565b6115b6565b61149b576040517f08c379a0000000000000000000000000000000000000000000000000000000008152600401611492906140d4565b60405180910390fd5b6114a48161263f565b50565b6114b76114b26122b4565b6122bc565b565b80600160003373ffffffffffffffffffffffffffffffffffffffff1673ffffffffffffffffffffffffffffffffffffffff16815260200190815260200160002060008473ffffffffffffffffffffffffffffffffffffffff1673ffffffffffffffffffffffffffffffffffffffff16815260200190815260200160002060006101000a81548160ff0219169083151502179055508173ffffffffffffffffffffffffffffffffffffffff163373ffffffffffffffffffffffffffffffffffffffff167f17307eab39ab6107e8899845ad3d59bd9653f200f220920489ca2b5937696c31836040516115aa9190613f93565b60405180910390a35050565b60006115cc82600461269990919063ffffffff16565b9050919050565b60006115e982600561269990919063ffffffff16565b9050919050565b600060096000838152602001908152602001600020549050919050565b600c602052806000526040600020600091509050805461162c906145e7565b80601f0160208091040260200160405190810160405280929190818152602001828054611658906145e7565b80156116a55780601f1061167a576101008083540402835291602001916116a5565b820191906000526020600020905b81548152906001019060200180831161168857829003601f168201915b505050505081565b60086020528060005260406000206000915054906101000a900473ffffffffffffffffffffffffffffffffffffffff1681565b60006008600083815260200190815260200160002060009054906101000a900473ffffffffffffffffffffffffffffffffffffffff169050919050565b60008073ffffffffffffffffffffffffffffffffffffffff16600660009054906101000a900473ffffffffffffffffffffffffffffffffffffffff1673ffffffffffffffffffffffffffffffffffffffff1614611863576000600660009054906101000a900473ffffffffffffffffffffffffffffffffffffffff1690508273ffffffffffffffffffffffffffffffffffffffff168173ffffffffffffffffffffffffffffffffffffffff1663c4552791866040518263ffffffff1660e01b81526004016117eb9190613e5d565b60206040518083038186803b15801561180357600080fd5b505afa158015611817573d6000803e3d6000fd5b505050506040513d601f19601f8201168201806040525081019061183b91906138ae565b73ffffffffffffffffffffffffffffffffffffffff161415611861576001915050611870565b505b61186d8383612761565b90505b92915050565b8473ffffffffffffffffffffffffffffffffffffffff163373ffffffffffffffffffffffffffffffffffffffff1614806118b657506118b5853361171d565b5b6118f5576040517f08c379a00000000000000000000000000000000000000000000000000000000081526004016118ec90614054565b60405180910390fd5b600073ffffffffffffffffffffffffffffffffffffffff168473ffffffffffffffffffffffffffffffffffffffff161415611965576040517f08c379a000000000000000000000000000000000000000000000000000000000815260040161195c90613ff4565b60405180910390fd5b611971858585856127f5565b61197e85858585856129e3565b5050505050565b61198d6122b4565b73ffffffffffffffffffffffffffffffffffffffff166119ab61128b565b73ffffffffffffffffffffffffffffffffffffffff1614611a01576040517f08c379a00000000000000000000000000000000000000000000000000000000081526004016119f890614154565b60405180910390fd5b600073ffffffffffffffffffffffffffffffffffffffff168173ffffffffffffffffffffffffffffffffffffffff161415611a71576040517f08c379a0000000000000000000000000000000000000000000000000000000008152600401611a6890614034565b60405180910390fd5b611a7a816124ef565b50565b611a878282612699565b15611ac7576040517f08c379a0000000000000000000000000000000000000000000000000000000008152600401611abe90614014565b60405180910390fd5b60018260000160008373ffffffffffffffffffffffffffffffffffffffff1673ffffffffffffffffffffffffffffffffffffffff16815260200190815260200160002060006101000a81548160ff0219169083151502179055505050565b60008073ffffffffffffffffffffffffffffffffffffffff166008600084815260200190815260200160002060009054906101000a900473ffffffffffffffffffffffffffffffffffffffff1673ffffffffffffffffffffffffffffffffffffffff1614159050919050565b60606000821415611bd9576040518060400160405280600181526020017f30000000000000000000000000000000000000000000000000000000000000008152509050611d48565b600082905060005b60008214611c0b578080611bf49061464a565b915050600a82611c04919061447e565b9150611be1565b60008167ffffffffffffffff811115611c4d577f4e487b7100000000000000000000000000000000000000000000000000000000600052604160045260246000fd5b6040519080825280601f01601f191660200182016040528015611c7f5781602001600182028036833780820191505090505b5090506000600183611c9191906144af565b90505b60008614611d4057600a86611ca99190614693565b6030611cb59190614428565b60f81b828280611cc4906145bd565b935081518110611cfd577f4e487b7100000000000000000000000000000000000000000000000000000000600052603260045260246000fd5b60200101907effffffffffffffffffffffffffffffffffffffffffffffffffffffffffffff1916908160001a905350600a86611d39919061447e565b9550611c94565b819450505050505b919050565b6060611d898383604051806020016040528060008152506040518060200160405280600081525060405180602001604052806000815250612b2e565b905092915050565b8051825114611dd5576040517f08c379a0000000000000000000000000000000000000000000000000000000008152600401611dcc90614094565b60405180910390fd5b60008251905060005b818110156120e357611ec8838281518110611e22577f4e487b7100000000000000000000000000000000000000000000000000000000600052603260045260246000fd5b60200260200101516000808973ffffffffffffffffffffffffffffffffffffffff1673ffffffffffffffffffffffffffffffffffffffff1681526020019081526020016000206000878581518110611ea3577f4e487b7100000000000000000000000000000000000000000000000000000000600052603260045260246000fd5b602002602001015181526020019081526020016000205461304390919063ffffffff16565b6000808873ffffffffffffffffffffffffffffffffffffffff1673ffffffffffffffffffffffffffffffffffffffff1681526020019081526020016000206000868481518110611f41577f4e487b7100000000000000000000000000000000000000000000000000000000600052603260045260246000fd5b602002602001015181526020019081526020016000208190555061203d838281518110611f97577f4e487b7100000000000000000000000000000000000000000000000000000000600052603260045260246000fd5b60200260200101516000808873ffffffffffffffffffffffffffffffffffffffff1673ffffffffffffffffffffffffffffffffffffffff1681526020019081526020016000206000878581518110612018577f4e487b7100000000000000000000000000000000000000000000000000000000600052603260045260246000fd5b60200260200101518152602001908152602001600020546125b590919063ffffffff16565b6000808773ffffffffffffffffffffffffffffffffffffffff1673ffffffffffffffffffffffffffffffffffffffff16815260200190815260200160002060008684815181106120b6577f4e487b7100000000000000000000000000000000000000000000000000000000600052603260045260246000fd5b602002602001015181526020019081526020016000208190555080806120db9061464a565b915050611dde565b508373ffffffffffffffffffffffffffffffffffffffff168573ffffffffffffffffffffffffffffffffffffffff163373ffffffffffffffffffffffffffffffffffffffff167f4a39dc06d4c0dbc64b70af90fd698a233a518aa5d07e595d983b8c0526c8f7fb868660405161215a929190613f5c565b60405180910390a45050505050565b6121888473ffffffffffffffffffffffffffffffffffffffff16613059565b156122ad5760008473ffffffffffffffffffffffffffffffffffffffff1663bc197c8133888787876040518663ffffffff1660e01b81526004016121d0959493929190613e78565b602060405180830381600087803b1580156121ea57600080fd5b505af11580156121fe573d6000803e3d6000fd5b505050506040513d601f19601f820116820180604052508101906122229190613885565b905063bc197c8160e01b7bffffffffffffffffffffffffffffffffffffffffffffffffffffffff1916817bffffffffffffffffffffffffffffffffffffffffffffffffffffffff1916146122ab576040517f08c379a00000000000000000000000000000000000000000000000000000000081526004016122a290614254565b60405180910390fd5b505b5050505050565b600033905090565b6122d081600461306c90919063ffffffff16565b8073ffffffffffffffffffffffffffffffffffffffff167fe94479a9f7e1952cc78f2d6baab678adc1b772d936c6583def489e524cb6669260405160405180910390a250565b600061232e60016007546125b590919063ffffffff16565b905090565b600760008154809291906123469061464a565b9190505550565b6123af826000808773ffffffffffffffffffffffffffffffffffffffff1673ffffffffffffffffffffffffffffffffffffffff1681526020019081526020016000206000868152602001908152602001600020546125b590919063ffffffff16565b6000808673ffffffffffffffffffffffffffffffffffffffff1673ffffffffffffffffffffffffffffffffffffffff1681526020019081526020016000206000858152602001908152602001600020819055508373ffffffffffffffffffffffffffffffffffffffff16600073ffffffffffffffffffffffffffffffffffffffff163373ffffffffffffffffffffffffffffffffffffffff167fc3d58168c5ae7397731d063d5bbf3d657854427343f4c083240f7aacaa2d0f6286866040516124799291906142af565b60405180910390a461248f6000858585856129e3565b50505050565b6124a981600561306c90919063ffffffff16565b8073ffffffffffffffffffffffffffffffffffffffff167f0a8eb35e5ca14b3d6f28e4abf2f128dbab231a58b56e89beb5d636115001e16560405160405180910390a250565b6000600360009054906101000a900473ffffffffffffffffffffffffffffffffffffffff16905081600360006101000a81548173ffffffffffffffffffffffffffffffffffffffff021916908373ffffffffffffffffffffffffffffffffffffffff1602179055508173ffffffffffffffffffffffffffffffffffffffff168173ffffffffffffffffffffffffffffffffffffffff167f8be0079c531659141344cd1fd0a4f28419497f9722a3daafe3b4186f6b6457e060405160405180910390a35050565b600081836125c39190614428565b905092915050565b6125df816005611a7d90919063ffffffff16565b8073ffffffffffffffffffffffffffffffffffffffff167f22380c05984257a1cb900161c713dd71d39e74820f1aea43bd3f1bdd2096129960405160405180910390a250565b806002908051906020019061263b929190613199565b5050565b612653816004611a7d90919063ffffffff16565b8073ffffffffffffffffffffffffffffffffffffffff167f6ae172837ea30b801fbfcdd4108aa1d5bf8ff775444fd70256b44e6bf3dfc3f660405160405180910390a250565b60008073ffffffffffffffffffffffffffffffffffffffff168273ffffffffffffffffffffffffffffffffffffffff16141561270a576040517f08c379a000000000000000000000000000000000000000000000000000000000815260040161270190614194565b60405180910390fd5b8260000160008373ffffffffffffffffffffffffffffffffffffffff1673ffffffffffffffffffffffffffffffffffffffff16815260200190815260200160002060009054906101000a900460ff16905092915050565b6000600160008473ffffffffffffffffffffffffffffffffffffffff1673ffffffffffffffffffffffffffffffffffffffff16815260200190815260200160002060008373ffffffffffffffffffffffffffffffffffffffff1673ffffffffffffffffffffffffffffffffffffffff16815260200190815260200160002060009054906101000a900460ff16905092915050565b612857816000808773ffffffffffffffffffffffffffffffffffffffff1673ffffffffffffffffffffffffffffffffffffffff16815260200190815260200160002060008581526020019081526020016000205461304390919063ffffffff16565b6000808673ffffffffffffffffffffffffffffffffffffffff1673ffffffffffffffffffffffffffffffffffffffff16815260200190815260200160002060008481526020019081526020016000208190555061290c816000808673ffffffffffffffffffffffffffffffffffffffff1673ffffffffffffffffffffffffffffffffffffffff1681526020019081526020016000206000858152602001908152602001600020546125b590919063ffffffff16565b6000808573ffffffffffffffffffffffffffffffffffffffff1673ffffffffffffffffffffffffffffffffffffffff1681526020019081526020016000206000848152602001908152602001600020819055508273ffffffffffffffffffffffffffffffffffffffff168473ffffffffffffffffffffffffffffffffffffffff163373ffffffffffffffffffffffffffffffffffffffff167fc3d58168c5ae7397731d063d5bbf3d657854427343f4c083240f7aacaa2d0f6285856040516129d59291906142af565b60405180910390a450505050565b612a028473ffffffffffffffffffffffffffffffffffffffff16613059565b15612b275760008473ffffffffffffffffffffffffffffffffffffffff1663f23a6e6133888787876040518663ffffffff1660e01b8152600401612a4a959493929190613ee0565b602060405180830381600087803b158015612a6457600080fd5b505af1158015612a78573d6000803e3d6000fd5b505050506040513d601f19601f82011682018060405250810190612a9c9190613885565b905063f23a6e6160e01b7bffffffffffffffffffffffffffffffffffffffffffffffffffffffff1916817bffffffffffffffffffffffffffffffffffffffffffffffffffffffff191614612b25576040517f08c379a0000000000000000000000000000000000000000000000000000000008152600401612b1c90614274565b60405180910390fd5b505b5050505050565b606060008690506000869050600086905060008690506000869050600081518351855187518951612b5f9190614428565b612b699190614428565b612b739190614428565b612b7d9190614428565b67ffffffffffffffff811115612bbc577f4e487b7100000000000000000000000000000000000000000000000000000000600052604160045260246000fd5b6040519080825280601f01601f191660200182016040528015612bee5781602001600182028036833780820191505090505b50905060008190506000805b8851811015612cce57888181518110612c3c577f4e487b7100000000000000000000000000000000000000000000000000000000600052603260045260246000fd5b602001015160f81c60f81b838380612c539061464a565b945081518110612c8c577f4e487b7100000000000000000000000000000000000000000000000000000000600052603260045260246000fd5b60200101907effffffffffffffffffffffffffffffffffffffffffffffffffffffffffffff1916908160001a9053508080612cc69061464a565b915050612bfa565b5060005b8751811015612da657878181518110612d14577f4e487b7100000000000000000000000000000000000000000000000000000000600052603260045260246000fd5b602001015160f81c60f81b838380612d2b9061464a565b945081518110612d64577f4e487b7100000000000000000000000000000000000000000000000000000000600052603260045260246000fd5b60200101907effffffffffffffffffffffffffffffffffffffffffffffffffffffffffffff1916908160001a9053508080612d9e9061464a565b915050612cd2565b5060005b8651811015612e7e57868181518110612dec577f4e487b7100000000000000000000000000000000000000000000000000000000600052603260045260246000fd5b602001015160f81c60f81b838380612e039061464a565b945081518110612e3c577f4e487b7100000000000000000000000000000000000000000000000000000000600052603260045260246000fd5b60200101907effffffffffffffffffffffffffffffffffffffffffffffffffffffffffffff1916908160001a9053508080612e769061464a565b915050612daa565b5060005b8551811015612f5657858181518110612ec4577f4e487b7100000000000000000000000000000000000000000000000000000000600052603260045260246000fd5b602001015160f81c60f81b838380612edb9061464a565b945081518110612f14577f4e487b7100000000000000000000000000000000000000000000000000000000600052603260045260246000fd5b60200101907effffffffffffffffffffffffffffffffffffffffffffffffffffffffffffff1916908160001a9053508080612f4e9061464a565b915050612e82565b5060005b845181101561302e57848181518110612f9c577f4e487b7100000000000000000000000000000000000000000000000000000000600052603260045260246000fd5b602001015160f81c60f81b838380612fb39061464a565b945081518110612fec577f4e487b7100000000000000000000000000000000000000000000000000000000600052603260045260246000fd5b60200101907effffffffffffffffffffffffffffffffffffffffffffffffffffffffffffff1916908160001a90535080806130269061464a565b915050612f5a565b50819850505050505050505095945050505050565b6000818361305191906144af565b905092915050565b600080823b905060008111915050919050565b6130768282612699565b6130b5576040517f08c379a00000000000000000000000000000000000000000000000000000000081526004016130ac906140f4565b60405180910390fd5b60008260000160008373ffffffffffffffffffffffffffffffffffffffff1673ffffffffffffffffffffffffffffffffffffffff16815260200190815260200160002060006101000a81548160ff0219169083151502179055505050565b82805461311f906145e7565b90600052602060002090601f0160209004810192826131415760008555613188565b82601f1061315a57803560ff1916838001178555613188565b82800160010185558215613188579182015b8281111561318757823582559160200191906001019061316c565b5b509050613195919061321f565b5090565b8280546131a5906145e7565b90600052602060002090601f0160209004810192826131c7576000855561320e565b82601f106131e057805160ff191683800117855561320e565b8280016001018555821561320e579182015b8281111561320d5782518255916020019190600101906131f2565b5b50905061321b919061321f565b5090565b5b80821115613238576000816000905550600101613220565b5090565b600061324f61324a846142fd565b6142d8565b9050808382526020820190508285602086028201111561326e57600080fd5b60005b8581101561329e57816132848882613390565b845260208401935060208301925050600181019050613271565b5050509392505050565b60006132bb6132b684614329565b6142d8565b905080838252602082019050828560208602820111156132da57600080fd5b60005b8581101561330a57816132f08882613535565b8452602084019350602083019250506001810190506132dd565b5050509392505050565b600061332761332284614355565b6142d8565b90508281526020810184848401111561333f57600080fd5b61334a84828561457b565b509392505050565b600061336561336084614386565b6142d8565b90508281526020810184848401111561337d57600080fd5b61338884828561457b565b509392505050565b60008135905061339f81614d4e565b92915050565b600082601f8301126133b657600080fd5b81356133c684826020860161323c565b91505092915050565b600082601f8301126133e057600080fd5b81356133f08482602086016132a8565b91505092915050565b60008135905061340881614d65565b92915050565b60008135905061341d81614d7c565b92915050565b60008151905061343281614d7c565b92915050565b60008083601f84011261344a57600080fd5b8235905067ffffffffffffffff81111561346357600080fd5b60208301915083600182028301111561347b57600080fd5b9250929050565b600082601f83011261349357600080fd5b81356134a3848260208601613314565b91505092915050565b6000815190506134bb81614d93565b92915050565b60008083601f8401126134d357600080fd5b8235905067ffffffffffffffff8111156134ec57600080fd5b60208301915083600182028301111561350457600080fd5b9250929050565b600082601f83011261351c57600080fd5b813561352c848260208601613352565b91505092915050565b60008135905061354481614daa565b92915050565b60006020828403121561355c57600080fd5b600061356a84828501613390565b91505092915050565b6000806040838503121561358657600080fd5b600061359485828601613390565b92505060206135a585828601613390565b9150509250929050565b600080600080600060a086880312156135c757600080fd5b60006135d588828901613390565b95505060206135e688828901613390565b945050604086013567ffffffffffffffff81111561360357600080fd5b61360f888289016133cf565b935050606086013567ffffffffffffffff81111561362c57600080fd5b613638888289016133cf565b925050608086013567ffffffffffffffff81111561365557600080fd5b61366188828901613482565b9150509295509295909350565b600080600080600060a0868803121561368657600080fd5b600061369488828901613390565b95505060206136a588828901613390565b94505060406136b688828901613535565b93505060606136c788828901613535565b925050608086013567ffffffffffffffff8111156136e457600080fd5b6136f088828901613482565b9150509295509295909350565b6000806040838503121561371057600080fd5b600061371e85828601613390565b925050602061372f858286016133f9565b9150509250929050565b6000806040838503121561374c57600080fd5b600061375a85828601613390565b925050602061376b85828601613535565b9150509250929050565b6000806000806080858703121561378b57600080fd5b600061379987828801613390565b94505060206137aa87828801613535565b93505060406137bb87828801613535565b925050606085013567ffffffffffffffff8111156137d857600080fd5b6137e487828801613482565b91505092959194509250565b6000806040838503121561380357600080fd5b600083013567ffffffffffffffff81111561381d57600080fd5b613829858286016133a5565b925050602083013567ffffffffffffffff81111561384657600080fd5b613852858286016133cf565b9150509250929050565b60006020828403121561386e57600080fd5b600061387c8482850161340e565b91505092915050565b60006020828403121561389757600080fd5b60006138a584828501613423565b91505092915050565b6000602082840312156138c057600080fd5b60006138ce848285016134ac565b91505092915050565b6000602082840312156138e957600080fd5b600082013567ffffffffffffffff81111561390357600080fd5b61390f8482850161350b565b91505092915050565b60006020828403121561392a57600080fd5b600061393884828501613535565b91505092915050565b6000806040838503121561395457600080fd5b600061396285828601613535565b925050602061397385828601613535565b9150509250929050565b600080600080600080600060a0888a03121561399857600080fd5b60006139a68a828b01613535565b97505060206139b78a828b01613535565b96505060406139c88a828b01613535565b955050606088013567ffffffffffffffff8111156139e557600080fd5b6139f18a828b016134c1565b9450945050608088013567ffffffffffffffff811115613a1057600080fd5b613a1c8a828b01613438565b925092505092959891949750929550565b6000613a398383613e3f565b60208301905092915050565b613a4e816144e3565b82525050565b6000613a5f826143c7565b613a6981856143f5565b9350613a74836143b7565b8060005b83811015613aa5578151613a8c8882613a2d565b9750613a97836143e8565b925050600181019050613a78565b5085935050505092915050565b613abb81614507565b82525050565b6000613acc826143d2565b613ad68185614406565b9350613ae681856020860161458a565b613aef81614780565b840191505092915050565b6000613b068385614417565b9350613b1383858461457b565b613b1c83614780565b840190509392505050565b6000613b32826143dd565b613b3c8185614417565b9350613b4c81856020860161458a565b613b5581614780565b840191505092915050565b6000613b6d602b83614417565b9150613b7882614791565b604082019050919050565b6000613b90601f83614417565b9150613b9b826147e0565b602082019050919050565b6000613bb3602683614417565b9150613bbe82614809565b604082019050919050565b6000613bd6602a83614417565b9150613be182614858565b604082019050919050565b6000613bf9601e83614417565b9150613c04826148a7565b602082019050919050565b6000613c1c603583614417565b9150613c27826148d0565b604082019050919050565b6000613c3f603783614417565b9150613c4a8261491f565b604082019050919050565b6000613c62603083614417565b9150613c6d8261496e565b604082019050919050565b6000613c85602183614417565b9150613c90826149bd565b604082019050919050565b6000613ca8603083614417565b9150613cb382614a0c565b604082019050919050565b6000613ccb602583614417565b9150613cd682614a5b565b604082019050919050565b6000613cee602083614417565b9150613cf982614aaa565b602082019050919050565b6000613d11602d83614417565b9150613d1c82614ad3565b604082019050919050565b6000613d34602283614417565b9150613d3f82614b22565b604082019050919050565b6000613d57604083614417565b9150613d6282614b71565b604082019050919050565b6000613d7a602c83614417565b9150613d8582614bc0565b604082019050919050565b6000613d9d602f83614417565b9150613da882614c0f565b604082019050919050565b6000613dc0601383614417565b9150613dcb82614c5e565b602082019050919050565b6000613de3601283614417565b9150613dee82614c87565b602082019050919050565b6000613e06603f83614417565b9150613e1182614cb0565b604082019050919050565b6000613e29603a83614417565b9150613e3482614cff565b604082019050919050565b613e4881614571565b82525050565b613e5781614571565b82525050565b6000602082019050613e726000830184613a45565b92915050565b600060a082019050613e8d6000830188613a45565b613e9a6020830187613a45565b8181036040830152613eac8186613a54565b90508181036060830152613ec08185613a54565b90508181036080830152613ed48184613ac1565b90509695505050505050565b600060a082019050613ef56000830188613a45565b613f026020830187613a45565b613f0f6040830186613e4e565b613f1c6060830185613e4e565b8181036080830152613f2e8184613ac1565b90509695505050505050565b60006020820190508181036000830152613f548184613a54565b905092915050565b60006040820190508181036000830152613f768185613a54565b90508181036020830152613f8a8184613a54565b90509392505050565b6000602082019050613fa86000830184613ab2565b92915050565b60006020820190508181036000830152613fc9818486613afa565b90509392505050565b60006020820190508181036000830152613fec8184613b27565b905092915050565b6000602082019050818103600083015261400d81613b60565b9050919050565b6000602082019050818103600083015261402d81613b83565b9050919050565b6000602082019050818103600083015261404d81613ba6565b9050919050565b6000602082019050818103600083015261406d81613bc9565b9050919050565b6000602082019050818103600083015261408d81613bec565b9050919050565b600060208201905081810360008301526140ad81613c0f565b9050919050565b600060208201905081810360008301526140cd81613c32565b9050919050565b600060208201905081810360008301526140ed81613c55565b9050919050565b6000602082019050818103600083015261410d81613c78565b9050919050565b6000602082019050818103600083015261412d81613c9b565b9050919050565b6000602082019050818103600083015261414d81613cbe565b9050919050565b6000602082019050818103600083015261416d81613ce1565b9050919050565b6000602082019050818103600083015261418d81613d04565b9050919050565b600060208201905081810360008301526141ad81613d27565b9050919050565b600060208201905081810360008301526141cd81613d4a565b9050919050565b600060208201905081810360008301526141ed81613d6d565b9050919050565b6000602082019050818103600083015261420d81613d90565b9050919050565b6000602082019050818103600083015261422d81613db3565b9050919050565b6000602082019050818103600083015261424d81613dd6565b9050919050565b6000602082019050818103600083015261426d81613df9565b9050919050565b6000602082019050818103600083015261428d81613e1c565b9050919050565b60006020820190506142a96000830184613e4e565b92915050565b60006040820190506142c46000830185613e4e565b6142d16020830184613e4e565b9392505050565b60006142e26142f3565b90506142ee8282614619565b919050565b6000604051905090565b600067ffffffffffffffff82111561431857614317614751565b5b602082029050602081019050919050565b600067ffffffffffffffff82111561434457614343614751565b5b602082029050602081019050919050565b600067ffffffffffffffff8211156143705761436f614751565b5b61437982614780565b9050602081019050919050565b600067ffffffffffffffff8211156143a1576143a0614751565b5b6143aa82614780565b9050602081019050919050565b6000819050602082019050919050565b600081519050919050565b600081519050919050565b600081519050919050565b6000602082019050919050565b600082825260208201905092915050565b600082825260208201905092915050565b600082825260208201905092915050565b600061443382614571565b915061443e83614571565b9250827fffffffffffffffffffffffffffffffffffffffffffffffffffffffffffffffff03821115614473576144726146c4565b5b828201905092915050565b600061448982614571565b915061449483614571565b9250826144a4576144a36146f3565b5b828204905092915050565b60006144ba82614571565b91506144c583614571565b9250828210156144d8576144d76146c4565b5b828203905092915050565b60006144ee82614551565b9050919050565b600061450082614551565b9050919050565b60008115159050919050565b60007fffffffff0000000000000000000000000000000000000000000000000000000082169050919050565b600061454a826144f5565b9050919050565b600073ffffffffffffffffffffffffffffffffffffffff82169050919050565b6000819050919050565b82818337600083830152505050565b60005b838110156145a857808201518184015260208101905061458d565b838111156145b7576000848401525b50505050565b60006145c882614571565b915060008214156145dc576145db6146c4565b5b600182039050919050565b600060028204905060018216806145ff57607f821691505b6020821081141561461357614612614722565b5b50919050565b61462282614780565b810181811067ffffffffffffffff8211171561464157614640614751565b5b80604052505050565b600061465582614571565b91507fffffffffffffffffffffffffffffffffffffffffffffffffffffffffffffffff821415614688576146876146c4565b5b600182019050919050565b600061469e82614571565b91506146a983614571565b9250826146b9576146b86146f3565b5b828206905092915050565b7f4e487b7100000000000000000000000000000000000000000000000000000000600052601160045260246000fd5b7f4e487b7100000000000000000000000000000000000000000000000000000000600052601260045260246000fd5b7f4e487b7100000000000000000000000000000000000000000000000000000000600052602260045260246000fd5b7f4e487b7100000000000000000000000000000000000000000000000000000000600052604160045260246000fd5b6000601f19601f8301169050919050565b7f4552433131353523736166655472616e7366657246726f6d3a20494e56414c4960008201527f445f524543495049454e54000000000000000000000000000000000000000000602082015250565b7f526f6c65733a206163636f756e7420616c72656164792068617320726f6c6500600082015250565b7f4f776e61626c653a206e6577206f776e657220697320746865207a65726f206160008201527f6464726573730000000000000000000000000000000000000000000000000000602082015250565b7f4552433131353523736166655472616e7366657246726f6d3a20494e56414c4960008201527f445f4f50455241544f5200000000000000000000000000000000000000000000602082015250565b7f616c7265616479206d696e746564203e206e6577206d6178537570706c790000600082015250565b7f45524331313535235f7361666542617463685472616e7366657246726f6d3a2060008201527f494e56414c49445f4152524159535f4c454e4754480000000000000000000000602082015250565b7f455243313135355472616461626c6523757064617465546f6b656e4d6178537560008201527f70706c793a204e4f4e4558495354454e545f544f4b454e000000000000000000602082015250565b7f4d696e746572526f6c653a2063616c6c657220646f6573206e6f74206861766560008201527f20746865204d696e74657220726f6c6500000000000000000000000000000000602082015250565b7f526f6c65733a206163636f756e7420646f6573206e6f74206861766520726f6c60008201527f6500000000000000000000000000000000000000000000000000000000000000602082015250565b7f45524331313535237361666542617463685472616e7366657246726f6d3a204960008201527f4e56414c49445f524543495049454e5400000000000000000000000000000000602082015250565b7f4552433732315472616461626c65237572693a204e4f4e4558495354454e545f60008201527f544f4b454e000000000000000000000000000000000000000000000000000000602082015250565b7f4f776e61626c653a2063616c6c6572206973206e6f7420746865206f776e6572600082015250565b7f496e697469616c20737570706c792063616e6e6f74206265206d6f726520746860008201527f616e206d617820737570706c7900000000000000000000000000000000000000602082015250565b7f526f6c65733a206163636f756e7420697320746865207a65726f20616464726560008201527f7373000000000000000000000000000000000000000000000000000000000000602082015250565b7f57686974656c69737441646d696e526f6c653a2063616c6c657220646f65732060008201527f6e6f742068617665207468652057686974656c69737441646d696e20726f6c65602082015250565b7f455243313135352362616c616e63654f6642617463683a20494e56414c49445f60008201527f41525241595f4c454e4754480000000000000000000000000000000000000000602082015250565b7f45524331313535237361666542617463685472616e7366657246726f6d3a204960008201527f4e56414c49445f4f50455241544f520000000000000000000000000000000000602082015250565b7f496e76616c69642d6c6f79616c74792d66656500000000000000000000000000600082015250565b7f4d617820737570706c7920726561636865640000000000000000000000000000600082015250565b7f45524331313535235f63616c6c6f6e455243313135354261746368526563656960008201527f7665643a20494e56414c49445f4f4e5f524543454956455f4d45535341474500602082015250565b7f45524331313535235f63616c6c6f6e4552433131353552656365697665643a2060008201527f494e56414c49445f4f4e5f524543454956455f4d455353414745000000000000602082015250565b614d57816144e3565b8114614d6257600080fd5b50565b614d6e81614507565b8114614d7957600080fd5b50565b614d8581614513565b8114614d9057600080fd5b50565b614d9c8161453f565b8114614da757600080fd5b50565b614db381614571565b8114614dbe57600080fd5b5056fea26469706673582212209f5d0f2816d5d0b60f92c943bef56d95b62a7d5b06a5eef64e3b1d9b13b44f5064736f6c63430008040033",
  "linkReferences": {},
  "deployedLinkReferences": {}
}