{
  "_format": "hh-sol-artifact-1",
  "contractName": "WhitelistAdminRole",
  "sourceName": "contracts/dependencies/WhitelistAdminRole.sol",
  "abi": [
    {
      "inputs": [],
      "stateMutability": "nonpayable",
      "type": "constructor"
    },
    {
      "anonymous": false,
      "inputs": [
        {
          "indexed": true,
          "internalType": "address",
          "name": "account",
          "type": "address"
        }
      ],
      "name": "WhitelistAdminAdded",
      "type": "event"
    },
    {
      "anonymous": false,
      "inputs": [
        {
          "indexed": true,
          "internalType": "address",
          "name": "account",
          "type": "address"
        }
      ],
      "name": "WhitelistAdminRemoved",
      "type": "event"
    },
    {
      "inputs": [
        {
          "internalType": "address",
          "name": "account",
          "type": "address"
        }
      ],
      "name": "addWhitelistAdmin",
      "outputs": [],
      "stateMutability": "nonpayable",
      "type": "function"
    },
    {
      "inputs": [
        {
          "internalType": "address",
          "name": "account",
          "type": "address"
        }
      ],
      "name": "isWhitelistAdmin",
      "outputs": [
        {
          "internalType": "bool",
          "name": "",
          "type": "bool"
        }
      ],
      "stateMutability": "view",
      "type": "function"
    },
    {
      "inputs": [],
      "name": "renounceWhitelistAdmin",
      "outputs": [],
      "stateMutability": "nonpayable",
      "type": "function"
    }
  ],
  "bytecode": "0x608060405234801561001057600080fd5b5061001a3361001f565b610172565b61003781600061006e60201b6101351790919060201c565b6040516001600160a01b038216907f22380c05984257a1cb900161c713dd71d39e74820f1aea43bd3f1bdd2096129990600090a250565b61007882826100ef565b156100ca5760405162461bcd60e51b815260206004820152601f60248201527f526f6c65733a206163636f756e7420616c72656164792068617320726f6c650060448201526064015b60405180910390fd5b6001600160a01b0316600090815260209190915260409020805460ff19166001179055565b60006001600160a01b0382166101525760405162461bcd60e51b815260206004820152602260248201527f526f6c65733a206163636f756e7420697320746865207a65726f206164647265604482015261737360f01b60648201526084016100c1565b506001600160a01b03166000908152602091909152604090205460ff1690565b6103a0806101816000396000f3fe608060405234801561001057600080fd5b50600436106100415760003560e01c80634c5a628c146100465780637362d9c814610050578063bb5f747b14610063575b600080fd5b61004e61008a565b005b61004e61005e36600461033a565b610095565b61007661007136600461033a565b610123565b604051901515815260200160405180910390f35b610093336101b1565b565b61009e33610123565b610117576040805162461bcd60e51b81526020600482015260248101919091527f57686974656c69737441646d696e526f6c653a2063616c6c657220646f65732060448201527f6e6f742068617665207468652057686974656c69737441646d696e20726f6c6560648201526084015b60405180910390fd5b610120816101f3565b50565b600061012f8183610235565b92915050565b61013f8282610235565b1561018c5760405162461bcd60e51b815260206004820152601f60248201527f526f6c65733a206163636f756e7420616c72656164792068617320726f6c6500604482015260640161010e565b6001600160a01b0316600090815260209190915260409020805460ff19166001179055565b6101bc6000826102b8565b6040516001600160a01b038216907f0a8eb35e5ca14b3d6f28e4abf2f128dbab231a58b56e89beb5d636115001e16590600090a250565b6101fe600082610135565b6040516001600160a01b038216907f22380c05984257a1cb900161c713dd71d39e74820f1aea43bd3f1bdd2096129990600090a250565b60006001600160a01b0382166102985760405162461bcd60e51b815260206004820152602260248201527f526f6c65733a206163636f756e7420697320746865207a65726f206164647265604482015261737360f01b606482015260840161010e565b506001600160a01b03166000908152602091909152604090205460ff1690565b6102c28282610235565b6103185760405162461bcd60e51b815260206004820152602160248201527f526f6c65733a206163636f756e7420646f6573206e6f74206861766520726f6c6044820152606560f81b606482015260840161010e565b6001600160a01b0316600090815260209190915260409020805460ff19169055565b60006020828403121561034c57600080fd5b81356001600160a01b038116811461036357600080fd5b939250505056fea2646970667358221220ab99e9fdee990959d28f2d69cb6f1b67c7807776824e124b8c06e2319899ad9c64736f6c63430008060033",
  "linkReferences": {},
  "deployedLinkReferences": {}
}