{
  "_format": "hh-sol-artifact-1",
  "contractName": "ERC1155Holder",
  "sourceName": "contracts/ERC1155Holder.sol",
  "abi": [
    {
      "inputs": [],
      "name": "check",
      "outputs": [
        {
          "internalType": "bytes4",
          "name": "",
          "type": "bytes4"
        }
      ],
      "stateMutability": "view",
      "type": "function"
    },
    {
      "inputs": [
        {
          "internalType": "address",
          "name": "operator",
          "type": "address"
        },
        {
          "internalType": "address",
          "name": "from",
          "type": "address"
        },
        {
          "internalType": "uint256[]",
          "name": "ids",
          "type": "uint256[]"
        },
        {
          "internalType": "uint256[]",
          "name": "values",
          "type": "uint256[]"
        },
        {
          "internalType": "bytes",
          "name": "data",
          "type": "bytes"
        }
      ],
      "name": "onERC1155BatchReceived",
      "outputs": [
        {
          "internalType": "bytes4",
          "name": "",
          "type": "bytes4"
        }
      ],
      "stateMutability": "nonpayable",
      "type": "function"
    },
    {
      "inputs": [
        {
          "internalType": "address",
          "name": "operator",
          "type": "address"
        },
        {
          "internalType": "address",
          "name": "from",
          "type": "address"
        },
        {
          "internalType": "uint256",
          "name": "id",
          "type": "uint256"
        },
        {
          "internalType": "uint256",
          "name": "value",
          "type": "uint256"
        },
        {
          "internalType": "bytes",
          "name": "data",
          "type": "bytes"
        }
      ],
      "name": "onERC1155Received",
      "outputs": [
        {
          "internalType": "bytes4",
          "name": "",
          "type": "bytes4"
        }
      ],
      "stateMutability": "nonpayable",
      "type": "function"
    },
    {
      "inputs": [
        {
          "internalType": "bytes4",
          "name": "interfaceId",
          "type": "bytes4"
        }
      ],
      "name": "supportsInterface",
      "outputs": [
        {
          "internalType": "bool",
          "name": "",
          "type": "bool"
        }
      ],
      "stateMutability": "view",
      "type": "function"
    }
  ],
  "bytecode": "0x608060405234801561001057600080fd5b506105bd806100206000396000f3fe608060405234801561001057600080fd5b506004361061004c5760003560e01c806301ffc9a714610051578063919840ad14610081578063bc197c811461009f578063f23a6e61146100cf575b600080fd5b61006b60048036038101906100669190610451565b6100ff565b6040516100789190610498565b60405180910390f35b610089610179565b60405161009691906104b3565b60405180910390f35b6100b960048036038101906100b491906102f3565b610188565b6040516100c691906104b3565b60405180910390f35b6100e960048036038101906100e491906103bf565b6101a0565b6040516100f691906104b3565b60405180910390f35b60007f4e2312e0000000000000000000000000000000000000000000000000000000007bffffffffffffffffffffffffffffffffffffffffffffffffffffffff1916827bffffffffffffffffffffffffffffffffffffffffffffffffffffffff191614806101725750610171826101b6565b5b9050919050565b600063f23a6e6160e01b905090565b600063f23a6e6160e01b905098975050505050505050565b600063f23a6e6160e01b90509695505050505050565b60007f01ffc9a7000000000000000000000000000000000000000000000000000000007bffffffffffffffffffffffffffffffffffffffffffffffffffffffff1916827bffffffffffffffffffffffffffffffffffffffffffffffffffffffff1916149050919050565b60008135905061022f81610542565b92915050565b60008083601f84011261024757600080fd5b8235905067ffffffffffffffff81111561026057600080fd5b60208301915083602082028301111561027857600080fd5b9250929050565b60008135905061028e81610559565b92915050565b60008083601f8401126102a657600080fd5b8235905067ffffffffffffffff8111156102bf57600080fd5b6020830191508360018202830111156102d757600080fd5b9250929050565b6000813590506102ed81610570565b92915050565b60008060008060008060008060a0898b03121561030f57600080fd5b600061031d8b828c01610220565b985050602061032e8b828c01610220565b975050604089013567ffffffffffffffff81111561034b57600080fd5b6103578b828c01610235565b9650965050606089013567ffffffffffffffff81111561037657600080fd5b6103828b828c01610235565b9450945050608089013567ffffffffffffffff8111156103a157600080fd5b6103ad8b828c01610294565b92509250509295985092959890939650565b60008060008060008060a087890312156103d857600080fd5b60006103e689828a01610220565b96505060206103f789828a01610220565b955050604061040889828a016102de565b945050606061041989828a016102de565b935050608087013567ffffffffffffffff81111561043657600080fd5b61044289828a01610294565b92509250509295509295509295565b60006020828403121561046357600080fd5b60006104718482850161027f565b91505092915050565b610483816104e0565b82525050565b610492816104ec565b82525050565b60006020820190506104ad600083018461047a565b92915050565b60006020820190506104c86000830184610489565b92915050565b60006104d982610518565b9050919050565b60008115159050919050565b60007fffffffff0000000000000000000000000000000000000000000000000000000082169050919050565b600073ffffffffffffffffffffffffffffffffffffffff82169050919050565b6000819050919050565b61054b816104ce565b811461055657600080fd5b50565b610562816104ec565b811461056d57600080fd5b50565b61057981610538565b811461058457600080fd5b5056fea26469706673582212208f433a3d4784fb847c8277965aa36839310db0f08ae16043b155ba75b3da7be964736f6c63430008040033",
  "linkReferences": {},
  "deployedLinkReferences": {}
}