{
  "_format": "hh-sol-artifact-1",
  "contractName": "ProxyRegistry",
  "sourceName": "contracts/libs/ProxyRegistry.sol",
  "abi": [
    {
      "anonymous": false,
      "inputs": [
        {
          "indexed": true,
          "internalType": "address",
          "name": "previousOwner",
          "type": "address"
        },
        {
          "indexed": true,
          "internalType": "address",
          "name": "newOwner",
          "type": "address"
        }
      ],
      "name": "OwnershipTransferred",
      "type": "event"
    },
    {
      "inputs": [],
      "name": "DELAY_PERIOD",
      "outputs": [
        {
          "internalType": "uint256",
          "name": "",
          "type": "uint256"
        }
      ],
      "stateMutability": "view",
      "type": "function"
    },
    {
      "inputs": [
        {
          "internalType": "address",
          "name": "",
          "type": "address"
        }
      ],
      "name": "contracts",
      "outputs": [
        {
          "internalType": "bool",
          "name": "",
          "type": "bool"
        }
      ],
      "stateMutability": "view",
      "type": "function"
    },
    {
      "inputs": [],
      "name": "delegateProxyImplementation",
      "outputs": [
        {
          "internalType": "address",
          "name": "",
          "type": "address"
        }
      ],
      "stateMutability": "view",
      "type": "function"
    },
    {
      "inputs": [
        {
          "internalType": "address",
          "name": "addr",
          "type": "address"
        }
      ],
      "name": "endGrantAuthentication",
      "outputs": [],
      "stateMutability": "nonpayable",
      "type": "function"
    },
    {
      "inputs": [],
      "name": "owner",
      "outputs": [
        {
          "internalType": "address",
          "name": "",
          "type": "address"
        }
      ],
      "stateMutability": "view",
      "type": "function"
    },
    {
      "inputs": [
        {
          "internalType": "address",
          "name": "",
          "type": "address"
        }
      ],
      "name": "pending",
      "outputs": [
        {
          "internalType": "uint256",
          "name": "",
          "type": "uint256"
        }
      ],
      "stateMutability": "view",
      "type": "function"
    },
    {
      "inputs": [
        {
          "internalType": "address",
          "name": "",
          "type": "address"
        }
      ],
      "name": "proxies",
      "outputs": [
        {
          "internalType": "contract OwnableDelegateProxy",
          "name": "",
          "type": "address"
        }
      ],
      "stateMutability": "view",
      "type": "function"
    },
    {
      "inputs": [],
      "name": "registerProxy",
      "outputs": [
        {
          "internalType": "contract OwnableDelegateProxy",
          "name": "proxy",
          "type": "address"
        }
      ],
      "stateMutability": "nonpayable",
      "type": "function"
    },
    {
      "inputs": [],
      "name": "renounceOwnership",
      "outputs": [],
      "stateMutability": "nonpayable",
      "type": "function"
    },
    {
      "inputs": [
        {
          "internalType": "address",
          "name": "addr",
          "type": "address"
        }
      ],
      "name": "revokeAuthentication",
      "outputs": [],
      "stateMutability": "nonpayable",
      "type": "function"
    },
    {
      "inputs": [
        {
          "internalType": "address",
          "name": "addr",
          "type": "address"
        }
      ],
      "name": "startGrantAuthentication",
      "outputs": [],
      "stateMutability": "nonpayable",
      "type": "function"
    },
    {
      "inputs": [
        {
          "internalType": "address",
          "name": "newOwner",
          "type": "address"
        }
      ],
      "name": "transferOwnership",
      "outputs": [],
      "stateMutability": "nonpayable",
      "type": "function"
    }
  ],
  "bytecode": "0x60806040526212750060055534801561001757600080fd5b5061003461002961003960201b60201c565b61004160201b60201c565b610105565b600033905090565b60008060009054906101000a900473ffffffffffffffffffffffffffffffffffffffff169050816000806101000a81548173ffffffffffffffffffffffffffffffffffffffff021916908373ffffffffffffffffffffffffffffffffffffffff1602179055508173ffffffffffffffffffffffffffffffffffffffff168173ffffffffffffffffffffffffffffffffffffffff167f8be0079c531659141344cd1fd0a4f28419497f9722a3daafe3b4186f6b6457e060405160405180910390a35050565b611e81806101146000396000f3fe60806040523480156200001157600080fd5b5060043610620000c45760003560e01c806397204d8e116200007b57806397204d8e14620001a3578063c455279114620001c5578063d4e8e06314620001fb578063ddd81f82146200021b578063e71a02e1146200023d578063f2fde38b146200025f57620000c4565b806338b6e40714620000c957806353376d1f14620000e95780635eebea20146200010957806369dc9ff3146200013f578063715018a614620001755780638da5cb5b1462000181575b600080fd5b620000e76004803603810190620000e1919062000c40565b6200027f565b005b62000107600480360381019062000101919062000c40565b620004a1565b005b62000127600480360381019062000121919062000c40565b6200057f565b60405162000136919062000e4b565b60405180910390f35b6200015d600480360381019062000157919062000c40565b62000597565b6040516200016c919062000dcd565b60405180910390f35b6200017f620005b7565b005b6200018b62000648565b6040516200019a919062000d3f565b60405180910390f35b620001ad62000671565b604051620001bc919062000d3f565b60405180910390f35b620001e36004803603810190620001dd919062000c40565b62000697565b604051620001f2919062000dea565b60405180910390f35b62000219600480360381019062000213919062000c40565b620006ca565b005b6200022562000838565b60405162000234919062000dea565b60405180910390f35b6200024762000a45565b60405162000256919062000e4b565b60405180910390f35b6200027d600480360381019062000277919062000c40565b62000a4b565b005b6200028962000b4f565b73ffffffffffffffffffffffffffffffffffffffff16620002a962000648565b73ffffffffffffffffffffffffffffffffffffffff161462000302576040517f08c379a0000000000000000000000000000000000000000000000000000000008152600401620002f99062000e29565b60405180910390fd5b600460008273ffffffffffffffffffffffffffffffffffffffff1673ffffffffffffffffffffffffffffffffffffffff16815260200190815260200160002060009054906101000a900460ff161580156200039d57506000600360008373ffffffffffffffffffffffffffffffffffffffff1673ffffffffffffffffffffffffffffffffffffffff1681526020019081526020016000205414155b8015620003f7575042600554600360008473ffffffffffffffffffffffffffffffffffffffff1673ffffffffffffffffffffffffffffffffffffffff16815260200190815260200160002054620003f5919062000e95565b105b6200040157600080fd5b6000600360008373ffffffffffffffffffffffffffffffffffffffff1673ffffffffffffffffffffffffffffffffffffffff168152602001908152602001600020819055506001600460008373ffffffffffffffffffffffffffffffffffffffff1673ffffffffffffffffffffffffffffffffffffffff16815260200190815260200160002060006101000a81548160ff02191690831515021790555050565b620004ab62000b4f565b73ffffffffffffffffffffffffffffffffffffffff16620004cb62000648565b73ffffffffffffffffffffffffffffffffffffffff161462000524576040517f08c379a00000000000000000000000000000000000000000000000000000000081526004016200051b9062000e29565b60405180910390fd5b6000600460008373ffffffffffffffffffffffffffffffffffffffff1673ffffffffffffffffffffffffffffffffffffffff16815260200190815260200160002060006101000a81548160ff02191690831515021790555050565b60036020528060005260406000206000915090505481565b60046020528060005260406000206000915054906101000a900460ff1681565b620005c162000b4f565b73ffffffffffffffffffffffffffffffffffffffff16620005e162000648565b73ffffffffffffffffffffffffffffffffffffffff16146200063a576040517f08c379a0000000000000000000000000000000000000000000000000000000008152600401620006319062000e29565b60405180910390fd5b62000646600062000b57565b565b60008060009054906101000a900473ffffffffffffffffffffffffffffffffffffffff16905090565b600160009054906101000a900473ffffffffffffffffffffffffffffffffffffffff1681565b60026020528060005260406000206000915054906101000a900473ffffffffffffffffffffffffffffffffffffffff1681565b620006d462000b4f565b73ffffffffffffffffffffffffffffffffffffffff16620006f462000648565b73ffffffffffffffffffffffffffffffffffffffff16146200074d576040517f08c379a0000000000000000000000000000000000000000000000000000000008152600401620007449062000e29565b60405180910390fd5b600460008273ffffffffffffffffffffffffffffffffffffffff1673ffffffffffffffffffffffffffffffffffffffff16815260200190815260200160002060009054906101000a900460ff16158015620007e757506000600360008373ffffffffffffffffffffffffffffffffffffffff1673ffffffffffffffffffffffffffffffffffffffff16815260200190815260200160002054145b620007f157600080fd5b42600360008373ffffffffffffffffffffffffffffffffffffffff1673ffffffffffffffffffffffffffffffffffffffff1681526020019081526020016000208190555050565b60008073ffffffffffffffffffffffffffffffffffffffff16600260003373ffffffffffffffffffffffffffffffffffffffff1673ffffffffffffffffffffffffffffffffffffffff16815260200190815260200160002060009054906101000a900473ffffffffffffffffffffffffffffffffffffffff1673ffffffffffffffffffffffffffffffffffffffff1614620008d257600080fd5b33600160009054906101000a900473ffffffffffffffffffffffffffffffffffffffff1633306040516024016200090b92919062000d5c565b6040516020818303038152906040527f485cc955000000000000000000000000000000000000000000000000000000007bffffffffffffffffffffffffffffffffffffffffffffffffffffffff19166020820180517bffffffffffffffffffffffffffffffffffffffffffffffffffffffff8381831617835250505050604051620009969062000c1b565b620009a49392919062000d89565b604051809103906000f080158015620009c1573d6000803e3d6000fd5b50905080600260003373ffffffffffffffffffffffffffffffffffffffff1673ffffffffffffffffffffffffffffffffffffffff16815260200190815260200160002060006101000a81548173ffffffffffffffffffffffffffffffffffffffff021916908373ffffffffffffffffffffffffffffffffffffffff16021790555090565b60055481565b62000a5562000b4f565b73ffffffffffffffffffffffffffffffffffffffff1662000a7562000648565b73ffffffffffffffffffffffffffffffffffffffff161462000ace576040517f08c379a000000000000000000000000000000000000000000000000000000000815260040162000ac59062000e29565b60405180910390fd5b600073ffffffffffffffffffffffffffffffffffffffff168173ffffffffffffffffffffffffffffffffffffffff16141562000b41576040517f08c379a000000000000000000000000000000000000000000000000000000000815260040162000b389062000e07565b60405180910390fd5b62000b4c8162000b57565b50565b600033905090565b60008060009054906101000a900473ffffffffffffffffffffffffffffffffffffffff169050816000806101000a81548173ffffffffffffffffffffffffffffffffffffffff021916908373ffffffffffffffffffffffffffffffffffffffff1602179055508173ffffffffffffffffffffffffffffffffffffffff168173ffffffffffffffffffffffffffffffffffffffff167f8be0079c531659141344cd1fd0a4f28419497f9722a3daafe3b4186f6b6457e060405160405180910390a35050565b610ddf806200106d83390190565b60008135905062000c3a8162001052565b92915050565b60006020828403121562000c5357600080fd5b600062000c638482850162000c29565b91505092915050565b62000c778162000ef2565b82525050565b62000c888162000f06565b82525050565b600062000c9b8262000e68565b62000ca7818562000e73565b935062000cb981856020860162000f64565b62000cc48162000fc9565b840191505092915050565b62000cda8162000f3c565b82525050565b600062000cef60268362000e84565b915062000cfc8262000fda565b604082019050919050565b600062000d1660208362000e84565b915062000d238262001029565b602082019050919050565b62000d398162000f32565b82525050565b600060208201905062000d56600083018462000c6c565b92915050565b600060408201905062000d73600083018562000c6c565b62000d82602083018462000c6c565b9392505050565b600060608201905062000da0600083018662000c6c565b62000daf602083018562000c6c565b818103604083015262000dc3818462000c8e565b9050949350505050565b600060208201905062000de4600083018462000c7d565b92915050565b600060208201905062000e01600083018462000ccf565b92915050565b6000602082019050818103600083015262000e228162000ce0565b9050919050565b6000602082019050818103600083015262000e448162000d07565b9050919050565b600060208201905062000e62600083018462000d2e565b92915050565b600081519050919050565b600082825260208201905092915050565b600082825260208201905092915050565b600062000ea28262000f32565b915062000eaf8362000f32565b9250827fffffffffffffffffffffffffffffffffffffffffffffffffffffffffffffffff0382111562000ee75762000ee662000f9a565b5b828201905092915050565b600062000eff8262000f12565b9050919050565b60008115159050919050565b600073ffffffffffffffffffffffffffffffffffffffff82169050919050565b6000819050919050565b600062000f498262000f50565b9050919050565b600062000f5d8262000f12565b9050919050565b60005b8381101562000f8457808201518184015260208101905062000f67565b8381111562000f94576000848401525b50505050565b7f4e487b7100000000000000000000000000000000000000000000000000000000600052601160045260246000fd5b6000601f19601f8301169050919050565b7f4f776e61626c653a206e6577206f776e657220697320746865207a65726f206160008201527f6464726573730000000000000000000000000000000000000000000000000000602082015250565b7f4f776e61626c653a2063616c6c6572206973206e6f7420746865206f776e6572600082015250565b6200105d8162000ef2565b81146200106957600080fd5b5056fe60806040523480156200001157600080fd5b5060405162000ddf38038062000ddf83398181016040528101906200003791906200028a565b6200004883620000dd60201b60201c565b62000059826200012160201b60201c565b60008273ffffffffffffffffffffffffffffffffffffffff168260405162000082919062000330565b600060405180830381855af49150503d8060008114620000bf576040519150601f19603f3d011682016040523d82523d6000602084013e620000c4565b606091505b5050905080620000d357600080fd5b50505050620004b8565b80600160006101000a81548173ffffffffffffffffffffffffffffffffffffffff021916908373ffffffffffffffffffffffffffffffffffffffff16021790555050565b8073ffffffffffffffffffffffffffffffffffffffff1660008054906101000a900473ffffffffffffffffffffffffffffffffffffffff1673ffffffffffffffffffffffffffffffffffffffff1614156200017b57600080fd5b806000806101000a81548173ffffffffffffffffffffffffffffffffffffffff021916908373ffffffffffffffffffffffffffffffffffffffff1602179055508073ffffffffffffffffffffffffffffffffffffffff167fbc7cd75a20ee27fd9adebab32041f755214dbc6bffa90cc0225b39da2e5c2d3b60405160405180910390a250565b600062000218620002128462000372565b62000349565b9050828152602081018484840111156200023157600080fd5b6200023e848285620003f2565b509392505050565b60008151905062000257816200049e565b92915050565b600082601f8301126200026f57600080fd5b81516200028184826020860162000201565b91505092915050565b600080600060608486031215620002a057600080fd5b6000620002b08682870162000246565b9350506020620002c38682870162000246565b925050604084015167ffffffffffffffff811115620002e157600080fd5b620002ef868287016200025d565b9150509250925092565b60006200030682620003a8565b620003128185620003b3565b935062000324818560208601620003f2565b80840191505092915050565b60006200033e8284620002f9565b915081905092915050565b60006200035562000368565b905062000363828262000428565b919050565b6000604051905090565b600067ffffffffffffffff82111562000390576200038f6200045e565b5b6200039b826200048d565b9050602081019050919050565b600081519050919050565b600081905092915050565b6000620003cb82620003d2565b9050919050565b600073ffffffffffffffffffffffffffffffffffffffff82169050919050565b60005b8381101562000412578082015181840152602081019050620003f5565b8381111562000422576000848401525b50505050565b62000433826200048d565b810181811067ffffffffffffffff821117156200045557620004546200045e565b5b80604052505050565b7f4e487b7100000000000000000000000000000000000000000000000000000000600052604160045260246000fd5b6000601f19601f8301169050919050565b620004a981620003be565b8114620004b557600080fd5b50565b61091780620004c86000396000f3fe6080604052600436106100745760003560e01c80634f1ef2861161004e5780634f1ef286146101b55780635c60da1b146101d15780636fde8202146101fc578063f1739cae14610227576100c9565b8063025313a2146101365780633659cfe6146101615780634555d5c91461018a576100c9565b366100c9573373ffffffffffffffffffffffffffffffffffffffff167fa419615bc8fda4c87663805ee2a3597a6d71c1d476911d9892f340d965bc7bf1346040516100bf9190610754565b60405180910390a2005b60006100d3610250565b9050600073ffffffffffffffffffffffffffffffffffffffff168173ffffffffffffffffffffffffffffffffffffffff16141561010f57600080fd5b60405136600082376000803683855af43d806000843e8160008114610132578184f35b8184fd5b34801561014257600080fd5b5061014b610279565b6040516101589190610710565b60405180910390f35b34801561016d57600080fd5b506101886004803603810190610183919061062d565b610288565b005b34801561019657600080fd5b5061019f6102d3565b6040516101ac9190610754565b60405180910390f35b6101cf60048036038101906101ca9190610656565b6102dc565b005b3480156101dd57600080fd5b506101e6610250565b6040516101f39190610710565b60405180910390f35b34801561020857600080fd5b5061021161039e565b60405161021e9190610710565b60405180910390f35b34801561023357600080fd5b5061024e6004803603810190610249919061062d565b6103c8565b005b60008060009054906101000a900473ffffffffffffffffffffffffffffffffffffffff16905090565b600061028361039e565b905090565b610290610279565b73ffffffffffffffffffffffffffffffffffffffff163373ffffffffffffffffffffffffffffffffffffffff16146102c757600080fd5b6102d08161048d565b50565b60006002905090565b6102e4610279565b73ffffffffffffffffffffffffffffffffffffffff163373ffffffffffffffffffffffffffffffffffffffff161461031b57600080fd5b61032482610288565b60003073ffffffffffffffffffffffffffffffffffffffff168260405161034b91906106f9565b600060405180830381855af49150503d8060008114610386576040519150601f19603f3d011682016040523d82523d6000602084013e61038b565b606091505b505090508061039957600080fd5b505050565b6000600160009054906101000a900473ffffffffffffffffffffffffffffffffffffffff16905090565b6103d0610279565b73ffffffffffffffffffffffffffffffffffffffff163373ffffffffffffffffffffffffffffffffffffffff161461040757600080fd5b600073ffffffffffffffffffffffffffffffffffffffff168173ffffffffffffffffffffffffffffffffffffffff16141561044157600080fd5b7f5a3e66efaa1e445ebd894728a69d6959842ea1e97bd79b892797106e270efcd961046a610279565b8260405161047992919061072b565b60405180910390a161048a8161056c565b50565b8073ffffffffffffffffffffffffffffffffffffffff1660008054906101000a900473ffffffffffffffffffffffffffffffffffffffff1673ffffffffffffffffffffffffffffffffffffffff1614156104e657600080fd5b806000806101000a81548173ffffffffffffffffffffffffffffffffffffffff021916908373ffffffffffffffffffffffffffffffffffffffff1602179055508073ffffffffffffffffffffffffffffffffffffffff167fbc7cd75a20ee27fd9adebab32041f755214dbc6bffa90cc0225b39da2e5c2d3b60405160405180910390a250565b80600160006101000a81548173ffffffffffffffffffffffffffffffffffffffff021916908373ffffffffffffffffffffffffffffffffffffffff16021790555050565b60006105c36105be84610794565b61076f565b9050828152602081018484840111156105db57600080fd5b6105e6848285610817565b509392505050565b6000813590506105fd816108ca565b92915050565b600082601f83011261061457600080fd5b81356106248482602086016105b0565b91505092915050565b60006020828403121561063f57600080fd5b600061064d848285016105ee565b91505092915050565b6000806040838503121561066957600080fd5b6000610677858286016105ee565b925050602083013567ffffffffffffffff81111561069457600080fd5b6106a085828601610603565b9150509250929050565b6106b3816107db565b82525050565b60006106c4826107c5565b6106ce81856107d0565b93506106de818560208601610826565b80840191505092915050565b6106f38161080d565b82525050565b600061070582846106b9565b915081905092915050565b600060208201905061072560008301846106aa565b92915050565b600060408201905061074060008301856106aa565b61074d60208301846106aa565b9392505050565b600060208201905061076960008301846106ea565b92915050565b600061077961078a565b90506107858282610859565b919050565b6000604051905090565b600067ffffffffffffffff8211156107af576107ae61088a565b5b6107b8826108b9565b9050602081019050919050565b600081519050919050565b600081905092915050565b60006107e6826107ed565b9050919050565b600073ffffffffffffffffffffffffffffffffffffffff82169050919050565b6000819050919050565b82818337600083830152505050565b60005b83811015610844578082015181840152602081019050610829565b83811115610853576000848401525b50505050565b610862826108b9565b810181811067ffffffffffffffff821117156108815761088061088a565b5b80604052505050565b7f4e487b7100000000000000000000000000000000000000000000000000000000600052604160045260246000fd5b6000601f19601f8301169050919050565b6108d3816107db565b81146108de57600080fd5b5056fea264697066735822122096ab33b94a24951b067a6771f77a685d41d324b7012644994c78fb0d16eabdfb64736f6c63430008040033a2646970667358221220dfb6ab25be51a6bf2b9395fb0172d7ef5e987514792c6fdf4abeb7b9d41a993164736f6c63430008040033",
  "linkReferences": {},
  "deployedLinkReferences": {}
}