{
  "_format": "hh-sol-artifact-1",
  "contractName": "MockSotaExchange",
  "sourceName": "contracts/mocks/MockSotaExchange.sol",
  "abi": [
    {
      "inputs": [
        {
          "internalType": "address",
          "name": "_paymentToken",
          "type": "address"
        },
        {
          "internalType": "uint256",
          "name": "_usdtAmount",
          "type": "uint256"
        }
      ],
      "name": "estimateFromUSDT",
      "outputs": [
        {
          "internalType": "uint256",
          "name": "",
          "type": "uint256"
        }
      ],
      "stateMutability": "nonpayable",
      "type": "function"
    },
    {
      "inputs": [
        {
          "internalType": "address",
          "name": "_paymentToken",
          "type": "address"
        },
        {
          "internalType": "uint256",
          "name": "_paymentAmount",
          "type": "uint256"
        }
      ],
      "name": "estimateToUSDT",
      "outputs": [
        {
          "internalType": "uint256",
          "name": "",
          "type": "uint256"
        }
      ],
      "stateMutability": "nonpayable",
      "type": "function"
    }
  ],
  "bytecode": "0x608060405234801561001057600080fd5b506102e2806100206000396000f3fe608060405234801561001057600080fd5b50600436106100365760003560e01c80630d38c5961461003b57806366ad7b2b1461006b575b600080fd5b610055600480360381019061005091906100f3565b61009b565b604051610062919061013e565b60405180910390f35b610085600480360381019061008091906100f3565b6100b2565b604051610092919061013e565b60405180910390f35b60006002826100aa9190610159565b905092915050565b60006002826100c1919061018a565b905092915050565b6000813590506100d88161027e565b92915050565b6000813590506100ed81610295565b92915050565b6000806040838503121561010657600080fd5b6000610114858286016100c9565b9250506020610125858286016100de565b9150509250929050565b61013881610216565b82525050565b6000602082019050610153600083018461012f565b92915050565b600061016482610216565b915061016f83610216565b92508261017f5761017e61024f565b5b828204905092915050565b600061019582610216565b91506101a083610216565b9250817fffffffffffffffffffffffffffffffffffffffffffffffffffffffffffffffff04831182151516156101d9576101d8610220565b5b828202905092915050565b60006101ef826101f6565b9050919050565b600073ffffffffffffffffffffffffffffffffffffffff82169050919050565b6000819050919050565b7f4e487b7100000000000000000000000000000000000000000000000000000000600052601160045260246000fd5b7f4e487b7100000000000000000000000000000000000000000000000000000000600052601260045260246000fd5b610287816101e4565b811461029257600080fd5b50565b61029e81610216565b81146102a957600080fd5b5056fea2646970667358221220f30295188b89a24a6e81ec32f35dc655b3a0236b60ca7ebd2b6efc9870ad75a464736f6c63430008040033",
  "linkReferences": {},
  "deployedLinkReferences": {}
}