{
  "_format": "hh-sol-artifact-1",
  "contractName": "PauserRole",
  "sourceName": "contracts/libs/PauserRole.sol",
  "abi": [
    {
      "inputs": [],
      "stateMutability": "nonpayable",
      "type": "constructor"
    },
    {
      "anonymous": false,
      "inputs": [
        {
          "indexed": true,
          "internalType": "address",
          "name": "account",
          "type": "address"
        }
      ],
      "name": "PauserAdded",
      "type": "event"
    },
    {
      "anonymous": false,
      "inputs": [
        {
          "indexed": true,
          "internalType": "address",
          "name": "account",
          "type": "address"
        }
      ],
      "name": "PauserRemoved",
      "type": "event"
    },
    {
      "inputs": [
        {
          "internalType": "address",
          "name": "account",
          "type": "address"
        }
      ],
      "name": "addPauser",
      "outputs": [],
      "stateMutability": "nonpayable",
      "type": "function"
    },
    {
      "inputs": [
        {
          "internalType": "address",
          "name": "account",
          "type": "address"
        }
      ],
      "name": "isPauser",
      "outputs": [
        {
          "internalType": "bool",
          "name": "",
          "type": "bool"
        }
      ],
      "stateMutability": "view",
      "type": "function"
    },
    {
      "inputs": [],
      "name": "renouncePauser",
      "outputs": [],
      "stateMutability": "nonpayable",
      "type": "function"
    }
  ],
  "bytecode": "0x608060405234801561001057600080fd5b5061002d61002261003260201b60201c565b61003a60201b60201c565b61031d565b600033905090565b61005281600061009860201b6101261790919060201c565b8073ffffffffffffffffffffffffffffffffffffffff167f6719d08c1888103bea251a4ed56406bd0c3e69723c8a1686e017e7bbe159b6f860405160405180910390a250565b6100a8828261014660201b60201c565b156100e8576040517f08c379a00000000000000000000000000000000000000000000000000000000081526004016100df90610254565b60405180910390fd5b60018260000160008373ffffffffffffffffffffffffffffffffffffffff1673ffffffffffffffffffffffffffffffffffffffff16815260200190815260200160002060006101000a81548160ff0219169083151502179055505050565b60008073ffffffffffffffffffffffffffffffffffffffff168273ffffffffffffffffffffffffffffffffffffffff1614156101b7576040517f08c379a00000000000000000000000000000000000000000000000000000000081526004016101ae90610274565b60405180910390fd5b8260000160008373ffffffffffffffffffffffffffffffffffffffff1673ffffffffffffffffffffffffffffffffffffffff16815260200190815260200160002060009054906101000a900460ff16905092915050565b600061021b601f83610294565b9150610226826102a5565b602082019050919050565b600061023e602283610294565b9150610249826102ce565b604082019050919050565b6000602082019050818103600083015261026d8161020e565b9050919050565b6000602082019050818103600083015261028d81610231565b9050919050565b600082825260208201905092915050565b7f526f6c65733a206163636f756e7420616c72656164792068617320726f6c6500600082015250565b7f526f6c65733a206163636f756e7420697320746865207a65726f20616464726560008201527f7373000000000000000000000000000000000000000000000000000000000000602082015250565b61071f8061032c6000396000f3fe608060405234801561001057600080fd5b50600436106100415760003560e01c806346fbf68e146100465780636ef8d66d1461007657806382dc1ec414610080575b600080fd5b610060600480360381019061005b919061040e565b61009c565b60405161006d91906104d2565b60405180910390f35b61007e6100b9565b005b61009a6004803603810190610095919061040e565b6100cb565b005b60006100b28260006101ce90919063ffffffff16565b9050919050565b6100c96100c4610296565b61029e565b565b6100db6100d6610296565b61009c565b61011a576040517f08c379a00000000000000000000000000000000000000000000000000000000081526004016101119061050d565b60405180910390fd5b610123816102f8565b50565b61013082826101ce565b15610170576040517f08c379a0000000000000000000000000000000000000000000000000000000008152600401610167906104ed565b60405180910390fd5b60018260000160008373ffffffffffffffffffffffffffffffffffffffff1673ffffffffffffffffffffffffffffffffffffffff16815260200190815260200160002060006101000a81548160ff0219169083151502179055505050565b60008073ffffffffffffffffffffffffffffffffffffffff168273ffffffffffffffffffffffffffffffffffffffff16141561023f576040517f08c379a00000000000000000000000000000000000000000000000000000000081526004016102369061054d565b60405180910390fd5b8260000160008373ffffffffffffffffffffffffffffffffffffffff1673ffffffffffffffffffffffffffffffffffffffff16815260200190815260200160002060009054906101000a900460ff16905092915050565b600033905090565b6102b281600061035290919063ffffffff16565b8073ffffffffffffffffffffffffffffffffffffffff167fcd265ebaf09df2871cc7bd4133404a235ba12eff2041bb89d9c714a2621c7c7e60405160405180910390a250565b61030c81600061012690919063ffffffff16565b8073ffffffffffffffffffffffffffffffffffffffff167f6719d08c1888103bea251a4ed56406bd0c3e69723c8a1686e017e7bbe159b6f860405160405180910390a250565b61035c82826101ce565b61039b576040517f08c379a00000000000000000000000000000000000000000000000000000000081526004016103929061052d565b60405180910390fd5b60008260000160008373ffffffffffffffffffffffffffffffffffffffff1673ffffffffffffffffffffffffffffffffffffffff16815260200190815260200160002060006101000a81548160ff0219169083151502179055505050565b600081359050610408816106d2565b92915050565b60006020828403121561042057600080fd5b600061042e848285016103f9565b91505092915050565b61044081610590565b82525050565b6000610453601f8361056d565b915061045e826105bc565b602082019050919050565b600061047660308361056d565b9150610481826105e5565b604082019050919050565b600061049960218361056d565b91506104a482610634565b604082019050919050565b60006104bc60228361056d565b91506104c782610683565b604082019050919050565b60006020820190506104e76000830184610437565b92915050565b6000602082019050818103600083015261050681610446565b9050919050565b6000602082019050818103600083015261052681610469565b9050919050565b600060208201905081810360008301526105468161048c565b9050919050565b60006020820190508181036000830152610566816104af565b9050919050565b600082825260208201905092915050565b60006105898261059c565b9050919050565b60008115159050919050565b600073ffffffffffffffffffffffffffffffffffffffff82169050919050565b7f526f6c65733a206163636f756e7420616c72656164792068617320726f6c6500600082015250565b7f506175736572526f6c653a2063616c6c657220646f6573206e6f74206861766560008201527f207468652050617573657220726f6c6500000000000000000000000000000000602082015250565b7f526f6c65733a206163636f756e7420646f6573206e6f74206861766520726f6c60008201527f6500000000000000000000000000000000000000000000000000000000000000602082015250565b7f526f6c65733a206163636f756e7420697320746865207a65726f20616464726560008201527f7373000000000000000000000000000000000000000000000000000000000000602082015250565b6106db8161057e565b81146106e657600080fd5b5056fea2646970667358221220d828b22c3a1fc4cd4c1700781cc6a6c1052636de86dcf957746345387c7a49c564736f6c63430008040033",
  "linkReferences": {},
  "deployedLinkReferences": {}
}