{
  "_format": "hh-sol-artifact-1",
  "contractName": "MockMarketV2",
  "sourceName": "contracts/mocks/MockMarketV2.sol",
  "abi": [
    {
      "anonymous": false,
      "inputs": [
        {
          "indexed": true,
          "internalType": "uint256",
          "name": "_bidId",
          "type": "uint256"
        }
      ],
      "name": "AcceptBid",
      "type": "event"
    },
    {
      "anonymous": false,
      "inputs": [
        {
          "indexed": true,
          "internalType": "uint256",
          "name": "_bidId",
          "type": "uint256"
        }
      ],
      "name": "BidCancelled",
      "type": "event"
    },
    {
      "anonymous": false,
      "inputs": [
        {
          "indexed": true,
          "internalType": "uint256",
          "name": "_bidId",
          "type": "uint256"
        },
        {
          "indexed": false,
          "internalType": "address",
          "name": "_tokenAddress",
          "type": "address"
        },
        {
          "indexed": true,
          "internalType": "uint256",
          "name": "_tokenId",
          "type": "uint256"
        },
        {
          "indexed": true,
          "internalType": "uint256",
          "name": "_quantity",
          "type": "uint256"
        },
        {
          "indexed": false,
          "internalType": "uint256",
          "name": "_price",
          "type": "uint256"
        },
        {
          "indexed": false,
          "internalType": "address",
          "name": "_paymentToken",
          "type": "address"
        }
      ],
      "name": "BidCreated",
      "type": "event"
    },
    {
      "anonymous": false,
      "inputs": [
        {
          "indexed": true,
          "internalType": "uint256",
          "name": "_bidId",
          "type": "uint256"
        }
      ],
      "name": "BidUpdated",
      "type": "event"
    },
    {
      "anonymous": false,
      "inputs": [
        {
          "indexed": false,
          "internalType": "uint256",
          "name": "_itemId",
          "type": "uint256"
        },
        {
          "indexed": false,
          "internalType": "uint256",
          "name": "_quantity",
          "type": "uint256"
        },
        {
          "indexed": false,
          "internalType": "address",
          "name": "_paymentToken",
          "type": "address"
        },
        {
          "indexed": false,
          "internalType": "uint256",
          "name": "_paymentAmount",
          "type": "uint256"
        }
      ],
      "name": "Buy",
      "type": "event"
    },
    {
      "anonymous": false,
      "inputs": [
        {
          "indexed": true,
          "internalType": "uint256",
          "name": "_orderId",
          "type": "uint256"
        }
      ],
      "name": "OrderCancelled",
      "type": "event"
    },
    {
      "anonymous": false,
      "inputs": [
        {
          "indexed": true,
          "internalType": "uint256",
          "name": "_orderId",
          "type": "uint256"
        },
        {
          "indexed": false,
          "internalType": "address",
          "name": "_tokenAddress",
          "type": "address"
        },
        {
          "indexed": true,
          "internalType": "uint256",
          "name": "_tokenId",
          "type": "uint256"
        },
        {
          "indexed": true,
          "internalType": "uint256",
          "name": "_quantity",
          "type": "uint256"
        },
        {
          "indexed": false,
          "internalType": "uint256",
          "name": "_price",
          "type": "uint256"
        },
        {
          "indexed": false,
          "internalType": "address",
          "name": "_paymentToken",
          "type": "address"
        }
      ],
      "name": "OrderCreated",
      "type": "event"
    },
    {
      "anonymous": false,
      "inputs": [
        {
          "indexed": true,
          "internalType": "uint256",
          "name": "_orderId",
          "type": "uint256"
        }
      ],
      "name": "OrderUpdated",
      "type": "event"
    },
    {
      "anonymous": false,
      "inputs": [
        {
          "indexed": true,
          "internalType": "address",
          "name": "previousOwner",
          "type": "address"
        },
        {
          "indexed": true,
          "internalType": "address",
          "name": "newOwner",
          "type": "address"
        }
      ],
      "name": "OwnershipTransferred",
      "type": "event"
    },
    {
      "anonymous": false,
      "inputs": [
        {
          "indexed": false,
          "internalType": "address",
          "name": "account",
          "type": "address"
        }
      ],
      "name": "Paused",
      "type": "event"
    },
    {
      "anonymous": false,
      "inputs": [
        {
          "indexed": false,
          "internalType": "address",
          "name": "account",
          "type": "address"
        }
      ],
      "name": "Unpaused",
      "type": "event"
    },
    {
      "inputs": [],
      "name": "WBNB",
      "outputs": [
        {
          "internalType": "address",
          "name": "",
          "type": "address"
        }
      ],
      "stateMutability": "view",
      "type": "function"
    },
    {
      "inputs": [],
      "name": "ZOOM_FEE",
      "outputs": [
        {
          "internalType": "uint256",
          "name": "",
          "type": "uint256"
        }
      ],
      "stateMutability": "view",
      "type": "function"
    },
    {
      "inputs": [],
      "name": "ZOOM_SOTA",
      "outputs": [
        {
          "internalType": "uint256",
          "name": "",
          "type": "uint256"
        }
      ],
      "stateMutability": "view",
      "type": "function"
    },
    {
      "inputs": [],
      "name": "ZOOM_USDT",
      "outputs": [
        {
          "internalType": "uint256",
          "name": "",
          "type": "uint256"
        }
      ],
      "stateMutability": "view",
      "type": "function"
    },
    {
      "inputs": [
        {
          "internalType": "uint256",
          "name": "_bidId",
          "type": "uint256"
        },
        {
          "internalType": "uint256",
          "name": "_quantity",
          "type": "uint256"
        }
      ],
      "name": "acceptBid",
      "outputs": [
        {
          "internalType": "bool",
          "name": "",
          "type": "bool"
        }
      ],
      "stateMutability": "nonpayable",
      "type": "function"
    },
    {
      "inputs": [
        {
          "internalType": "address",
          "name": "_sotaNFT",
          "type": "address"
        },
        {
          "internalType": "bool",
          "name": "_isSOTANFT",
          "type": "bool"
        },
        {
          "internalType": "bool",
          "name": "_isFarming",
          "type": "bool"
        }
      ],
      "name": "addSOTANFTs",
      "outputs": [
        {
          "internalType": "bool",
          "name": "",
          "type": "bool"
        }
      ],
      "stateMutability": "nonpayable",
      "type": "function"
    },
    {
      "inputs": [
        {
          "internalType": "address",
          "name": "",
          "type": "address"
        },
        {
          "internalType": "uint256",
          "name": "",
          "type": "uint256"
        }
      ],
      "name": "amountFirstSale",
      "outputs": [
        {
          "internalType": "uint256",
          "name": "",
          "type": "uint256"
        }
      ],
      "stateMutability": "view",
      "type": "function"
    },
    {
      "inputs": [
        {
          "internalType": "uint256",
          "name": "",
          "type": "uint256"
        }
      ],
      "name": "bids",
      "outputs": [
        {
          "internalType": "address",
          "name": "bidder",
          "type": "address"
        },
        {
          "internalType": "address",
          "name": "paymentToken",
          "type": "address"
        },
        {
          "internalType": "address",
          "name": "tokenAddress",
          "type": "address"
        },
        {
          "internalType": "uint256",
          "name": "tokenId",
          "type": "uint256"
        },
        {
          "internalType": "uint256",
          "name": "bidPrice",
          "type": "uint256"
        },
        {
          "internalType": "uint256",
          "name": "quantity",
          "type": "uint256"
        },
        {
          "internalType": "uint256",
          "name": "expTime",
          "type": "uint256"
        },
        {
          "internalType": "bool",
          "name": "status",
          "type": "bool"
        }
      ],
      "stateMutability": "view",
      "type": "function"
    },
    {
      "inputs": [
        {
          "internalType": "uint256",
          "name": "_orderId",
          "type": "uint256"
        },
        {
          "internalType": "uint256",
          "name": "_quantity",
          "type": "uint256"
        },
        {
          "internalType": "address",
          "name": "_paymentToken",
          "type": "address"
        }
      ],
      "name": "buy",
      "outputs": [
        {
          "internalType": "bool",
          "name": "",
          "type": "bool"
        }
      ],
      "stateMutability": "payable",
      "type": "function"
    },
    {
      "inputs": [
        {
          "internalType": "uint256",
          "name": "_bidId",
          "type": "uint256"
        }
      ],
      "name": "cancelBid",
      "outputs": [],
      "stateMutability": "nonpayable",
      "type": "function"
    },
    {
      "inputs": [
        {
          "internalType": "uint256",
          "name": "_orderId",
          "type": "uint256"
        }
      ],
      "name": "cancelOrder",
      "outputs": [],
      "stateMutability": "nonpayable",
      "type": "function"
    },
    {
      "inputs": [
        {
          "internalType": "address",
          "name": "_tokenAddress",
          "type": "address"
        },
        {
          "internalType": "address",
          "name": "_paymentToken",
          "type": "address"
        },
        {
          "internalType": "uint256",
          "name": "_tokenId",
          "type": "uint256"
        },
        {
          "internalType": "uint256",
          "name": "_quantity",
          "type": "uint256"
        },
        {
          "internalType": "uint256",
          "name": "_price",
          "type": "uint256"
        },
        {
          "internalType": "uint256",
          "name": "_expTime",
          "type": "uint256"
        }
      ],
      "name": "createBid",
      "outputs": [
        {
          "internalType": "uint256",
          "name": "_bidId",
          "type": "uint256"
        }
      ],
      "stateMutability": "payable",
      "type": "function"
    },
    {
      "inputs": [
        {
          "internalType": "address",
          "name": "_tokenAddress",
          "type": "address"
        },
        {
          "internalType": "address",
          "name": "_retailer",
          "type": "address"
        },
        {
          "internalType": "address",
          "name": "_paymentToken",
          "type": "address"
        },
        {
          "internalType": "uint256",
          "name": "_tokenId",
          "type": "uint256"
        },
        {
          "internalType": "uint256",
          "name": "_quantity",
          "type": "uint256"
        },
        {
          "internalType": "uint256",
          "name": "_price",
          "type": "uint256"
        },
        {
          "internalType": "uint256",
          "name": "_retailFee",
          "type": "uint256"
        }
      ],
      "name": "createOrder",
      "outputs": [
        {
          "internalType": "uint256",
          "name": "_orderId",
          "type": "uint256"
        }
      ],
      "stateMutability": "nonpayable",
      "type": "function"
    },
    {
      "inputs": [],
      "name": "discountForBuyer",
      "outputs": [
        {
          "internalType": "uint256",
          "name": "",
          "type": "uint256"
        }
      ],
      "stateMutability": "view",
      "type": "function"
    },
    {
      "inputs": [],
      "name": "discountForSota",
      "outputs": [
        {
          "internalType": "uint256",
          "name": "",
          "type": "uint256"
        }
      ],
      "stateMutability": "view",
      "type": "function"
    },
    {
      "inputs": [
        {
          "internalType": "address",
          "name": "",
          "type": "address"
        },
        {
          "internalType": "bytes32",
          "name": "",
          "type": "bytes32"
        }
      ],
      "name": "farmingAmount",
      "outputs": [
        {
          "internalType": "uint256",
          "name": "",
          "type": "uint256"
        }
      ],
      "stateMutability": "view",
      "type": "function"
    },
    {
      "inputs": [],
      "name": "getOwn",
      "outputs": [
        {
          "internalType": "address",
          "name": "",
          "type": "address"
        }
      ],
      "stateMutability": "view",
      "type": "function"
    },
    {
      "inputs": [],
      "name": "getWBNB",
      "outputs": [
        {
          "internalType": "address",
          "name": "",
          "type": "address"
        }
      ],
      "stateMutability": "view",
      "type": "function"
    },
    {
      "inputs": [
        {
          "internalType": "address",
          "name": "",
          "type": "address"
        }
      ],
      "name": "isFarmingNFTs",
      "outputs": [
        {
          "internalType": "bool",
          "name": "",
          "type": "bool"
        }
      ],
      "stateMutability": "view",
      "type": "function"
    },
    {
      "inputs": [
        {
          "internalType": "address",
          "name": "",
          "type": "address"
        }
      ],
      "name": "isOperator",
      "outputs": [
        {
          "internalType": "bool",
          "name": "",
          "type": "bool"
        }
      ],
      "stateMutability": "view",
      "type": "function"
    },
    {
      "inputs": [
        {
          "internalType": "address",
          "name": "",
          "type": "address"
        }
      ],
      "name": "isRetailer",
      "outputs": [
        {
          "internalType": "bool",
          "name": "",
          "type": "bool"
        }
      ],
      "stateMutability": "view",
      "type": "function"
    },
    {
      "inputs": [
        {
          "internalType": "address",
          "name": "",
          "type": "address"
        }
      ],
      "name": "isSOTANFTs",
      "outputs": [
        {
          "internalType": "bool",
          "name": "",
          "type": "bool"
        }
      ],
      "stateMutability": "view",
      "type": "function"
    },
    {
      "inputs": [],
      "name": "mockGetdiscountForBuyer",
      "outputs": [
        {
          "internalType": "uint256",
          "name": "",
          "type": "uint256"
        }
      ],
      "stateMutability": "view",
      "type": "function"
    },
    {
      "inputs": [],
      "name": "mockGetdiscountForSota",
      "outputs": [
        {
          "internalType": "uint256",
          "name": "",
          "type": "uint256"
        }
      ],
      "stateMutability": "view",
      "type": "function"
    },
    {
      "inputs": [],
      "name": "mockGetxCreator",
      "outputs": [
        {
          "internalType": "uint256",
          "name": "",
          "type": "uint256"
        }
      ],
      "stateMutability": "view",
      "type": "function"
    },
    {
      "inputs": [],
      "name": "mockGetxUser",
      "outputs": [
        {
          "internalType": "uint256",
          "name": "",
          "type": "uint256"
        }
      ],
      "stateMutability": "view",
      "type": "function"
    },
    {
      "inputs": [],
      "name": "mockGetyRefRate",
      "outputs": [
        {
          "internalType": "uint256",
          "name": "",
          "type": "uint256"
        }
      ],
      "stateMutability": "view",
      "type": "function"
    },
    {
      "inputs": [],
      "name": "mockGetzProfitToCreator",
      "outputs": [
        {
          "internalType": "uint256",
          "name": "",
          "type": "uint256"
        }
      ],
      "stateMutability": "view",
      "type": "function"
    },
    {
      "inputs": [
        {
          "internalType": "address",
          "name": "addr",
          "type": "address"
        }
      ],
      "name": "mockIsOperator",
      "outputs": [
        {
          "internalType": "bool",
          "name": "",
          "type": "bool"
        }
      ],
      "stateMutability": "view",
      "type": "function"
    },
    {
      "inputs": [
        {
          "internalType": "address",
          "name": "addr",
          "type": "address"
        }
      ],
      "name": "mockIsRetailer",
      "outputs": [
        {
          "internalType": "bool",
          "name": "",
          "type": "bool"
        }
      ],
      "stateMutability": "view",
      "type": "function"
    },
    {
      "inputs": [
        {
          "internalType": "address",
          "name": "_token",
          "type": "address"
        }
      ],
      "name": "mockPaymentMethod",
      "outputs": [
        {
          "internalType": "bool",
          "name": "",
          "type": "bool"
        }
      ],
      "stateMutability": "view",
      "type": "function"
    },
    {
      "inputs": [
        {
          "internalType": "address",
          "name": "",
          "type": "address"
        },
        {
          "internalType": "address",
          "name": "",
          "type": "address"
        },
        {
          "internalType": "uint256[]",
          "name": "",
          "type": "uint256[]"
        },
        {
          "internalType": "uint256[]",
          "name": "",
          "type": "uint256[]"
        },
        {
          "internalType": "bytes",
          "name": "",
          "type": "bytes"
        }
      ],
      "name": "onERC1155BatchReceived",
      "outputs": [
        {
          "internalType": "bytes4",
          "name": "",
          "type": "bytes4"
        }
      ],
      "stateMutability": "nonpayable",
      "type": "function"
    },
    {
      "inputs": [
        {
          "internalType": "address",
          "name": "",
          "type": "address"
        },
        {
          "internalType": "address",
          "name": "",
          "type": "address"
        },
        {
          "internalType": "uint256",
          "name": "",
          "type": "uint256"
        },
        {
          "internalType": "uint256",
          "name": "",
          "type": "uint256"
        },
        {
          "internalType": "bytes",
          "name": "",
          "type": "bytes"
        }
      ],
      "name": "onERC1155Received",
      "outputs": [
        {
          "internalType": "bytes4",
          "name": "",
          "type": "bytes4"
        }
      ],
      "stateMutability": "nonpayable",
      "type": "function"
    },
    {
      "inputs": [
        {
          "internalType": "address",
          "name": "",
          "type": "address"
        },
        {
          "internalType": "address",
          "name": "",
          "type": "address"
        },
        {
          "internalType": "uint256",
          "name": "",
          "type": "uint256"
        },
        {
          "internalType": "bytes",
          "name": "",
          "type": "bytes"
        }
      ],
      "name": "onERC721Received",
      "outputs": [
        {
          "internalType": "bytes4",
          "name": "",
          "type": "bytes4"
        }
      ],
      "stateMutability": "nonpayable",
      "type": "function"
    },
    {
      "inputs": [
        {
          "internalType": "uint256",
          "name": "",
          "type": "uint256"
        }
      ],
      "name": "orders",
      "outputs": [
        {
          "internalType": "address",
          "name": "owner",
          "type": "address"
        },
        {
          "internalType": "address",
          "name": "tokenAddress",
          "type": "address"
        },
        {
          "internalType": "address",
          "name": "paymentToken",
          "type": "address"
        },
        {
          "internalType": "address",
          "name": "retailer",
          "type": "address"
        },
        {
          "internalType": "uint256",
          "name": "tokenId",
          "type": "uint256"
        },
        {
          "internalType": "uint256",
          "name": "quantity",
          "type": "uint256"
        },
        {
          "internalType": "uint256",
          "name": "price",
          "type": "uint256"
        },
        {
          "internalType": "uint256",
          "name": "retailFee",
          "type": "uint256"
        },
        {
          "internalType": "bool",
          "name": "isOnsale",
          "type": "bool"
        },
        {
          "internalType": "bool",
          "name": "isERC721",
          "type": "bool"
        }
      ],
      "stateMutability": "view",
      "type": "function"
    },
    {
      "inputs": [],
      "name": "owner",
      "outputs": [
        {
          "internalType": "address",
          "name": "",
          "type": "address"
        }
      ],
      "stateMutability": "view",
      "type": "function"
    },
    {
      "inputs": [],
      "name": "pause",
      "outputs": [],
      "stateMutability": "nonpayable",
      "type": "function"
    },
    {
      "inputs": [],
      "name": "paused",
      "outputs": [
        {
          "internalType": "bool",
          "name": "",
          "type": "bool"
        }
      ],
      "stateMutability": "view",
      "type": "function"
    },
    {
      "inputs": [
        {
          "internalType": "address",
          "name": "",
          "type": "address"
        }
      ],
      "name": "paymentMethod",
      "outputs": [
        {
          "internalType": "bool",
          "name": "",
          "type": "bool"
        }
      ],
      "stateMutability": "view",
      "type": "function"
    },
    {
      "inputs": [],
      "name": "profitEstimatorContract",
      "outputs": [
        {
          "internalType": "address",
          "name": "",
          "type": "address"
        }
      ],
      "stateMutability": "view",
      "type": "function"
    },
    {
      "inputs": [],
      "name": "referralContract",
      "outputs": [
        {
          "internalType": "address",
          "name": "",
          "type": "address"
        }
      ],
      "stateMutability": "view",
      "type": "function"
    },
    {
      "inputs": [],
      "name": "renounceOwnership",
      "outputs": [],
      "stateMutability": "nonpayable",
      "type": "function"
    },
    {
      "inputs": [
        {
          "internalType": "address",
          "name": "_token",
          "type": "address"
        },
        {
          "internalType": "address",
          "name": "_spender",
          "type": "address"
        }
      ],
      "name": "setApproveForAll",
      "outputs": [],
      "stateMutability": "nonpayable",
      "type": "function"
    },
    {
      "inputs": [
        {
          "internalType": "address",
          "name": "_token",
          "type": "address"
        },
        {
          "internalType": "address",
          "name": "_spender",
          "type": "address"
        }
      ],
      "name": "setApproveForAllERC721",
      "outputs": [],
      "stateMutability": "nonpayable",
      "type": "function"
    },
    {
      "inputs": [
        {
          "internalType": "address",
          "name": "_token",
          "type": "address"
        },
        {
          "internalType": "bool",
          "name": "_status",
          "type": "bool"
        }
      ],
      "name": "setPaymentMethod",
      "outputs": [
        {
          "internalType": "bool",
          "name": "",
          "type": "bool"
        }
      ],
      "stateMutability": "nonpayable",
      "type": "function"
    },
    {
      "inputs": [
        {
          "internalType": "address",
          "name": "_profitEstimatorContract",
          "type": "address"
        }
      ],
      "name": "setProfitSenderContract",
      "outputs": [
        {
          "internalType": "bool",
          "name": "",
          "type": "bool"
        }
      ],
      "stateMutability": "nonpayable",
      "type": "function"
    },
    {
      "inputs": [
        {
          "internalType": "address",
          "name": "_referralContract",
          "type": "address"
        }
      ],
      "name": "setReferralContract",
      "outputs": [
        {
          "internalType": "bool",
          "name": "",
          "type": "bool"
        }
      ],
      "stateMutability": "nonpayable",
      "type": "function"
    },
    {
      "inputs": [
        {
          "internalType": "address",
          "name": "_sota",
          "type": "address"
        }
      ],
      "name": "setSotaContract",
      "outputs": [
        {
          "internalType": "bool",
          "name": "",
          "type": "bool"
        }
      ],
      "stateMutability": "nonpayable",
      "type": "function"
    },
    {
      "inputs": [
        {
          "internalType": "address",
          "name": "_sotaExchangeContract",
          "type": "address"
        }
      ],
      "name": "setSotaExchangeContract",
      "outputs": [
        {
          "internalType": "bool",
          "name": "",
          "type": "bool"
        }
      ],
      "stateMutability": "nonpayable",
      "type": "function"
    },
    {
      "inputs": [
        {
          "internalType": "uint256",
          "name": "_xUser",
          "type": "uint256"
        },
        {
          "internalType": "uint256",
          "name": "_xCreator",
          "type": "uint256"
        },
        {
          "internalType": "uint256",
          "name": "_yRefRate",
          "type": "uint256"
        },
        {
          "internalType": "uint256",
          "name": "_zProfitToCreator",
          "type": "uint256"
        },
        {
          "internalType": "uint256",
          "name": "_discountForBuyer",
          "type": "uint256"
        },
        {
          "internalType": "uint256",
          "name": "_discountForSota",
          "type": "uint256"
        }
      ],
      "name": "setSystemFee",
      "outputs": [],
      "stateMutability": "nonpayable",
      "type": "function"
    },
    {
      "inputs": [],
      "name": "sota",
      "outputs": [
        {
          "internalType": "address",
          "name": "",
          "type": "address"
        }
      ],
      "stateMutability": "view",
      "type": "function"
    },
    {
      "inputs": [],
      "name": "sotaExchangeContract",
      "outputs": [
        {
          "internalType": "address",
          "name": "",
          "type": "address"
        }
      ],
      "stateMutability": "view",
      "type": "function"
    },
    {
      "inputs": [
        {
          "internalType": "bytes4",
          "name": "interfaceId",
          "type": "bytes4"
        }
      ],
      "name": "supportsInterface",
      "outputs": [
        {
          "internalType": "bool",
          "name": "",
          "type": "bool"
        }
      ],
      "stateMutability": "view",
      "type": "function"
    },
    {
      "inputs": [],
      "name": "totalBids",
      "outputs": [
        {
          "internalType": "uint256",
          "name": "",
          "type": "uint256"
        }
      ],
      "stateMutability": "view",
      "type": "function"
    },
    {
      "inputs": [],
      "name": "totalOrders",
      "outputs": [
        {
          "internalType": "uint256",
          "name": "",
          "type": "uint256"
        }
      ],
      "stateMutability": "view",
      "type": "function"
    },
    {
      "inputs": [
        {
          "internalType": "address",
          "name": "newOwner",
          "type": "address"
        }
      ],
      "name": "transferOwnership",
      "outputs": [],
      "stateMutability": "nonpayable",
      "type": "function"
    },
    {
      "inputs": [],
      "name": "unPause",
      "outputs": [],
      "stateMutability": "nonpayable",
      "type": "function"
    },
    {
      "inputs": [
        {
          "internalType": "uint256",
          "name": "_bidId",
          "type": "uint256"
        },
        {
          "internalType": "uint256",
          "name": "_quantity",
          "type": "uint256"
        },
        {
          "internalType": "uint256",
          "name": "_bidPrice",
          "type": "uint256"
        }
      ],
      "name": "updateBid",
      "outputs": [],
      "stateMutability": "nonpayable",
      "type": "function"
    },
    {
      "inputs": [
        {
          "internalType": "uint256",
          "name": "_orderId",
          "type": "uint256"
        },
        {
          "internalType": "uint256",
          "name": "_quantity",
          "type": "uint256"
        },
        {
          "internalType": "uint256",
          "name": "_price",
          "type": "uint256"
        },
        {
          "internalType": "uint256",
          "name": "_retailFee",
          "type": "uint256"
        },
        {
          "internalType": "address",
          "name": "_retailer",
          "type": "address"
        }
      ],
      "name": "updateOrder",
      "outputs": [],
      "stateMutability": "nonpayable",
      "type": "function"
    },
    {
      "inputs": [
        {
          "internalType": "address",
          "name": "_operator",
          "type": "address"
        },
        {
          "internalType": "bool",
          "name": "_whitelist",
          "type": "bool"
        }
      ],
      "name": "whiteListOperator",
      "outputs": [],
      "stateMutability": "nonpayable",
      "type": "function"
    },
    {
      "inputs": [
        {
          "internalType": "address",
          "name": "_retailer",
          "type": "address"
        },
        {
          "internalType": "bool",
          "name": "_whitelist",
          "type": "bool"
        }
      ],
      "name": "whiteListRetailer",
      "outputs": [],
      "stateMutability": "nonpayable",
      "type": "function"
    },
    {
      "inputs": [
        {
          "internalType": "address payable",
          "name": "_beneficiary",
          "type": "address"
        },
        {
          "internalType": "address",
          "name": "_tokenAddress",
          "type": "address"
        }
      ],
      "name": "withdrawFunds",
      "outputs": [],
      "stateMutability": "nonpayable",
      "type": "function"
    },
    {
      "inputs": [],
      "name": "xCreator",
      "outputs": [
        {
          "internalType": "uint256",
          "name": "",
          "type": "uint256"
        }
      ],
      "stateMutability": "view",
      "type": "function"
    },
    {
      "inputs": [],
      "name": "xUser",
      "outputs": [
        {
          "internalType": "uint256",
          "name": "",
          "type": "uint256"
        }
      ],
      "stateMutability": "view",
      "type": "function"
    },
    {
      "inputs": [],
      "name": "yRefRate",
      "outputs": [
        {
          "internalType": "uint256",
          "name": "",
          "type": "uint256"
        }
      ],
      "stateMutability": "view",
      "type": "function"
    },
    {
      "inputs": [],
      "name": "zProfitToCreator",
      "outputs": [
        {
          "internalType": "uint256",
          "name": "",
          "type": "uint256"
        }
      ],
      "stateMutability": "view",
      "type": "function"
    }
  ],
  "bytecode": "0x6080604052600280546001600160a01b03191673ae13d989dac2f0debff460ac112a837c89baa7cd17905560fa6006556105dc60075561138860088190556009556032600a556064600b553480156200005757600080fd5b50620000633362000093565b6000805460ff60a01b19168155338152600f60205260409020805460ff19166001908117909155601155620000e3565b600080546001600160a01b038381166001600160a01b0319831681178455604051919092169283917f8be0079c531659141344cd1fd0a4f28419497f9722a3daafe3b4186f6b6457e09190a35050565b61531680620000f36000396000f3fe6080604052600436106103d85760003560e01c80637dad19db116101fd578063b3de7a9d11610118578063d2344287116100ab578063daeeb1761161007a578063daeeb17614610ce4578063e0683dcb14610d1d578063f23a6e6114610d3d578063f2fde38b14610d69578063f7b188a514610d8957600080fd5b8063d234428714610c7c578063d2f4e2ca14610c98578063d5991b8f14610cb8578063d60ebf4e14610cce57600080fd5b8063cd38463f116100e7578063cd38463f14610bf7578063ce4471be14610c0d578063ceddd2b914610c46578063d0a106ba14610c6657600080fd5b8063b3de7a9d14610b66578063ba871f8b14610b86578063bc197c8114610b9b578063c159ba6414610bc757600080fd5b80638fe8fb05116101905780639efc1b1c1161015f5780639efc1b1c14610a31578063a0f5cb3f14610a51578063a43c876b14610a71578063a85c38ef14610a8657600080fd5b80638fe8fb0514610998578063932579b3146109b857806396c89cab146109f15780639703ef3514610a1157600080fd5b80638c3b512c116101cc5780638c3b512c1461092f5780638da5cb5b146109445780638dd95002146109625780638f6d637e1461098257600080fd5b80637dad19db146108ac5780638456cb59146108cc5780638b034136146108e15780638bf5651a146108f757600080fd5b80634278f7e3116102f85780635a9175001161028b5780636ac3861a1161025a5780636ac3861a146108115780636b7453261461082f5780636d70f7ae1461086757806370e103fc146104c4578063715018a61461089757600080fd5b80635a917500146107825780635c975abb146107a25780635da09b88146107c15780635e110da9146107f157600080fd5b806350c7e003116102c757806350c7e0031461070f578063514fcac71461072f57806359a87bc11461074f57806359b460871461076257600080fd5b80634278f7e3146106115780634423c5f11461062857806347ef7f64146106e35780634c013cee146106f957600080fd5b80631cfe8f2e1161037057806328b76e371161033f57806328b76e371461059057806328de2f6c146105c05780632d472b4a146105e757806335f4ac00146105fc57600080fd5b80631cfe8f2e146105285780631d834409146105475780631e9e42041461055d5780632834303a1461057d57600080fd5b80630ac9e577116103ac5780630ac9e577146104745780630edef38a146104945780630fcd1cb4146104c4578063150b7a02146104e457600080fd5b80620fa9fb146103dd57806301ffc9a7146103ff57806302e9d5e41461043457806306ad5a4714610454575b600080fd5b3480156103e957600080fd5b506103fd6103f8366004614a37565b610d9e565b005b34801561040b57600080fd5b5061041f61041a366004614d7c565b610f6e565b60405190151581526020015b60405180910390f35b34801561044057600080fd5b5061041f61044f366004614dd8565b610fa5565b34801561046057600080fd5b5061041f61046f3660046149fd565b61130c565b34801561048057600080fd5b5061041f61048f3660046149fd565b61135c565b3480156104a057600080fd5b5061041f6104af3660046149fd565b600c6020526000908152604090205460ff1681565b3480156104d057600080fd5b506103fd6104df366004614a37565b6113aa565b3480156104f057600080fd5b5061050f6104ff366004614b8c565b630a85bd0160e11b949350505050565b6040516001600160e01b0319909116815260200161042b565b34801561053457600080fd5b50600a545b60405190815260200161042b565b34801561055357600080fd5b5061053960125481565b34801561056957600080fd5b50610539610578366004614a70565b61143a565b61053961058b366004614c61565b611cee565b34801561059c57600080fd5b5061041f6105ab3660046149fd565b600d6020526000908152604090205460ff1681565b3480156105cc57600080fd5b50335b6040516001600160a01b03909116815260200161042b565b3480156105f357600080fd5b50600954610539565b34801561060857600080fd5b50600754610539565b34801561061d57600080fd5b50610539620f424081565b34801561063457600080fd5b50610697610643366004614da6565b601660205260009081526040902080546001820154600283015460038401546004850154600586015460068701546007909701546001600160a01b0396871697958716969094169492939192909160ff1688565b604080516001600160a01b03998a168152978916602089015295909716948601949094526060850192909252608084015260a083015260c082015290151560e08201526101000161042b565b3480156106ef57600080fd5b50610539600a5481565b34801561070557600080fd5b5061053960075481565b34801561071b57600080fd5b506004546105cf906001600160a01b031681565b34801561073b57600080fd5b506103fd61074a366004614da6565b611f5e565b61041f61075d366004614dfa565b61227b565b34801561076e57600080fd5b5061041f61077d3660046149fd565b61259f565b34801561078e57600080fd5b5061041f61079d366004614ce8565b6125ef565b3480156107ae57600080fd5b50600054600160a01b900460ff1661041f565b3480156107cd57600080fd5b5061041f6107dc3660046149fd565b60106020526000908152604090205460ff1681565b3480156107fd57600080fd5b506103fd61080c366004614cba565b612696565b34801561081d57600080fd5b506002546001600160a01b03166105cf565b34801561083b57600080fd5b5061053961084a366004614d33565b601960209081526000928352604080842090915290825290205481565b34801561087357600080fd5b5061041f6108823660046149fd565b600f6020526000908152604090205460ff1681565b3480156108a357600080fd5b506103fd6126eb565b3480156108b857600080fd5b506003546105cf906001600160a01b031681565b3480156108d857600080fd5b506103fd612721565b3480156108ed57600080fd5b5061053960135481565b34801561090357600080fd5b50610539610912366004614d33565b601860209081526000928352604080842090915290825290205481565b34801561093b57600080fd5b50600654610539565b34801561095057600080fd5b506000546001600160a01b03166105cf565b34801561096e57600080fd5b506002546105cf906001600160a01b031681565b34801561098e57600080fd5b5061053961271081565b3480156109a457600080fd5b506103fd6109b3366004614cba565b612753565b3480156109c457600080fd5b5061041f6109d33660046149fd565b6001600160a01b03166000908152600c602052604090205460ff1690565b3480156109fd57600080fd5b506103fd610a0c366004614ea1565b6127a8565b348015610a1d57600080fd5b506103fd610a2c366004614da6565b6127f5565b348015610a3d57600080fd5b506001546105cf906001600160a01b031681565b348015610a5d57600080fd5b5061041f610a6c3660046149fd565b612a44565b348015610a7d57600080fd5b50600b54610539565b348015610a9257600080fd5b50610b08610aa1366004614da6565b6014602052600090815260409020805460018201546002830154600384015460048501546005860154600687015460078801546008909801546001600160a01b03978816989688169795861696959094169492939192909160ff808216916101009004168a565b604080516001600160a01b039b8c168152998b1660208b0152978a1697890197909752979094166060870152608086019290925260a085015260c084015260e08301529115156101008201529015156101208201526101400161042b565b348015610b7257600080fd5b506103fd610b81366004614e28565b612a94565b348015610b9257600080fd5b50600854610539565b348015610ba757600080fd5b5061050f610bb6366004614ade565b63bc197c8160e01b95945050505050565b348015610bd357600080fd5b5061041f610be23660046149fd565b600e6020526000908152604090205460ff1681565b348015610c0357600080fd5b5061053960085481565b348015610c1957600080fd5b5061041f610c283660046149fd565b6001600160a01b031660009081526010602052604090205460ff1690565b348015610c5257600080fd5b506005546105cf906001600160a01b031681565b348015610c7257600080fd5b5061053960095481565b348015610c8857600080fd5b50610539670de0b6b3a764000081565b348015610ca457600080fd5b506103fd610cb3366004614e54565b612c46565b348015610cc457600080fd5b50610539600b5481565b348015610cda57600080fd5b5061053960065481565b348015610cf057600080fd5b5061041f610cff3660046149fd565b6001600160a01b03166000908152600f602052604090205460ff1690565b348015610d2957600080fd5b5061041f610d38366004614cba565b612fbc565b348015610d4957600080fd5b5061050f610d58366004614bf8565b63f23a6e6160e01b95945050505050565b348015610d7557600080fd5b506103fd610d843660046149fd565b61311e565b348015610d9557600080fd5b506103fd6131b9565b6000546001600160a01b03163314610dd15760405162461bcd60e51b8152600401610dc8906150a1565b60405180910390fd5b600054600160a01b900460ff16610e215760405162461bcd60e51b815260206004820152601460248201527314185d5cd8589b194e881b9bdd081c185d5cd95960621b6044820152606401610dc8565b60006001600160a01b038216610e6c576040516001600160a01b038416904780156108fc02916000818181858888f19350505050158015610e66573d6000803e3d6000fd5b50505050565b6040516370a0823160e01b81523060048201526001600160a01b038316906370a082319060240160206040518083038186803b158015610eab57600080fd5b505afa158015610ebf573d6000803e3d6000fd5b505050506040513d601f19601f82011682018060405250810190610ee39190614dbf565b60405163a9059cbb60e01b81526001600160a01b038581166004830152602482018390529192509083169063a9059cbb90604401602060405180830381600087803b158015610f3157600080fd5b505af1158015610f45573d6000803e3d6000fd5b505050506040513d601f19601f82011682018060405250810190610e669190614d5f565b505050565b60006001600160e01b03198216630271189760e51b1480610f9f57506301ffc9a760e01b6001600160e01b03198316145b92915050565b60008054600160a01b900460ff1615610fd05760405162461bcd60e51b8152600401610dc890615077565b600083815260166020908152604080832081516101008101835281546001600160a01b039081168252600183015481168286015260028301541681840181905260038301546060830181905260048401546080840152600584015460a0840152600684015460c084015260079093015460ff16151560e08301529251909493611081939291339101606093841b6001600160601b031990811682526014820193909352921b16603482015260480190565b60408051601f1981840301815282825280516020918201206000818152601583528381205480825260148452908490206101408601855280546001600160a01b03908116808852600183015482169588019590955260028201548116958701959095526003810154909416606086015260048401546080860152600584015460a0860152600684015460c0860152600784015460e086015260089093015460ff80821615156101008088019190915290910416151561012085015293509091903314801561115157508061010001515b61116d5760405162461bcd60e51b8152600401610dc890615034565b858160a001511015801561118557508360a001518611155b801561119257508360e001515b6111e85760405162461bcd60e51b815260206004820152602160248201527f496e76616c69642d7175616e746974792d6f722d6269642d63616e63656c6c656044820152601960fa1b6064820152608401610dc8565b60808401516000906111fa90886131eb565b9050600061122461271061121e6006546127106112179190615107565b85906131eb565b906131f7565b60015460208801519192506001600160a01b039182169116141561126a5761126761126061271061121e600b54866131eb90919063ffffffff16565b8290613203565b90505b60208601516001600160a01b03161561129b578551602087015161129b916001600160a01b0390911690308461320f565b6112c986600001518760200151868b8a60800151876112b933613267565b8d516112c490613267565b6132e8565b5060405189907f39b82a7cab2f4a4e3eeaf375e5c52bb595c49b26a687549d444664688ea94ee990600090a26112ff8989613f73565b9998505050505050505050565b600080546001600160a01b031633146113375760405162461bcd60e51b8152600401610dc8906150a1565b50600380546001600160a01b0383166001600160a01b03199091161790556001919050565b600080546001600160a01b031633146113875760405162461bcd60e51b8152600401610dc8906150a1565b50600180546001600160a01b0383166001600160a01b0319909116178155919050565b6000546001600160a01b031633146113d45760405162461bcd60e51b8152600401610dc8906150a1565b60405163a22cb46560e01b81526001600160a01b0382811660048301526001602483015283169063a22cb46590604401600060405180830381600087803b15801561141e57600080fd5b505af1158015611432573d6000803e3d6000fd5b505050505050565b60008054600160a01b900460ff16156114655760405162461bcd60e51b8152600401610dc890615077565b600084116114a85760405162461bcd60e51b815260206004820152601060248201526f496e76616c69642d7175616e7469747960801b6044820152606401610dc8565b6040516301ffc9a760e01b81526380ac58cd60e01b60048201526000906001600160a01b038a16906301ffc9a79060240160206040518083038186803b1580156114f157600080fd5b505afa158015611505573d6000803e3d6000fd5b505050506040513d601f19601f820116820180604052508101906115299190614d5f565b905060008115611681576040516331a9108f60e11b81526004810188905233906001600160a01b038c1690636352211e9060240160206040518083038186803b15801561157557600080fd5b505afa158015611589573d6000803e3d6000fd5b505050506040513d601f19601f820116820180604052508101906115ad9190614a1a565b6001600160a01b0316146115c25760006115c5565b60015b60ff1690508581101561161a5760405162461bcd60e51b815260206004820152601a60248201527f496e73756666696369656e742d746f6b656e2d62616c616e63650000000000006044820152606401610dc8565b604051632142170760e11b81526001600160a01b038b16906342842e0e9061164a90339030908c90600401614f49565b600060405180830381600087803b15801561166457600080fd5b505af1158015611678573d6000803e3d6000fd5b505050506117b4565b604051627eeac760e11b8152336004820152602481018890526001600160a01b038b169062fdd58e9060440160206040518083038186803b1580156116c557600080fd5b505afa1580156116d9573d6000803e3d6000fd5b505050506040513d601f19601f820116820180604052508101906116fd9190614dbf565b90508581101561174f5760405162461bcd60e51b815260206004820152601a60248201527f496e73756666696369656e742d746f6b656e2d62616c616e63650000000000006044820152606401610dc8565b604051637921219560e11b81526001600160a01b038b169063f242432a9061178190339030908c908c90600401614fa7565b600060405180830381600087803b15801561179b57600080fd5b505af11580156117af573d6000803e3d6000fd5b505050505b6001600160a01b0388166000908152600c602052604090205460ff166117ec5760405162461bcd60e51b8152600401610dc890614ffd565b604080516101408101825260006020808301829052828401829052606083018290526080830182905260e083018290526101208301829052600161010084015233835260c0830189905260a083018a90526001600160a01b038d16825260109052919091205460ff1615611871576001600160a01b038a16606082015260e081018590525b608081018890528215156101208201526001600160a01b03808c166020808401829052918b166040808501919091526000918252600d909252205460ff16801561193b5750604051636a4731c560e11b81526004810189905233906001600160a01b038d169063d48e638a9060240160206040518083038186803b1580156118f857600080fd5b505afa15801561190c573d6000803e3d6000fd5b505050506040513d601f19601f820116820180604052508101906119309190614a1a565b6001600160a01b0316145b801561196857506001600160a01b038b1660009081526018602090815260408083208b8452909152902054155b80156119bd57503360009081526017602090815260408083209051909291611994918f918d9101614f10565b604051602081830303815290604052805190602001208152602001908152602001600020546000145b156119e9576001600160a01b038b1660009081526018602090815260408083208b845290915290208290555b6001600160a01b038b166000908152600e602052604090205460ff168015611a9a5750604051636a4731c560e11b8152600481018990526001600160a01b038c169063d48e638a9060240160206040518083038186803b158015611a4c57600080fd5b505afa158015611a60573d6000803e3d6000fd5b505050506040513d601f19601f82011682018060405250810190611a849190614a1a565b6001600160a01b0316336001600160a01b031614155b8015611aef57503360009081526017602090815260408083209051909291611ac6918f918d9101614f10565b604051602081830303815290604052805190602001208152602001908152602001600020546000145b15611b58578160196000336001600160a01b03166001600160a01b0316815260200190815260200160002060008d8b604051602001611b2f929190614f10565b604051602081830303815290604052805190602001208152602001908152602001600020819055505b60128054600090815260146020908152604091829020845181546001600160a01b03199081166001600160a01b03928316178355928601516001808401805486169284169290921790915593860151600283018054851691831691909117905560608601516003830180549094169116179091556080840151600482015560a0840151600582015560c0840151600682015560e08401516007820155610100808501516008909201805461012087015161ffff1990911693151561ff0019169390931792151590910291909117905590549450611c369085906140a4565b601255604080516001600160a01b038d81168252602082018990528b1681830152905188918a9187917fa3c7269751aac44df3e7658a3f7bb744b1ea9765bb933d9226e6dd0eba6cb6f9919081900360600190a46040516001600160601b031960608d811b82166020840152603483018b905233901b16605482015260009060680160408051601f19818403018152918152815160209283012060009081526015909252902085905550505050979650505050505050565b60008054600160a01b900460ff1615611d195760405162461bcd60e51b8152600401610dc890615077565b60008411611d5c5760405162461bcd60e51b815260206004820152601060248201526f496e76616c69642d7175616e7469747960801b6044820152606401610dc8565b6001600160a01b0386166000908152600c602052604090205460ff16611d945760405162461bcd60e51b8152600401610dc890614ffd565b604080516101008101825260006020820181905260c0820181905260e08201523381526080810185905260a08101869052606081018790526001600160a01b038916918101919091523415611e3957611ded85856131eb565b341015611e2d5760405162461bcd60e51b815260206004820152600e60248201526d125b9d985b1a590b585b5bdd5b9d60921b6044820152606401610dc8565b60006020820152611e49565b6001600160a01b03871660208201525b600160e0820181815260c0830185815260138054600090815260166020908152604091829020875181546001600160a01b03199081166001600160a01b039283161783559289015182890180548516918316919091179055928801516002820180549093169316929092179055606086015160038201556080860151600482015560a086015160058201559151600683015591516007909101805460ff1916911515919091179055549250611eff9083906140a4565b601355604080516001600160a01b038a811682526020820187905289168183015290518691889185917f5c16514d15965733767103439dd14e5cddc88675f8ce7521c5ce86ea90852f5e919081900360600190a4509695505050505050565b600054600160a01b900460ff1615611f885760405162461bcd60e51b8152600401610dc890615077565b60008181526014602090815260409182902082516101408101845281546001600160a01b03908116808352600184015482169483019490945260028301548116948201949094526003820154909316606084015260048101546080840152600581015460a0840152600681015460c0840152600781015460e08401526008015460ff8082161515610100808601919091529091041615156101208301523314801561203557508061010001515b6120515760405162461bcd60e51b8152600401610dc890615034565b806101200151156120cc57602081015181516080830151604051632142170760e11b81526001600160a01b03909316926342842e0e92612095923092600401614f49565b600060405180830381600087803b1580156120af57600080fd5b505af11580156120c3573d6000803e3d6000fd5b50505050612184565b80602001516001600160a01b031663f242432a30836000015184608001518560a001517ff23a6e612e1ff4830e658fe43f4e3cb4a5f8170bd5d9e69fb5d7a7fa9e4fdf9760405160200161212291815260200190565b6040516020818303038152906040526040518663ffffffff1660e01b8152600401612151959493929190614f6d565b600060405180830381600087803b15801561216b57600080fd5b505af115801561217f573d6000803e3d6000fd5b505050505b600060a08201818152610100808401838152858452601460209081526040808620875181546001600160a01b03199081166001600160a01b039283161783559389015160018301805486169183169190911790558289015160028301805486169183169190911790556060890151600383018054909516911617909255608087015160048301559351600582015560c0860151600682015560e0860151600782015590516008909101805461012087015161ffff1990911692151561ff001916929092179115159092021790555183917f61b9399f2f0f32ca39ce8d7be32caed5ec22fe07a6daba3a467ed479ec60658291a25050565b60008054600160a01b900460ff16156122a65760405162461bcd60e51b8152600401610dc890615077565b60008481526014602090815260409182902082516101408101845281546001600160a01b03908116808352600184015482169483019490945260028301548116948201949094526003820154909316606084015260048101546080840152600581015460a0840152600681015460c0840152600781015460e08401526008015460ff8082161515610100808601919091529091041615156101208301526123825760405162461bcd60e51b815260206004820152601060248201526f125b9d985b1a590b5bdc99195c8b5a5960821b6044820152606401610dc8565b6001600160a01b0383166000908152600c602052604090205460ff166123ba5760405162461bcd60e51b8152600401610dc890614ffd565b80610100015180156123d05750838160a0015110155b6124135760405162461bcd60e51b81526020600482015260146024820152734e6f742d617661696c61626c652d746f2d62757960601b6044820152606401610dc8565b60c081015160009061242590866131eb565b9050600082604001516001600160a01b0316856001600160a01b031614156124675761246061271061121e6006546127106112179190615107565b905061248f565b61247185836140b0565b915061248c61271061121e6006546127106112179190615107565b90505b6001546001600160a01b0386811691161480156124ae57506000600b54115b156124d4576124d161126061271061121e600b54866131eb90919063ffffffff16565b90505b6001600160a01b0385161580156124eb5750600034115b1561250257803410156124fd57600080fd5b612517565b6125176001600160a01b03861633308461320f565b60408051888152602081018890526001600160a01b038716818301526060810183905290517f27f0e57684cd818b3b06246bbc63cf3366959e8e4dcdbd46aa5b2778f25e73b09181900360800190a16125923386898961257b8a8960c001516140b0565b876125898a60000151613267565b6112c433613267565b93505050505b9392505050565b600080546001600160a01b031633146125ca5760405162461bcd60e51b8152600401610dc8906150a1565b50600580546001600160a01b0383166001600160a01b03199091161790556001919050565b336000908152600f602052604081205460ff1661263e5760405162461bcd60e51b815260206004820152600d60248201526c27b7363c96b7b832b930ba37b960991b6044820152606401610dc8565b6001600160a01b0384166000908152600d60205260409020805460ff1916841515179055811561268c576001600160a01b0384166000908152600e60205260409020805460ff191660011790555b5060019392505050565b6000546001600160a01b031633146126c05760405162461bcd60e51b8152600401610dc8906150a1565b6001600160a01b03919091166000908152600f60205260409020805460ff1916911515919091179055565b6000546001600160a01b031633146127155760405162461bcd60e51b8152600401610dc8906150a1565b61271f600061413b565b565b6000546001600160a01b0316331461274b5760405162461bcd60e51b8152600401610dc8906150a1565b61271f61418b565b6000546001600160a01b0316331461277d5760405162461bcd60e51b8152600401610dc8906150a1565b6001600160a01b03919091166000908152601060205260409020805460ff1916911515919091179055565b6000546001600160a01b031633146127d25760405162461bcd60e51b8152600401610dc8906150a1565b6006869055600785905560088490556009839055600a829055600b819055611432565b600054600160a01b900460ff161561281f5760405162461bcd60e51b8152600401610dc890615077565b600260115414156128725760405162461bcd60e51b815260206004820152601f60248201527f5265656e7472616e637947756172643a207265656e7472616e742063616c6c006044820152606401610dc8565b6002601181905560008281526016602090815260409182902082516101008101845281546001600160a01b03908116808352600184015482169483019490945294820154909416928401929092526003820154606084015260048201546080840152600582015460a0840152600682015460c084015260079091015460ff16151560e083015233146129375760405162461bcd60e51b815260206004820152600e60248201526d24b73b30b634b216b134b23232b960911b6044820152606401610dc8565b60208101516001600160a01b031661297457600061296682608001518360a001516131eb90919063ffffffff16565b9050612972338261420d565b505b600060e0820181815260a08301828152848352601660209081526040808520865181546001600160a01b03199081166001600160a01b039283161783559388015160018301805486169183169190911790558288015160028301805490951691161790925560608601516003830155608086015160048301559151600582015560c0850151600682015591516007909201805460ff1916921515929092179091555183917fc1546e394b1975212fe013e7e6995653585f44e568c407d1157483f7d4b9458191a250506001601155565b600080546001600160a01b03163314612a6f5760405162461bcd60e51b8152600401610dc8906150a1565b50600480546001600160a01b0383166001600160a01b03199091161790556001919050565b600054600160a01b900460ff1615612abe5760405162461bcd60e51b8152600401610dc890615077565b60008381526016602090815260409182902082516101008101845281546001600160a01b039081168083526001840154821694830194909452600283015416938101939093526003810154606084015260048101546080840152600581015460a0840152600681015460c08401526007015460ff16151560e08301523314612b795760405162461bcd60e51b815260206004820152600e60248201526d24b73b30b634b216b134b23232b960911b6044820152606401610dc8565b60a08101838152608082018381526000868152601660209081526040808320865181546001600160a01b03199081166001600160a01b039283161783559388015160018301805486169183169190911790558288015160028301805490951691161790925560608601516003830155925160048201559251600584015560c0840151600684015560e08401516007909301805460ff1916931515939093179092555185917fb16ba0a2ed46bbba0676798be43c6d757a6a5d4fb13a251ee5c0075bf726498991a250505050565b600054600160a01b900460ff1615612c705760405162461bcd60e51b8152600401610dc890615077565b60008581526014602090815260409182902082516101408101845281546001600160a01b03908116808352600184015482169483019490945260028301548116948201949094526003820154909316606084015260048101546080840152600581015460a0840152600681015460c0840152600781015460e08401526008015460ff80821615156101008086019190915290910416151561012083015233148015612d1d57508061010001515b612d395760405162461bcd60e51b8152600401610dc890615034565b8060a0015185118015612d4f5750806101200151155b15612de25780602001516001600160a01b031663f242432a33308460800151612d858660a001518b61320390919063ffffffff16565b6040518563ffffffff1660e01b8152600401612da49493929190614fa7565b600060405180830381600087803b158015612dbe57600080fd5b505af1158015612dd2573d6000803e3d6000fd5b5050505060a08101859052612eb3565b8060a00151851015612eb35780602001516001600160a01b031663f242432a30338460800151612e1f8a8760a0015161320390919063ffffffff16565b604080517ff23a6e612e1ff4830e658fe43f4e3cb4a5f8170bd5d9e69fb5d7a7fa9e4fdf976020820152016040516020818303038152906040526040518663ffffffff1660e01b8152600401612e79959493929190614f6d565b600060405180830381600087803b158015612e9357600080fd5b505af1158015612ea7573d6000803e3d6000fd5b5050505060a081018590525b60c081018481526000878152601460209081526040808320855181546001600160a01b03199081166001600160a01b03928316178355938701516001830180548616918316919091179055828701516002830180548616918316919091179055606087018051600384018054909616908316179094556080870151600483015560a087015160058301559451600682015560e086018051600783015561010080880151600890930180546101208a015161ffff1990911694151561ff001916949094179315159091029290921790915593861690915291859052905187917fb8b459bc0688c37baf5f735d17f1711684bc14ab7db116f88bc18bf409b9309a91a2505050505050565b600080546001600160a01b03163314612fe75760405162461bcd60e51b8152600401610dc8906150a1565b6001600160a01b0383166000818152600c60205260409020805460ff1916841515179055156131155760405163095ea7b360e01b815233600482015260001960248201526001600160a01b0384169063095ea7b390604401602060405180830381600087803b15801561305957600080fd5b505af115801561306d573d6000803e3d6000fd5b505050506040513d601f19601f820116820180604052508101906130919190614d5f565b5060405163095ea7b360e01b815230600482015260001960248201526001600160a01b0384169063095ea7b390604401602060405180830381600087803b1580156130db57600080fd5b505af11580156130ef573d6000803e3d6000fd5b505050506040513d601f19601f820116820180604052508101906131139190614d5f565b505b50600192915050565b6000546001600160a01b031633146131485760405162461bcd60e51b8152600401610dc8906150a1565b6001600160a01b0381166131ad5760405162461bcd60e51b815260206004820152602660248201527f4f776e61626c653a206e6577206f776e657220697320746865207a65726f206160448201526564647265737360d01b6064820152608401610dc8565b6131b68161413b565b50565b6000546001600160a01b031633146131e35760405162461bcd60e51b8152600401610dc8906150a1565b61271f614326565b6000612598828461522f565b6000612598828461511f565b6000612598828461524e565b610e66846323b872dd60e01b85858560405160240161323093929190614f49565b60408051601f198184030181529190526020810180516001600160e01b03166001600160e01b0319909316929092179091526143aa565b600354604051633b0f0f2f60e01b81526001600160a01b0383811660048301526000928392911690633b0f0f2f9060240160206040518083038186803b1580156132b057600080fd5b505afa1580156132c4573d6000803e3d6000fd5b505050506040513d601f19601f820116820180604052508101906125989190614a1a565b600086815260146020908152604080832081516101408101835281546001600160a01b0390811682526001830154811694820194909452600282015484169281019290925260038101548316606083015260048101546080830152600581015460a0830152600681015460c0830152600781015460e08301526008015460ff8082161515610100808501919091529091041615156101208201529085908416156134015760006133c561339e6002612710615184565b61121e6008546127106133b1919061524e565b6006546133bf908c906131eb565b906131eb565b90506133d28b868361447c565b600a54156133ff576133ff8b8d6133fa61271061121e600a548d6131eb90919063ffffffff16565b61447c565b505b60608201516001600160a01b03161561345d5761343a8a83606001516133fa61271061121e8760e001518c6131eb90919063ffffffff16565b61345a61126061271061121e8560e001518a6131eb90919063ffffffff16565b90505b6020808301516001600160a01b03166000908152600d909152604090205460ff1615613eb25760208201516080830151604051636a4731c560e11b815260048101919091526000916001600160a01b03169063d48e638a9060240160206040518083038186803b1580156134d057600080fd5b505afa1580156134e4573d6000803e3d6000fd5b505050506040513d601f19601f820116820180604052508101906135089190614a1a565b6020808501516001600160a01b031660009081526018825260408082206080880151835290925220549091501580159061354e575082516001600160a01b038281169116145b156138e7576001600160a01b03861615613762576020808401516001600160a01b0316600090815260188252604080822060808701518352909252908120548a1161364f576135c46135a36002612710615184565b61121e6008546127106135b6919061524e565b6007546133bf908d906131eb565b90506135eb6135e461271061121e6007548c6131eb90919063ffffffff16565b8490613203565b6020808601516001600160a01b03166000908152601882526040808220608089015183529092522054909350613621908b613203565b6020808601516001600160a01b03166000908152601882526040808220608089015183529092522055613751565b6007546020808601516001600160a01b031660009081526018825260408082206080890151835290925290812054909161368d916133bf908d6131eb565b90506136a561369e826127106131f7565b8590613203565b93506136d16136b76002612710615184565b61121e6008546127106136ca919061524e565b84906131eb565b6020808701516001600160a01b0316600090815260188252604080822060808a01518352909252205490925082915061370a908c61524e565b60065490915061371e906133bf838d6131eb565b905061372f61369e826127106131f7565b93506137416136b76002612710615184565b905061374d82826140a4565b9150505b61375c8c888361447c565b506138d3565b6020808401516001600160a01b03166000908152601882526040808220608087015183529092522054891161381a576137b66137af61271061121e6007548b6131eb90919063ffffffff16565b8390613203565b6020808501516001600160a01b031660009081526018825260408082206080880151835290925220549092506137ec908a613203565b6020808501516001600160a01b031660009081526018825260408082206080880151835290925220556138d3565b6007546020808501516001600160a01b0316600090815260188252604080822060808801518352909252908120549091613860916127109161121e916133bf908e6131eb565b905061386c8382613203565b6020808601516001600160a01b031660009081526018825260408082206080890151835290925220549093506138a2908b61524e565b90506138c361271061121e6006546133bf8d866131eb90919063ffffffff16565b90506138cf8382613203565b9250505b6138e28b84600001518461447c565b613eac565b6020808401516001600160a01b03166000908152600e909152604090205460ff16801561392a5750806001600160a01b031683600001516001600160a01b031614155b801561398f575082516001600160a01b0316600090815260196020908152604080832082870151608088015192519193859361396893909101614f10565b60405160208183030381529060405280519060200120815260200190815260200160002054115b15613cbb5782516001600160a01b031660009081526019602090815260408083208287015160808801519251919385936139cb93909101614f10565b604051602081830303815290604052805190602001208152602001908152602001600020549050898110613aba57613a198c836133fa61271061121e6009548e6131eb90919063ffffffff16565b613a3c6135e461271061121e600954612710613a35919061524e565b8c906131eb565b9250613a4d8c85600001518561447c565b613a57818b613203565b84516001600160a01b031660009081526019602090815260408083208289015160808a01519251919493613a8d93919201614f10565b60405160208183030381529060405280519060200120815260200190815260200160002081905550613cb5565b6000613adb61271061121e6009546133bf8e876131eb90919063ffffffff16565b9050613ae78482613203565b9350613af38b83613203565b9150600560009054906101000a90046001600160a01b03166001600160a01b0316634623afa186602001518f8860800151868f601760008d600001516001600160a01b03166001600160a01b0316815260200190815260200160002060008d602001518e60800151604051602001613b6c929190614f10565b60408051601f19818403018152918152815160209283012083529082019290925281016000205490516001600160e01b031960e089901b1681526001600160a01b03968716600482015295909416602486015260448501929092526064840152608483015260a482015260c401602060405180830381600087803b158015613bf357600080fd5b505af1158015613c07573d6000803e3d6000fd5b505050506040513d601f19601f82011682018060405250810190613c2b9190614dbf565b613c359082615107565b9050613c428d848361447c565b8451613c54908e906133fa8785613203565b84516001600160a01b031660009081526019602090815260408083208289015160808a0151925191938593613c8b93909101614f10565b60405160208183030381529060405280519060200120815260200190815260200160002081905550505b50613eac565b613cd96137af61271061121e6006548b6131eb90919063ffffffff16565b91506001600160a01b03861615613d2057613d208b876133fa613cff6002612710615184565b61121e600854612710613d12919061524e565b6006546133bf908f906131eb565b806001600160a01b031683600001516001600160a01b03161415613d4d576138e28b84600001518461447c565b6000600560009054906101000a90046001600160a01b03166001600160a01b0316634623afa185602001518e87608001518e8e601760008c600001516001600160a01b03166001600160a01b0316815260200190815260200160002060008c602001518d60800151604051602001613dc6929190614f10565b60408051601f19818403018152918152815160209283012083529082019290925281016000205490516001600160e01b031960e089901b1681526001600160a01b03968716600482015295909416602486015260448501929092526064840152608483015260a482015260c401602060405180830381600087803b158015613e4d57600080fd5b505af1158015613e61573d6000803e3d6000fd5b505050506040513d601f19601f82011682018060405250810190613e859190614dbf565b90508015613e9857613e988c838361447c565b8351613eaa908d906133fa8685613203565b505b50613f26565b613ed061126061271061121e6006548a6131eb90919063ffffffff16565b90506001600160a01b03851615613f1757613f178a866133fa613ef66002612710615184565b61121e600854612710613f09919061524e565b6006546133bf908e906131eb565b613f268a83600001518361447c565b613f648b8b8b8b8b87602001518860800151604051602001613f49929190614f10565b604051602081830303815290604052805190602001206144f9565b9b9a5050505050505050505050565b600082815260166020908152604080832081516101008101835281546001600160a01b03908116825260018301548116948201949094526002820154909316918301919091526003810154606083015260048101546080830152600581015460a08301819052600682015460c084015260079091015460ff16151560e0830152613ffd9084613203565b60a08201908152600094855260166020908152604095869020835181546001600160a01b03199081166001600160a01b0392831617835592850151600180840180548616928416929092179091559785015160028301805490941691161790915560608301516003820155608083015160048201559051600582015560c0820151600682015560e0909101516007909101805460ff19169115159190911790555090919050565b60006125988284615107565b600480546040516366ad7b2b60e01b81526001600160a01b038581169382019390935260248101849052600092909116906366ad7b2b906044015b60206040518083038186803b15801561410357600080fd5b505afa158015614117573d6000803e3d6000fd5b505050506040513d601f19601f820116820180604052508101906125989190614dbf565b600080546001600160a01b038381166001600160a01b0319831681178455604051919092169283917f8be0079c531659141344cd1fd0a4f28419497f9722a3daafe3b4186f6b6457e09190a35050565b600054600160a01b900460ff16156141b55760405162461bcd60e51b8152600401610dc890615077565b6000805460ff60a01b1916600160a01b1790557f62e78cea01bee320cd4e420270b5ea74000d11b0c9f74754ebdbfc544b05a2586141f03390565b6040516001600160a01b03909116815260200160405180910390a1565b8047101561425d5760405162461bcd60e51b815260206004820152601d60248201527f416464726573733a20696e73756666696369656e742062616c616e63650000006044820152606401610dc8565b6000826001600160a01b03168260405160006040518083038185875af1925050503d80600081146142aa576040519150601f19603f3d011682016040523d82523d6000602084013e6142af565b606091505b5050905080610f695760405162461bcd60e51b815260206004820152603a60248201527f416464726573733a20756e61626c6520746f2073656e642076616c75652c207260448201527f6563697069656e74206d617920686176652072657665727465640000000000006064820152608401610dc8565b600054600160a01b900460ff166143765760405162461bcd60e51b815260206004820152601460248201527314185d5cd8589b194e881b9bdd081c185d5cd95960621b6044820152606401610dc8565b6000805460ff60a01b191690557f5db9ee0a495bf2e6ff9c91a7834c1ba4fdd244a5e8aa4e537bd38aeae4b073aa336141f0565b60006143ff826040518060400160405280602081526020017f5361666545524332303a206c6f772d6c6576656c2063616c6c206661696c6564815250856001600160a01b03166147209092919063ffffffff16565b805190915015610f69578080602001905181019061441d9190614d5f565b610f695760405162461bcd60e51b815260206004820152602a60248201527f5361666545524332303a204552433230206f7065726174696f6e20646964206e6044820152691bdd081cdd58d8d9595960b21b6064820152608401610dc8565b6001600160a01b0382166144c45760405162461bcd60e51b815260206004820152600f60248201526e496e76616c69642d6164647265737360881b6044820152606401610dc8565b6001600160a01b0383166144e557610f696001600160a01b0383168261420d565b610f696001600160a01b0384168383614737565b600084815260146020908152604080832081516101408101835281546001600160a01b039081168252600183015481169482019490945260028201548416928101929092526003810154909216606082015260048201546080820152600582015460a0820152600682015460c0820152600782015460e082015260089091015460ff8082161515610100808501919091529091041615801561012083015261460b5760208101516080820151604051632142170760e11b81526001600160a01b03909216916342842e0e916145d49130918d91600401614f49565b600060405180830381600087803b1580156145ee57600080fd5b505af1158015614602573d6000803e3d6000fd5b505050506146bb565b80602001516001600160a01b031663f242432a308a8460800151897ff23a6e612e1ff4830e658fe43f4e3cb4a5f8170bd5d9e69fb5d7a7fa9e4fdf9760405160200161465991815260200190565b6040516020818303038152906040526040518663ffffffff1660e01b8152600401614688959493929190614f6d565b600060405180830381600087803b1580156146a257600080fd5b505af11580156146b6573d6000803e3d6000fd5b505050505b60a08101516146ca9086613203565b60a082018190526000878152601460205260409020600501556146ed8785614767565b6001600160a01b038916600090815260176020908152604080832087845290915290205550600190509695505050505050565b606061472f84846000856147a6565b949350505050565b6040516001600160a01b038316602482015260448101829052610f6990849063a9059cbb60e01b90606401613230565b6004805460405163069c62cb60e11b81526001600160a01b03858116938201939093526024810184905260009290911690630d38c596906044016140eb565b6060824710156148075760405162461bcd60e51b815260206004820152602660248201527f416464726573733a20696e73756666696369656e742062616c616e636520666f6044820152651c8818d85b1b60d21b6064820152608401610dc8565b843b6148555760405162461bcd60e51b815260206004820152601d60248201527f416464726573733a2063616c6c20746f206e6f6e2d636f6e74726163740000006044820152606401610dc8565b600080866001600160a01b031685876040516148719190614f2d565b60006040518083038185875af1925050503d80600081146148ae576040519150601f19603f3d011682016040523d82523d6000602084013e6148b3565b606091505b50915091506148c38282866148ce565b979650505050505050565b606083156148dd575081612598565b8251156148ed5782518084602001fd5b8160405162461bcd60e51b8152600401610dc89190614fea565b600082601f83011261491857600080fd5b8135602067ffffffffffffffff821115614934576149346152a7565b8160051b6149438282016150d6565b83815282810190868401838801850189101561495e57600080fd5b600093505b85841015614981578035835260019390930192918401918401614963565b50979650505050505050565b600082601f83011261499e57600080fd5b813567ffffffffffffffff8111156149b8576149b86152a7565b6149cb601f8201601f19166020016150d6565b8181528460208386010111156149e057600080fd5b816020850160208301376000918101602001919091529392505050565b600060208284031215614a0f57600080fd5b8135612598816152bd565b600060208284031215614a2c57600080fd5b8151612598816152bd565b60008060408385031215614a4a57600080fd5b8235614a55816152bd565b91506020830135614a65816152bd565b809150509250929050565b600080600080600080600060e0888a031215614a8b57600080fd5b8735614a96816152bd565b96506020880135614aa6816152bd565b95506040880135614ab6816152bd565b969995985095966060810135965060808101359560a0820135955060c0909101359350915050565b600080600080600060a08688031215614af657600080fd5b8535614b01816152bd565b94506020860135614b11816152bd565b9350604086013567ffffffffffffffff80821115614b2e57600080fd5b614b3a89838a01614907565b94506060880135915080821115614b5057600080fd5b614b5c89838a01614907565b93506080880135915080821115614b7257600080fd5b50614b7f8882890161498d565b9150509295509295909350565b60008060008060808587031215614ba257600080fd5b8435614bad816152bd565b93506020850135614bbd816152bd565b925060408501359150606085013567ffffffffffffffff811115614be057600080fd5b614bec8782880161498d565b91505092959194509250565b600080600080600060a08688031215614c1057600080fd5b8535614c1b816152bd565b94506020860135614c2b816152bd565b93506040860135925060608601359150608086013567ffffffffffffffff811115614c5557600080fd5b614b7f8882890161498d565b60008060008060008060c08789031215614c7a57600080fd5b8635614c85816152bd565b95506020870135614c95816152bd565b95989597505050506040840135936060810135936080820135935060a0909101359150565b60008060408385031215614ccd57600080fd5b8235614cd8816152bd565b91506020830135614a65816152d2565b600080600060608486031215614cfd57600080fd5b8335614d08816152bd565b92506020840135614d18816152d2565b91506040840135614d28816152d2565b809150509250925092565b60008060408385031215614d4657600080fd5b8235614d51816152bd565b946020939093013593505050565b600060208284031215614d7157600080fd5b8151612598816152d2565b600060208284031215614d8e57600080fd5b81356001600160e01b03198116811461259857600080fd5b600060208284031215614db857600080fd5b5035919050565b600060208284031215614dd157600080fd5b5051919050565b60008060408385031215614deb57600080fd5b50508035926020909101359150565b600080600060608486031215614e0f57600080fd5b83359250602084013591506040840135614d28816152bd565b600080600060608486031215614e3d57600080fd5b505081359360208301359350604090920135919050565b600080600080600060a08688031215614e6c57600080fd5b853594506020860135935060408601359250606086013591506080860135614e93816152bd565b809150509295509295909350565b60008060008060008060c08789031215614eba57600080fd5b505084359660208601359650604086013595606081013595506080810135945060a0013592509050565b60008151808452614efc816020860160208601615265565b601f01601f19169290920160200192915050565b60609290921b6001600160601b0319168252601482015260340190565b60008251614f3f818460208701615265565b9190910192915050565b6001600160a01b039384168152919092166020820152604081019190915260600190565b6001600160a01b03868116825285166020820152604081018490526060810183905260a0608082018190526000906148c390830184614ee4565b6001600160a01b0394851681529290931660208301526040820152606081019190915260a06080820181905260029082015261060f60f31b60c082015260e00190565b6020815260006125986020830184614ee4565b6020808252601f908201527f5061796d656e742d6d6574686f642d646f65732d6e6f742d737570706f727400604082015260600190565b60208082526023908201527f4f6f70732157726f6e672d6f726465722d6f776e65722d6f722d63616e63656c6040820152621b195960ea1b606082015260800190565b60208082526010908201526f14185d5cd8589b194e881c185d5cd95960821b604082015260600190565b6020808252818101527f4f776e61626c653a2063616c6c6572206973206e6f7420746865206f776e6572604082015260600190565b604051601f8201601f1916810167ffffffffffffffff811182821017156150ff576150ff6152a7565b604052919050565b6000821982111561511a5761511a615291565b500190565b60008261513c57634e487b7160e01b600052601260045260246000fd5b500490565b600181815b8085111561517c57816000190482111561516257615162615291565b8085161561516f57918102915b93841c9390800290615146565b509250929050565b600061259860ff84168360008261519d57506001610f9f565b816151aa57506000610f9f565b81600181146151c057600281146151ca576151e6565b6001915050610f9f565b60ff8411156151db576151db615291565b50506001821b610f9f565b5060208310610133831016604e8410600b8410161715615209575081810a610f9f565b6152138383615141565b806000190482111561522757615227615291565b029392505050565b600081600019048311821515161561524957615249615291565b500290565b60008282101561526057615260615291565b500390565b60005b83811015615280578181015183820152602001615268565b83811115610e665750506000910152565b634e487b7160e01b600052601160045260246000fd5b634e487b7160e01b600052604160045260246000fd5b6001600160a01b03811681146131b657600080fd5b80151581146131b657600080fdfea26469706673582212206ec46b425f1c30c08f61c04e5e95668638ba357cad979f7413b9cdfe86df08a164736f6c63430008060033",
  "linkReferences": {},
  "deployedLinkReferences": {}
}