{
  "_format": "hh-sol-artifact-1",
  "contractName": "MockWBNB",
  "sourceName": "contracts/mocks/MockWBNB.sol",
  "abi": [
    {
      "anonymous": false,
      "inputs": [
        {
          "indexed": true,
          "internalType": "address",
          "name": "src",
          "type": "address"
        },
        {
          "indexed": true,
          "internalType": "address",
          "name": "guy",
          "type": "address"
        },
        {
          "indexed": false,
          "internalType": "uint256",
          "name": "wad",
          "type": "uint256"
        }
      ],
      "name": "Approval",
      "type": "event"
    },
    {
      "anonymous": false,
      "inputs": [
        {
          "indexed": true,
          "internalType": "address",
          "name": "dst",
          "type": "address"
        },
        {
          "indexed": false,
          "internalType": "uint256",
          "name": "wad",
          "type": "uint256"
        }
      ],
      "name": "Deposit",
      "type": "event"
    },
    {
      "anonymous": false,
      "inputs": [
        {
          "indexed": true,
          "internalType": "address",
          "name": "src",
          "type": "address"
        },
        {
          "indexed": true,
          "internalType": "address",
          "name": "dst",
          "type": "address"
        },
        {
          "indexed": false,
          "internalType": "uint256",
          "name": "wad",
          "type": "uint256"
        }
      ],
      "name": "Transfer",
      "type": "event"
    },
    {
      "anonymous": false,
      "inputs": [
        {
          "indexed": true,
          "internalType": "address",
          "name": "src",
          "type": "address"
        },
        {
          "indexed": false,
          "internalType": "uint256",
          "name": "wad",
          "type": "uint256"
        }
      ],
      "name": "Withdrawal",
      "type": "event"
    },
    {
      "inputs": [
        {
          "internalType": "address",
          "name": "",
          "type": "address"
        },
        {
          "internalType": "address",
          "name": "",
          "type": "address"
        }
      ],
      "name": "allowance",
      "outputs": [
        {
          "internalType": "uint256",
          "name": "",
          "type": "uint256"
        }
      ],
      "stateMutability": "view",
      "type": "function"
    },
    {
      "inputs": [
        {
          "internalType": "address",
          "name": "guy",
          "type": "address"
        },
        {
          "internalType": "uint256",
          "name": "wad",
          "type": "uint256"
        }
      ],
      "name": "approve",
      "outputs": [
        {
          "internalType": "bool",
          "name": "",
          "type": "bool"
        }
      ],
      "stateMutability": "nonpayable",
      "type": "function"
    },
    {
      "inputs": [
        {
          "internalType": "address",
          "name": "",
          "type": "address"
        }
      ],
      "name": "balanceOf",
      "outputs": [
        {
          "internalType": "uint256",
          "name": "",
          "type": "uint256"
        }
      ],
      "stateMutability": "view",
      "type": "function"
    },
    {
      "inputs": [],
      "name": "decimals",
      "outputs": [
        {
          "internalType": "uint8",
          "name": "",
          "type": "uint8"
        }
      ],
      "stateMutability": "view",
      "type": "function"
    },
    {
      "inputs": [],
      "name": "deposit",
      "outputs": [],
      "stateMutability": "payable",
      "type": "function"
    },
    {
      "inputs": [],
      "name": "name",
      "outputs": [
        {
          "internalType": "string",
          "name": "",
          "type": "string"
        }
      ],
      "stateMutability": "view",
      "type": "function"
    },
    {
      "inputs": [],
      "name": "symbol",
      "outputs": [
        {
          "internalType": "string",
          "name": "",
          "type": "string"
        }
      ],
      "stateMutability": "view",
      "type": "function"
    },
    {
      "inputs": [
        {
          "internalType": "address",
          "name": "dst",
          "type": "address"
        },
        {
          "internalType": "uint256",
          "name": "wad",
          "type": "uint256"
        }
      ],
      "name": "transfer",
      "outputs": [
        {
          "internalType": "bool",
          "name": "",
          "type": "bool"
        }
      ],
      "stateMutability": "nonpayable",
      "type": "function"
    },
    {
      "inputs": [
        {
          "internalType": "address",
          "name": "src",
          "type": "address"
        },
        {
          "internalType": "address",
          "name": "dst",
          "type": "address"
        },
        {
          "internalType": "uint256",
          "name": "wad",
          "type": "uint256"
        }
      ],
      "name": "transferFrom",
      "outputs": [
        {
          "internalType": "bool",
          "name": "",
          "type": "bool"
        }
      ],
      "stateMutability": "nonpayable",
      "type": "function"
    },
    {
      "inputs": [
        {
          "internalType": "uint256",
          "name": "wad",
          "type": "uint256"
        }
      ],
      "name": "withdraw",
      "outputs": [],
      "stateMutability": "payable",
      "type": "function"
    }
  ],
  "bytecode": "0x60806040526040518060400160405280600b81526020017f5772617070656420424e420000000000000000000000000000000000000000008152506000908051906020019062000051929190620000d0565b506040518060400160405280600481526020017f57424e4200000000000000000000000000000000000000000000000000000000815250600190805190602001906200009f929190620000d0565b506012600260006101000a81548160ff021916908360ff160217905550348015620000c957600080fd5b50620001e5565b828054620000de9062000180565b90600052602060002090601f0160209004810192826200010257600085556200014e565b82601f106200011d57805160ff19168380011785556200014e565b828001600101855582156200014e579182015b828111156200014d57825182559160200191906001019062000130565b5b5090506200015d919062000161565b5090565b5b808211156200017c57600081600090555060010162000162565b5090565b600060028204905060018216806200019957607f821691505b60208210811415620001b057620001af620001b6565b5b50919050565b7f4e487b7100000000000000000000000000000000000000000000000000000000600052602260045260246000fd5b610e7480620001f56000396000f3fe6080604052600436106100915760003560e01c806370a082311161005957806370a082311461018257806395d89b41146101bf578063a9059cbb146101ea578063d0e30db014610227578063dd62ed3e1461023157610091565b806306fdde0314610096578063095ea7b3146100c157806323b872dd146100fe5780632e1a7d4d1461013b578063313ce56714610157575b600080fd5b3480156100a257600080fd5b506100ab61026e565b6040516100b89190610be9565b60405180910390f35b3480156100cd57600080fd5b506100e860048036038101906100e39190610b03565b6102fc565b6040516100f59190610bce565b60405180910390f35b34801561010a57600080fd5b5061012560048036038101906101209190610ab4565b6103ee565b6040516101329190610bce565b60405180910390f35b61015560048036038101906101509190610b3f565b610752565b005b34801561016357600080fd5b5061016c61088c565b6040516101799190610c26565b60405180910390f35b34801561018e57600080fd5b506101a960048036038101906101a49190610a4f565b61089f565b6040516101b69190610c0b565b60405180910390f35b3480156101cb57600080fd5b506101d46108b7565b6040516101e19190610be9565b60405180910390f35b3480156101f657600080fd5b50610211600480360381019061020c9190610b03565b610945565b60405161021e9190610bce565b60405180910390f35b61022f61095a565b005b34801561023d57600080fd5b5061025860048036038101906102539190610a78565b610a00565b6040516102659190610c0b565b60405180910390f35b6000805461027b90610d6f565b80601f01602080910402602001604051908101604052809291908181526020018280546102a790610d6f565b80156102f45780601f106102c9576101008083540402835291602001916102f4565b820191906000526020600020905b8154815290600101906020018083116102d757829003601f168201915b505050505081565b600081600460003373ffffffffffffffffffffffffffffffffffffffff1673ffffffffffffffffffffffffffffffffffffffff16815260200190815260200160002060008573ffffffffffffffffffffffffffffffffffffffff1673ffffffffffffffffffffffffffffffffffffffff168152602001908152602001600020819055508273ffffffffffffffffffffffffffffffffffffffff163373ffffffffffffffffffffffffffffffffffffffff167f8c5be1e5ebec7d5bd14f71427d1e84f3dd0314c0f7b2291e5b200ac8c7c3b925846040516103dc9190610c0b565b60405180910390a36001905092915050565b600081600360008673ffffffffffffffffffffffffffffffffffffffff1673ffffffffffffffffffffffffffffffffffffffff16815260200190815260200160002054101561043c57600080fd5b3373ffffffffffffffffffffffffffffffffffffffff168473ffffffffffffffffffffffffffffffffffffffff161415801561051457507fffffffffffffffffffffffffffffffffffffffffffffffffffffffffffffffff600460008673ffffffffffffffffffffffffffffffffffffffff1673ffffffffffffffffffffffffffffffffffffffff16815260200190815260200160002060003373ffffffffffffffffffffffffffffffffffffffff1673ffffffffffffffffffffffffffffffffffffffff1681526020019081526020016000205414155b156106365781600460008673ffffffffffffffffffffffffffffffffffffffff1673ffffffffffffffffffffffffffffffffffffffff16815260200190815260200160002060003373ffffffffffffffffffffffffffffffffffffffff1673ffffffffffffffffffffffffffffffffffffffff1681526020019081526020016000205410156105a257600080fd5b81600460008673ffffffffffffffffffffffffffffffffffffffff1673ffffffffffffffffffffffffffffffffffffffff16815260200190815260200160002060003373ffffffffffffffffffffffffffffffffffffffff1673ffffffffffffffffffffffffffffffffffffffff168152602001908152602001600020600082825461062e9190610cb3565b925050819055505b81600360008673ffffffffffffffffffffffffffffffffffffffff1673ffffffffffffffffffffffffffffffffffffffff16815260200190815260200160002060008282546106859190610cb3565b9250508190555081600360008573ffffffffffffffffffffffffffffffffffffffff1673ffffffffffffffffffffffffffffffffffffffff16815260200190815260200160002060008282546106db9190610c5d565b925050819055508273ffffffffffffffffffffffffffffffffffffffff168473ffffffffffffffffffffffffffffffffffffffff167fddf252ad1be2c89b69c2b068fc378daa952ba7f163c4a11628f55a4df523b3ef8460405161073f9190610c0b565b60405180910390a3600190509392505050565b80600360003373ffffffffffffffffffffffffffffffffffffffff1673ffffffffffffffffffffffffffffffffffffffff16815260200190815260200160002054101561079e57600080fd5b80600360003373ffffffffffffffffffffffffffffffffffffffff1673ffffffffffffffffffffffffffffffffffffffff16815260200190815260200160002060008282546107ed9190610cb3565b925050819055503373ffffffffffffffffffffffffffffffffffffffff166108fc829081150290604051600060405180830381858888f1935050505015801561083a573d6000803e3d6000fd5b503373ffffffffffffffffffffffffffffffffffffffff167f7fcf532c15f0a6db0bd6d0e038bea71d30d808c7d98cb3bf7268a95bf5081b65826040516108819190610c0b565b60405180910390a250565b600260009054906101000a900460ff1681565b60036020528060005260406000206000915090505481565b600180546108c490610d6f565b80601f01602080910402602001604051908101604052809291908181526020018280546108f090610d6f565b801561093d5780601f106109125761010080835404028352916020019161093d565b820191906000526020600020905b81548152906001019060200180831161092057829003601f168201915b505050505081565b60006109523384846103ee565b905092915050565b34600360003373ffffffffffffffffffffffffffffffffffffffff1673ffffffffffffffffffffffffffffffffffffffff16815260200190815260200160002060008282546109a99190610c5d565b925050819055503373ffffffffffffffffffffffffffffffffffffffff167fe1fffcc4923d04b559f4d29a8bfc6cda04eb5b0d3c460751c2402c5c5cc9109c346040516109f69190610c0b565b60405180910390a2565b6004602052816000526040600020602052806000526040600020600091509150505481565b600081359050610a3481610e10565b92915050565b600081359050610a4981610e27565b92915050565b600060208284031215610a6157600080fd5b6000610a6f84828501610a25565b91505092915050565b60008060408385031215610a8b57600080fd5b6000610a9985828601610a25565b9250506020610aaa85828601610a25565b9150509250929050565b600080600060608486031215610ac957600080fd5b6000610ad786828701610a25565b9350506020610ae886828701610a25565b9250506040610af986828701610a3a565b9150509250925092565b60008060408385031215610b1657600080fd5b6000610b2485828601610a25565b9250506020610b3585828601610a3a565b9150509250929050565b600060208284031215610b5157600080fd5b6000610b5f84828501610a3a565b91505092915050565b610b7181610cf9565b82525050565b6000610b8282610c41565b610b8c8185610c4c565b9350610b9c818560208601610d3c565b610ba581610dff565b840191505092915050565b610bb981610d25565b82525050565b610bc881610d2f565b82525050565b6000602082019050610be36000830184610b68565b92915050565b60006020820190508181036000830152610c038184610b77565b905092915050565b6000602082019050610c206000830184610bb0565b92915050565b6000602082019050610c3b6000830184610bbf565b92915050565b600081519050919050565b600082825260208201905092915050565b6000610c6882610d25565b9150610c7383610d25565b9250827fffffffffffffffffffffffffffffffffffffffffffffffffffffffffffffffff03821115610ca857610ca7610da1565b5b828201905092915050565b6000610cbe82610d25565b9150610cc983610d25565b925082821015610cdc57610cdb610da1565b5b828203905092915050565b6000610cf282610d05565b9050919050565b60008115159050919050565b600073ffffffffffffffffffffffffffffffffffffffff82169050919050565b6000819050919050565b600060ff82169050919050565b60005b83811015610d5a578082015181840152602081019050610d3f565b83811115610d69576000848401525b50505050565b60006002820490506001821680610d8757607f821691505b60208210811415610d9b57610d9a610dd0565b5b50919050565b7f4e487b7100000000000000000000000000000000000000000000000000000000600052601160045260246000fd5b7f4e487b7100000000000000000000000000000000000000000000000000000000600052602260045260246000fd5b6000601f19601f8301169050919050565b610e1981610ce7565b8114610e2457600080fd5b50565b610e3081610d25565b8114610e3b57600080fd5b5056fea2646970667358221220cf838b91c684a23f34cdd87636ae4836f5484bc5fd5b711bfc7d96cb72163f4564736f6c63430008040033",
  "linkReferences": {},
  "deployedLinkReferences": {}
}