{
  "_format": "hh-sol-artifact-1",
  "contractName": "ERC1155Metadata",
  "sourceName": "contracts/libs/ERC1155Metadata.sol",
  "abi": [
    {
      "anonymous": false,
      "inputs": [
        {
          "indexed": false,
          "internalType": "string",
          "name": "_uri",
          "type": "string"
        },
        {
          "indexed": true,
          "internalType": "uint256",
          "name": "_id",
          "type": "uint256"
        }
      ],
      "name": "URI",
      "type": "event"
    },
    {
      "inputs": [
        {
          "internalType": "uint256",
          "name": "_id",
          "type": "uint256"
        }
      ],
      "name": "uri",
      "outputs": [
        {
          "internalType": "string",
          "name": "",
          "type": "string"
        }
      ],
      "stateMutability": "view",
      "type": "function"
    }
  ],
  "bytecode": "0x608060405234801561001057600080fd5b5061070f806100206000396000f3fe608060405234801561001057600080fd5b506004361061002b5760003560e01c80630e89341c14610030575b600080fd5b61004a6004803603810190610045919061026b565b610060565b60405161005791906103cf565b60405180910390f35b6060600061006d83610094565b60405160200161007e9291906103a0565b6040516020818303038152906040529050919050565b606060008214156100dc576040518060400160405280600181526020017f30000000000000000000000000000000000000000000000000000000000000008152509050610251565b6000829050600083905060005b600083146101135780806100fc90610581565b915050600a8361010c9190610483565b92506100e9565b60008167ffffffffffffffff811115610155577f4e487b7100000000000000000000000000000000000000000000000000000000600052604160045260246000fd5b6040519080825280601f01601f1916602001820160405280156101875781602001600182028036833780820191505090505b509050600060018361019991906104b4565b90505b6000841461024857600a846101b191906105ca565b60306101bd919061042d565b60f81b8282806101cc90610525565b935081518110610205577f4e487b7100000000000000000000000000000000000000000000000000000000600052603260045260246000fd5b60200101907effffffffffffffffffffffffffffffffffffffffffffffffffffffffffffff1916908160001a905350600a846102419190610483565b935061019c565b81955050505050505b919050565b600081359050610265816106c2565b92915050565b60006020828403121561027d57600080fd5b600061028b84828501610256565b91505092915050565b600061029f82610406565b6102a98185610411565b93506102b98185602086016104f2565b6102c281610688565b840191505092915050565b60006102d882610406565b6102e28185610422565b93506102f28185602086016104f2565b80840191505092915050565b6000815461030b8161054f565b6103158186610422565b94506001821660008114610330576001811461034157610374565b60ff19831686528186019350610374565b61034a856103f1565b60005b8381101561036c5781548189015260018201915060208101905061034d565b838801955050505b50505092915050565b600061038a600583610422565b915061039582610699565b600582019050919050565b60006103ac82856102fe565b91506103b882846102cd565b91506103c38261037d565b91508190509392505050565b600060208201905081810360008301526103e98184610294565b905092915050565b60008190508160005260206000209050919050565b600081519050919050565b600082825260208201905092915050565b600081905092915050565b6000610438826104e8565b9150610443836104e8565b9250827fffffffffffffffffffffffffffffffffffffffffffffffffffffffffffffffff03821115610478576104776105fb565b5b828201905092915050565b600061048e826104e8565b9150610499836104e8565b9250826104a9576104a861062a565b5b828204905092915050565b60006104bf826104e8565b91506104ca836104e8565b9250828210156104dd576104dc6105fb565b5b828203905092915050565b6000819050919050565b60005b838110156105105780820151818401526020810190506104f5565b8381111561051f576000848401525b50505050565b6000610530826104e8565b91506000821415610544576105436105fb565b5b600182039050919050565b6000600282049050600182168061056757607f821691505b6020821081141561057b5761057a610659565b5b50919050565b600061058c826104e8565b91507fffffffffffffffffffffffffffffffffffffffffffffffffffffffffffffffff8214156105bf576105be6105fb565b5b600182019050919050565b60006105d5826104e8565b91506105e0836104e8565b9250826105f0576105ef61062a565b5b828206905092915050565b7f4e487b7100000000000000000000000000000000000000000000000000000000600052601160045260246000fd5b7f4e487b7100000000000000000000000000000000000000000000000000000000600052601260045260246000fd5b7f4e487b7100000000000000000000000000000000000000000000000000000000600052602260045260246000fd5b6000601f19601f8301169050919050565b7f2e6a736f6e000000000000000000000000000000000000000000000000000000600082015250565b6106cb816104e8565b81146106d657600080fd5b5056fea2646970667358221220b200a2b3d6b0483726adea6a3e6c87d68bf26f94b3afb085b9e8cff25c80674964736f6c63430008040033",
  "linkReferences": {},
  "deployedLinkReferences": {}
}