{
  "_format": "hh-sol-artifact-1",
  "contractName": "SOTAReferral",
  "sourceName": "contracts/SOTAReferral.sol",
  "abi": [
    {
      "anonymous": false,
      "inputs": [
        {
          "indexed": true,
          "internalType": "address",
          "name": "previousOwner",
          "type": "address"
        },
        {
          "indexed": true,
          "internalType": "address",
          "name": "newOwner",
          "type": "address"
        }
      ],
      "name": "OwnershipTransferred",
      "type": "event"
    },
    {
      "inputs": [
        {
          "internalType": "address",
          "name": "",
          "type": "address"
        },
        {
          "internalType": "address",
          "name": "",
          "type": "address"
        }
      ],
      "name": "expTime",
      "outputs": [
        {
          "internalType": "uint256",
          "name": "",
          "type": "uint256"
        }
      ],
      "stateMutability": "view",
      "type": "function"
    },
    {
      "inputs": [
        {
          "internalType": "address",
          "name": "_user",
          "type": "address"
        }
      ],
      "name": "getReferral",
      "outputs": [
        {
          "internalType": "address",
          "name": "",
          "type": "address"
        }
      ],
      "stateMutability": "view",
      "type": "function"
    },
    {
      "inputs": [],
      "name": "owner",
      "outputs": [
        {
          "internalType": "address",
          "name": "",
          "type": "address"
        }
      ],
      "stateMutability": "view",
      "type": "function"
    },
    {
      "inputs": [
        {
          "internalType": "address",
          "name": "",
          "type": "address"
        }
      ],
      "name": "refs",
      "outputs": [
        {
          "internalType": "address",
          "name": "",
          "type": "address"
        }
      ],
      "stateMutability": "view",
      "type": "function"
    },
    {
      "inputs": [],
      "name": "renounceOwnership",
      "outputs": [],
      "stateMutability": "nonpayable",
      "type": "function"
    },
    {
      "inputs": [
        {
          "internalType": "address",
          "name": "_operator",
          "type": "address"
        },
        {
          "internalType": "bool",
          "name": "_whiteList",
          "type": "bool"
        }
      ],
      "name": "setOperator",
      "outputs": [],
      "stateMutability": "nonpayable",
      "type": "function"
    },
    {
      "inputs": [
        {
          "internalType": "address[]",
          "name": "_users",
          "type": "address[]"
        },
        {
          "internalType": "address[]",
          "name": "_refs",
          "type": "address[]"
        }
      ],
      "name": "setReferral",
      "outputs": [],
      "stateMutability": "nonpayable",
      "type": "function"
    },
    {
      "inputs": [
        {
          "internalType": "address",
          "name": "newOwner",
          "type": "address"
        }
      ],
      "name": "transferOwnership",
      "outputs": [],
      "stateMutability": "nonpayable",
      "type": "function"
    }
  ],
  "bytecode": "0x608060405234801561001057600080fd5b5061002d61002261008960201b60201c565b61009160201b60201c565b60018060003373ffffffffffffffffffffffffffffffffffffffff1673ffffffffffffffffffffffffffffffffffffffff16815260200190815260200160002060006101000a81548160ff021916908315150217905550610155565b600033905090565b60008060009054906101000a900473ffffffffffffffffffffffffffffffffffffffff169050816000806101000a81548173ffffffffffffffffffffffffffffffffffffffff021916908373ffffffffffffffffffffffffffffffffffffffff1602179055508173ffffffffffffffffffffffffffffffffffffffff168173ffffffffffffffffffffffffffffffffffffffff167f8be0079c531659141344cd1fd0a4f28419497f9722a3daafe3b4186f6b6457e060405160405180910390a35050565b610d86806101646000396000f3fe608060405234801561001057600080fd5b50600436106100885760003560e01c806375c6c6da1161005b57806375c6c6da146100ff5780638da5cb5b1461012f578063a22d6cc11461014d578063f2fde38b1461017d57610088565b80633b0f0f2f1461008d578063558a7297146100bd57806364fd079f146100d9578063715018a6146100f5575b600080fd5b6100a760048036038101906100a29190610858565b610199565b6040516100b49190610a0f565b60405180910390f35b6100d760048036038101906100d291906108bd565b610202565b005b6100f360048036038101906100ee91906108f9565b6102d9565b005b6100fd6104cb565b005b61011960048036038101906101149190610858565b610553565b6040516101269190610a0f565b60405180910390f35b610137610586565b6040516101449190610a0f565b60405180910390f35b61016760048036038101906101629190610881565b6105af565b6040516101749190610aaa565b60405180910390f35b61019760048036038101906101929190610858565b6105d4565b005b6000600260008373ffffffffffffffffffffffffffffffffffffffff1673ffffffffffffffffffffffffffffffffffffffff16815260200190815260200160002060009054906101000a900473ffffffffffffffffffffffffffffffffffffffff169050919050565b61020a6106cc565b73ffffffffffffffffffffffffffffffffffffffff16610228610586565b73ffffffffffffffffffffffffffffffffffffffff161461027e576040517f08c379a000000000000000000000000000000000000000000000000000000000815260040161027590610a4a565b60405180910390fd5b80600160008473ffffffffffffffffffffffffffffffffffffffff1673ffffffffffffffffffffffffffffffffffffffff16815260200190815260200160002060006101000a81548160ff0219169083151502179055505050565b600160003373ffffffffffffffffffffffffffffffffffffffff1673ffffffffffffffffffffffffffffffffffffffff16815260200190815260200160002060009054906101000a900460ff16610365576040517f08c379a000000000000000000000000000000000000000000000000000000000815260040161035c90610a6a565b60405180910390fd5b80518251146103a9576040517f08c379a00000000000000000000000000000000000000000000000000000000081526004016103a090610a8a565b60405180910390fd5b60005b82518110156104c6578181815181106103ee577f4e487b7100000000000000000000000000000000000000000000000000000000600052603260045260246000fd5b602002602001015160026000858481518110610433577f4e487b7100000000000000000000000000000000000000000000000000000000600052603260045260246000fd5b602002602001015173ffffffffffffffffffffffffffffffffffffffff1673ffffffffffffffffffffffffffffffffffffffff16815260200190815260200160002060006101000a81548173ffffffffffffffffffffffffffffffffffffffff021916908373ffffffffffffffffffffffffffffffffffffffff16021790555080806104be90610ba0565b9150506103ac565b505050565b6104d36106cc565b73ffffffffffffffffffffffffffffffffffffffff166104f1610586565b73ffffffffffffffffffffffffffffffffffffffff1614610547576040517f08c379a000000000000000000000000000000000000000000000000000000000815260040161053e90610a4a565b60405180910390fd5b61055160006106d4565b565b60026020528060005260406000206000915054906101000a900473ffffffffffffffffffffffffffffffffffffffff1681565b60008060009054906101000a900473ffffffffffffffffffffffffffffffffffffffff16905090565b6003602052816000526040600020602052806000526040600020600091509150505481565b6105dc6106cc565b73ffffffffffffffffffffffffffffffffffffffff166105fa610586565b73ffffffffffffffffffffffffffffffffffffffff1614610650576040517f08c379a000000000000000000000000000000000000000000000000000000000815260040161064790610a4a565b60405180910390fd5b600073ffffffffffffffffffffffffffffffffffffffff168173ffffffffffffffffffffffffffffffffffffffff1614156106c0576040517f08c379a00000000000000000000000000000000000000000000000000000000081526004016106b790610a2a565b60405180910390fd5b6106c9816106d4565b50565b600033905090565b60008060009054906101000a900473ffffffffffffffffffffffffffffffffffffffff169050816000806101000a81548173ffffffffffffffffffffffffffffffffffffffff021916908373ffffffffffffffffffffffffffffffffffffffff1602179055508173ffffffffffffffffffffffffffffffffffffffff168173ffffffffffffffffffffffffffffffffffffffff167f8be0079c531659141344cd1fd0a4f28419497f9722a3daafe3b4186f6b6457e060405160405180910390a35050565b60006107ab6107a684610aea565b610ac5565b905080838252602082019050828560208602820111156107ca57600080fd5b60005b858110156107fa57816107e08882610804565b8452602084019350602083019250506001810190506107cd565b5050509392505050565b60008135905061081381610d22565b92915050565b600082601f83011261082a57600080fd5b813561083a848260208601610798565b91505092915050565b60008135905061085281610d39565b92915050565b60006020828403121561086a57600080fd5b600061087884828501610804565b91505092915050565b6000806040838503121561089457600080fd5b60006108a285828601610804565b92505060206108b385828601610804565b9150509250929050565b600080604083850312156108d057600080fd5b60006108de85828601610804565b92505060206108ef85828601610843565b9150509250929050565b6000806040838503121561090c57600080fd5b600083013567ffffffffffffffff81111561092657600080fd5b61093285828601610819565b925050602083013567ffffffffffffffff81111561094f57600080fd5b61095b85828601610819565b9150509250929050565b61096e81610b27565b82525050565b6000610981602683610b16565b915061098c82610c58565b604082019050919050565b60006109a4602083610b16565b91506109af82610ca7565b602082019050919050565b60006109c7600d83610b16565b91506109d282610cd0565b602082019050919050565b60006109ea600e83610b16565b91506109f582610cf9565b602082019050919050565b610a0981610b65565b82525050565b6000602082019050610a246000830184610965565b92915050565b60006020820190508181036000830152610a4381610974565b9050919050565b60006020820190508181036000830152610a6381610997565b9050919050565b60006020820190508181036000830152610a83816109ba565b9050919050565b60006020820190508181036000830152610aa3816109dd565b9050919050565b6000602082019050610abf6000830184610a00565b92915050565b6000610acf610ae0565b9050610adb8282610b6f565b919050565b6000604051905090565b600067ffffffffffffffff821115610b0557610b04610c18565b5b602082029050602081019050919050565b600082825260208201905092915050565b6000610b3282610b45565b9050919050565b60008115159050919050565b600073ffffffffffffffffffffffffffffffffffffffff82169050919050565b6000819050919050565b610b7882610c47565b810181811067ffffffffffffffff82111715610b9757610b96610c18565b5b80604052505050565b6000610bab82610b65565b91507fffffffffffffffffffffffffffffffffffffffffffffffffffffffffffffffff821415610bde57610bdd610be9565b5b600182019050919050565b7f4e487b7100000000000000000000000000000000000000000000000000000000600052601160045260246000fd5b7f4e487b7100000000000000000000000000000000000000000000000000000000600052604160045260246000fd5b6000601f19601f8301169050919050565b7f4f776e61626c653a206e6577206f776e657220697320746865207a65726f206160008201527f6464726573730000000000000000000000000000000000000000000000000000602082015250565b7f4f776e61626c653a2063616c6c6572206973206e6f7420746865206f776e6572600082015250565b7f4f6e6c792d6f70657261746f7200000000000000000000000000000000000000600082015250565b7f496e76616c69642d6c656e677468000000000000000000000000000000000000600082015250565b610d2b81610b27565b8114610d3657600080fd5b50565b610d4281610b39565b8114610d4d57600080fd5b5056fea2646970667358221220226e2500c299b113337a0de19a4debf91b97a8b2a82b1e58bc86d268a74d396c64736f6c63430008040033",
  "linkReferences": {},
  "deployedLinkReferences": {}
}