{
  "_format": "hh-sol-artifact-1",
  "contractName": "OwnableDelegateProxy",
  "sourceName": "contracts/libs/OwnableDelegateProxy.sol",
  "abi": [
    {
      "inputs": [
        {
          "internalType": "address",
          "name": "owner",
          "type": "address"
        },
        {
          "internalType": "address",
          "name": "initialImplementation",
          "type": "address"
        },
        {
          "internalType": "bytes",
          "name": "callData",
          "type": "bytes"
        }
      ],
      "stateMutability": "nonpayable",
      "type": "constructor"
    },
    {
      "anonymous": false,
      "inputs": [
        {
          "indexed": false,
          "internalType": "address",
          "name": "previousOwner",
          "type": "address"
        },
        {
          "indexed": false,
          "internalType": "address",
          "name": "newOwner",
          "type": "address"
        }
      ],
      "name": "ProxyOwnershipTransferred",
      "type": "event"
    },
    {
      "anonymous": false,
      "inputs": [
        {
          "indexed": true,
          "internalType": "address",
          "name": "sender",
          "type": "address"
        },
        {
          "indexed": false,
          "internalType": "uint256",
          "name": "amount",
          "type": "uint256"
        }
      ],
      "name": "ReceivedEther",
      "type": "event"
    },
    {
      "anonymous": false,
      "inputs": [
        {
          "indexed": true,
          "internalType": "address",
          "name": "implementation",
          "type": "address"
        }
      ],
      "name": "Upgraded",
      "type": "event"
    },
    {
      "stateMutability": "payable",
      "type": "fallback"
    },
    {
      "inputs": [],
      "name": "implementation",
      "outputs": [
        {
          "internalType": "address",
          "name": "",
          "type": "address"
        }
      ],
      "stateMutability": "view",
      "type": "function"
    },
    {
      "inputs": [],
      "name": "proxyOwner",
      "outputs": [
        {
          "internalType": "address",
          "name": "",
          "type": "address"
        }
      ],
      "stateMutability": "view",
      "type": "function"
    },
    {
      "inputs": [],
      "name": "proxyType",
      "outputs": [
        {
          "internalType": "uint256",
          "name": "",
          "type": "uint256"
        }
      ],
      "stateMutability": "pure",
      "type": "function"
    },
    {
      "inputs": [
        {
          "internalType": "address",
          "name": "newOwner",
          "type": "address"
        }
      ],
      "name": "transferProxyOwnership",
      "outputs": [],
      "stateMutability": "nonpayable",
      "type": "function"
    },
    {
      "inputs": [
        {
          "internalType": "address",
          "name": "implementation",
          "type": "address"
        }
      ],
      "name": "upgradeTo",
      "outputs": [],
      "stateMutability": "nonpayable",
      "type": "function"
    },
    {
      "inputs": [
        {
          "internalType": "address",
          "name": "implementation",
          "type": "address"
        },
        {
          "internalType": "bytes",
          "name": "data",
          "type": "bytes"
        }
      ],
      "name": "upgradeToAndCall",
      "outputs": [],
      "stateMutability": "payable",
      "type": "function"
    },
    {
      "inputs": [],
      "name": "upgradeabilityOwner",
      "outputs": [
        {
          "internalType": "address",
          "name": "",
          "type": "address"
        }
      ],
      "stateMutability": "view",
      "type": "function"
    },
    {
      "stateMutability": "payable",
      "type": "receive"
    }
  ],
  "bytecode": "0x60806040523480156200001157600080fd5b5060405162000ddf38038062000ddf83398181016040528101906200003791906200028a565b6200004883620000dd60201b60201c565b62000059826200012160201b60201c565b60008273ffffffffffffffffffffffffffffffffffffffff168260405162000082919062000330565b600060405180830381855af49150503d8060008114620000bf576040519150601f19603f3d011682016040523d82523d6000602084013e620000c4565b606091505b5050905080620000d357600080fd5b50505050620004b8565b80600160006101000a81548173ffffffffffffffffffffffffffffffffffffffff021916908373ffffffffffffffffffffffffffffffffffffffff16021790555050565b8073ffffffffffffffffffffffffffffffffffffffff1660008054906101000a900473ffffffffffffffffffffffffffffffffffffffff1673ffffffffffffffffffffffffffffffffffffffff1614156200017b57600080fd5b806000806101000a81548173ffffffffffffffffffffffffffffffffffffffff021916908373ffffffffffffffffffffffffffffffffffffffff1602179055508073ffffffffffffffffffffffffffffffffffffffff167fbc7cd75a20ee27fd9adebab32041f755214dbc6bffa90cc0225b39da2e5c2d3b60405160405180910390a250565b600062000218620002128462000372565b62000349565b9050828152602081018484840111156200023157600080fd5b6200023e848285620003f2565b509392505050565b60008151905062000257816200049e565b92915050565b600082601f8301126200026f57600080fd5b81516200028184826020860162000201565b91505092915050565b600080600060608486031215620002a057600080fd5b6000620002b08682870162000246565b9350506020620002c38682870162000246565b925050604084015167ffffffffffffffff811115620002e157600080fd5b620002ef868287016200025d565b9150509250925092565b60006200030682620003a8565b620003128185620003b3565b935062000324818560208601620003f2565b80840191505092915050565b60006200033e8284620002f9565b915081905092915050565b60006200035562000368565b905062000363828262000428565b919050565b6000604051905090565b600067ffffffffffffffff82111562000390576200038f6200045e565b5b6200039b826200048d565b9050602081019050919050565b600081519050919050565b600081905092915050565b6000620003cb82620003d2565b9050919050565b600073ffffffffffffffffffffffffffffffffffffffff82169050919050565b60005b8381101562000412578082015181840152602081019050620003f5565b8381111562000422576000848401525b50505050565b62000433826200048d565b810181811067ffffffffffffffff821117156200045557620004546200045e565b5b80604052505050565b7f4e487b7100000000000000000000000000000000000000000000000000000000600052604160045260246000fd5b6000601f19601f8301169050919050565b620004a981620003be565b8114620004b557600080fd5b50565b61091780620004c86000396000f3fe6080604052600436106100745760003560e01c80634f1ef2861161004e5780634f1ef286146101b55780635c60da1b146101d15780636fde8202146101fc578063f1739cae14610227576100c9565b8063025313a2146101365780633659cfe6146101615780634555d5c91461018a576100c9565b366100c9573373ffffffffffffffffffffffffffffffffffffffff167fa419615bc8fda4c87663805ee2a3597a6d71c1d476911d9892f340d965bc7bf1346040516100bf9190610754565b60405180910390a2005b60006100d3610250565b9050600073ffffffffffffffffffffffffffffffffffffffff168173ffffffffffffffffffffffffffffffffffffffff16141561010f57600080fd5b60405136600082376000803683855af43d806000843e8160008114610132578184f35b8184fd5b34801561014257600080fd5b5061014b610279565b6040516101589190610710565b60405180910390f35b34801561016d57600080fd5b506101886004803603810190610183919061062d565b610288565b005b34801561019657600080fd5b5061019f6102d3565b6040516101ac9190610754565b60405180910390f35b6101cf60048036038101906101ca9190610656565b6102dc565b005b3480156101dd57600080fd5b506101e6610250565b6040516101f39190610710565b60405180910390f35b34801561020857600080fd5b5061021161039e565b60405161021e9190610710565b60405180910390f35b34801561023357600080fd5b5061024e6004803603810190610249919061062d565b6103c8565b005b60008060009054906101000a900473ffffffffffffffffffffffffffffffffffffffff16905090565b600061028361039e565b905090565b610290610279565b73ffffffffffffffffffffffffffffffffffffffff163373ffffffffffffffffffffffffffffffffffffffff16146102c757600080fd5b6102d08161048d565b50565b60006002905090565b6102e4610279565b73ffffffffffffffffffffffffffffffffffffffff163373ffffffffffffffffffffffffffffffffffffffff161461031b57600080fd5b61032482610288565b60003073ffffffffffffffffffffffffffffffffffffffff168260405161034b91906106f9565b600060405180830381855af49150503d8060008114610386576040519150601f19603f3d011682016040523d82523d6000602084013e61038b565b606091505b505090508061039957600080fd5b505050565b6000600160009054906101000a900473ffffffffffffffffffffffffffffffffffffffff16905090565b6103d0610279565b73ffffffffffffffffffffffffffffffffffffffff163373ffffffffffffffffffffffffffffffffffffffff161461040757600080fd5b600073ffffffffffffffffffffffffffffffffffffffff168173ffffffffffffffffffffffffffffffffffffffff16141561044157600080fd5b7f5a3e66efaa1e445ebd894728a69d6959842ea1e97bd79b892797106e270efcd961046a610279565b8260405161047992919061072b565b60405180910390a161048a8161056c565b50565b8073ffffffffffffffffffffffffffffffffffffffff1660008054906101000a900473ffffffffffffffffffffffffffffffffffffffff1673ffffffffffffffffffffffffffffffffffffffff1614156104e657600080fd5b806000806101000a81548173ffffffffffffffffffffffffffffffffffffffff021916908373ffffffffffffffffffffffffffffffffffffffff1602179055508073ffffffffffffffffffffffffffffffffffffffff167fbc7cd75a20ee27fd9adebab32041f755214dbc6bffa90cc0225b39da2e5c2d3b60405160405180910390a250565b80600160006101000a81548173ffffffffffffffffffffffffffffffffffffffff021916908373ffffffffffffffffffffffffffffffffffffffff16021790555050565b60006105c36105be84610794565b61076f565b9050828152602081018484840111156105db57600080fd5b6105e6848285610817565b509392505050565b6000813590506105fd816108ca565b92915050565b600082601f83011261061457600080fd5b81356106248482602086016105b0565b91505092915050565b60006020828403121561063f57600080fd5b600061064d848285016105ee565b91505092915050565b6000806040838503121561066957600080fd5b6000610677858286016105ee565b925050602083013567ffffffffffffffff81111561069457600080fd5b6106a085828601610603565b9150509250929050565b6106b3816107db565b82525050565b60006106c4826107c5565b6106ce81856107d0565b93506106de818560208601610826565b80840191505092915050565b6106f38161080d565b82525050565b600061070582846106b9565b915081905092915050565b600060208201905061072560008301846106aa565b92915050565b600060408201905061074060008301856106aa565b61074d60208301846106aa565b9392505050565b600060208201905061076960008301846106ea565b92915050565b600061077961078a565b90506107858282610859565b919050565b6000604051905090565b600067ffffffffffffffff8211156107af576107ae61088a565b5b6107b8826108b9565b9050602081019050919050565b600081519050919050565b600081905092915050565b60006107e6826107ed565b9050919050565b600073ffffffffffffffffffffffffffffffffffffffff82169050919050565b6000819050919050565b82818337600083830152505050565b60005b83811015610844578082015181840152602081019050610829565b83811115610853576000848401525b50505050565b610862826108b9565b810181811067ffffffffffffffff821117156108815761088061088a565b5b80604052505050565b7f4e487b7100000000000000000000000000000000000000000000000000000000600052604160045260246000fd5b6000601f19601f8301169050919050565b6108d3816107db565b81146108de57600080fd5b5056fea264697066735822122096ab33b94a24951b067a6771f77a685d41d324b7012644994c78fb0d16eabdfb64736f6c63430008040033",
  "linkReferences": {},
  "deployedLinkReferences": {}
}